{
    "callcallcallcode_001" : {
        "_info" : {
            "comment" : "",
            "filling-rpc-server" : "evm version 1.11.5-stable-a38f4108",
            "filling-tool-version" : "retesteth-0.3.0-shanghai+commit.e98b5e62.Linux.g++",
            "generatedTestHash" : "2e357f8c8af1f65819dbd4aa71da2dd5ac354a2b805abc316c710144134757fd",
            "lllcversion" : "Version: 0.5.14-develop.2023.8.28+commit.b2b86751.Linux.g++",
            "solidity" : "Version: 0.8.17+commit.8df45f5f.Linux.g++",
            "source" : "src/GeneralStateTestsFiller/stCallDelegateCodesHomestead/callcallcallcode_001Filler.json",
            "sourceHash" : "1475422c2304fdbd477a9859edf12173a70d7b9f8698daf3974e48b739d829b6"
        },
        "env" : {
            "currentBaseFee" : "0x0a",
            "currentCoinbase" : "0x2adc25665018aa1fe0e6bc666dac8fc2697ff9ba",
            "currentDifficulty" : "0x020000",
            "currentGasLimit" : "0x01c9c380",
            "currentNumber" : "0x01",
            "currentRandom" : "0x0000000000000000000000000000000000000000000000000000000000020000",
            "currentTimestamp" : "0x03e8",
            "previousHash" : "0x5e20a0453cecd065ea59c37ac63e079ee08998b6045136a8ce6635c7912ec0b6"
        },
        "post" : {
            "Berlin" : [
                {
                    "hash" : "0xcba5c0f58d9a3195ff5dd12dc367715dc33313c0f9cc7eb151ec1a9cdd26219b",
                    "indexes" : {
                        "data" : 0,
                        "gas" : 0,
                        "value" : 0
                    },
                    "logs" : "0x1dcc4de8dec75d7aab85b567b6ccd41ad312451b948a7413f0a142fd40d49347",
                    "postState" : {
                        "0x1000000000000000000000000000000000000000" : {
                            "balance" : "0x0de0b6b3a763ffff",
                            "code" : "0x6040600060406000600173100000000000000000000000000000000000000162055730f160005500",
                            "nonce" : "0x00",
                            "storage" : {
                                "0x00" : "0x01"
                            }
                        },
                        "0x1000000000000000000000000000000000000001" : {
                            "balance" : "0x0de0b6b3a763ffff",
                            "code" : "0x60406000604060006002731000000000000000000000000000000000000002620493e0f160015500",
                            "nonce" : "0x00",
                            "storage" : {
                                "0x01" : "0x01"
                            }
                        },
                        "0x1000000000000000000000000000000000000002" : {
                            "balance" : "0x0de0b6b3a7640002",
                            "code" : "0x60406000604060007310000000000000000000000000000000000000036203d090f460025500",
                            "nonce" : "0x00",
                            "storage" : {
                                "0x014a" : "0x1000000000000000000000000000000000000002",
                                "0x014c" : "0xa94f5374fce5edbc8e2a8697c15331677e6ebf0b",
                                "0x0150" : "0x40",
                                "0x0152" : "0x27",
                                "0x0154" : "0x0a",
                                "0x02" : "0x01",
                                "0x03" : "0x01",
                                "0x04" : "0x1000000000000000000000000000000000000001",
                                "0x07" : "0x02"
                            }
                        },
                        "0x1000000000000000000000000000000000000003" : {
                            "balance" : "0x00",
                            "code" : "0x600160035533600455346007553061014a553261014c55366101505538610152553a6101545500",
                            "nonce" : "0x00",
                            "storage" : {
                            }
                        },
                        "0x2adc25665018aa1fe0e6bc666dac8fc2697ff9ba" : {
                            "balance" : "0x2b8d88",
                            "code" : "0x",
                            "nonce" : "0x00",
                            "storage" : {
                            }
                        },
                        "0xa94f5374fce5edbc8e2a8697c15331677e6ebf0b" : {
                            "balance" : "0x0de0b6b3a7387278",
                            "code" : "0x",
                            "nonce" : "0x01",
                            "storage" : {
                            }
                        }
                    },
                    "txbytes" : "0xf860800a832dc6c094100000000000000000000000000000000000000080801ba07763c200d265ba0050627c8c7b4c19bf118b3581a3de22dbcebdfcb6e8565790a0514908f638ddc4b1402230e34692f43bb92713ff2cad3627814cf6fb19ac2e43"
                }
            ],
            "Istanbul" : [
                {
                    "hash" : "0x09a314e394441cf59f301d4dca6995a3d9c523f23b55353f7b709000789d2b29",
                    "indexes" : {
                        "data" : 0,
                        "gas" : 0,
                        "value" : 0
                    },
                    "logs" : "0x1dcc4de8dec75d7aab85b567b6ccd41ad312451b948a7413f0a142fd40d49347",
                    "postState" : {
                        "0x1000000000000000000000000000000000000000" : {
                            "balance" : "0x0de0b6b3a763ffff",
                            "code" : "0x6040600060406000600173100000000000000000000000000000000000000162055730f160005500",
                            "nonce" : "0x00",
                            "storage" : {
                                "0x00" : "0x01"
                            }
                        },
                        "0x1000000000000000000000000000000000000001" : {
                            "balance" : "0x0de0b6b3a763ffff",
                            "code" : "0x60406000604060006002731000000000000000000000000000000000000002620493e0f160015500",
                            "nonce" : "0x00",
                            "storage" : {
                                "0x01" : "0x01"
                            }
                        },
                        "0x1000000000000000000000000000000000000002" : {
                            "balance" : "0x0de0b6b3a7640002",
                            "code" : "0x60406000604060007310000000000000000000000000000000000000036203d090f460025500",
                            "nonce" : "0x00",
                            "storage" : {
                                "0x014a" : "0x1000000000000000000000000000000000000002",
                                "0x014c" : "0xa94f5374fce5edbc8e2a8697c15331677e6ebf0b",
                                "0x0150" : "0x40",
                                "0x0152" : "0x27",
                                "0x0154" : "0x0a",
                                "0x02" : "0x01",
                                "0x03" : "0x01",
                                "0x04" : "0x1000000000000000000000000000000000000001",
                                "0x07" : "0x02"
                            }
                        },
                        "0x1000000000000000000000000000000000000003" : {
                            "balance" : "0x00",
                            "code" : "0x600160035533600455346007553061014a553261014c55366101505538610152553a6101545500",
                            "nonce" : "0x00",
                            "storage" : {
                            }
                        },
                        "0x2adc25665018aa1fe0e6bc666dac8fc2697ff9ba" : {
                            "balance" : "0x272888",
                            "code" : "0x",
                            "nonce" : "0x00",
                            "storage" : {
                            }
                        },
                        "0xa94f5374fce5edbc8e2a8697c15331677e6ebf0b" : {
                            "balance" : "0x0de0b6b3a73cd778",
                            "code" : "0x",
                            "nonce" : "0x01",
                            "storage" : {
                            }
                        }
                    },
                    "txbytes" : "0xf860800a832dc6c094100000000000000000000000000000000000000080801ba07763c200d265ba0050627c8c7b4c19bf118b3581a3de22dbcebdfcb6e8565790a0514908f638ddc4b1402230e34692f43bb92713ff2cad3627814cf6fb19ac2e43"
                }
            ],
            "London" : [
                {
                    "hash" : "0x2d53f39bb8aa637b9bdb0e94b6accc6868f244f21aada8745d0d864941f959c7",
                    "indexes" : {
                        "data" : 0,
                        "gas" : 0,
                        "value" : 0
                    },
                    "logs" : "0x1dcc4de8dec75d7aab85b567b6ccd41ad312451b948a7413f0a142fd40d49347",
                    "postState" : {
                        "0x1000000000000000000000000000000000000000" : {
                            "balance" : "0x0de0b6b3a763ffff",
                            "code" : "0x6040600060406000600173100000000000000000000000000000000000000162055730f160005500",
                            "nonce" : "0x00",
                            "storage" : {
                                "0x00" : "0x01"
                            }
                        },
                        "0x1000000000000000000000000000000000000001" : {
                            "balance" : "0x0de0b6b3a763ffff",
                            "code" : "0x60406000604060006002731000000000000000000000000000000000000002620493e0f160015500",
                            "nonce" : "0x00",
                            "storage" : {
                                "0x01" : "0x01"
                            }
                        },
                        "0x1000000000000000000000000000000000000002" : {
                            "balance" : "0x0de0b6b3a7640002",
                            "code" : "0x60406000604060007310000000000000000000000000000000000000036203d090f460025500",
                            "nonce" : "0x00",
                            "storage" : {
                                "0x014a" : "0x1000000000000000000000000000000000000002",
                                "0x014c" : "0xa94f5374fce5edbc8e2a8697c15331677e6ebf0b",
                                "0x0150" : "0x40",
                                "0x0152" : "0x27",
                                "0x0154" : "0x0a",
                                "0x02" : "0x01",
                                "0x03" : "0x01",
                                "0x04" : "0x1000000000000000000000000000000000000001",
                                "0x07" : "0x02"
                            }
                        },
                        "0x1000000000000000000000000000000000000003" : {
                            "balance" : "0x00",
                            "code" : "0x600160035533600455346007553061014a553261014c55366101505538610152553a6101545500",
                            "nonce" : "0x00",
                            "storage" : {
                            }
                        },
                        "0xa94f5374fce5edbc8e2a8697c15331677e6ebf0b" : {
                            "balance" : "0x0de0b6b3a7387278",
                            "code" : "0x",
                            "nonce" : "0x01",
                            "storage" : {
                            }
                        }
                    },
                    "txbytes" : "0xf860800a832dc6c094100000000000000000000000000000000000000080801ba07763c200d265ba0050627c8c7b4c19bf118b3581a3de22dbcebdfcb6e8565790a0514908f638ddc4b1402230e34692f43bb92713ff2cad3627814cf6fb19ac2e43"
                }
            ],
            "Merge" : [
                {
                    "hash" : "0x2d53f39bb8aa637b9bdb0e94b6accc6868f244f21aada8745d0d864941f959c7",
                    "indexes" : {
                        "data" : 0,
                        "gas" : 0,
                        "value" : 0
                    },
                    "logs" : "0x1dcc4de8dec75d7aab85b567b6ccd41ad312451b948a7413f0a142fd40d49347",
                    "postState" : {
                        "0x1000000000000000000000000000000000000000" : {
                            "balance" : "0x0de0b6b3a763ffff",
                            "code" : "0x6040600060406000600173100000000000000000000000000000000000000162055730f160005500",
                            "nonce" : "0x00",
                            "storage" : {
                                "0x00" : "0x01"
                            }
                        },
                        "0x1000000000000000000000000000000000000001" : {
                            "balance" : "0x0de0b6b3a763ffff",
                            "code" : "0x60406000604060006002731000000000000000000000000000000000000002620493e0f160015500",
                            "nonce" : "0x00",
                            "storage" : {
                                "0x01" : "0x01"
                            }
                        },
                        "0x1000000000000000000000000000000000000002" : {
                            "balance" : "0x0de0b6b3a7640002",
                            "code" : "0x60406000604060007310000000000000000000000000000000000000036203d090f460025500",
                            "nonce" : "0x00",
                            "storage" : {
                                "0x014a" : "0x1000000000000000000000000000000000000002",
                                "0x014c" : "0xa94f5374fce5edbc8e2a8697c15331677e6ebf0b",
                                "0x0150" : "0x40",
                                "0x0152" : "0x27",
                                "0x0154" : "0x0a",
                                "0x02" : "0x01",
                                "0x03" : "0x01",
                                "0x04" : "0x1000000000000000000000000000000000000001",
                                "0x07" : "0x02"
                            }
                        },
                        "0x1000000000000000000000000000000000000003" : {
                            "balance" : "0x00",
                            "code" : "0x600160035533600455346007553061014a553261014c55366101505538610152553a6101545500",
                            "nonce" : "0x00",
                            "storage" : {
                            }
                        },
                        "0xa94f5374fce5edbc8e2a8697c15331677e6ebf0b" : {
                            "balance" : "0x0de0b6b3a7387278",
                            "code" : "0x",
                            "nonce" : "0x01",
                            "storage" : {
                            }
                        }
                    },
                    "txbytes" : "0xf860800a832dc6c094100000000000000000000000000000000000000080801ba07763c200d265ba0050627c8c7b4c19bf118b3581a3de22dbcebdfcb6e8565790a0514908f638ddc4b1402230e34692f43bb92713ff2cad3627814cf6fb19ac2e43"
                }
            ],
            "Shanghai" : [
                {
                    "hash" : "0x2d53f39bb8aa637b9bdb0e94b6accc6868f244f21aada8745d0d864941f959c7",
                    "indexes" : {
                        "data" : 0,
                        "gas" : 0,
                        "value" : 0
                    },
                    "logs" : "0x1dcc4de8dec75d7aab85b567b6ccd41ad312451b948a7413f0a142fd40d49347",
                    "postState" : {
                        "0x1000000000000000000000000000000000000000" : {
                            "balance" : "0x0de0b6b3a763ffff",
                            "code" : "0x6040600060406000600173100000000000000000000000000000000000000162055730f160005500",
                            "nonce" : "0x00",
                            "storage" : {
                                "0x00" : "0x01"
                            }
                        },
                        "0x1000000000000000000000000000000000000001" : {
                            "balance" : "0x0de0b6b3a763ffff",
                            "code" : "0x60406000604060006002731000000000000000000000000000000000000002620493e0f160015500",
                            "nonce" : "0x00",
                            "storage" : {
                                "0x01" : "0x01"
                            }
                        },
                        "0x1000000000000000000000000000000000000002" : {
                            "balance" : "0x0de0b6b3a7640002",
                            "code" : "0x60406000604060007310000000000000000000000000000000000000036203d090f460025500",
                            "nonce" : "0x00",
                            "storage" : {
                                "0x014a" : "0x1000000000000000000000000000000000000002",
                                "0x014c" : "0xa94f5374fce5edbc8e2a8697c15331677e6ebf0b",
                                "0x0150" : "0x40",
                                "0x0152" : "0x27",
                                "0x0154" : "0x0a",
                                "0x02" : "0x01",
                                "0x03" : "0x01",
                                "0x04" : "0x1000000000000000000000000000000000000001",
                                "0x07" : "0x02"
                            }
                        },
                        "0x1000000000000000000000000000000000000003" : {
                            "balance" : "0x00",
                            "code" : "0x600160035533600455346007553061014a553261014c55366101505538610152553a6101545500",
                            "nonce" : "0x00",
                            "storage" : {
                            }
                        },
                        "0xa94f5374fce5edbc8e2a8697c15331677e6ebf0b" : {
                            "balance" : "0x0de0b6b3a7387278",
                            "code" : "0x",
                            "nonce" : "0x01",
                            "storage" : {
                            }
                        }
                    },
                    "txbytes" : "0xf860800a832dc6c094100000000000000000000000000000000000000080801ba07763c200d265ba0050627c8c7b4c19bf118b3581a3de22dbcebdfcb6e8565790a0514908f638ddc4b1402230e34692f43bb92713ff2cad3627814cf6fb19ac2e43"
                }
            ]
        },
        "pre" : {
            "0x1000000000000000000000000000000000000000" : {
                "balance" : "0x0de0b6b3a7640000",
                "code" : "0x6040600060406000600173100000000000000000000000000000000000000162055730f160005500",
                "nonce" : "0x00",
                "storage" : {
                }
            },
            "0x1000000000000000000000000000000000000001" : {
                "balance" : "0x0de0b6b3a7640000",
                "code" : "0x60406000604060006002731000000000000000000000000000000000000002620493e0f160015500",
                "nonce" : "0x00",
                "storage" : {
                }
            },
            "0x1000000000000000000000000000000000000002" : {
                "balance" : "0x0de0b6b3a7640000",
                "code" : "0x60406000604060007310000000000000000000000000000000000000036203d090f460025500",
                "nonce" : "0x00",
                "storage" : {
                }
            },
            "0x1000000000000000000000000000000000000003" : {
                "balance" : "0x00",
                "code" : "0x600160035533600455346007553061014a553261014c55366101505538610152553a6101545500",
                "nonce" : "0x00",
                "storage" : {
                }
            },
            "0xa94f5374fce5edbc8e2a8697c15331677e6ebf0b" : {
                "balance" : "0x0de0b6b3a7640000",
                "code" : "0x",
                "nonce" : "0x00",
                "storage" : {
                }
            }
        },
        "transaction" : {
            "data" : [
                "0x"
            ],
            "gasLimit" : [
                "0x2dc6c0"
            ],
            "gasPrice" : "0x0a",
            "nonce" : "0x00",
            "secretKey" : "0x45a915e4d060149eb4365960e6a7a45f334393093061116b197e3240065ff2d8",
            "sender" : "0xa94f5374fce5edbc8e2a8697c15331677e6ebf0b",
            "to" : "0x1000000000000000000000000000000000000000",
            "value" : [
                "0x00"
            ]
        }
    }
}