{
    "callcodecallcode_11" : {
        "_info" : {
            "comment" : "",
            "filling-rpc-server" : "evm version 1.11.5-stable-a38f4108",
            "filling-tool-version" : "retesteth-0.3.0-shanghai+commit.e98b5e62.Linux.g++",
            "generatedTestHash" : "d00f795011f9bae411ce3010f32e9abbed899b65103541ea42ae2ee01ccb34d2",
            "lllcversion" : "Version: 0.5.14-develop.2023.8.28+commit.b2b86751.Linux.g++",
            "solidity" : "Version: 0.8.17+commit.8df45f5f.Linux.g++",
            "source" : "src/GeneralStateTestsFiller/stCallDelegateCodesHomestead/callcodecallcode_11Filler.json",
            "sourceHash" : "93e0bf641f47365ef9adcfe733963a6023525642d5d17c8c32f17e7ea2fe7d44"
        },
        "env" : {
            "currentBaseFee" : "0x0a",
            "currentCoinbase" : "0x2adc25665018aa1fe0e6bc666dac8fc2697ff9ba",
            "currentDifficulty" : "0x020000",
            "currentGasLimit" : "0x01c9c380",
            "currentNumber" : "0x01",
            "currentRandom" : "0x0000000000000000000000000000000000000000000000000000000000020000",
            "currentTimestamp" : "0x03e8",
            "previousHash" : "0x5e20a0453cecd065ea59c37ac63e079ee08998b6045136a8ce6635c7912ec0b6"
        },
        "post" : {
            "Berlin" : [
                {
                    "hash" : "0x138b5485c011e776cac4b7b37233f11f0c827048737470c60123fe42506ac484",
                    "indexes" : {
                        "data" : 0,
                        "gas" : 0,
                        "value" : 0
                    },
                    "logs" : "0x1dcc4de8dec75d7aab85b567b6ccd41ad312451b948a7413f0a142fd40d49347",
                    "postState" : {
                        "0x1000000000000000000000000000000000000000" : {
                            "balance" : "0x0de0b6b3a7640000",
                            "code" : "0x604060006040600073100000000000000000000000000000000000000162055730f460005500",
                            "nonce" : "0x00",
                            "storage" : {
                                "0x00" : "0x01",
                                "0x01" : "0x01",
                                "0x02" : "0x01",
                                "0x04" : "0xa94f5374fce5edbc8e2a8697c15331677e6ebf0b",
                                "0xe6" : "0x1000000000000000000000000000000000000000",
                                "0xe8" : "0xa94f5374fce5edbc8e2a8697c15331677e6ebf0b",
                                "0xec" : "0x40",
                                "0xee" : "0x22",
                                "0xf0" : "0x0a"
                            }
                        },
                        "0x1000000000000000000000000000000000000001" : {
                            "balance" : "0x00",
                            "code" : "0x60406000604060007310000000000000000000000000000000000000026203d090f460015500",
                            "nonce" : "0x00",
                            "storage" : {
                            }
                        },
                        "0x1000000000000000000000000000000000000002" : {
                            "balance" : "0x00",
                            "code" : "0x600160025533600455346007553060e6553260e8553660ec553860ee553a60f05500",
                            "nonce" : "0x00",
                            "storage" : {
                            }
                        },
                        "0x2adc25665018aa1fe0e6bc666dac8fc2697ff9ba" : {
                            "balance" : "0x22b29e",
                            "code" : "0x",
                            "nonce" : "0x00",
                            "storage" : {
                            }
                        },
                        "0xa94f5374fce5edbc8e2a8697c15331677e6ebf0b" : {
                            "balance" : "0x0de0b6b3a7414d62",
                            "code" : "0x",
                            "nonce" : "0x01",
                            "storage" : {
                            }
                        }
                    },
                    "txbytes" : "0xf860800a832dc6c094100000000000000000000000000000000000000080801ba07763c200d265ba0050627c8c7b4c19bf118b3581a3de22dbcebdfcb6e8565790a0514908f638ddc4b1402230e34692f43bb92713ff2cad3627814cf6fb19ac2e43"
                }
            ],
            "Istanbul" : [
                {
                    "hash" : "0x4ca9ccaa63d3d0c59236098967d036dd3c93ca911722b5a6809220de5b52b4e5",
                    "indexes" : {
                        "data" : 0,
                        "gas" : 0,
                        "value" : 0
                    },
                    "logs" : "0x1dcc4de8dec75d7aab85b567b6ccd41ad312451b948a7413f0a142fd40d49347",
                    "postState" : {
                        "0x1000000000000000000000000000000000000000" : {
                            "balance" : "0x0de0b6b3a7640000",
                            "code" : "0x604060006040600073100000000000000000000000000000000000000162055730f460005500",
                            "nonce" : "0x00",
                            "storage" : {
                                "0x00" : "0x01",
                                "0x01" : "0x01",
                                "0x02" : "0x01",
                                "0x04" : "0xa94f5374fce5edbc8e2a8697c15331677e6ebf0b",
                                "0xe6" : "0x1000000000000000000000000000000000000000",
                                "0xe8" : "0xa94f5374fce5edbc8e2a8697c15331677e6ebf0b",
                                "0xec" : "0x40",
                                "0xee" : "0x22",
                                "0xf0" : "0x0a"
                            }
                        },
                        "0x1000000000000000000000000000000000000001" : {
                            "balance" : "0x00",
                            "code" : "0x60406000604060007310000000000000000000000000000000000000026203d090f460015500",
                            "nonce" : "0x00",
                            "storage" : {
                            }
                        },
                        "0x1000000000000000000000000000000000000002" : {
                            "balance" : "0x00",
                            "code" : "0x600160025533600455346007553060e6553260e8553660ec553860ee553a60f05500",
                            "nonce" : "0x00",
                            "storage" : {
                            }
                        },
                        "0x2adc25665018aa1fe0e6bc666dac8fc2697ff9ba" : {
                            "balance" : "0x1f0536",
                            "code" : "0x",
                            "nonce" : "0x00",
                            "storage" : {
                            }
                        },
                        "0xa94f5374fce5edbc8e2a8697c15331677e6ebf0b" : {
                            "balance" : "0x0de0b6b3a744faca",
                            "code" : "0x",
                            "nonce" : "0x01",
                            "storage" : {
                            }
                        }
                    },
                    "txbytes" : "0xf860800a832dc6c094100000000000000000000000000000000000000080801ba07763c200d265ba0050627c8c7b4c19bf118b3581a3de22dbcebdfcb6e8565790a0514908f638ddc4b1402230e34692f43bb92713ff2cad3627814cf6fb19ac2e43"
                }
            ],
            "London" : [
                {
                    "hash" : "0xdcf9166e62816a9b3ba276d78e8d7055059d4c86f6b05479ef2f3348b2c3c1bc",
                    "indexes" : {
                        "data" : 0,
                        "gas" : 0,
                        "value" : 0
                    },
                    "logs" : "0x1dcc4de8dec75d7aab85b567b6ccd41ad312451b948a7413f0a142fd40d49347",
                    "postState" : {
                        "0x1000000000000000000000000000000000000000" : {
                            "balance" : "0x0de0b6b3a7640000",
                            "code" : "0x604060006040600073100000000000000000000000000000000000000162055730f460005500",
                            "nonce" : "0x00",
                            "storage" : {
                                "0x00" : "0x01",
                                "0x01" : "0x01",
                                "0x02" : "0x01",
                                "0x04" : "0xa94f5374fce5edbc8e2a8697c15331677e6ebf0b",
                                "0xe6" : "0x1000000000000000000000000000000000000000",
                                "0xe8" : "0xa94f5374fce5edbc8e2a8697c15331677e6ebf0b",
                                "0xec" : "0x40",
                                "0xee" : "0x22",
                                "0xf0" : "0x0a"
                            }
                        },
                        "0x1000000000000000000000000000000000000001" : {
                            "balance" : "0x00",
                            "code" : "0x60406000604060007310000000000000000000000000000000000000026203d090f460015500",
                            "nonce" : "0x00",
                            "storage" : {
                            }
                        },
                        "0x1000000000000000000000000000000000000002" : {
                            "balance" : "0x00",
                            "code" : "0x600160025533600455346007553060e6553260e8553660ec553860ee553a60f05500",
                            "nonce" : "0x00",
                            "storage" : {
                            }
                        },
                        "0xa94f5374fce5edbc8e2a8697c15331677e6ebf0b" : {
                            "balance" : "0x0de0b6b3a7414d62",
                            "code" : "0x",
                            "nonce" : "0x01",
                            "storage" : {
                            }
                        }
                    },
                    "txbytes" : "0xf860800a832dc6c094100000000000000000000000000000000000000080801ba07763c200d265ba0050627c8c7b4c19bf118b3581a3de22dbcebdfcb6e8565790a0514908f638ddc4b1402230e34692f43bb92713ff2cad3627814cf6fb19ac2e43"
                }
            ],
            "Merge" : [
                {
                    "hash" : "0xdcf9166e62816a9b3ba276d78e8d7055059d4c86f6b05479ef2f3348b2c3c1bc",
                    "indexes" : {
                        "data" : 0,
                        "gas" : 0,
                        "value" : 0
                    },
                    "logs" : "0x1dcc4de8dec75d7aab85b567b6ccd41ad312451b948a7413f0a142fd40d49347",
                    "postState" : {
                        "0x1000000000000000000000000000000000000000" : {
                            "balance" : "0x0de0b6b3a7640000",
                            "code" : "0x604060006040600073100000000000000000000000000000000000000162055730f460005500",
                            "nonce" : "0x00",
                            "storage" : {
                                "0x00" : "0x01",
                                "0x01" : "0x01",
                                "0x02" : "0x01",
                                "0x04" : "0xa94f5374fce5edbc8e2a8697c15331677e6ebf0b",
                                "0xe6" : "0x1000000000000000000000000000000000000000",
                                "0xe8" : "0xa94f5374fce5edbc8e2a8697c15331677e6ebf0b",
                                "0xec" : "0x40",
                                "0xee" : "0x22",
                                "0xf0" : "0x0a"
                            }
                        },
                        "0x1000000000000000000000000000000000000001" : {
                            "balance" : "0x00",
                            "code" : "0x60406000604060007310000000000000000000000000000000000000026203d090f460015500",
                            "nonce" : "0x00",
                            "storage" : {
                            }
                        },
                        "0x1000000000000000000000000000000000000002" : {
                            "balance" : "0x00",
                            "code" : "0x600160025533600455346007553060e6553260e8553660ec553860ee553a60f05500",
                            "nonce" : "0x00",
                            "storage" : {
                            }
                        },
                        "0xa94f5374fce5edbc8e2a8697c15331677e6ebf0b" : {
                            "balance" : "0x0de0b6b3a7414d62",
                            "code" : "0x",
                            "nonce" : "0x01",
                            "storage" : {
                            }
                        }
                    },
                    "txbytes" : "0xf860800a832dc6c094100000000000000000000000000000000000000080801ba07763c200d265ba0050627c8c7b4c19bf118b3581a3de22dbcebdfcb6e8565790a0514908f638ddc4b1402230e34692f43bb92713ff2cad3627814cf6fb19ac2e43"
                }
            ],
            "Shanghai" : [
                {
                    "hash" : "0xdcf9166e62816a9b3ba276d78e8d7055059d4c86f6b05479ef2f3348b2c3c1bc",
                    "indexes" : {
                        "data" : 0,
                        "gas" : 0,
                        "value" : 0
                    },
                    "logs" : "0x1dcc4de8dec75d7aab85b567b6ccd41ad312451b948a7413f0a142fd40d49347",
                    "postState" : {
                        "0x1000000000000000000000000000000000000000" : {
                            "balance" : "0x0de0b6b3a7640000",
                            "code" : "0x604060006040600073100000000000000000000000000000000000000162055730f460005500",
                            "nonce" : "0x00",
                            "storage" : {
                                "0x00" : "0x01",
                                "0x01" : "0x01",
                                "0x02" : "0x01",
                                "0x04" : "0xa94f5374fce5edbc8e2a8697c15331677e6ebf0b",
                                "0xe6" : "0x1000000000000000000000000000000000000000",
                                "0xe8" : "0xa94f5374fce5edbc8e2a8697c15331677e6ebf0b",
                                "0xec" : "0x40",
                                "0xee" : "0x22",
                                "0xf0" : "0x0a"
                            }
                        },
                        "0x1000000000000000000000000000000000000001" : {
                            "balance" : "0x00",
                            "code" : "0x60406000604060007310000000000000000000000000000000000000026203d090f460015500",
                            "nonce" : "0x00",
                            "storage" : {
                            }
                        },
                        "0x1000000000000000000000000000000000000002" : {
                            "balance" : "0x00",
                            "code" : "0x600160025533600455346007553060e6553260e8553660ec553860ee553a60f05500",
                            "nonce" : "0x00",
                            "storage" : {
                            }
                        },
                        "0xa94f5374fce5edbc8e2a8697c15331677e6ebf0b" : {
                            "balance" : "0x0de0b6b3a7414d62",
                            "code" : "0x",
                            "nonce" : "0x01",
                            "storage" : {
                            }
                        }
                    },
                    "txbytes" : "0xf860800a832dc6c094100000000000000000000000000000000000000080801ba07763c200d265ba0050627c8c7b4c19bf118b3581a3de22dbcebdfcb6e8565790a0514908f638ddc4b1402230e34692f43bb92713ff2cad3627814cf6fb19ac2e43"
                }
            ]
        },
        "pre" : {
            "0x1000000000000000000000000000000000000000" : {
                "balance" : "0x0de0b6b3a7640000",
                "code" : "0x604060006040600073100000000000000000000000000000000000000162055730f460005500",
                "nonce" : "0x00",
                "storage" : {
                }
            },
            "0x1000000000000000000000000000000000000001" : {
                "balance" : "0x00",
                "code" : "0x60406000604060007310000000000000000000000000000000000000026203d090f460015500",
                "nonce" : "0x00",
                "storage" : {
                }
            },
            "0x1000000000000000000000000000000000000002" : {
                "balance" : "0x00",
                "code" : "0x600160025533600455346007553060e6553260e8553660ec553860ee553a60f05500",
                "nonce" : "0x00",
                "storage" : {
                }
            },
            "0xa94f5374fce5edbc8e2a8697c15331677e6ebf0b" : {
                "balance" : "0x0de0b6b3a7640000",
                "code" : "0x",
                "nonce" : "0x00",
                "storage" : {
                }
            }
        },
        "transaction" : {
            "data" : [
                "0x"
            ],
            "gasLimit" : [
                "0x2dc6c0"
            ],
            "gasPrice" : "0x0a",
            "nonce" : "0x00",
            "secretKey" : "0x45a915e4d060149eb4365960e6a7a45f334393093061116b197e3240065ff2d8",
            "sender" : "0xa94f5374fce5edbc8e2a8697c15331677e6ebf0b",
            "to" : "0x1000000000000000000000000000000000000000",
            "value" : [
                "0x00"
            ]
        }
    }
}