{
    "static_call_value_inherit" : {
        "_info" : {
            "comment" : "",
            "filling-rpc-server" : "evm version 1.11.5-stable-a38f4108",
            "filling-tool-version" : "retesteth-0.3.0-shanghai+commit.e98b5e62.Linux.g++",
            "generatedTestHash" : "87ac098e49094789563071e6eb7de2e3742e8202efb6d312f3893e536a2b6ed4",
            "lllcversion" : "Version: 0.5.14-develop.2023.8.28+commit.b2b86751.Linux.g++",
            "solidity" : "Version: 0.8.17+commit.8df45f5f.Linux.g++",
            "source" : "src/GeneralStateTestsFiller/stStaticCall/static_call_value_inheritFiller.json",
            "sourceHash" : "fa0527721c65abab9eb4ae49457b172d4cda5ed617c2c234431995b118062057"
        },
        "env" : {
            "currentBaseFee" : "0x0a",
            "currentCoinbase" : "0x2adc25665018aa1fe0e6bc666dac8fc2697ff9ba",
            "currentDifficulty" : "0x020000",
            "currentGasLimit" : "0x989680",
            "currentNumber" : "0x01",
            "currentRandom" : "0x0000000000000000000000000000000000000000000000000000000000020000",
            "currentTimestamp" : "0x03e8",
            "previousHash" : "0x5e20a0453cecd065ea59c37ac63e079ee08998b6045136a8ce6635c7912ec0b6"
        },
        "post" : {
            "Berlin" : [
                {
                    "hash" : "0x48be513ad9c3566165b0d112e628fa61036415752260bb051c6ba6a80ecd03c4",
                    "indexes" : {
                        "data" : 0,
                        "gas" : 0,
                        "value" : 0
                    },
                    "logs" : "0x1dcc4de8dec75d7aab85b567b6ccd41ad312451b948a7413f0a142fd40d49347",
                    "postState" : {
                        "0x094f5374fce5edbc8e2a8697c15331677e6ebf0b" : {
                            "balance" : "0x0b",
                            "code" : "0x602060006000600073c94f5374fce5edbc8e2a8697c15331677e6ebf0b61c350fa60005560005160015500",
                            "nonce" : "0x00",
                            "storage" : {
                                "0x00" : "0x01"
                            }
                        },
                        "0x2adc25665018aa1fe0e6bc666dac8fc2697ff9ba" : {
                            "balance" : "0x05747c",
                            "code" : "0x",
                            "nonce" : "0x00",
                            "storage" : {
                            }
                        },
                        "0xa94f5374fce5edbc8e2a8697c15331677e6ebf0b" : {
                            "balance" : "0xe8d49f9b7a",
                            "code" : "0x",
                            "nonce" : "0x01",
                            "storage" : {
                            }
                        },
                        "0xc94f5374fce5edbc8e2a8697c15331677e6ebf0b" : {
                            "balance" : "0x01",
                            "code" : "0x3460005260206000f300",
                            "nonce" : "0x00",
                            "storage" : {
                            }
                        }
                    },
                    "txbytes" : "0xf860800a830704e094094f5374fce5edbc8e2a8697c15331677e6ebf0b0a801ca077c4e6896e3134ec1aa883a317831e5a8fae6edf28d7dce6af882d8dfc0ac87ca018ff232fb6b327c15485c80f706bcae1adc5cb9db532b5b37cb4da81223a0317"
                }
            ],
            "Istanbul" : [
                {
                    "hash" : "0x6f80a278cc559b615bc7c857cec6f27fe90e2f423ae42403b3d3af4a9daac290",
                    "indexes" : {
                        "data" : 0,
                        "gas" : 0,
                        "value" : 0
                    },
                    "logs" : "0x1dcc4de8dec75d7aab85b567b6ccd41ad312451b948a7413f0a142fd40d49347",
                    "postState" : {
                        "0x094f5374fce5edbc8e2a8697c15331677e6ebf0b" : {
                            "balance" : "0x0b",
                            "code" : "0x602060006000600073c94f5374fce5edbc8e2a8697c15331677e6ebf0b61c350fa60005560005160015500",
                            "nonce" : "0x00",
                            "storage" : {
                                "0x00" : "0x01"
                            }
                        },
                        "0x2adc25665018aa1fe0e6bc666dac8fc2697ff9ba" : {
                            "balance" : "0x04d83c",
                            "code" : "0x",
                            "nonce" : "0x00",
                            "storage" : {
                            }
                        },
                        "0xa94f5374fce5edbc8e2a8697c15331677e6ebf0b" : {
                            "balance" : "0xe8d4a037ba",
                            "code" : "0x",
                            "nonce" : "0x01",
                            "storage" : {
                            }
                        },
                        "0xc94f5374fce5edbc8e2a8697c15331677e6ebf0b" : {
                            "balance" : "0x01",
                            "code" : "0x3460005260206000f300",
                            "nonce" : "0x00",
                            "storage" : {
                            }
                        }
                    },
                    "txbytes" : "0xf860800a830704e094094f5374fce5edbc8e2a8697c15331677e6ebf0b0a801ca077c4e6896e3134ec1aa883a317831e5a8fae6edf28d7dce6af882d8dfc0ac87ca018ff232fb6b327c15485c80f706bcae1adc5cb9db532b5b37cb4da81223a0317"
                }
            ],
            "London" : [
                {
                    "hash" : "0xb7c21b60452eb31e3e84ddc4efb85d94708c2a920df717901f9d4fa7394fc0b7",
                    "indexes" : {
                        "data" : 0,
                        "gas" : 0,
                        "value" : 0
                    },
                    "logs" : "0x1dcc4de8dec75d7aab85b567b6ccd41ad312451b948a7413f0a142fd40d49347",
                    "postState" : {
                        "0x094f5374fce5edbc8e2a8697c15331677e6ebf0b" : {
                            "balance" : "0x0b",
                            "code" : "0x602060006000600073c94f5374fce5edbc8e2a8697c15331677e6ebf0b61c350fa60005560005160015500",
                            "nonce" : "0x00",
                            "storage" : {
                                "0x00" : "0x01"
                            }
                        },
                        "0xa94f5374fce5edbc8e2a8697c15331677e6ebf0b" : {
                            "balance" : "0xe8d49e0d0a",
                            "code" : "0x",
                            "nonce" : "0x01",
                            "storage" : {
                            }
                        },
                        "0xc94f5374fce5edbc8e2a8697c15331677e6ebf0b" : {
                            "balance" : "0x01",
                            "code" : "0x3460005260206000f300",
                            "nonce" : "0x00",
                            "storage" : {
                            }
                        }
                    },
                    "txbytes" : "0xf860800a830704e094094f5374fce5edbc8e2a8697c15331677e6ebf0b0a801ca077c4e6896e3134ec1aa883a317831e5a8fae6edf28d7dce6af882d8dfc0ac87ca018ff232fb6b327c15485c80f706bcae1adc5cb9db532b5b37cb4da81223a0317"
                }
            ],
            "Merge" : [
                {
                    "hash" : "0xb7c21b60452eb31e3e84ddc4efb85d94708c2a920df717901f9d4fa7394fc0b7",
                    "indexes" : {
                        "data" : 0,
                        "gas" : 0,
                        "value" : 0
                    },
                    "logs" : "0x1dcc4de8dec75d7aab85b567b6ccd41ad312451b948a7413f0a142fd40d49347",
                    "postState" : {
                        "0x094f5374fce5edbc8e2a8697c15331677e6ebf0b" : {
                            "balance" : "0x0b",
                            "code" : "0x602060006000600073c94f5374fce5edbc8e2a8697c15331677e6ebf0b61c350fa60005560005160015500",
                            "nonce" : "0x00",
                            "storage" : {
                                "0x00" : "0x01"
                            }
                        },
                        "0xa94f5374fce5edbc8e2a8697c15331677e6ebf0b" : {
                            "balance" : "0xe8d49e0d0a",
                            "code" : "0x",
                            "nonce" : "0x01",
                            "storage" : {
                            }
                        },
                        "0xc94f5374fce5edbc8e2a8697c15331677e6ebf0b" : {
                            "balance" : "0x01",
                            "code" : "0x3460005260206000f300",
                            "nonce" : "0x00",
                            "storage" : {
                            }
                        }
                    },
                    "txbytes" : "0xf860800a830704e094094f5374fce5edbc8e2a8697c15331677e6ebf0b0a801ca077c4e6896e3134ec1aa883a317831e5a8fae6edf28d7dce6af882d8dfc0ac87ca018ff232fb6b327c15485c80f706bcae1adc5cb9db532b5b37cb4da81223a0317"
                }
            ],
            "Shanghai" : [
                {
                    "hash" : "0xb7c21b60452eb31e3e84ddc4efb85d94708c2a920df717901f9d4fa7394fc0b7",
                    "indexes" : {
                        "data" : 0,
                        "gas" : 0,
                        "value" : 0
                    },
                    "logs" : "0x1dcc4de8dec75d7aab85b567b6ccd41ad312451b948a7413f0a142fd40d49347",
                    "postState" : {
                        "0x094f5374fce5edbc8e2a8697c15331677e6ebf0b" : {
                            "balance" : "0x0b",
                            "code" : "0x602060006000600073c94f5374fce5edbc8e2a8697c15331677e6ebf0b61c350fa60005560005160015500",
                            "nonce" : "0x00",
                            "storage" : {
                                "0x00" : "0x01"
                            }
                        },
                        "0xa94f5374fce5edbc8e2a8697c15331677e6ebf0b" : {
                            "balance" : "0xe8d49e0d0a",
                            "code" : "0x",
                            "nonce" : "0x01",
                            "storage" : {
                            }
                        },
                        "0xc94f5374fce5edbc8e2a8697c15331677e6ebf0b" : {
                            "balance" : "0x01",
                            "code" : "0x3460005260206000f300",
                            "nonce" : "0x00",
                            "storage" : {
                            }
                        }
                    },
                    "txbytes" : "0xf860800a830704e094094f5374fce5edbc8e2a8697c15331677e6ebf0b0a801ca077c4e6896e3134ec1aa883a317831e5a8fae6edf28d7dce6af882d8dfc0ac87ca018ff232fb6b327c15485c80f706bcae1adc5cb9db532b5b37cb4da81223a0317"
                }
            ]
        },
        "pre" : {
            "0x094f5374fce5edbc8e2a8697c15331677e6ebf0b" : {
                "balance" : "0x01",
                "code" : "0x602060006000600073c94f5374fce5edbc8e2a8697c15331677e6ebf0b61c350fa60005560005160015500",
                "nonce" : "0x00",
                "storage" : {
                    "0x01" : "0x01"
                }
            },
            "0xa94f5374fce5edbc8e2a8697c15331677e6ebf0b" : {
                "balance" : "0xe8d4a51000",
                "code" : "0x",
                "nonce" : "0x00",
                "storage" : {
                }
            },
            "0xc94f5374fce5edbc8e2a8697c15331677e6ebf0b" : {
                "balance" : "0x01",
                "code" : "0x3460005260206000f300",
                "nonce" : "0x00",
                "storage" : {
                }
            }
        },
        "transaction" : {
            "data" : [
                "0x"
            ],
            "gasLimit" : [
                "0x0704e0"
            ],
            "gasPrice" : "0x0a",
            "nonce" : "0x00",
            "secretKey" : "0x45a915e4d060149eb4365960e6a7a45f334393093061116b197e3240065ff2d8",
            "sender" : "0xa94f5374fce5edbc8e2a8697c15331677e6ebf0b",
            "to" : "0x094f5374fce5edbc8e2a8697c15331677e6ebf0b",
            "value" : [
                "0x0a"
            ]
        }
    }
}