{
    "static_CREATE_EmptyContractWithStorageAndCallIt_0wei" : {
        "_info" : {
            "comment" : "",
            "filling-rpc-server" : "evm version 1.10.16-unstable-1884f37f-20220107",
            "filling-tool-version" : "retesteth-0.2.1-difficulty+commit.37dfbbcd.Linux.g++",
            "generatedTestHash" : "9c96e9ad9edb5f0eefb1b1039a6591e3fb6d962e7042322d06ce0a8c1992ee0d",
            "lllcversion" : "Version: 0.5.14-develop.2022.1.7+commit.401d5358.Linux.g++",
            "source" : "src/GeneralStateTestsFiller/stStaticCall/static_CREATE_EmptyContractWithStorageAndCallIt_0weiFiller.json",
            "sourceHash" : "63d21a447d3598830652de2557c089487e8c5486a78867fca2e304d8fdb7a6a2"
        },
        "env" : {
            "currentBaseFee" : "0x0a",
            "currentCoinbase" : "0x2adc25665018aa1fe0e6bc666dac8fc2697ff9ba",
            "currentDifficulty" : "0x020000",
            "currentGasLimit" : "0x989680",
            "currentNumber" : "0x01",
            "currentTimestamp" : "0x03e8",
            "previousHash" : "0x5e20a0453cecd065ea59c37ac63e079ee08998b6045136a8ce6635c7912ec0b6"
        },
        "post" : {
            "Berlin" : [
                {
                    "hash" : "0x27fbd1aed50582fed737d48d98acd5780d4149af48015b5b7dce7f770a6465ec",
                    "indexes" : {
                        "data" : 0,
                        "gas" : 0,
                        "value" : 0
                    },
                    "logs" : "0x1dcc4de8dec75d7aab85b567b6ccd41ad312451b948a7413f0a142fd40d49347",
                    "postState" : {
                        "0x2adc25665018aa1fe0e6bc666dac8fc2697ff9ba" : {
                            "balance" : "0x2022c2",
                            "code" : "0x",
                            "nonce" : "0x00",
                            "storage" : {
                            }
                        },
                        "0xa94f5374fce5edbc8e2a8697c15331677e6ebf0b" : {
                            "balance" : "0xe8d484ed3e",
                            "code" : "0x",
                            "nonce" : "0x01",
                            "storage" : {
                            }
                        },
                        "0xb94f5374fce5edbc8e2a8697c15331677e6ebf0b" : {
                            "balance" : "0x00",
                            "code" : "0x5a6000557f600c6000556000600060006000600073c94f5374fce5edbc8e2a8697c15331676000527f7e6ebf0b61ea60f1000000000000000000000000000000000000000000000000602052604060006000f06001555a600255600060006000600060015461ea60fa6003555a60645500",
                            "nonce" : "0x01",
                            "storage" : {
                                "0x00" : "0x08d5b6",
                                "0x01" : "0xf1ecf98489fa9ed60a664fc4998db699cfa39d40",
                                "0x02" : "0x06f4f4",
                                "0x03" : "0x01",
                                "0x64" : "0x06476a"
                            }
                        },
                        "0xc94f5374fce5edbc8e2a8697c15331677e6ebf0b" : {
                            "balance" : "0xe8d4a51000",
                            "code" : "0x600c60015500",
                            "nonce" : "0x00",
                            "storage" : {
                                "0x01" : "0x0c"
                            }
                        },
                        "0xf1ecf98489fa9ed60a664fc4998db699cfa39d40" : {
                            "balance" : "0x00",
                            "code" : "0x",
                            "nonce" : "0x01",
                            "storage" : {
                                "0x00" : "0x0c"
                            }
                        }
                    },
                    "txbytes" : "0xf860800a830927c094b94f5374fce5edbc8e2a8697c15331677e6ebf0b80801ca065622aa0319be041688699ffcc35390d71659fb43600cba91177760bd5cbe3f7a05d3be8e63e5061a12f6f569ba20df19ea8a844cbe9eba3a85c230f7cd8d70426"
                }
            ],
            "Istanbul" : [
                {
                    "hash" : "0x6c4146498738293a26f1b1c4a9ad7f7d78a9e5eb556c733fbbbd64e23313343f",
                    "indexes" : {
                        "data" : 0,
                        "gas" : 0,
                        "value" : 0
                    },
                    "logs" : "0x1dcc4de8dec75d7aab85b567b6ccd41ad312451b948a7413f0a142fd40d49347",
                    "postState" : {
                        "0x2adc25665018aa1fe0e6bc666dac8fc2697ff9ba" : {
                            "balance" : "0x1dcd1a",
                            "code" : "0x",
                            "nonce" : "0x00",
                            "storage" : {
                            }
                        },
                        "0xa94f5374fce5edbc8e2a8697c15331677e6ebf0b" : {
                            "balance" : "0xe8d48742e6",
                            "code" : "0x",
                            "nonce" : "0x01",
                            "storage" : {
                            }
                        },
                        "0xb94f5374fce5edbc8e2a8697c15331677e6ebf0b" : {
                            "balance" : "0x00",
                            "code" : "0x5a6000557f600c6000556000600060006000600073c94f5374fce5edbc8e2a8697c15331676000527f7e6ebf0b61ea60f1000000000000000000000000000000000000000000000000602052604060006000f06001555a600255600060006000600060015461ea60fa6003555a60645500",
                            "nonce" : "0x01",
                            "storage" : {
                                "0x00" : "0x08d5b6",
                                "0x01" : "0xf1ecf98489fa9ed60a664fc4998db699cfa39d40",
                                "0x02" : "0x071d30",
                                "0x03" : "0x01",
                                "0x64" : "0x067afa"
                            }
                        },
                        "0xc94f5374fce5edbc8e2a8697c15331677e6ebf0b" : {
                            "balance" : "0xe8d4a51000",
                            "code" : "0x600c60015500",
                            "nonce" : "0x00",
                            "storage" : {
                                "0x01" : "0x0c"
                            }
                        },
                        "0xf1ecf98489fa9ed60a664fc4998db699cfa39d40" : {
                            "balance" : "0x00",
                            "code" : "0x",
                            "nonce" : "0x01",
                            "storage" : {
                                "0x00" : "0x0c"
                            }
                        }
                    },
                    "txbytes" : "0xf860800a830927c094b94f5374fce5edbc8e2a8697c15331677e6ebf0b80801ca065622aa0319be041688699ffcc35390d71659fb43600cba91177760bd5cbe3f7a05d3be8e63e5061a12f6f569ba20df19ea8a844cbe9eba3a85c230f7cd8d70426"
                }
            ],
            "London" : [
                {
                    "hash" : "0x53085dd8eade12774f4d76ec90246dfd716a183541de8d6bbf29aa284a58896c",
                    "indexes" : {
                        "data" : 0,
                        "gas" : 0,
                        "value" : 0
                    },
                    "logs" : "0x1dcc4de8dec75d7aab85b567b6ccd41ad312451b948a7413f0a142fd40d49347",
                    "postState" : {
                        "0xa94f5374fce5edbc8e2a8697c15331677e6ebf0b" : {
                            "balance" : "0xe8d484ed3e",
                            "code" : "0x",
                            "nonce" : "0x01",
                            "storage" : {
                            }
                        },
                        "0xb94f5374fce5edbc8e2a8697c15331677e6ebf0b" : {
                            "balance" : "0x00",
                            "code" : "0x5a6000557f600c6000556000600060006000600073c94f5374fce5edbc8e2a8697c15331676000527f7e6ebf0b61ea60f1000000000000000000000000000000000000000000000000602052604060006000f06001555a600255600060006000600060015461ea60fa6003555a60645500",
                            "nonce" : "0x01",
                            "storage" : {
                                "0x00" : "0x08d5b6",
                                "0x01" : "0xf1ecf98489fa9ed60a664fc4998db699cfa39d40",
                                "0x02" : "0x06f4f4",
                                "0x03" : "0x01",
                                "0x64" : "0x06476a"
                            }
                        },
                        "0xc94f5374fce5edbc8e2a8697c15331677e6ebf0b" : {
                            "balance" : "0xe8d4a51000",
                            "code" : "0x600c60015500",
                            "nonce" : "0x00",
                            "storage" : {
                                "0x01" : "0x0c"
                            }
                        },
                        "0xf1ecf98489fa9ed60a664fc4998db699cfa39d40" : {
                            "balance" : "0x00",
                            "code" : "0x",
                            "nonce" : "0x01",
                            "storage" : {
                                "0x00" : "0x0c"
                            }
                        }
                    },
                    "txbytes" : "0xf860800a830927c094b94f5374fce5edbc8e2a8697c15331677e6ebf0b80801ca065622aa0319be041688699ffcc35390d71659fb43600cba91177760bd5cbe3f7a05d3be8e63e5061a12f6f569ba20df19ea8a844cbe9eba3a85c230f7cd8d70426"
                }
            ]
        },
        "pre" : {
            "0xa94f5374fce5edbc8e2a8697c15331677e6ebf0b" : {
                "balance" : "0xe8d4a51000",
                "code" : "0x",
                "nonce" : "0x00",
                "storage" : {
                }
            },
            "0xb94f5374fce5edbc8e2a8697c15331677e6ebf0b" : {
                "balance" : "0x00",
                "code" : "0x5a6000557f600c6000556000600060006000600073c94f5374fce5edbc8e2a8697c15331676000527f7e6ebf0b61ea60f1000000000000000000000000000000000000000000000000602052604060006000f06001555a600255600060006000600060015461ea60fa6003555a60645500",
                "nonce" : "0x00",
                "storage" : {
                }
            },
            "0xc94f5374fce5edbc8e2a8697c15331677e6ebf0b" : {
                "balance" : "0xe8d4a51000",
                "code" : "0x600c60015500",
                "nonce" : "0x00",
                "storage" : {
                }
            }
        },
        "transaction" : {
            "data" : [
                "0x"
            ],
            "gasLimit" : [
                "0x0927c0"
            ],
            "gasPrice" : "0x0a",
            "nonce" : "0x00",
            "secretKey" : "0x45a915e4d060149eb4365960e6a7a45f334393093061116b197e3240065ff2d8",
            "to" : "0xb94f5374fce5edbc8e2a8697c15331677e6ebf0b",
            "value" : [
                "0x00"
            ]
        }
    }
}