{
    "LoopCallsDepthThenRevert2" : {
        "_info" : {
            "comment" : "",
            "filling-rpc-server" : "evm version 1.11.5-stable-a38f4108",
            "filling-tool-version" : "retesteth-0.3.0-shanghai+commit.e98b5e62.Linux.g++",
            "generatedTestHash" : "bd3e4198e084ea5f234b3da00e3ccdc5ce2a6553862478db6c87b6c668e73491",
            "lllcversion" : "Version: 0.5.14-develop.2023.8.28+commit.b2b86751.Linux.g++",
            "solidity" : "Version: 0.8.17+commit.8df45f5f.Linux.g++",
            "source" : "src/GeneralStateTestsFiller/stRevertTest/LoopCallsDepthThenRevert2Filler.json",
            "sourceHash" : "fa1956e042d981802832c5d07788e8a3c3c562d0d57dd23922c387dc56e888a0"
        },
        "env" : {
            "currentBaseFee" : "0x0a",
            "currentCoinbase" : "0x2adc25665018aa1fe0e6bc666dac8fc2697ff9ba",
            "currentDifficulty" : "0x020000",
            "currentGasLimit" : "0x7fffffffffffffff",
            "currentNumber" : "0x01",
            "currentRandom" : "0x0000000000000000000000000000000000000000000000000000000000020000",
            "currentTimestamp" : "0x03e8",
            "previousHash" : "0x5e20a0453cecd065ea59c37ac63e079ee08998b6045136a8ce6635c7912ec0b6"
        },
        "post" : {
            "Berlin" : [
                {
                    "hash" : "0xed7920030634278b85b0c0399c3e4f11b8e45954182fa65f17be79e6c1e9a422",
                    "indexes" : {
                        "data" : 0,
                        "gas" : 0,
                        "value" : 0
                    },
                    "logs" : "0x1dcc4de8dec75d7aab85b567b6ccd41ad312451b948a7413f0a142fd40d49347",
                    "postState" : {
                        "0x2adc25665018aa1fe0e6bc666dac8fc2697ff9ba" : {
                            "balance" : "0x6ab742",
                            "code" : "0x",
                            "nonce" : "0x00",
                            "storage" : {
                            }
                        },
                        "0x7db299e0885c85039f56fa504a13dd8ce8a56aa7" : {
                            "balance" : "0x03",
                            "code" : "0x",
                            "nonce" : "0x01",
                            "storage" : {
                            }
                        },
                        "0xa000000000000000000000000000000000000000" : {
                            "balance" : "0x07",
                            "code" : "0x6103ff60005414603f576001600054016000556000600060006000600073a0000000000000000000000000000000000000005af15061041a600054106053575b66600060006002f0600052600760196003f0505b",
                            "nonce" : "0x01",
                            "storage" : {
                                "0x00" : "0x03ff"
                            }
                        },
                        "0xa94f5374fce5edbc8e2a8697c15331677e6ebf0b" : {
                            "balance" : "0x13426172c74d822b878fe7ff9548be",
                            "code" : "0x",
                            "nonce" : "0x01",
                            "storage" : {
                            }
                        }
                    },
                    "txbytes" : "0xf865800a887fe000000000000194a00000000000000000000000000000000000000080801ba045940258a3a315af154284f8adc1a1d2d45ece5442735eed1becc8263e223782a04d1e76dbc74c087276a8b56d6fd0be83d688c872909868d2f6edd71329042430"
                }
            ],
            "Istanbul" : [
                {
                    "hash" : "0x8fe4c6b85fc4612da4e9a33bcf8148739e6e4eaf20e2f0340bcd7008dceaf944",
                    "indexes" : {
                        "data" : 0,
                        "gas" : 0,
                        "value" : 0
                    },
                    "logs" : "0x1dcc4de8dec75d7aab85b567b6ccd41ad312451b948a7413f0a142fd40d49347",
                    "postState" : {
                        "0x2adc25665018aa1fe0e6bc666dac8fc2697ff9ba" : {
                            "balance" : "0x027d2452",
                            "code" : "0x",
                            "nonce" : "0x00",
                            "storage" : {
                            }
                        },
                        "0x7db299e0885c85039f56fa504a13dd8ce8a56aa7" : {
                            "balance" : "0x03",
                            "code" : "0x",
                            "nonce" : "0x01",
                            "storage" : {
                            }
                        },
                        "0xa000000000000000000000000000000000000000" : {
                            "balance" : "0x07",
                            "code" : "0x6103ff60005414603f576001600054016000556000600060006000600073a0000000000000000000000000000000000000005af15061041a600054106053575b66600060006002f0600052600760196003f0505b",
                            "nonce" : "0x01",
                            "storage" : {
                                "0x00" : "0x03ff"
                            }
                        },
                        "0xa94f5374fce5edbc8e2a8697c15331677e6ebf0b" : {
                            "balance" : "0x13426172c74d822b878fe7fd82dbae",
                            "code" : "0x",
                            "nonce" : "0x01",
                            "storage" : {
                            }
                        }
                    },
                    "txbytes" : "0xf865800a887fe000000000000194a00000000000000000000000000000000000000080801ba045940258a3a315af154284f8adc1a1d2d45ece5442735eed1becc8263e223782a04d1e76dbc74c087276a8b56d6fd0be83d688c872909868d2f6edd71329042430"
                }
            ],
            "London" : [
                {
                    "hash" : "0xa17a4f9262a1161d276a618b8ee0c77e6a735476e03e28069ee748c6c68def73",
                    "indexes" : {
                        "data" : 0,
                        "gas" : 0,
                        "value" : 0
                    },
                    "logs" : "0x1dcc4de8dec75d7aab85b567b6ccd41ad312451b948a7413f0a142fd40d49347",
                    "postState" : {
                        "0x7db299e0885c85039f56fa504a13dd8ce8a56aa7" : {
                            "balance" : "0x03",
                            "code" : "0x",
                            "nonce" : "0x01",
                            "storage" : {
                            }
                        },
                        "0xa000000000000000000000000000000000000000" : {
                            "balance" : "0x07",
                            "code" : "0x6103ff60005414603f576001600054016000556000600060006000600073a0000000000000000000000000000000000000005af15061041a600054106053575b66600060006002f0600052600760196003f0505b",
                            "nonce" : "0x01",
                            "storage" : {
                                "0x00" : "0x03ff"
                            }
                        },
                        "0xa94f5374fce5edbc8e2a8697c15331677e6ebf0b" : {
                            "balance" : "0x13426172c74d822b878fe7ff9548be",
                            "code" : "0x",
                            "nonce" : "0x01",
                            "storage" : {
                            }
                        }
                    },
                    "txbytes" : "0xf865800a887fe000000000000194a00000000000000000000000000000000000000080801ba045940258a3a315af154284f8adc1a1d2d45ece5442735eed1becc8263e223782a04d1e76dbc74c087276a8b56d6fd0be83d688c872909868d2f6edd71329042430"
                }
            ],
            "Merge" : [
                {
                    "hash" : "0xa17a4f9262a1161d276a618b8ee0c77e6a735476e03e28069ee748c6c68def73",
                    "indexes" : {
                        "data" : 0,
                        "gas" : 0,
                        "value" : 0
                    },
                    "logs" : "0x1dcc4de8dec75d7aab85b567b6ccd41ad312451b948a7413f0a142fd40d49347",
                    "postState" : {
                        "0x7db299e0885c85039f56fa504a13dd8ce8a56aa7" : {
                            "balance" : "0x03",
                            "code" : "0x",
                            "nonce" : "0x01",
                            "storage" : {
                            }
                        },
                        "0xa000000000000000000000000000000000000000" : {
                            "balance" : "0x07",
                            "code" : "0x6103ff60005414603f576001600054016000556000600060006000600073a0000000000000000000000000000000000000005af15061041a600054106053575b66600060006002f0600052600760196003f0505b",
                            "nonce" : "0x01",
                            "storage" : {
                                "0x00" : "0x03ff"
                            }
                        },
                        "0xa94f5374fce5edbc8e2a8697c15331677e6ebf0b" : {
                            "balance" : "0x13426172c74d822b878fe7ff9548be",
                            "code" : "0x",
                            "nonce" : "0x01",
                            "storage" : {
                            }
                        }
                    },
                    "txbytes" : "0xf865800a887fe000000000000194a00000000000000000000000000000000000000080801ba045940258a3a315af154284f8adc1a1d2d45ece5442735eed1becc8263e223782a04d1e76dbc74c087276a8b56d6fd0be83d688c872909868d2f6edd71329042430"
                }
            ],
            "Shanghai" : [
                {
                    "hash" : "0xe1ba9f2c1c791bc673d33d4f1f73ff91103f0656b6272e7efcb1382933289561",
                    "indexes" : {
                        "data" : 0,
                        "gas" : 0,
                        "value" : 0
                    },
                    "logs" : "0x1dcc4de8dec75d7aab85b567b6ccd41ad312451b948a7413f0a142fd40d49347",
                    "postState" : {
                        "0x7db299e0885c85039f56fa504a13dd8ce8a56aa7" : {
                            "balance" : "0x03",
                            "code" : "0x",
                            "nonce" : "0x01",
                            "storage" : {
                            }
                        },
                        "0xa000000000000000000000000000000000000000" : {
                            "balance" : "0x07",
                            "code" : "0x6103ff60005414603f576001600054016000556000600060006000600073a0000000000000000000000000000000000000005af15061041a600054106053575b66600060006002f0600052600760196003f0505b",
                            "nonce" : "0x01",
                            "storage" : {
                                "0x00" : "0x03ff"
                            }
                        },
                        "0xa94f5374fce5edbc8e2a8697c15331677e6ebf0b" : {
                            "balance" : "0x13426172c74d822b878fe7ff9548aa",
                            "code" : "0x",
                            "nonce" : "0x01",
                            "storage" : {
                            }
                        }
                    },
                    "txbytes" : "0xf865800a887fe000000000000194a00000000000000000000000000000000000000080801ba045940258a3a315af154284f8adc1a1d2d45ece5442735eed1becc8263e223782a04d1e76dbc74c087276a8b56d6fd0be83d688c872909868d2f6edd71329042430"
                }
            ]
        },
        "pre" : {
            "0xa000000000000000000000000000000000000000" : {
                "balance" : "0x0a",
                "code" : "0x6103ff60005414603f576001600054016000556000600060006000600073a0000000000000000000000000000000000000005af15061041a600054106053575b66600060006002f0600052600760196003f0505b",
                "nonce" : "0x00",
                "storage" : {
                }
            },
            "0xa94f5374fce5edbc8e2a8697c15331677e6ebf0b" : {
                "balance" : "0x13426172c74d822b878fe800000000",
                "code" : "0x",
                "nonce" : "0x00",
                "storage" : {
                }
            }
        },
        "transaction" : {
            "data" : [
                "0x"
            ],
            "gasLimit" : [
                "0x7fe0000000000001"
            ],
            "gasPrice" : "0x0a",
            "nonce" : "0x00",
            "secretKey" : "0x45a915e4d060149eb4365960e6a7a45f334393093061116b197e3240065ff2d8",
            "sender" : "0xa94f5374fce5edbc8e2a8697c15331677e6ebf0b",
            "to" : "0xa000000000000000000000000000000000000000",
            "value" : [
                "0x00"
            ]
        }
    }
}