{
    "RevertRemoteSubCallStorageOOG" : {
        "_info" : {
            "comment" : "contract A calls itself. In the sub-call, storage is modified, the calls returns successfully. After that, storage is modified again and then an exception occurs.  0xc0406226 == sha(run())",
            "filling-rpc-server" : "evm version 1.10.16-unstable-1884f37f-20220107",
            "filling-tool-version" : "retesteth-0.2.1-difficulty+commit.37dfbbcd.Linux.g++",
            "generatedTestHash" : "4e401f6746a335e0a08afa3d5cd6914def76467bc574909c6e4e6c76a0ba27b2",
            "lllcversion" : "Version: 0.5.14-develop.2022.1.7+commit.401d5358.Linux.g++",
            "source" : "src/GeneralStateTestsFiller/stRevertTest/RevertRemoteSubCallStorageOOGFiller.yml",
            "sourceHash" : "036c6d833a3f2e2774ba3a384e2db9b33cc4646c877a8304074f2fadb0547397"
        },
        "env" : {
            "currentBaseFee" : "0x0a",
            "currentCoinbase" : "0x2adc25665018aa1fe0e6bc666dac8fc2697ff9ba",
            "currentDifficulty" : "0x020000",
            "currentGasLimit" : "0x989680",
            "currentNumber" : "0x01",
            "currentTimestamp" : "0x03e8",
            "previousHash" : "0x5e20a0453cecd065ea59c37ac63e079ee08998b6045136a8ce6635c7912ec0b6"
        },
        "post" : {
            "Berlin" : [
                {
                    "hash" : "0x4657845b5a4b5dda8a9c91d22cbf9b8dd9c9d7445c33772245bf9b4ec3d23096",
                    "indexes" : {
                        "data" : 0,
                        "gas" : 0,
                        "value" : 0
                    },
                    "logs" : "0x1dcc4de8dec75d7aab85b567b6ccd41ad312451b948a7413f0a142fd40d49347",
                    "postState" : {
                        "0x2adc25665018aa1fe0e6bc666dac8fc2697ff9ba" : {
                            "balance" : "0x210a0c",
                            "code" : "0x",
                            "nonce" : "0x00",
                            "storage" : {
                            }
                        },
                        "0x7db299e0885c85039f56fa504a13dd8ce8a56aa7" : {
                            "balance" : "0x00",
                            "code" : "0x608060405234801561001057600080fd5b506004361061002b5760003560e01c806373027f6d14610030575b600080fd5b61004a6004803603810190610045919061015b565b61004c565b005b6000808273ffffffffffffffffffffffffffffffffffffffff166040516024016040516020818303038152906040527fb28175c4000000000000000000000000000000000000000000000000000000007bffffffffffffffffffffffffffffffffffffffffffffffffffffffff19166020820180517bffffffffffffffffffffffffffffffffffffffffffffffffffffffff83818316178352505050506040516100f691906101b9565b6000604051808303816000865af19150503d8060008114610133576040519150601f19603f3d011682016040523d82523d6000602084013e610138565b606091505b509150915081600155505050565b60008135905061015581610250565b92915050565b6000602082840312156101715761017061024b565b5b600061017f84828501610146565b91505092915050565b6000610193826101d0565b61019d81856101db565b93506101ad818560208601610218565b80840191505092915050565b60006101c58284610188565b915081905092915050565b600081519050919050565b600081905092915050565b60006101f1826101f8565b9050919050565b600073ffffffffffffffffffffffffffffffffffffffff82169050919050565b60005b8381101561023657808201518184015260208101905061021b565b83811115610245576000848401525b50505050565b600080fd5b610259816101e6565b811461026457600080fd5b5056fea2646970667358221220dedd00832e54f6e1dad8fcb92a0feea942901e4b3f82a1bc3ff143b00144170564736f6c63430008050033",
                            "nonce" : "0x01",
                            "storage" : {
                                "0x01" : "0x01"
                            }
                        },
                        "0xa000000000000000000000000000000000000000" : {
                            "balance" : "0x0ba1a9ce0ba1a9ce",
                            "code" : "0x608060405234801561001057600080fd5b50600436106100415760003560e01c806354d1405f14610046578063b28175c414610050578063c04062261461005a575b600080fd5b61004e610064565b005b610058610110565b005b610062610116565b005b6000604051610072906101b6565b604051809103906000f08015801561008e573d6000803e3d6000fd5b5090508073ffffffffffffffffffffffffffffffffffffffff166373027f6d306040518263ffffffff1660e01b81526004016100ca91906101d2565b600060405180830381600087803b1580156100e457600080fd5b505af11580156100f8573d6000803e3d6000fd5b50505050600360025560038055622fffff6000205050565b60028055565b6000604051610124906101b6565b604051809103906000f080158015610140573d6000803e3d6000fd5b5090508073ffffffffffffffffffffffffffffffffffffffff166373027f6d306040518263ffffffff1660e01b815260040161017c91906101d2565b600060405180830381600087803b15801561019657600080fd5b505af11580156101aa573d6000803e3d6000fd5b50505050600360025550565b6102bd8061022083390190565b6101cc816101ed565b82525050565b60006020820190506101e760008301846101c3565b92915050565b60006101f8826101ff565b9050919050565b600073ffffffffffffffffffffffffffffffffffffffff8216905091905056fe608060405234801561001057600080fd5b5061029d806100206000396000f3fe608060405234801561001057600080fd5b506004361061002b5760003560e01c806373027f6d14610030575b600080fd5b61004a6004803603810190610045919061015b565b61004c565b005b6000808273ffffffffffffffffffffffffffffffffffffffff166040516024016040516020818303038152906040527fb28175c4000000000000000000000000000000000000000000000000000000007bffffffffffffffffffffffffffffffffffffffffffffffffffffffff19166020820180517bffffffffffffffffffffffffffffffffffffffffffffffffffffffff83818316178352505050506040516100f691906101b9565b6000604051808303816000865af19150503d8060008114610133576040519150601f19603f3d011682016040523d82523d6000602084013e610138565b606091505b509150915081600155505050565b60008135905061015581610250565b92915050565b6000602082840312156101715761017061024b565b5b600061017f84828501610146565b91505092915050565b6000610193826101d0565b61019d81856101db565b93506101ad818560208601610218565b80840191505092915050565b60006101c58284610188565b915081905092915050565b600081519050919050565b600081905092915050565b60006101f1826101f8565b9050919050565b600073ffffffffffffffffffffffffffffffffffffffff82169050919050565b60005b8381101561023657808201518184015260208101905061021b565b83811115610245576000848401525b50505050565b600080fd5b610259816101e6565b811461026457600080fd5b5056fea2646970667358221220dedd00832e54f6e1dad8fcb92a0feea942901e4b3f82a1bc3ff143b00144170564736f6c63430008050033a26469706673582212203a868487712def90fe9d1c93bfdba6f4a5019cbbce879ee2e2f8021794d6f35564736f6c63430008050033",
                            "nonce" : "0x01",
                            "storage" : {
                                "0x02" : "0x03"
                            }
                        },
                        "0xa94f5374fce5edbc8e2a8697c15331677e6ebf0b" : {
                            "balance" : "0xe8d48405f4",
                            "code" : "0x",
                            "nonce" : "0x01",
                            "storage" : {
                            }
                        }
                    },
                    "txbytes" : "0xf864800a83155cc094a0000000000000000000000000000000000000008084c04062261ba0e8762d27448f2915a02a7151cc5b30fb408f563dd028b9550fb533d9a45ed27ca00682b95824efb788cc3206dfc8f71e50dcc0ccdd957921e06cdc5af2bf0d96df"
                },
                {
                    "hash" : "0xe0cd16cc454fa04d60856d2a72adc3522430da1f597f245d9a75d84ed764cdc2",
                    "indexes" : {
                        "data" : 1,
                        "gas" : 0,
                        "value" : 0
                    },
                    "logs" : "0x1dcc4de8dec75d7aab85b567b6ccd41ad312451b948a7413f0a142fd40d49347",
                    "postState" : {
                        "0x2adc25665018aa1fe0e6bc666dac8fc2697ff9ba" : {
                            "balance" : "0xd59f80",
                            "code" : "0x",
                            "nonce" : "0x00",
                            "storage" : {
                            }
                        },
                        "0xa000000000000000000000000000000000000000" : {
                            "balance" : "0x0ba1a9ce0ba1a9ce",
                            "code" : "0x608060405234801561001057600080fd5b50600436106100415760003560e01c806354d1405f14610046578063b28175c414610050578063c04062261461005a575b600080fd5b61004e610064565b005b610058610110565b005b610062610116565b005b6000604051610072906101b6565b604051809103906000f08015801561008e573d6000803e3d6000fd5b5090508073ffffffffffffffffffffffffffffffffffffffff166373027f6d306040518263ffffffff1660e01b81526004016100ca91906101d2565b600060405180830381600087803b1580156100e457600080fd5b505af11580156100f8573d6000803e3d6000fd5b50505050600360025560038055622fffff6000205050565b60028055565b6000604051610124906101b6565b604051809103906000f080158015610140573d6000803e3d6000fd5b5090508073ffffffffffffffffffffffffffffffffffffffff166373027f6d306040518263ffffffff1660e01b815260040161017c91906101d2565b600060405180830381600087803b15801561019657600080fd5b505af11580156101aa573d6000803e3d6000fd5b50505050600360025550565b6102bd8061022083390190565b6101cc816101ed565b82525050565b60006020820190506101e760008301846101c3565b92915050565b60006101f8826101ff565b9050919050565b600073ffffffffffffffffffffffffffffffffffffffff8216905091905056fe608060405234801561001057600080fd5b5061029d806100206000396000f3fe608060405234801561001057600080fd5b506004361061002b5760003560e01c806373027f6d14610030575b600080fd5b61004a6004803603810190610045919061015b565b61004c565b005b6000808273ffffffffffffffffffffffffffffffffffffffff166040516024016040516020818303038152906040527fb28175c4000000000000000000000000000000000000000000000000000000007bffffffffffffffffffffffffffffffffffffffffffffffffffffffff19166020820180517bffffffffffffffffffffffffffffffffffffffffffffffffffffffff83818316178352505050506040516100f691906101b9565b6000604051808303816000865af19150503d8060008114610133576040519150601f19603f3d011682016040523d82523d6000602084013e610138565b606091505b509150915081600155505050565b60008135905061015581610250565b92915050565b6000602082840312156101715761017061024b565b5b600061017f84828501610146565b91505092915050565b6000610193826101d0565b61019d81856101db565b93506101ad818560208601610218565b80840191505092915050565b60006101c58284610188565b915081905092915050565b600081519050919050565b600081905092915050565b60006101f1826101f8565b9050919050565b600073ffffffffffffffffffffffffffffffffffffffff82169050919050565b60005b8381101561023657808201518184015260208101905061021b565b83811115610245576000848401525b50505050565b600080fd5b610259816101e6565b811461026457600080fd5b5056fea2646970667358221220dedd00832e54f6e1dad8fcb92a0feea942901e4b3f82a1bc3ff143b00144170564736f6c63430008050033a26469706673582212203a868487712def90fe9d1c93bfdba6f4a5019cbbce879ee2e2f8021794d6f35564736f6c63430008050033",
                            "nonce" : "0x00",
                            "storage" : {
                                "0x02" : "0xff"
                            }
                        },
                        "0xa94f5374fce5edbc8e2a8697c15331677e6ebf0b" : {
                            "balance" : "0xe8d3cf7080",
                            "code" : "0x",
                            "nonce" : "0x01",
                            "storage" : {
                            }
                        }
                    },
                    "txbytes" : "0xf864800a83155cc094a000000000000000000000000000000000000000808454d1405f1ba0cad346e8ea63ee405061910adfc9606b342f1e59b95763fa4b6868eba82912c3a05d589ffbd73ce9a733a21160954cbe924c25ae164a7ff9736cefc7f2cbf4682b"
                }
            ],
            "Istanbul" : [
                {
                    "hash" : "0x654283a5f9d35de30edbb0d5bcc5d5918baafbcd1a9eb9e16ab50ada304805b5",
                    "indexes" : {
                        "data" : 0,
                        "gas" : 0,
                        "value" : 0
                    },
                    "logs" : "0x1dcc4de8dec75d7aab85b567b6ccd41ad312451b948a7413f0a142fd40d49347",
                    "postState" : {
                        "0x2adc25665018aa1fe0e6bc666dac8fc2697ff9ba" : {
                            "balance" : "0x2119ac",
                            "code" : "0x",
                            "nonce" : "0x00",
                            "storage" : {
                            }
                        },
                        "0x7db299e0885c85039f56fa504a13dd8ce8a56aa7" : {
                            "balance" : "0x00",
                            "code" : "0x608060405234801561001057600080fd5b506004361061002b5760003560e01c806373027f6d14610030575b600080fd5b61004a6004803603810190610045919061015b565b61004c565b005b6000808273ffffffffffffffffffffffffffffffffffffffff166040516024016040516020818303038152906040527fb28175c4000000000000000000000000000000000000000000000000000000007bffffffffffffffffffffffffffffffffffffffffffffffffffffffff19166020820180517bffffffffffffffffffffffffffffffffffffffffffffffffffffffff83818316178352505050506040516100f691906101b9565b6000604051808303816000865af19150503d8060008114610133576040519150601f19603f3d011682016040523d82523d6000602084013e610138565b606091505b509150915081600155505050565b60008135905061015581610250565b92915050565b6000602082840312156101715761017061024b565b5b600061017f84828501610146565b91505092915050565b6000610193826101d0565b61019d81856101db565b93506101ad818560208601610218565b80840191505092915050565b60006101c58284610188565b915081905092915050565b600081519050919050565b600081905092915050565b60006101f1826101f8565b9050919050565b600073ffffffffffffffffffffffffffffffffffffffff82169050919050565b60005b8381101561023657808201518184015260208101905061021b565b83811115610245576000848401525b50505050565b600080fd5b610259816101e6565b811461026457600080fd5b5056fea2646970667358221220dedd00832e54f6e1dad8fcb92a0feea942901e4b3f82a1bc3ff143b00144170564736f6c63430008050033",
                            "nonce" : "0x01",
                            "storage" : {
                                "0x01" : "0x01"
                            }
                        },
                        "0xa000000000000000000000000000000000000000" : {
                            "balance" : "0x0ba1a9ce0ba1a9ce",
                            "code" : "0x608060405234801561001057600080fd5b50600436106100415760003560e01c806354d1405f14610046578063b28175c414610050578063c04062261461005a575b600080fd5b61004e610064565b005b610058610110565b005b610062610116565b005b6000604051610072906101b6565b604051809103906000f08015801561008e573d6000803e3d6000fd5b5090508073ffffffffffffffffffffffffffffffffffffffff166373027f6d306040518263ffffffff1660e01b81526004016100ca91906101d2565b600060405180830381600087803b1580156100e457600080fd5b505af11580156100f8573d6000803e3d6000fd5b50505050600360025560038055622fffff6000205050565b60028055565b6000604051610124906101b6565b604051809103906000f080158015610140573d6000803e3d6000fd5b5090508073ffffffffffffffffffffffffffffffffffffffff166373027f6d306040518263ffffffff1660e01b815260040161017c91906101d2565b600060405180830381600087803b15801561019657600080fd5b505af11580156101aa573d6000803e3d6000fd5b50505050600360025550565b6102bd8061022083390190565b6101cc816101ed565b82525050565b60006020820190506101e760008301846101c3565b92915050565b60006101f8826101ff565b9050919050565b600073ffffffffffffffffffffffffffffffffffffffff8216905091905056fe608060405234801561001057600080fd5b5061029d806100206000396000f3fe608060405234801561001057600080fd5b506004361061002b5760003560e01c806373027f6d14610030575b600080fd5b61004a6004803603810190610045919061015b565b61004c565b005b6000808273ffffffffffffffffffffffffffffffffffffffff166040516024016040516020818303038152906040527fb28175c4000000000000000000000000000000000000000000000000000000007bffffffffffffffffffffffffffffffffffffffffffffffffffffffff19166020820180517bffffffffffffffffffffffffffffffffffffffffffffffffffffffff83818316178352505050506040516100f691906101b9565b6000604051808303816000865af19150503d8060008114610133576040519150601f19603f3d011682016040523d82523d6000602084013e610138565b606091505b509150915081600155505050565b60008135905061015581610250565b92915050565b6000602082840312156101715761017061024b565b5b600061017f84828501610146565b91505092915050565b6000610193826101d0565b61019d81856101db565b93506101ad818560208601610218565b80840191505092915050565b60006101c58284610188565b915081905092915050565b600081519050919050565b600081905092915050565b60006101f1826101f8565b9050919050565b600073ffffffffffffffffffffffffffffffffffffffff82169050919050565b60005b8381101561023657808201518184015260208101905061021b565b83811115610245576000848401525b50505050565b600080fd5b610259816101e6565b811461026457600080fd5b5056fea2646970667358221220dedd00832e54f6e1dad8fcb92a0feea942901e4b3f82a1bc3ff143b00144170564736f6c63430008050033a26469706673582212203a868487712def90fe9d1c93bfdba6f4a5019cbbce879ee2e2f8021794d6f35564736f6c63430008050033",
                            "nonce" : "0x01",
                            "storage" : {
                                "0x02" : "0x03"
                            }
                        },
                        "0xa94f5374fce5edbc8e2a8697c15331677e6ebf0b" : {
                            "balance" : "0xe8d483f654",
                            "code" : "0x",
                            "nonce" : "0x01",
                            "storage" : {
                            }
                        }
                    },
                    "txbytes" : "0xf864800a83155cc094a0000000000000000000000000000000000000008084c04062261ba0e8762d27448f2915a02a7151cc5b30fb408f563dd028b9550fb533d9a45ed27ca00682b95824efb788cc3206dfc8f71e50dcc0ccdd957921e06cdc5af2bf0d96df"
                },
                {
                    "hash" : "0xe0cd16cc454fa04d60856d2a72adc3522430da1f597f245d9a75d84ed764cdc2",
                    "indexes" : {
                        "data" : 1,
                        "gas" : 0,
                        "value" : 0
                    },
                    "logs" : "0x1dcc4de8dec75d7aab85b567b6ccd41ad312451b948a7413f0a142fd40d49347",
                    "postState" : {
                        "0x2adc25665018aa1fe0e6bc666dac8fc2697ff9ba" : {
                            "balance" : "0xd59f80",
                            "code" : "0x",
                            "nonce" : "0x00",
                            "storage" : {
                            }
                        },
                        "0xa000000000000000000000000000000000000000" : {
                            "balance" : "0x0ba1a9ce0ba1a9ce",
                            "code" : "0x608060405234801561001057600080fd5b50600436106100415760003560e01c806354d1405f14610046578063b28175c414610050578063c04062261461005a575b600080fd5b61004e610064565b005b610058610110565b005b610062610116565b005b6000604051610072906101b6565b604051809103906000f08015801561008e573d6000803e3d6000fd5b5090508073ffffffffffffffffffffffffffffffffffffffff166373027f6d306040518263ffffffff1660e01b81526004016100ca91906101d2565b600060405180830381600087803b1580156100e457600080fd5b505af11580156100f8573d6000803e3d6000fd5b50505050600360025560038055622fffff6000205050565b60028055565b6000604051610124906101b6565b604051809103906000f080158015610140573d6000803e3d6000fd5b5090508073ffffffffffffffffffffffffffffffffffffffff166373027f6d306040518263ffffffff1660e01b815260040161017c91906101d2565b600060405180830381600087803b15801561019657600080fd5b505af11580156101aa573d6000803e3d6000fd5b50505050600360025550565b6102bd8061022083390190565b6101cc816101ed565b82525050565b60006020820190506101e760008301846101c3565b92915050565b60006101f8826101ff565b9050919050565b600073ffffffffffffffffffffffffffffffffffffffff8216905091905056fe608060405234801561001057600080fd5b5061029d806100206000396000f3fe608060405234801561001057600080fd5b506004361061002b5760003560e01c806373027f6d14610030575b600080fd5b61004a6004803603810190610045919061015b565b61004c565b005b6000808273ffffffffffffffffffffffffffffffffffffffff166040516024016040516020818303038152906040527fb28175c4000000000000000000000000000000000000000000000000000000007bffffffffffffffffffffffffffffffffffffffffffffffffffffffff19166020820180517bffffffffffffffffffffffffffffffffffffffffffffffffffffffff83818316178352505050506040516100f691906101b9565b6000604051808303816000865af19150503d8060008114610133576040519150601f19603f3d011682016040523d82523d6000602084013e610138565b606091505b509150915081600155505050565b60008135905061015581610250565b92915050565b6000602082840312156101715761017061024b565b5b600061017f84828501610146565b91505092915050565b6000610193826101d0565b61019d81856101db565b93506101ad818560208601610218565b80840191505092915050565b60006101c58284610188565b915081905092915050565b600081519050919050565b600081905092915050565b60006101f1826101f8565b9050919050565b600073ffffffffffffffffffffffffffffffffffffffff82169050919050565b60005b8381101561023657808201518184015260208101905061021b565b83811115610245576000848401525b50505050565b600080fd5b610259816101e6565b811461026457600080fd5b5056fea2646970667358221220dedd00832e54f6e1dad8fcb92a0feea942901e4b3f82a1bc3ff143b00144170564736f6c63430008050033a26469706673582212203a868487712def90fe9d1c93bfdba6f4a5019cbbce879ee2e2f8021794d6f35564736f6c63430008050033",
                            "nonce" : "0x00",
                            "storage" : {
                                "0x02" : "0xff"
                            }
                        },
                        "0xa94f5374fce5edbc8e2a8697c15331677e6ebf0b" : {
                            "balance" : "0xe8d3cf7080",
                            "code" : "0x",
                            "nonce" : "0x01",
                            "storage" : {
                            }
                        }
                    },
                    "txbytes" : "0xf864800a83155cc094a000000000000000000000000000000000000000808454d1405f1ba0cad346e8ea63ee405061910adfc9606b342f1e59b95763fa4b6868eba82912c3a05d589ffbd73ce9a733a21160954cbe924c25ae164a7ff9736cefc7f2cbf4682b"
                }
            ],
            "London" : [
                {
                    "hash" : "0xd6d27391a0ec430552190068577b7b5a74e0016f4a1bffbb99f0787a650cdbb4",
                    "indexes" : {
                        "data" : 0,
                        "gas" : 0,
                        "value" : 0
                    },
                    "logs" : "0x1dcc4de8dec75d7aab85b567b6ccd41ad312451b948a7413f0a142fd40d49347",
                    "postState" : {
                        "0x7db299e0885c85039f56fa504a13dd8ce8a56aa7" : {
                            "balance" : "0x00",
                            "code" : "0x608060405234801561001057600080fd5b506004361061002b5760003560e01c806373027f6d14610030575b600080fd5b61004a6004803603810190610045919061015b565b61004c565b005b6000808273ffffffffffffffffffffffffffffffffffffffff166040516024016040516020818303038152906040527fb28175c4000000000000000000000000000000000000000000000000000000007bffffffffffffffffffffffffffffffffffffffffffffffffffffffff19166020820180517bffffffffffffffffffffffffffffffffffffffffffffffffffffffff83818316178352505050506040516100f691906101b9565b6000604051808303816000865af19150503d8060008114610133576040519150601f19603f3d011682016040523d82523d6000602084013e610138565b606091505b509150915081600155505050565b60008135905061015581610250565b92915050565b6000602082840312156101715761017061024b565b5b600061017f84828501610146565b91505092915050565b6000610193826101d0565b61019d81856101db565b93506101ad818560208601610218565b80840191505092915050565b60006101c58284610188565b915081905092915050565b600081519050919050565b600081905092915050565b60006101f1826101f8565b9050919050565b600073ffffffffffffffffffffffffffffffffffffffff82169050919050565b60005b8381101561023657808201518184015260208101905061021b565b83811115610245576000848401525b50505050565b600080fd5b610259816101e6565b811461026457600080fd5b5056fea2646970667358221220dedd00832e54f6e1dad8fcb92a0feea942901e4b3f82a1bc3ff143b00144170564736f6c63430008050033",
                            "nonce" : "0x01",
                            "storage" : {
                                "0x01" : "0x01"
                            }
                        },
                        "0xa000000000000000000000000000000000000000" : {
                            "balance" : "0x0ba1a9ce0ba1a9ce",
                            "code" : "0x608060405234801561001057600080fd5b50600436106100415760003560e01c806354d1405f14610046578063b28175c414610050578063c04062261461005a575b600080fd5b61004e610064565b005b610058610110565b005b610062610116565b005b6000604051610072906101b6565b604051809103906000f08015801561008e573d6000803e3d6000fd5b5090508073ffffffffffffffffffffffffffffffffffffffff166373027f6d306040518263ffffffff1660e01b81526004016100ca91906101d2565b600060405180830381600087803b1580156100e457600080fd5b505af11580156100f8573d6000803e3d6000fd5b50505050600360025560038055622fffff6000205050565b60028055565b6000604051610124906101b6565b604051809103906000f080158015610140573d6000803e3d6000fd5b5090508073ffffffffffffffffffffffffffffffffffffffff166373027f6d306040518263ffffffff1660e01b815260040161017c91906101d2565b600060405180830381600087803b15801561019657600080fd5b505af11580156101aa573d6000803e3d6000fd5b50505050600360025550565b6102bd8061022083390190565b6101cc816101ed565b82525050565b60006020820190506101e760008301846101c3565b92915050565b60006101f8826101ff565b9050919050565b600073ffffffffffffffffffffffffffffffffffffffff8216905091905056fe608060405234801561001057600080fd5b5061029d806100206000396000f3fe608060405234801561001057600080fd5b506004361061002b5760003560e01c806373027f6d14610030575b600080fd5b61004a6004803603810190610045919061015b565b61004c565b005b6000808273ffffffffffffffffffffffffffffffffffffffff166040516024016040516020818303038152906040527fb28175c4000000000000000000000000000000000000000000000000000000007bffffffffffffffffffffffffffffffffffffffffffffffffffffffff19166020820180517bffffffffffffffffffffffffffffffffffffffffffffffffffffffff83818316178352505050506040516100f691906101b9565b6000604051808303816000865af19150503d8060008114610133576040519150601f19603f3d011682016040523d82523d6000602084013e610138565b606091505b509150915081600155505050565b60008135905061015581610250565b92915050565b6000602082840312156101715761017061024b565b5b600061017f84828501610146565b91505092915050565b6000610193826101d0565b61019d81856101db565b93506101ad818560208601610218565b80840191505092915050565b60006101c58284610188565b915081905092915050565b600081519050919050565b600081905092915050565b60006101f1826101f8565b9050919050565b600073ffffffffffffffffffffffffffffffffffffffff82169050919050565b60005b8381101561023657808201518184015260208101905061021b565b83811115610245576000848401525b50505050565b600080fd5b610259816101e6565b811461026457600080fd5b5056fea2646970667358221220dedd00832e54f6e1dad8fcb92a0feea942901e4b3f82a1bc3ff143b00144170564736f6c63430008050033a26469706673582212203a868487712def90fe9d1c93bfdba6f4a5019cbbce879ee2e2f8021794d6f35564736f6c63430008050033",
                            "nonce" : "0x01",
                            "storage" : {
                                "0x02" : "0x03"
                            }
                        },
                        "0xa94f5374fce5edbc8e2a8697c15331677e6ebf0b" : {
                            "balance" : "0xe8d48405f4",
                            "code" : "0x",
                            "nonce" : "0x01",
                            "storage" : {
                            }
                        }
                    },
                    "txbytes" : "0xf864800a83155cc094a0000000000000000000000000000000000000008084c04062261ba0e8762d27448f2915a02a7151cc5b30fb408f563dd028b9550fb533d9a45ed27ca00682b95824efb788cc3206dfc8f71e50dcc0ccdd957921e06cdc5af2bf0d96df"
                },
                {
                    "hash" : "0x74c4eef51718e40f2b5259078c9dfc376d0d2d4a9007c49eb61764747cc5d652",
                    "indexes" : {
                        "data" : 1,
                        "gas" : 0,
                        "value" : 0
                    },
                    "logs" : "0x1dcc4de8dec75d7aab85b567b6ccd41ad312451b948a7413f0a142fd40d49347",
                    "postState" : {
                        "0xa000000000000000000000000000000000000000" : {
                            "balance" : "0x0ba1a9ce0ba1a9ce",
                            "code" : "0x608060405234801561001057600080fd5b50600436106100415760003560e01c806354d1405f14610046578063b28175c414610050578063c04062261461005a575b600080fd5b61004e610064565b005b610058610110565b005b610062610116565b005b6000604051610072906101b6565b604051809103906000f08015801561008e573d6000803e3d6000fd5b5090508073ffffffffffffffffffffffffffffffffffffffff166373027f6d306040518263ffffffff1660e01b81526004016100ca91906101d2565b600060405180830381600087803b1580156100e457600080fd5b505af11580156100f8573d6000803e3d6000fd5b50505050600360025560038055622fffff6000205050565b60028055565b6000604051610124906101b6565b604051809103906000f080158015610140573d6000803e3d6000fd5b5090508073ffffffffffffffffffffffffffffffffffffffff166373027f6d306040518263ffffffff1660e01b815260040161017c91906101d2565b600060405180830381600087803b15801561019657600080fd5b505af11580156101aa573d6000803e3d6000fd5b50505050600360025550565b6102bd8061022083390190565b6101cc816101ed565b82525050565b60006020820190506101e760008301846101c3565b92915050565b60006101f8826101ff565b9050919050565b600073ffffffffffffffffffffffffffffffffffffffff8216905091905056fe608060405234801561001057600080fd5b5061029d806100206000396000f3fe608060405234801561001057600080fd5b506004361061002b5760003560e01c806373027f6d14610030575b600080fd5b61004a6004803603810190610045919061015b565b61004c565b005b6000808273ffffffffffffffffffffffffffffffffffffffff166040516024016040516020818303038152906040527fb28175c4000000000000000000000000000000000000000000000000000000007bffffffffffffffffffffffffffffffffffffffffffffffffffffffff19166020820180517bffffffffffffffffffffffffffffffffffffffffffffffffffffffff83818316178352505050506040516100f691906101b9565b6000604051808303816000865af19150503d8060008114610133576040519150601f19603f3d011682016040523d82523d6000602084013e610138565b606091505b509150915081600155505050565b60008135905061015581610250565b92915050565b6000602082840312156101715761017061024b565b5b600061017f84828501610146565b91505092915050565b6000610193826101d0565b61019d81856101db565b93506101ad818560208601610218565b80840191505092915050565b60006101c58284610188565b915081905092915050565b600081519050919050565b600081905092915050565b60006101f1826101f8565b9050919050565b600073ffffffffffffffffffffffffffffffffffffffff82169050919050565b60005b8381101561023657808201518184015260208101905061021b565b83811115610245576000848401525b50505050565b600080fd5b610259816101e6565b811461026457600080fd5b5056fea2646970667358221220dedd00832e54f6e1dad8fcb92a0feea942901e4b3f82a1bc3ff143b00144170564736f6c63430008050033a26469706673582212203a868487712def90fe9d1c93bfdba6f4a5019cbbce879ee2e2f8021794d6f35564736f6c63430008050033",
                            "nonce" : "0x00",
                            "storage" : {
                                "0x02" : "0xff"
                            }
                        },
                        "0xa94f5374fce5edbc8e2a8697c15331677e6ebf0b" : {
                            "balance" : "0xe8d3cf7080",
                            "code" : "0x",
                            "nonce" : "0x01",
                            "storage" : {
                            }
                        }
                    },
                    "txbytes" : "0xf864800a83155cc094a000000000000000000000000000000000000000808454d1405f1ba0cad346e8ea63ee405061910adfc9606b342f1e59b95763fa4b6868eba82912c3a05d589ffbd73ce9a733a21160954cbe924c25ae164a7ff9736cefc7f2cbf4682b"
                }
            ]
        },
        "pre" : {
            "0xa000000000000000000000000000000000000000" : {
                "balance" : "0x0ba1a9ce0ba1a9ce",
                "code" : "0x608060405234801561001057600080fd5b50600436106100415760003560e01c806354d1405f14610046578063b28175c414610050578063c04062261461005a575b600080fd5b61004e610064565b005b610058610110565b005b610062610116565b005b6000604051610072906101b6565b604051809103906000f08015801561008e573d6000803e3d6000fd5b5090508073ffffffffffffffffffffffffffffffffffffffff166373027f6d306040518263ffffffff1660e01b81526004016100ca91906101d2565b600060405180830381600087803b1580156100e457600080fd5b505af11580156100f8573d6000803e3d6000fd5b50505050600360025560038055622fffff6000205050565b60028055565b6000604051610124906101b6565b604051809103906000f080158015610140573d6000803e3d6000fd5b5090508073ffffffffffffffffffffffffffffffffffffffff166373027f6d306040518263ffffffff1660e01b815260040161017c91906101d2565b600060405180830381600087803b15801561019657600080fd5b505af11580156101aa573d6000803e3d6000fd5b50505050600360025550565b6102bd8061022083390190565b6101cc816101ed565b82525050565b60006020820190506101e760008301846101c3565b92915050565b60006101f8826101ff565b9050919050565b600073ffffffffffffffffffffffffffffffffffffffff8216905091905056fe608060405234801561001057600080fd5b5061029d806100206000396000f3fe608060405234801561001057600080fd5b506004361061002b5760003560e01c806373027f6d14610030575b600080fd5b61004a6004803603810190610045919061015b565b61004c565b005b6000808273ffffffffffffffffffffffffffffffffffffffff166040516024016040516020818303038152906040527fb28175c4000000000000000000000000000000000000000000000000000000007bffffffffffffffffffffffffffffffffffffffffffffffffffffffff19166020820180517bffffffffffffffffffffffffffffffffffffffffffffffffffffffff83818316178352505050506040516100f691906101b9565b6000604051808303816000865af19150503d8060008114610133576040519150601f19603f3d011682016040523d82523d6000602084013e610138565b606091505b509150915081600155505050565b60008135905061015581610250565b92915050565b6000602082840312156101715761017061024b565b5b600061017f84828501610146565b91505092915050565b6000610193826101d0565b61019d81856101db565b93506101ad818560208601610218565b80840191505092915050565b60006101c58284610188565b915081905092915050565b600081519050919050565b600081905092915050565b60006101f1826101f8565b9050919050565b600073ffffffffffffffffffffffffffffffffffffffff82169050919050565b60005b8381101561023657808201518184015260208101905061021b565b83811115610245576000848401525b50505050565b600080fd5b610259816101e6565b811461026457600080fd5b5056fea2646970667358221220dedd00832e54f6e1dad8fcb92a0feea942901e4b3f82a1bc3ff143b00144170564736f6c63430008050033a26469706673582212203a868487712def90fe9d1c93bfdba6f4a5019cbbce879ee2e2f8021794d6f35564736f6c63430008050033",
                "nonce" : "0x00",
                "storage" : {
                    "0x02" : "0xff"
                }
            },
            "0xa94f5374fce5edbc8e2a8697c15331677e6ebf0b" : {
                "balance" : "0xe8d4a51000",
                "code" : "0x",
                "nonce" : "0x00",
                "storage" : {
                }
            }
        },
        "transaction" : {
            "data" : [
                "0xc0406226",
                "0x54d1405f"
            ],
            "gasLimit" : [
                "0x155cc0"
            ],
            "gasPrice" : "0x0a",
            "nonce" : "0x00",
            "secretKey" : "0x45a915e4d060149eb4365960e6a7a45f334393093061116b197e3240065ff2d8",
            "to" : "0xa000000000000000000000000000000000000000",
            "value" : [
                "0x00"
            ]
        }
    }
}