{
    "RevertRemoteSubCallStorageOOG" : {
        "_info" : {
            "comment" : "contract A calls itself. In the sub-call, storage is modified, the calls returns successfully. After that, storage is modified again and then an exception occurs.  0xc0406226 == sha(run())",
            "filling-rpc-server" : "evm version 1.10.4-stable-aa637fd3",
            "filling-tool-version" : "retesteth-0.1.1-eip1559+commit.0e1fbab0.Linux.g++",
            "lllcversion" : "Version: 0.5.14-develop.2022.1.13+commit.401d5358.Linux.g++",
            "source" : "src/GeneralStateTestsFiller/stRevertTest/RevertRemoteSubCallStorageOOGFiller.yml",
            "sourceHash" : "581841bea36d99d71789ca116f41fb0a5cce731e0830d7b16afc0db9005b85f2"
        },
        "env" : {
            "currentCoinbase" : "0x2adc25665018aa1fe0e6bc666dac8fc2697ff9ba",
            "currentDifficulty" : "0x020000",
            "currentNumber" : "0x01",
            "currentTimestamp" : "0x03e8",
            "previousHash" : "0x5e20a0453cecd065ea59c37ac63e079ee08998b6045136a8ce6635c7912ec0b6",
            "currentGasLimit" : "0x989680"
        },
        "post" : {
            "Berlin" : [
                {
                    "indexes" : {
                        "data" : 0,
                        "gas" : 0,
                        "value" : 0
                    },
                    "hash" : "0x30ffacb347c25aa4b212b3f12e40cda539aae5323208b85be86f049f4be58a75",
                    "txbytes" : "0xf864800a83155cc094a0000000000000000000000000000000000000008084c04062261ba0e8762d27448f2915a02a7151cc5b30fb408f563dd028b9550fb533d9a45ed27ca00682b95824efb788cc3206dfc8f71e50dcc0ccdd957921e06cdc5af2bf0d96df",
                    "postState" : {
                        "0x2adc25665018aa1fe0e6bc666dac8fc2697ff9ba" : {
                            "code" : "0x",
                            "nonce" : "0x00",
                            "balance" : "0x1ba8c8",
                            "storage" : {
                            }
                        },
                        "0x7db299e0885c85039f56fa504a13dd8ce8a56aa7" : {
                            "code" : "0x608060405234801561001057600080fd5b506004361061002b5760003560e01c806373027f6d14610030575b600080fd5b6100726004803603602081101561004657600080fd5b81019080803573ffffffffffffffffffffffffffffffffffffffff169060200190929190505050610074565b005b600060608273ffffffffffffffffffffffffffffffffffffffff166040516024016040516020818303038152906040527fb28175c4000000000000000000000000000000000000000000000000000000007bffffffffffffffffffffffffffffffffffffffffffffffffffffffff19166020820180517bffffffffffffffffffffffffffffffffffffffffffffffffffffffff83818316178352505050506040518082805190602001908083835b602083106101455780518252602082019150602081019050602083039250610122565b6001836020036101000a0380198251168184511680821785525050505050509050019150506000604051808303816000865af19150503d80600081146101a7576040519150601f19603f3d011682016040523d82523d6000602084013e6101ac565b606091505b50915091508160015550505056fea2646970667358221220d162f8d5570548c629f44f748d540d00e5d4df96e1ba2454c04507eb4bc8cff864736f6c63430007000033",
                            "nonce" : "0x01",
                            "balance" : "0x00",
                            "storage" : {
                                "0x01" : "0x01"
                            }
                        },
                        "0xa000000000000000000000000000000000000000" : {
                            "code" : "0x608060405234801561001057600080fd5b50600436106100415760003560e01c806354d1405f14610046578063b28175c414610050578063c04062261461005a575b600080fd5b61004e610064565b005b610058610126565b005b61006261012c565b005b6000604051610072906101e2565b604051809103906000f08015801561008e573d6000803e3d6000fd5b5090508073ffffffffffffffffffffffffffffffffffffffff166373027f6d306040518263ffffffff1660e01b8152600401808273ffffffffffffffffffffffffffffffffffffffff168152602001915050600060405180830381600087803b1580156100fa57600080fd5b505af115801561010e573d6000803e3d6000fd5b50505050600360025560038055622fffff6000205050565b60028055565b600060405161013a906101e2565b604051809103906000f080158015610156573d6000803e3d6000fd5b5090508073ffffffffffffffffffffffffffffffffffffffff166373027f6d306040518263ffffffff1660e01b8152600401808273ffffffffffffffffffffffffffffffffffffffff168152602001915050600060405180830381600087803b1580156101c257600080fd5b505af11580156101d6573d6000803e3d6000fd5b50505050600360025550565b610210806101f08339019056fe608060405234801561001057600080fd5b506101f0806100206000396000f3fe608060405234801561001057600080fd5b506004361061002b5760003560e01c806373027f6d14610030575b600080fd5b6100726004803603602081101561004657600080fd5b81019080803573ffffffffffffffffffffffffffffffffffffffff169060200190929190505050610074565b005b600060608273ffffffffffffffffffffffffffffffffffffffff166040516024016040516020818303038152906040527fb28175c4000000000000000000000000000000000000000000000000000000007bffffffffffffffffffffffffffffffffffffffffffffffffffffffff19166020820180517bffffffffffffffffffffffffffffffffffffffffffffffffffffffff83818316178352505050506040518082805190602001908083835b602083106101455780518252602082019150602081019050602083039250610122565b6001836020036101000a0380198251168184511680821785525050505050509050019150506000604051808303816000865af19150503d80600081146101a7576040519150601f19603f3d011682016040523d82523d6000602084013e6101ac565b606091505b50915091508160015550505056fea2646970667358221220d162f8d5570548c629f44f748d540d00e5d4df96e1ba2454c04507eb4bc8cff864736f6c63430007000033a2646970667358221220dc99be0df9d6ffb09323bd21927430e374e6055bffadea48bb576f097e98d9df64736f6c63430007000033",
                            "nonce" : "0x01",
                            "balance" : "0x0ba1a9ce0ba1a9ce",
                            "storage" : {
                                "0x02" : "0x03"
                            }
                        },
                        "0xa94f5374fce5edbc8e2a8697c15331677e6ebf0b" : {
                            "code" : "0x",
                            "nonce" : "0x01",
                            "balance" : "0xe8d4896738",
                            "storage" : {
                            }
                        }
                    },
                    "logs" : "0x1dcc4de8dec75d7aab85b567b6ccd41ad312451b948a7413f0a142fd40d49347"
                },
                {
                    "indexes" : {
                        "data" : 1,
                        "gas" : 0,
                        "value" : 0
                    },
                    "hash" : "0x13ab540aa592737ebdb2701916047c154b37a5b4587c248ca6ddff227bdbe6a6",
                    "txbytes" : "0xf864800a83155cc094a000000000000000000000000000000000000000808454d1405f1ba0cad346e8ea63ee405061910adfc9606b342f1e59b95763fa4b6868eba82912c3a05d589ffbd73ce9a733a21160954cbe924c25ae164a7ff9736cefc7f2cbf4682b",
                    "postState" : {
                        "0x2adc25665018aa1fe0e6bc666dac8fc2697ff9ba" : {
                            "code" : "0x",
                            "nonce" : "0x00",
                            "balance" : "0xd59f80",
                            "storage" : {
                            }
                        },
                        "0xa000000000000000000000000000000000000000" : {
                            "code" : "0x608060405234801561001057600080fd5b50600436106100415760003560e01c806354d1405f14610046578063b28175c414610050578063c04062261461005a575b600080fd5b61004e610064565b005b610058610126565b005b61006261012c565b005b6000604051610072906101e2565b604051809103906000f08015801561008e573d6000803e3d6000fd5b5090508073ffffffffffffffffffffffffffffffffffffffff166373027f6d306040518263ffffffff1660e01b8152600401808273ffffffffffffffffffffffffffffffffffffffff168152602001915050600060405180830381600087803b1580156100fa57600080fd5b505af115801561010e573d6000803e3d6000fd5b50505050600360025560038055622fffff6000205050565b60028055565b600060405161013a906101e2565b604051809103906000f080158015610156573d6000803e3d6000fd5b5090508073ffffffffffffffffffffffffffffffffffffffff166373027f6d306040518263ffffffff1660e01b8152600401808273ffffffffffffffffffffffffffffffffffffffff168152602001915050600060405180830381600087803b1580156101c257600080fd5b505af11580156101d6573d6000803e3d6000fd5b50505050600360025550565b610210806101f08339019056fe608060405234801561001057600080fd5b506101f0806100206000396000f3fe608060405234801561001057600080fd5b506004361061002b5760003560e01c806373027f6d14610030575b600080fd5b6100726004803603602081101561004657600080fd5b81019080803573ffffffffffffffffffffffffffffffffffffffff169060200190929190505050610074565b005b600060608273ffffffffffffffffffffffffffffffffffffffff166040516024016040516020818303038152906040527fb28175c4000000000000000000000000000000000000000000000000000000007bffffffffffffffffffffffffffffffffffffffffffffffffffffffff19166020820180517bffffffffffffffffffffffffffffffffffffffffffffffffffffffff83818316178352505050506040518082805190602001908083835b602083106101455780518252602082019150602081019050602083039250610122565b6001836020036101000a0380198251168184511680821785525050505050509050019150506000604051808303816000865af19150503d80600081146101a7576040519150601f19603f3d011682016040523d82523d6000602084013e6101ac565b606091505b50915091508160015550505056fea2646970667358221220d162f8d5570548c629f44f748d540d00e5d4df96e1ba2454c04507eb4bc8cff864736f6c63430007000033a2646970667358221220dc99be0df9d6ffb09323bd21927430e374e6055bffadea48bb576f097e98d9df64736f6c63430007000033",
                            "nonce" : "0x00",
                            "balance" : "0x0ba1a9ce0ba1a9ce",
                            "storage" : {
                                "0x02" : "0xff"
                            }
                        },
                        "0xa94f5374fce5edbc8e2a8697c15331677e6ebf0b" : {
                            "code" : "0x",
                            "nonce" : "0x01",
                            "balance" : "0xe8d3cf7080",
                            "storage" : {
                            }
                        }
                    },
                    "logs" : "0x1dcc4de8dec75d7aab85b567b6ccd41ad312451b948a7413f0a142fd40d49347"
                }
            ],
            "Istanbul" : [
                {
                    "indexes" : {
                        "data" : 0,
                        "gas" : 0,
                        "value" : 0
                    },
                    "hash" : "0xc4c6fe0addcc029b206bed559afcaf76ff864d590a70a39315572ae05fac0888",
                    "txbytes" : "0xf864800a83155cc094a0000000000000000000000000000000000000008084c04062261ba0e8762d27448f2915a02a7151cc5b30fb408f563dd028b9550fb533d9a45ed27ca00682b95824efb788cc3206dfc8f71e50dcc0ccdd957921e06cdc5af2bf0d96df",
                    "postState" : {
                        "0x2adc25665018aa1fe0e6bc666dac8fc2697ff9ba" : {
                            "code" : "0x",
                            "nonce" : "0x00",
                            "balance" : "0x1bb868",
                            "storage" : {
                            }
                        },
                        "0x7db299e0885c85039f56fa504a13dd8ce8a56aa7" : {
                            "code" : "0x608060405234801561001057600080fd5b506004361061002b5760003560e01c806373027f6d14610030575b600080fd5b6100726004803603602081101561004657600080fd5b81019080803573ffffffffffffffffffffffffffffffffffffffff169060200190929190505050610074565b005b600060608273ffffffffffffffffffffffffffffffffffffffff166040516024016040516020818303038152906040527fb28175c4000000000000000000000000000000000000000000000000000000007bffffffffffffffffffffffffffffffffffffffffffffffffffffffff19166020820180517bffffffffffffffffffffffffffffffffffffffffffffffffffffffff83818316178352505050506040518082805190602001908083835b602083106101455780518252602082019150602081019050602083039250610122565b6001836020036101000a0380198251168184511680821785525050505050509050019150506000604051808303816000865af19150503d80600081146101a7576040519150601f19603f3d011682016040523d82523d6000602084013e6101ac565b606091505b50915091508160015550505056fea2646970667358221220d162f8d5570548c629f44f748d540d00e5d4df96e1ba2454c04507eb4bc8cff864736f6c63430007000033",
                            "nonce" : "0x01",
                            "balance" : "0x00",
                            "storage" : {
                                "0x01" : "0x01"
                            }
                        },
                        "0xa000000000000000000000000000000000000000" : {
                            "code" : "0x608060405234801561001057600080fd5b50600436106100415760003560e01c806354d1405f14610046578063b28175c414610050578063c04062261461005a575b600080fd5b61004e610064565b005b610058610126565b005b61006261012c565b005b6000604051610072906101e2565b604051809103906000f08015801561008e573d6000803e3d6000fd5b5090508073ffffffffffffffffffffffffffffffffffffffff166373027f6d306040518263ffffffff1660e01b8152600401808273ffffffffffffffffffffffffffffffffffffffff168152602001915050600060405180830381600087803b1580156100fa57600080fd5b505af115801561010e573d6000803e3d6000fd5b50505050600360025560038055622fffff6000205050565b60028055565b600060405161013a906101e2565b604051809103906000f080158015610156573d6000803e3d6000fd5b5090508073ffffffffffffffffffffffffffffffffffffffff166373027f6d306040518263ffffffff1660e01b8152600401808273ffffffffffffffffffffffffffffffffffffffff168152602001915050600060405180830381600087803b1580156101c257600080fd5b505af11580156101d6573d6000803e3d6000fd5b50505050600360025550565b610210806101f08339019056fe608060405234801561001057600080fd5b506101f0806100206000396000f3fe608060405234801561001057600080fd5b506004361061002b5760003560e01c806373027f6d14610030575b600080fd5b6100726004803603602081101561004657600080fd5b81019080803573ffffffffffffffffffffffffffffffffffffffff169060200190929190505050610074565b005b600060608273ffffffffffffffffffffffffffffffffffffffff166040516024016040516020818303038152906040527fb28175c4000000000000000000000000000000000000000000000000000000007bffffffffffffffffffffffffffffffffffffffffffffffffffffffff19166020820180517bffffffffffffffffffffffffffffffffffffffffffffffffffffffff83818316178352505050506040518082805190602001908083835b602083106101455780518252602082019150602081019050602083039250610122565b6001836020036101000a0380198251168184511680821785525050505050509050019150506000604051808303816000865af19150503d80600081146101a7576040519150601f19603f3d011682016040523d82523d6000602084013e6101ac565b606091505b50915091508160015550505056fea2646970667358221220d162f8d5570548c629f44f748d540d00e5d4df96e1ba2454c04507eb4bc8cff864736f6c63430007000033a2646970667358221220dc99be0df9d6ffb09323bd21927430e374e6055bffadea48bb576f097e98d9df64736f6c63430007000033",
                            "nonce" : "0x01",
                            "balance" : "0x0ba1a9ce0ba1a9ce",
                            "storage" : {
                                "0x02" : "0x03"
                            }
                        },
                        "0xa94f5374fce5edbc8e2a8697c15331677e6ebf0b" : {
                            "code" : "0x",
                            "nonce" : "0x01",
                            "balance" : "0xe8d4895798",
                            "storage" : {
                            }
                        }
                    },
                    "logs" : "0x1dcc4de8dec75d7aab85b567b6ccd41ad312451b948a7413f0a142fd40d49347"
                },
                {
                    "indexes" : {
                        "data" : 1,
                        "gas" : 0,
                        "value" : 0
                    },
                    "hash" : "0x13ab540aa592737ebdb2701916047c154b37a5b4587c248ca6ddff227bdbe6a6",
                    "txbytes" : "0xf864800a83155cc094a000000000000000000000000000000000000000808454d1405f1ba0cad346e8ea63ee405061910adfc9606b342f1e59b95763fa4b6868eba82912c3a05d589ffbd73ce9a733a21160954cbe924c25ae164a7ff9736cefc7f2cbf4682b",
                    "postState" : {
                        "0x2adc25665018aa1fe0e6bc666dac8fc2697ff9ba" : {
                            "code" : "0x",
                            "nonce" : "0x00",
                            "balance" : "0xd59f80",
                            "storage" : {
                            }
                        },
                        "0xa000000000000000000000000000000000000000" : {
                            "code" : "0x608060405234801561001057600080fd5b50600436106100415760003560e01c806354d1405f14610046578063b28175c414610050578063c04062261461005a575b600080fd5b61004e610064565b005b610058610126565b005b61006261012c565b005b6000604051610072906101e2565b604051809103906000f08015801561008e573d6000803e3d6000fd5b5090508073ffffffffffffffffffffffffffffffffffffffff166373027f6d306040518263ffffffff1660e01b8152600401808273ffffffffffffffffffffffffffffffffffffffff168152602001915050600060405180830381600087803b1580156100fa57600080fd5b505af115801561010e573d6000803e3d6000fd5b50505050600360025560038055622fffff6000205050565b60028055565b600060405161013a906101e2565b604051809103906000f080158015610156573d6000803e3d6000fd5b5090508073ffffffffffffffffffffffffffffffffffffffff166373027f6d306040518263ffffffff1660e01b8152600401808273ffffffffffffffffffffffffffffffffffffffff168152602001915050600060405180830381600087803b1580156101c257600080fd5b505af11580156101d6573d6000803e3d6000fd5b50505050600360025550565b610210806101f08339019056fe608060405234801561001057600080fd5b506101f0806100206000396000f3fe608060405234801561001057600080fd5b506004361061002b5760003560e01c806373027f6d14610030575b600080fd5b6100726004803603602081101561004657600080fd5b81019080803573ffffffffffffffffffffffffffffffffffffffff169060200190929190505050610074565b005b600060608273ffffffffffffffffffffffffffffffffffffffff166040516024016040516020818303038152906040527fb28175c4000000000000000000000000000000000000000000000000000000007bffffffffffffffffffffffffffffffffffffffffffffffffffffffff19166020820180517bffffffffffffffffffffffffffffffffffffffffffffffffffffffff83818316178352505050506040518082805190602001908083835b602083106101455780518252602082019150602081019050602083039250610122565b6001836020036101000a0380198251168184511680821785525050505050509050019150506000604051808303816000865af19150503d80600081146101a7576040519150601f19603f3d011682016040523d82523d6000602084013e6101ac565b606091505b50915091508160015550505056fea2646970667358221220d162f8d5570548c629f44f748d540d00e5d4df96e1ba2454c04507eb4bc8cff864736f6c63430007000033a2646970667358221220dc99be0df9d6ffb09323bd21927430e374e6055bffadea48bb576f097e98d9df64736f6c63430007000033",
                            "nonce" : "0x00",
                            "balance" : "0x0ba1a9ce0ba1a9ce",
                            "storage" : {
                                "0x02" : "0xff"
                            }
                        },
                        "0xa94f5374fce5edbc8e2a8697c15331677e6ebf0b" : {
                            "code" : "0x",
                            "nonce" : "0x01",
                            "balance" : "0xe8d3cf7080",
                            "storage" : {
                            }
                        }
                    },
                    "logs" : "0x1dcc4de8dec75d7aab85b567b6ccd41ad312451b948a7413f0a142fd40d49347"
                }
            ],
            "London" : [
                {
                    "indexes" : {
                        "data" : 0,
                        "gas" : 0,
                        "value" : 0
                    },
                    "hash" : "0xb2b390c83c693613628b156863c243771f9e51daa588535ff9f8a9389473e833",
                    "txbytes" : "0xf864800a83155cc094a0000000000000000000000000000000000000008084c04062261ba0e8762d27448f2915a02a7151cc5b30fb408f563dd028b9550fb533d9a45ed27ca00682b95824efb788cc3206dfc8f71e50dcc0ccdd957921e06cdc5af2bf0d96df",
                    "postState" : {
                        "0x7db299e0885c85039f56fa504a13dd8ce8a56aa7" : {
                            "code" : "0x608060405234801561001057600080fd5b506004361061002b5760003560e01c806373027f6d14610030575b600080fd5b6100726004803603602081101561004657600080fd5b81019080803573ffffffffffffffffffffffffffffffffffffffff169060200190929190505050610074565b005b600060608273ffffffffffffffffffffffffffffffffffffffff166040516024016040516020818303038152906040527fb28175c4000000000000000000000000000000000000000000000000000000007bffffffffffffffffffffffffffffffffffffffffffffffffffffffff19166020820180517bffffffffffffffffffffffffffffffffffffffffffffffffffffffff83818316178352505050506040518082805190602001908083835b602083106101455780518252602082019150602081019050602083039250610122565b6001836020036101000a0380198251168184511680821785525050505050509050019150506000604051808303816000865af19150503d80600081146101a7576040519150601f19603f3d011682016040523d82523d6000602084013e6101ac565b606091505b50915091508160015550505056fea2646970667358221220d162f8d5570548c629f44f748d540d00e5d4df96e1ba2454c04507eb4bc8cff864736f6c63430007000033",
                            "nonce" : "0x01",
                            "balance" : "0x00",
                            "storage" : {
                                "0x01" : "0x01"
                            }
                        },
                        "0xa000000000000000000000000000000000000000" : {
                            "code" : "0x608060405234801561001057600080fd5b50600436106100415760003560e01c806354d1405f14610046578063b28175c414610050578063c04062261461005a575b600080fd5b61004e610064565b005b610058610126565b005b61006261012c565b005b6000604051610072906101e2565b604051809103906000f08015801561008e573d6000803e3d6000fd5b5090508073ffffffffffffffffffffffffffffffffffffffff166373027f6d306040518263ffffffff1660e01b8152600401808273ffffffffffffffffffffffffffffffffffffffff168152602001915050600060405180830381600087803b1580156100fa57600080fd5b505af115801561010e573d6000803e3d6000fd5b50505050600360025560038055622fffff6000205050565b60028055565b600060405161013a906101e2565b604051809103906000f080158015610156573d6000803e3d6000fd5b5090508073ffffffffffffffffffffffffffffffffffffffff166373027f6d306040518263ffffffff1660e01b8152600401808273ffffffffffffffffffffffffffffffffffffffff168152602001915050600060405180830381600087803b1580156101c257600080fd5b505af11580156101d6573d6000803e3d6000fd5b50505050600360025550565b610210806101f08339019056fe608060405234801561001057600080fd5b506101f0806100206000396000f3fe608060405234801561001057600080fd5b506004361061002b5760003560e01c806373027f6d14610030575b600080fd5b6100726004803603602081101561004657600080fd5b81019080803573ffffffffffffffffffffffffffffffffffffffff169060200190929190505050610074565b005b600060608273ffffffffffffffffffffffffffffffffffffffff166040516024016040516020818303038152906040527fb28175c4000000000000000000000000000000000000000000000000000000007bffffffffffffffffffffffffffffffffffffffffffffffffffffffff19166020820180517bffffffffffffffffffffffffffffffffffffffffffffffffffffffff83818316178352505050506040518082805190602001908083835b602083106101455780518252602082019150602081019050602083039250610122565b6001836020036101000a0380198251168184511680821785525050505050509050019150506000604051808303816000865af19150503d80600081146101a7576040519150601f19603f3d011682016040523d82523d6000602084013e6101ac565b606091505b50915091508160015550505056fea2646970667358221220d162f8d5570548c629f44f748d540d00e5d4df96e1ba2454c04507eb4bc8cff864736f6c63430007000033a2646970667358221220dc99be0df9d6ffb09323bd21927430e374e6055bffadea48bb576f097e98d9df64736f6c63430007000033",
                            "nonce" : "0x01",
                            "balance" : "0x0ba1a9ce0ba1a9ce",
                            "storage" : {
                                "0x02" : "0x03"
                            }
                        },
                        "0xa94f5374fce5edbc8e2a8697c15331677e6ebf0b" : {
                            "code" : "0x",
                            "nonce" : "0x01",
                            "balance" : "0xe8d4896738",
                            "storage" : {
                            }
                        }
                    },
                    "logs" : "0x1dcc4de8dec75d7aab85b567b6ccd41ad312451b948a7413f0a142fd40d49347"
                },
                {
                    "indexes" : {
                        "data" : 1,
                        "gas" : 0,
                        "value" : 0
                    },
                    "hash" : "0xab700496153839e7259b602f463ce9ebb043383e7d2809d3d606a1796ecb7121",
                    "txbytes" : "0xf864800a83155cc094a000000000000000000000000000000000000000808454d1405f1ba0cad346e8ea63ee405061910adfc9606b342f1e59b95763fa4b6868eba82912c3a05d589ffbd73ce9a733a21160954cbe924c25ae164a7ff9736cefc7f2cbf4682b",
                    "postState" : {
                        "0xa000000000000000000000000000000000000000" : {
                            "code" : "0x608060405234801561001057600080fd5b50600436106100415760003560e01c806354d1405f14610046578063b28175c414610050578063c04062261461005a575b600080fd5b61004e610064565b005b610058610126565b005b61006261012c565b005b6000604051610072906101e2565b604051809103906000f08015801561008e573d6000803e3d6000fd5b5090508073ffffffffffffffffffffffffffffffffffffffff166373027f6d306040518263ffffffff1660e01b8152600401808273ffffffffffffffffffffffffffffffffffffffff168152602001915050600060405180830381600087803b1580156100fa57600080fd5b505af115801561010e573d6000803e3d6000fd5b50505050600360025560038055622fffff6000205050565b60028055565b600060405161013a906101e2565b604051809103906000f080158015610156573d6000803e3d6000fd5b5090508073ffffffffffffffffffffffffffffffffffffffff166373027f6d306040518263ffffffff1660e01b8152600401808273ffffffffffffffffffffffffffffffffffffffff168152602001915050600060405180830381600087803b1580156101c257600080fd5b505af11580156101d6573d6000803e3d6000fd5b50505050600360025550565b610210806101f08339019056fe608060405234801561001057600080fd5b506101f0806100206000396000f3fe608060405234801561001057600080fd5b506004361061002b5760003560e01c806373027f6d14610030575b600080fd5b6100726004803603602081101561004657600080fd5b81019080803573ffffffffffffffffffffffffffffffffffffffff169060200190929190505050610074565b005b600060608273ffffffffffffffffffffffffffffffffffffffff166040516024016040516020818303038152906040527fb28175c4000000000000000000000000000000000000000000000000000000007bffffffffffffffffffffffffffffffffffffffffffffffffffffffff19166020820180517bffffffffffffffffffffffffffffffffffffffffffffffffffffffff83818316178352505050506040518082805190602001908083835b602083106101455780518252602082019150602081019050602083039250610122565b6001836020036101000a0380198251168184511680821785525050505050509050019150506000604051808303816000865af19150503d80600081146101a7576040519150601f19603f3d011682016040523d82523d6000602084013e6101ac565b606091505b50915091508160015550505056fea2646970667358221220d162f8d5570548c629f44f748d540d00e5d4df96e1ba2454c04507eb4bc8cff864736f6c63430007000033a2646970667358221220dc99be0df9d6ffb09323bd21927430e374e6055bffadea48bb576f097e98d9df64736f6c63430007000033",
                            "nonce" : "0x00",
                            "balance" : "0x0ba1a9ce0ba1a9ce",
                            "storage" : {
                                "0x02" : "0xff"
                            }
                        },
                        "0xa94f5374fce5edbc8e2a8697c15331677e6ebf0b" : {
                            "code" : "0x",
                            "nonce" : "0x01",
                            "balance" : "0xe8d3cf7080",
                            "storage" : {
                            }
                        }
                    },
                    "logs" : "0x1dcc4de8dec75d7aab85b567b6ccd41ad312451b948a7413f0a142fd40d49347"
                }
            ]
        },
        "pre" : {
            "0xa000000000000000000000000000000000000000" : {
                "balance" : "0x0ba1a9ce0ba1a9ce",
                "code" : "0x608060405234801561001057600080fd5b50600436106100415760003560e01c806354d1405f14610046578063b28175c414610050578063c04062261461005a575b600080fd5b61004e610064565b005b610058610126565b005b61006261012c565b005b6000604051610072906101e2565b604051809103906000f08015801561008e573d6000803e3d6000fd5b5090508073ffffffffffffffffffffffffffffffffffffffff166373027f6d306040518263ffffffff1660e01b8152600401808273ffffffffffffffffffffffffffffffffffffffff168152602001915050600060405180830381600087803b1580156100fa57600080fd5b505af115801561010e573d6000803e3d6000fd5b50505050600360025560038055622fffff6000205050565b60028055565b600060405161013a906101e2565b604051809103906000f080158015610156573d6000803e3d6000fd5b5090508073ffffffffffffffffffffffffffffffffffffffff166373027f6d306040518263ffffffff1660e01b8152600401808273ffffffffffffffffffffffffffffffffffffffff168152602001915050600060405180830381600087803b1580156101c257600080fd5b505af11580156101d6573d6000803e3d6000fd5b50505050600360025550565b610210806101f08339019056fe608060405234801561001057600080fd5b506101f0806100206000396000f3fe608060405234801561001057600080fd5b506004361061002b5760003560e01c806373027f6d14610030575b600080fd5b6100726004803603602081101561004657600080fd5b81019080803573ffffffffffffffffffffffffffffffffffffffff169060200190929190505050610074565b005b600060608273ffffffffffffffffffffffffffffffffffffffff166040516024016040516020818303038152906040527fb28175c4000000000000000000000000000000000000000000000000000000007bffffffffffffffffffffffffffffffffffffffffffffffffffffffff19166020820180517bffffffffffffffffffffffffffffffffffffffffffffffffffffffff83818316178352505050506040518082805190602001908083835b602083106101455780518252602082019150602081019050602083039250610122565b6001836020036101000a0380198251168184511680821785525050505050509050019150506000604051808303816000865af19150503d80600081146101a7576040519150601f19603f3d011682016040523d82523d6000602084013e6101ac565b606091505b50915091508160015550505056fea2646970667358221220d162f8d5570548c629f44f748d540d00e5d4df96e1ba2454c04507eb4bc8cff864736f6c63430007000033a2646970667358221220dc99be0df9d6ffb09323bd21927430e374e6055bffadea48bb576f097e98d9df64736f6c63430007000033",
                "nonce" : "0x00",
                "storage" : {
                    "0x02" : "0xff"
                }
            },
            "0xa94f5374fce5edbc8e2a8697c15331677e6ebf0b" : {
                "balance" : "0xe8d4a51000",
                "code" : "0x",
                "nonce" : "0x00",
                "storage" : {
                }
            }
        },
        "transaction" : {
            "data" : [
                "0xc0406226",
                "0x54d1405f"
            ],
            "gasPrice" : "0x0a",
            "gasLimit" : [
                "0x155cc0"
            ],
            "nonce" : "0x00",
            "secretKey" : "0x45a915e4d060149eb4365960e6a7a45f334393093061116b197e3240065ff2d8",
            "to" : "0xa000000000000000000000000000000000000000",
            "value" : [
                "0x00"
            ]
        }
    }
}