{
    "ExtCodeCopyTests" : {
        "_info" : {
            "comment" : "",
            "filling-rpc-server" : "evm version 1.11.5-stable-a38f4108",
            "filling-tool-version" : "retesteth-0.3.0-shanghai+commit.e98b5e62.Linux.g++",
            "generatedTestHash" : "c278d567c927b504977356e1a1e33e522b6e08b7e498c9d9503ab5abb5020f2a",
            "lllcversion" : "Version: 0.5.14-develop.2023.8.28+commit.b2b86751.Linux.g++",
            "solidity" : "Version: 0.8.17+commit.8df45f5f.Linux.g++",
            "source" : "src/GeneralStateTestsFiller/stCodeCopyTest/ExtCodeCopyTestsFiller.json",
            "sourceHash" : "159fe3ae6673921f7a921a0368084ad0134341f4d8df4bf0d1d84ab9b31c12d2"
        },
        "env" : {
            "currentBaseFee" : "0x0a",
            "currentCoinbase" : "0x2adc25665018aa1fe0e6bc666dac8fc2697ff9ba",
            "currentDifficulty" : "0x020000",
            "currentGasLimit" : "0x7fffffffffffffff",
            "currentNumber" : "0x28d138",
            "currentRandom" : "0x0000000000000000000000000000000000000000000000000000000000020000",
            "currentTimestamp" : "0x03e8",
            "previousHash" : "0x5e20a0453cecd065ea59c37ac63e079ee08998b6045136a8ce6635c7912ec0b6"
        },
        "post" : {
            "Berlin" : [
                {
                    "hash" : "0x6a04b8ec298844e5c94a0911a19e2f19bbf0312627c4bc84849e77428ae799f0",
                    "indexes" : {
                        "data" : 0,
                        "gas" : 0,
                        "value" : 0
                    },
                    "logs" : "0x1dcc4de8dec75d7aab85b567b6ccd41ad312451b948a7413f0a142fd40d49347",
                    "postState" : {
                        "0x2adc25665018aa1fe0e6bc666dac8fc2697ff9ba" : {
                            "balance" : "0x0c950e",
                            "code" : "0x",
                            "nonce" : "0x00",
                            "storage" : {
                            }
                        },
                        "0xa94f5374fce5edbc8e2a8697c15331677e6ebf0b" : {
                            "balance" : "0xfffffffffffffffffffffffffff36af1",
                            "code" : "0x",
                            "nonce" : "0x01",
                            "storage" : {
                            }
                        },
                        "0xaaaf5374fce5edbc8e2a8697c15331677e6ebf0b" : {
                            "balance" : "0x1b58",
                            "code" : "0x6002600a600173bbbf5374fce5edbc8e2a8697c15331677e6ebf0b3c6000516002556002600a600173cccf5374fce5edbc8e2a8697c15331677e6ebf0b3c6000516003556002600a600173dddf5374fce5edbc8e2a8697c15331677e6ebf0b3c6000516004556002600a600173eeef5374fce5edbc8e2a8697c15331677e6ebf0b3c60005160055560c8600a600173eeef5374fce5edbc8e2a8697c15331677e6ebf0b3c60005160065500",
                            "nonce" : "0x00",
                            "storage" : {
                                "0x05" : "0x11120000000000000000000000000000000000000000000000000000000000",
                                "0x06" : "0x11121314151617181920212223242526272829303132000000000000000000"
                            }
                        },
                        "0xcccf5374fce5edbc8e2a8697c15331677e6ebf0b" : {
                            "balance" : "0x00",
                            "code" : "0x",
                            "nonce" : "0x00",
                            "storage" : {
                            }
                        },
                        "0xdddf5374fce5edbc8e2a8697c15331677e6ebf0b" : {
                            "balance" : "0x00",
                            "code" : "0x",
                            "nonce" : "0x01",
                            "storage" : {
                            }
                        },
                        "0xeeef5374fce5edbc8e2a8697c15331677e6ebf0b" : {
                            "balance" : "0x00",
                            "code" : "0x1122334455667788991011121314151617181920212223242526272829303132",
                            "nonce" : "0x01",
                            "storage" : {
                            }
                        }
                    },
                    "txbytes" : "0xf860800a83061a8094aaaf5374fce5edbc8e2a8697c15331677e6ebf0b80801ca0f1326147c4351dc80fb7bef9b63c76a4aae39ceccd9ec54065339ba60f77c6d9a02567b84dc4697e7b6ca92bec948694fa9723fec84460588629068c5bbb1ee6de"
                }
            ],
            "Istanbul" : [
                {
                    "hash" : "0x7a75a27e7440a0ab3db693913d4f6e86b238471e11af8ece28793215be02e7a6",
                    "indexes" : {
                        "data" : 0,
                        "gas" : 0,
                        "value" : 0
                    },
                    "logs" : "0x1dcc4de8dec75d7aab85b567b6ccd41ad312451b948a7413f0a142fd40d49347",
                    "postState" : {
                        "0x2adc25665018aa1fe0e6bc666dac8fc2697ff9ba" : {
                            "balance" : "0x0a3b7e",
                            "code" : "0x",
                            "nonce" : "0x00",
                            "storage" : {
                            }
                        },
                        "0xa94f5374fce5edbc8e2a8697c15331677e6ebf0b" : {
                            "balance" : "0xfffffffffffffffffffffffffff5c481",
                            "code" : "0x",
                            "nonce" : "0x01",
                            "storage" : {
                            }
                        },
                        "0xaaaf5374fce5edbc8e2a8697c15331677e6ebf0b" : {
                            "balance" : "0x1b58",
                            "code" : "0x6002600a600173bbbf5374fce5edbc8e2a8697c15331677e6ebf0b3c6000516002556002600a600173cccf5374fce5edbc8e2a8697c15331677e6ebf0b3c6000516003556002600a600173dddf5374fce5edbc8e2a8697c15331677e6ebf0b3c6000516004556002600a600173eeef5374fce5edbc8e2a8697c15331677e6ebf0b3c60005160055560c8600a600173eeef5374fce5edbc8e2a8697c15331677e6ebf0b3c60005160065500",
                            "nonce" : "0x00",
                            "storage" : {
                                "0x05" : "0x11120000000000000000000000000000000000000000000000000000000000",
                                "0x06" : "0x11121314151617181920212223242526272829303132000000000000000000"
                            }
                        },
                        "0xcccf5374fce5edbc8e2a8697c15331677e6ebf0b" : {
                            "balance" : "0x00",
                            "code" : "0x",
                            "nonce" : "0x00",
                            "storage" : {
                            }
                        },
                        "0xdddf5374fce5edbc8e2a8697c15331677e6ebf0b" : {
                            "balance" : "0x00",
                            "code" : "0x",
                            "nonce" : "0x01",
                            "storage" : {
                            }
                        },
                        "0xeeef5374fce5edbc8e2a8697c15331677e6ebf0b" : {
                            "balance" : "0x00",
                            "code" : "0x1122334455667788991011121314151617181920212223242526272829303132",
                            "nonce" : "0x01",
                            "storage" : {
                            }
                        }
                    },
                    "txbytes" : "0xf860800a83061a8094aaaf5374fce5edbc8e2a8697c15331677e6ebf0b80801ca0f1326147c4351dc80fb7bef9b63c76a4aae39ceccd9ec54065339ba60f77c6d9a02567b84dc4697e7b6ca92bec948694fa9723fec84460588629068c5bbb1ee6de"
                }
            ],
            "London" : [
                {
                    "hash" : "0x729d07e9712e0adfc31903752e354b1d3e13fa847846bb03e1245d5d910176aa",
                    "indexes" : {
                        "data" : 0,
                        "gas" : 0,
                        "value" : 0
                    },
                    "logs" : "0x1dcc4de8dec75d7aab85b567b6ccd41ad312451b948a7413f0a142fd40d49347",
                    "postState" : {
                        "0xa94f5374fce5edbc8e2a8697c15331677e6ebf0b" : {
                            "balance" : "0xfffffffffffffffffffffffffff36af1",
                            "code" : "0x",
                            "nonce" : "0x01",
                            "storage" : {
                            }
                        },
                        "0xaaaf5374fce5edbc8e2a8697c15331677e6ebf0b" : {
                            "balance" : "0x1b58",
                            "code" : "0x6002600a600173bbbf5374fce5edbc8e2a8697c15331677e6ebf0b3c6000516002556002600a600173cccf5374fce5edbc8e2a8697c15331677e6ebf0b3c6000516003556002600a600173dddf5374fce5edbc8e2a8697c15331677e6ebf0b3c6000516004556002600a600173eeef5374fce5edbc8e2a8697c15331677e6ebf0b3c60005160055560c8600a600173eeef5374fce5edbc8e2a8697c15331677e6ebf0b3c60005160065500",
                            "nonce" : "0x00",
                            "storage" : {
                                "0x05" : "0x11120000000000000000000000000000000000000000000000000000000000",
                                "0x06" : "0x11121314151617181920212223242526272829303132000000000000000000"
                            }
                        },
                        "0xcccf5374fce5edbc8e2a8697c15331677e6ebf0b" : {
                            "balance" : "0x00",
                            "code" : "0x",
                            "nonce" : "0x00",
                            "storage" : {
                            }
                        },
                        "0xdddf5374fce5edbc8e2a8697c15331677e6ebf0b" : {
                            "balance" : "0x00",
                            "code" : "0x",
                            "nonce" : "0x01",
                            "storage" : {
                            }
                        },
                        "0xeeef5374fce5edbc8e2a8697c15331677e6ebf0b" : {
                            "balance" : "0x00",
                            "code" : "0x1122334455667788991011121314151617181920212223242526272829303132",
                            "nonce" : "0x01",
                            "storage" : {
                            }
                        }
                    },
                    "txbytes" : "0xf860800a83061a8094aaaf5374fce5edbc8e2a8697c15331677e6ebf0b80801ca0f1326147c4351dc80fb7bef9b63c76a4aae39ceccd9ec54065339ba60f77c6d9a02567b84dc4697e7b6ca92bec948694fa9723fec84460588629068c5bbb1ee6de"
                }
            ],
            "Merge" : [
                {
                    "hash" : "0x729d07e9712e0adfc31903752e354b1d3e13fa847846bb03e1245d5d910176aa",
                    "indexes" : {
                        "data" : 0,
                        "gas" : 0,
                        "value" : 0
                    },
                    "logs" : "0x1dcc4de8dec75d7aab85b567b6ccd41ad312451b948a7413f0a142fd40d49347",
                    "postState" : {
                        "0xa94f5374fce5edbc8e2a8697c15331677e6ebf0b" : {
                            "balance" : "0xfffffffffffffffffffffffffff36af1",
                            "code" : "0x",
                            "nonce" : "0x01",
                            "storage" : {
                            }
                        },
                        "0xaaaf5374fce5edbc8e2a8697c15331677e6ebf0b" : {
                            "balance" : "0x1b58",
                            "code" : "0x6002600a600173bbbf5374fce5edbc8e2a8697c15331677e6ebf0b3c6000516002556002600a600173cccf5374fce5edbc8e2a8697c15331677e6ebf0b3c6000516003556002600a600173dddf5374fce5edbc8e2a8697c15331677e6ebf0b3c6000516004556002600a600173eeef5374fce5edbc8e2a8697c15331677e6ebf0b3c60005160055560c8600a600173eeef5374fce5edbc8e2a8697c15331677e6ebf0b3c60005160065500",
                            "nonce" : "0x00",
                            "storage" : {
                                "0x05" : "0x11120000000000000000000000000000000000000000000000000000000000",
                                "0x06" : "0x11121314151617181920212223242526272829303132000000000000000000"
                            }
                        },
                        "0xcccf5374fce5edbc8e2a8697c15331677e6ebf0b" : {
                            "balance" : "0x00",
                            "code" : "0x",
                            "nonce" : "0x00",
                            "storage" : {
                            }
                        },
                        "0xdddf5374fce5edbc8e2a8697c15331677e6ebf0b" : {
                            "balance" : "0x00",
                            "code" : "0x",
                            "nonce" : "0x01",
                            "storage" : {
                            }
                        },
                        "0xeeef5374fce5edbc8e2a8697c15331677e6ebf0b" : {
                            "balance" : "0x00",
                            "code" : "0x1122334455667788991011121314151617181920212223242526272829303132",
                            "nonce" : "0x01",
                            "storage" : {
                            }
                        }
                    },
                    "txbytes" : "0xf860800a83061a8094aaaf5374fce5edbc8e2a8697c15331677e6ebf0b80801ca0f1326147c4351dc80fb7bef9b63c76a4aae39ceccd9ec54065339ba60f77c6d9a02567b84dc4697e7b6ca92bec948694fa9723fec84460588629068c5bbb1ee6de"
                }
            ],
            "Shanghai" : [
                {
                    "hash" : "0x729d07e9712e0adfc31903752e354b1d3e13fa847846bb03e1245d5d910176aa",
                    "indexes" : {
                        "data" : 0,
                        "gas" : 0,
                        "value" : 0
                    },
                    "logs" : "0x1dcc4de8dec75d7aab85b567b6ccd41ad312451b948a7413f0a142fd40d49347",
                    "postState" : {
                        "0xa94f5374fce5edbc8e2a8697c15331677e6ebf0b" : {
                            "balance" : "0xfffffffffffffffffffffffffff36af1",
                            "code" : "0x",
                            "nonce" : "0x01",
                            "storage" : {
                            }
                        },
                        "0xaaaf5374fce5edbc8e2a8697c15331677e6ebf0b" : {
                            "balance" : "0x1b58",
                            "code" : "0x6002600a600173bbbf5374fce5edbc8e2a8697c15331677e6ebf0b3c6000516002556002600a600173cccf5374fce5edbc8e2a8697c15331677e6ebf0b3c6000516003556002600a600173dddf5374fce5edbc8e2a8697c15331677e6ebf0b3c6000516004556002600a600173eeef5374fce5edbc8e2a8697c15331677e6ebf0b3c60005160055560c8600a600173eeef5374fce5edbc8e2a8697c15331677e6ebf0b3c60005160065500",
                            "nonce" : "0x00",
                            "storage" : {
                                "0x05" : "0x11120000000000000000000000000000000000000000000000000000000000",
                                "0x06" : "0x11121314151617181920212223242526272829303132000000000000000000"
                            }
                        },
                        "0xcccf5374fce5edbc8e2a8697c15331677e6ebf0b" : {
                            "balance" : "0x00",
                            "code" : "0x",
                            "nonce" : "0x00",
                            "storage" : {
                            }
                        },
                        "0xdddf5374fce5edbc8e2a8697c15331677e6ebf0b" : {
                            "balance" : "0x00",
                            "code" : "0x",
                            "nonce" : "0x01",
                            "storage" : {
                            }
                        },
                        "0xeeef5374fce5edbc8e2a8697c15331677e6ebf0b" : {
                            "balance" : "0x00",
                            "code" : "0x1122334455667788991011121314151617181920212223242526272829303132",
                            "nonce" : "0x01",
                            "storage" : {
                            }
                        }
                    },
                    "txbytes" : "0xf860800a83061a8094aaaf5374fce5edbc8e2a8697c15331677e6ebf0b80801ca0f1326147c4351dc80fb7bef9b63c76a4aae39ceccd9ec54065339ba60f77c6d9a02567b84dc4697e7b6ca92bec948694fa9723fec84460588629068c5bbb1ee6de"
                }
            ]
        },
        "pre" : {
            "0xa94f5374fce5edbc8e2a8697c15331677e6ebf0b" : {
                "balance" : "0xffffffffffffffffffffffffffffffff",
                "code" : "0x",
                "nonce" : "0x00",
                "storage" : {
                }
            },
            "0xaaaf5374fce5edbc8e2a8697c15331677e6ebf0b" : {
                "balance" : "0x1b58",
                "code" : "0x6002600a600173bbbf5374fce5edbc8e2a8697c15331677e6ebf0b3c6000516002556002600a600173cccf5374fce5edbc8e2a8697c15331677e6ebf0b3c6000516003556002600a600173dddf5374fce5edbc8e2a8697c15331677e6ebf0b3c6000516004556002600a600173eeef5374fce5edbc8e2a8697c15331677e6ebf0b3c60005160055560c8600a600173eeef5374fce5edbc8e2a8697c15331677e6ebf0b3c60005160065500",
                "nonce" : "0x00",
                "storage" : {
                }
            },
            "0xcccf5374fce5edbc8e2a8697c15331677e6ebf0b" : {
                "balance" : "0x00",
                "code" : "0x",
                "nonce" : "0x00",
                "storage" : {
                }
            },
            "0xdddf5374fce5edbc8e2a8697c15331677e6ebf0b" : {
                "balance" : "0x00",
                "code" : "0x",
                "nonce" : "0x01",
                "storage" : {
                }
            },
            "0xeeef5374fce5edbc8e2a8697c15331677e6ebf0b" : {
                "balance" : "0x00",
                "code" : "0x1122334455667788991011121314151617181920212223242526272829303132",
                "nonce" : "0x01",
                "storage" : {
                }
            }
        },
        "transaction" : {
            "data" : [
                "0x"
            ],
            "gasLimit" : [
                "0x061a80"
            ],
            "gasPrice" : "0x0a",
            "nonce" : "0x00",
            "secretKey" : "0x45a915e4d060149eb4365960e6a7a45f334393093061116b197e3240065ff2d8",
            "sender" : "0xa94f5374fce5edbc8e2a8697c15331677e6ebf0b",
            "to" : "0xaaaf5374fce5edbc8e2a8697c15331677e6ebf0b",
            "value" : [
                "0x00"
            ]
        }
    }
}