{
    "callcodecall_10" : {
        "_info" : {
            "comment" : "callcode -> call -> code, params check ",
            "filling-rpc-server" : "evm version 1.10.4-stable-aa637fd3",
            "filling-tool-version" : "retesteth-0.1.1-eip1559+commit.0e1fbab0.Linux.g++",
            "lllcversion" : "Version: 0.5.14-develop.2022.1.13+commit.401d5358.Linux.g++",
            "source" : "src/GeneralStateTestsFiller/stCallCodes/callcodecall_10Filler.json",
            "sourceHash" : "e04f77f51a69e8145911efb57fa6acea7333009965b7e018e3937b134f14e21d"
        },
        "env" : {
            "currentCoinbase" : "0x2adc25665018aa1fe0e6bc666dac8fc2697ff9ba",
            "currentDifficulty" : "0x020000",
            "currentNumber" : "0x01",
            "currentTimestamp" : "0x03e8",
            "previousHash" : "0x5e20a0453cecd065ea59c37ac63e079ee08998b6045136a8ce6635c7912ec0b6",
            "currentGasLimit" : "0x01c9c380"
        },
        "post" : {
            "Berlin" : [
                {
                    "indexes" : {
                        "data" : 0,
                        "gas" : 0,
                        "value" : 0
                    },
                    "hash" : "0xd0d8db3621108ab67ec50b3c85cbb551307a42ef187c9eeaee2ae1128fa511fa",
                    "txbytes" : "0xf860800a832dc6c094100000000000000000000000000000000000000080801ba07763c200d265ba0050627c8c7b4c19bf118b3581a3de22dbcebdfcb6e8565790a0514908f638ddc4b1402230e34692f43bb92713ff2cad3627814cf6fb19ac2e43",
                    "postState" : {
                        "0x1000000000000000000000000000000000000000" : {
                            "code" : "0x6040600060406000600173100000000000000000000000000000000000000162055730f260005500",
                            "nonce" : "0x00",
                            "balance" : "0x0de0b6b3a763fffe",
                            "storage" : {
                                "0x00" : "0x01",
                                "0x01" : "0x01"
                            }
                        },
                        "0x1000000000000000000000000000000000000001" : {
                            "code" : "0x604060006040600060027310000000000000000000000000000000000000026203d090f160015500",
                            "nonce" : "0x00",
                            "balance" : "0x0de0b6b3a7640000",
                            "storage" : {
                            }
                        },
                        "0x1000000000000000000000000000000000000002" : {
                            "code" : "0x600160025533600455346007553060e6553260e8553660ec553860ee553a60f05500",
                            "nonce" : "0x00",
                            "balance" : "0x02",
                            "storage" : {
                                "0x02" : "0x01",
                                "0x04" : "0x1000000000000000000000000000000000000000",
                                "0x07" : "0x02",
                                "0xe6" : "0x1000000000000000000000000000000000000002",
                                "0xe8" : "0xa94f5374fce5edbc8e2a8697c15331677e6ebf0b",
                                "0xec" : "0x40",
                                "0xee" : "0x22",
                                "0xf0" : "0x0a"
                            }
                        },
                        "0x2adc25665018aa1fe0e6bc666dac8fc2697ff9ba" : {
                            "code" : "0x",
                            "nonce" : "0x00",
                            "balance" : "0x27c7a2",
                            "storage" : {
                            }
                        },
                        "0xa94f5374fce5edbc8e2a8697c15331677e6ebf0b" : {
                            "code" : "0x",
                            "nonce" : "0x01",
                            "balance" : "0x0de0b6b3a73c385e",
                            "storage" : {
                            }
                        }
                    },
                    "logs" : "0x1dcc4de8dec75d7aab85b567b6ccd41ad312451b948a7413f0a142fd40d49347"
                }
            ],
            "Istanbul" : [
                {
                    "indexes" : {
                        "data" : 0,
                        "gas" : 0,
                        "value" : 0
                    },
                    "hash" : "0x45d4dc24d6bca64e0464b8bc60143d8de1366890554d054c9fad37da951ab9f9",
                    "txbytes" : "0xf860800a832dc6c094100000000000000000000000000000000000000080801ba07763c200d265ba0050627c8c7b4c19bf118b3581a3de22dbcebdfcb6e8565790a0514908f638ddc4b1402230e34692f43bb92713ff2cad3627814cf6fb19ac2e43",
                    "postState" : {
                        "0x1000000000000000000000000000000000000000" : {
                            "code" : "0x6040600060406000600173100000000000000000000000000000000000000162055730f260005500",
                            "nonce" : "0x00",
                            "balance" : "0x0de0b6b3a763fffe",
                            "storage" : {
                                "0x00" : "0x01",
                                "0x01" : "0x01"
                            }
                        },
                        "0x1000000000000000000000000000000000000001" : {
                            "code" : "0x604060006040600060027310000000000000000000000000000000000000026203d090f160015500",
                            "nonce" : "0x00",
                            "balance" : "0x0de0b6b3a7640000",
                            "storage" : {
                            }
                        },
                        "0x1000000000000000000000000000000000000002" : {
                            "code" : "0x600160025533600455346007553060e6553260e8553660ec553860ee553a60f05500",
                            "nonce" : "0x00",
                            "balance" : "0x02",
                            "storage" : {
                                "0x02" : "0x01",
                                "0x04" : "0x1000000000000000000000000000000000000000",
                                "0x07" : "0x02",
                                "0xe6" : "0x1000000000000000000000000000000000000002",
                                "0xe8" : "0xa94f5374fce5edbc8e2a8697c15331677e6ebf0b",
                                "0xec" : "0x40",
                                "0xee" : "0x22",
                                "0xf0" : "0x0a"
                            }
                        },
                        "0x2adc25665018aa1fe0e6bc666dac8fc2697ff9ba" : {
                            "code" : "0x",
                            "nonce" : "0x00",
                            "balance" : "0x23fee2",
                            "storage" : {
                            }
                        },
                        "0xa94f5374fce5edbc8e2a8697c15331677e6ebf0b" : {
                            "code" : "0x",
                            "nonce" : "0x01",
                            "balance" : "0x0de0b6b3a740011e",
                            "storage" : {
                            }
                        }
                    },
                    "logs" : "0x1dcc4de8dec75d7aab85b567b6ccd41ad312451b948a7413f0a142fd40d49347"
                }
            ],
            "London" : [
                {
                    "indexes" : {
                        "data" : 0,
                        "gas" : 0,
                        "value" : 0
                    },
                    "hash" : "0x2c3d798eaedc0e66440c7cf69c7ae6cf419d119d0558cc29836f032a9d5b4139",
                    "txbytes" : "0xf860800a832dc6c094100000000000000000000000000000000000000080801ba07763c200d265ba0050627c8c7b4c19bf118b3581a3de22dbcebdfcb6e8565790a0514908f638ddc4b1402230e34692f43bb92713ff2cad3627814cf6fb19ac2e43",
                    "postState" : {
                        "0x1000000000000000000000000000000000000000" : {
                            "code" : "0x6040600060406000600173100000000000000000000000000000000000000162055730f260005500",
                            "nonce" : "0x00",
                            "balance" : "0x0de0b6b3a763fffe",
                            "storage" : {
                                "0x00" : "0x01",
                                "0x01" : "0x01"
                            }
                        },
                        "0x1000000000000000000000000000000000000001" : {
                            "code" : "0x604060006040600060027310000000000000000000000000000000000000026203d090f160015500",
                            "nonce" : "0x00",
                            "balance" : "0x0de0b6b3a7640000",
                            "storage" : {
                            }
                        },
                        "0x1000000000000000000000000000000000000002" : {
                            "code" : "0x600160025533600455346007553060e6553260e8553660ec553860ee553a60f05500",
                            "nonce" : "0x00",
                            "balance" : "0x02",
                            "storage" : {
                                "0x02" : "0x01",
                                "0x04" : "0x1000000000000000000000000000000000000000",
                                "0x07" : "0x02",
                                "0xe6" : "0x1000000000000000000000000000000000000002",
                                "0xe8" : "0xa94f5374fce5edbc8e2a8697c15331677e6ebf0b",
                                "0xec" : "0x40",
                                "0xee" : "0x22",
                                "0xf0" : "0x0a"
                            }
                        },
                        "0xa94f5374fce5edbc8e2a8697c15331677e6ebf0b" : {
                            "code" : "0x",
                            "nonce" : "0x01",
                            "balance" : "0x0de0b6b3a73c385e",
                            "storage" : {
                            }
                        }
                    },
                    "logs" : "0x1dcc4de8dec75d7aab85b567b6ccd41ad312451b948a7413f0a142fd40d49347"
                }
            ]
        },
        "pre" : {
            "0x1000000000000000000000000000000000000000" : {
                "balance" : "0x0de0b6b3a7640000",
                "code" : "0x6040600060406000600173100000000000000000000000000000000000000162055730f260005500",
                "nonce" : "0x00",
                "storage" : {
                }
            },
            "0x1000000000000000000000000000000000000001" : {
                "balance" : "0x0de0b6b3a7640000",
                "code" : "0x604060006040600060027310000000000000000000000000000000000000026203d090f160015500",
                "nonce" : "0x00",
                "storage" : {
                }
            },
            "0x1000000000000000000000000000000000000002" : {
                "balance" : "0x00",
                "code" : "0x600160025533600455346007553060e6553260e8553660ec553860ee553a60f05500",
                "nonce" : "0x00",
                "storage" : {
                }
            },
            "0xa94f5374fce5edbc8e2a8697c15331677e6ebf0b" : {
                "balance" : "0x0de0b6b3a7640000",
                "code" : "0x",
                "nonce" : "0x00",
                "storage" : {
                }
            }
        },
        "transaction" : {
            "data" : [
                "0x"
            ],
            "gasPrice" : "0x0a",
            "gasLimit" : [
                "0x2dc6c0"
            ],
            "nonce" : "0x00",
            "secretKey" : "0x45a915e4d060149eb4365960e6a7a45f334393093061116b197e3240065ff2d8",
            "to" : "0x1000000000000000000000000000000000000000",
            "value" : [
                "0x00"
            ]
        }
    }
}