{
    "CallContractToCreateContractWhichWouldCreateContractInInitCode" : {
        "_info" : {
            "comment" : "",
            "filling-rpc-server" : "evm version 1.11.5-stable-a38f4108",
            "filling-tool-version" : "retesteth-0.3.0-shanghai+commit.e98b5e62.Linux.g++",
            "generatedTestHash" : "191af12045ce219e043f1d7ba3e286e5f27fa6b7459ca60e54ff2923acbfdd03",
            "lllcversion" : "Version: 0.5.14-develop.2023.8.28+commit.b2b86751.Linux.g++",
            "solidity" : "Version: 0.8.17+commit.8df45f5f.Linux.g++",
            "source" : "src/GeneralStateTestsFiller/stInitCodeTest/CallContractToCreateContractWhichWouldCreateContractInInitCodeFiller.json",
            "sourceHash" : "e56762e8885b91c3395ee9957009f24742746538ca726fb78b8b1a7b215de2fe"
        },
        "env" : {
            "currentBaseFee" : "0x0a",
            "currentCoinbase" : "0x2adc25665018aa1fe0e6bc666dac8fc2697ff9ba",
            "currentDifficulty" : "0x020000",
            "currentGasLimit" : "0x3b9aca00",
            "currentNumber" : "0x01",
            "currentRandom" : "0x0000000000000000000000000000000000000000000000000000000000020000",
            "currentTimestamp" : "0x03e8",
            "previousHash" : "0x5e20a0453cecd065ea59c37ac63e079ee08998b6045136a8ce6635c7912ec0b6"
        },
        "post" : {
            "Berlin" : [
                {
                    "hash" : "0xf0950099159ff199a3fbaedcd75fcb2cab966723ee40719bad37255ac8a77d61",
                    "indexes" : {
                        "data" : 0,
                        "gas" : 0,
                        "value" : 0
                    },
                    "logs" : "0x1dcc4de8dec75d7aab85b567b6ccd41ad312451b948a7413f0a142fd40d49347",
                    "postState" : {
                        "0x095e7baea6a6c7c4c2dfeb977efac326af552d87" : {
                            "balance" : "0x01",
                            "code" : "0x6b600c600055602060406000f0600052600c60146000f000",
                            "nonce" : "0x01",
                            "storage" : {
                            }
                        },
                        "0x2adc25665018aa1fe0e6bc666dac8fc2697ff9ba" : {
                            "balance" : "0x105982",
                            "code" : "0x",
                            "nonce" : "0x00",
                            "storage" : {
                            }
                        },
                        "0x91ed00a0a906270d466af043c4e111dadca970a3" : {
                            "balance" : "0x00",
                            "code" : "0x",
                            "nonce" : "0x01",
                            "storage" : {
                            }
                        },
                        "0xa94f5374fce5edbc8e2a8697c15331677e6ebf0b" : {
                            "balance" : "0x3b8a707e",
                            "code" : "0x",
                            "nonce" : "0x01",
                            "storage" : {
                            }
                        },
                        "0xd2571607e241ecf590ed94b12d87c94babe36db6" : {
                            "balance" : "0x00",
                            "code" : "0x",
                            "nonce" : "0x02",
                            "storage" : {
                                "0x00" : "0x0c"
                            }
                        }
                    },
                    "txbytes" : "0xf861800a8401312d0094095e7baea6a6c7c4c2dfeb977efac326af552d8780001ca0e5e42a33d04233da376d8e03714b03fe0fbd826ad51a84a156419fc94b9e42b9a07439f4e77cd0674dbd2765d68f4bd09fa474938cd0d33c5c3365a49b989f5747"
                }
            ],
            "Istanbul" : [
                {
                    "hash" : "0xebbf0bcb55a864fa7758abbc1a6bd065c56f4e679d3e87d87cae1e3a0fa166d5",
                    "indexes" : {
                        "data" : 0,
                        "gas" : 0,
                        "value" : 0
                    },
                    "logs" : "0x1dcc4de8dec75d7aab85b567b6ccd41ad312451b948a7413f0a142fd40d49347",
                    "postState" : {
                        "0x095e7baea6a6c7c4c2dfeb977efac326af552d87" : {
                            "balance" : "0x01",
                            "code" : "0x6b600c600055602060406000f0600052600c60146000f000",
                            "nonce" : "0x01",
                            "storage" : {
                            }
                        },
                        "0x2adc25665018aa1fe0e6bc666dac8fc2697ff9ba" : {
                            "balance" : "0x10077a",
                            "code" : "0x",
                            "nonce" : "0x00",
                            "storage" : {
                            }
                        },
                        "0x91ed00a0a906270d466af043c4e111dadca970a3" : {
                            "balance" : "0x00",
                            "code" : "0x",
                            "nonce" : "0x01",
                            "storage" : {
                            }
                        },
                        "0xa94f5374fce5edbc8e2a8697c15331677e6ebf0b" : {
                            "balance" : "0x3b8ac286",
                            "code" : "0x",
                            "nonce" : "0x01",
                            "storage" : {
                            }
                        },
                        "0xd2571607e241ecf590ed94b12d87c94babe36db6" : {
                            "balance" : "0x00",
                            "code" : "0x",
                            "nonce" : "0x02",
                            "storage" : {
                                "0x00" : "0x0c"
                            }
                        }
                    },
                    "txbytes" : "0xf861800a8401312d0094095e7baea6a6c7c4c2dfeb977efac326af552d8780001ca0e5e42a33d04233da376d8e03714b03fe0fbd826ad51a84a156419fc94b9e42b9a07439f4e77cd0674dbd2765d68f4bd09fa474938cd0d33c5c3365a49b989f5747"
                }
            ],
            "London" : [
                {
                    "hash" : "0x5df9ebe2c99d721bb8068772e828dccccb08c152990cc8decdc518e015308263",
                    "indexes" : {
                        "data" : 0,
                        "gas" : 0,
                        "value" : 0
                    },
                    "logs" : "0x1dcc4de8dec75d7aab85b567b6ccd41ad312451b948a7413f0a142fd40d49347",
                    "postState" : {
                        "0x095e7baea6a6c7c4c2dfeb977efac326af552d87" : {
                            "balance" : "0x01",
                            "code" : "0x6b600c600055602060406000f0600052600c60146000f000",
                            "nonce" : "0x01",
                            "storage" : {
                            }
                        },
                        "0x91ed00a0a906270d466af043c4e111dadca970a3" : {
                            "balance" : "0x00",
                            "code" : "0x",
                            "nonce" : "0x01",
                            "storage" : {
                            }
                        },
                        "0xa94f5374fce5edbc8e2a8697c15331677e6ebf0b" : {
                            "balance" : "0x3b8a707e",
                            "code" : "0x",
                            "nonce" : "0x01",
                            "storage" : {
                            }
                        },
                        "0xd2571607e241ecf590ed94b12d87c94babe36db6" : {
                            "balance" : "0x00",
                            "code" : "0x",
                            "nonce" : "0x02",
                            "storage" : {
                                "0x00" : "0x0c"
                            }
                        }
                    },
                    "txbytes" : "0xf861800a8401312d0094095e7baea6a6c7c4c2dfeb977efac326af552d8780001ca0e5e42a33d04233da376d8e03714b03fe0fbd826ad51a84a156419fc94b9e42b9a07439f4e77cd0674dbd2765d68f4bd09fa474938cd0d33c5c3365a49b989f5747"
                }
            ],
            "Merge" : [
                {
                    "hash" : "0x5df9ebe2c99d721bb8068772e828dccccb08c152990cc8decdc518e015308263",
                    "indexes" : {
                        "data" : 0,
                        "gas" : 0,
                        "value" : 0
                    },
                    "logs" : "0x1dcc4de8dec75d7aab85b567b6ccd41ad312451b948a7413f0a142fd40d49347",
                    "postState" : {
                        "0x095e7baea6a6c7c4c2dfeb977efac326af552d87" : {
                            "balance" : "0x01",
                            "code" : "0x6b600c600055602060406000f0600052600c60146000f000",
                            "nonce" : "0x01",
                            "storage" : {
                            }
                        },
                        "0x91ed00a0a906270d466af043c4e111dadca970a3" : {
                            "balance" : "0x00",
                            "code" : "0x",
                            "nonce" : "0x01",
                            "storage" : {
                            }
                        },
                        "0xa94f5374fce5edbc8e2a8697c15331677e6ebf0b" : {
                            "balance" : "0x3b8a707e",
                            "code" : "0x",
                            "nonce" : "0x01",
                            "storage" : {
                            }
                        },
                        "0xd2571607e241ecf590ed94b12d87c94babe36db6" : {
                            "balance" : "0x00",
                            "code" : "0x",
                            "nonce" : "0x02",
                            "storage" : {
                                "0x00" : "0x0c"
                            }
                        }
                    },
                    "txbytes" : "0xf861800a8401312d0094095e7baea6a6c7c4c2dfeb977efac326af552d8780001ca0e5e42a33d04233da376d8e03714b03fe0fbd826ad51a84a156419fc94b9e42b9a07439f4e77cd0674dbd2765d68f4bd09fa474938cd0d33c5c3365a49b989f5747"
                }
            ],
            "Shanghai" : [
                {
                    "hash" : "0x815c93765b8bc179628f2e5c70d223195610a27408875f65f243e606e71c4ba2",
                    "indexes" : {
                        "data" : 0,
                        "gas" : 0,
                        "value" : 0
                    },
                    "logs" : "0x1dcc4de8dec75d7aab85b567b6ccd41ad312451b948a7413f0a142fd40d49347",
                    "postState" : {
                        "0x095e7baea6a6c7c4c2dfeb977efac326af552d87" : {
                            "balance" : "0x01",
                            "code" : "0x6b600c600055602060406000f0600052600c60146000f000",
                            "nonce" : "0x01",
                            "storage" : {
                            }
                        },
                        "0x91ed00a0a906270d466af043c4e111dadca970a3" : {
                            "balance" : "0x00",
                            "code" : "0x",
                            "nonce" : "0x01",
                            "storage" : {
                            }
                        },
                        "0xa94f5374fce5edbc8e2a8697c15331677e6ebf0b" : {
                            "balance" : "0x3b8a7056",
                            "code" : "0x",
                            "nonce" : "0x01",
                            "storage" : {
                            }
                        },
                        "0xd2571607e241ecf590ed94b12d87c94babe36db6" : {
                            "balance" : "0x00",
                            "code" : "0x",
                            "nonce" : "0x02",
                            "storage" : {
                                "0x00" : "0x0c"
                            }
                        }
                    },
                    "txbytes" : "0xf861800a8401312d0094095e7baea6a6c7c4c2dfeb977efac326af552d8780001ca0e5e42a33d04233da376d8e03714b03fe0fbd826ad51a84a156419fc94b9e42b9a07439f4e77cd0674dbd2765d68f4bd09fa474938cd0d33c5c3365a49b989f5747"
                }
            ]
        },
        "pre" : {
            "0x095e7baea6a6c7c4c2dfeb977efac326af552d87" : {
                "balance" : "0x01",
                "code" : "0x6b600c600055602060406000f0600052600c60146000f000",
                "nonce" : "0x00",
                "storage" : {
                }
            },
            "0xa94f5374fce5edbc8e2a8697c15331677e6ebf0b" : {
                "balance" : "0x3b9aca00",
                "code" : "0x",
                "nonce" : "0x00",
                "storage" : {
                }
            }
        },
        "transaction" : {
            "data" : [
                "0x00"
            ],
            "gasLimit" : [
                "0x01312d00"
            ],
            "gasPrice" : "0x0a",
            "nonce" : "0x00",
            "secretKey" : "0x45a915e4d060149eb4365960e6a7a45f334393093061116b197e3240065ff2d8",
            "sender" : "0xa94f5374fce5edbc8e2a8697c15331677e6ebf0b",
            "to" : "0x095e7baea6a6c7c4c2dfeb977efac326af552d87",
            "value" : [
                "0x00"
            ]
        }
    }
}