{
    "CallRecursiveContract" : {
        "_info" : {
            "comment" : "",
            "filling-rpc-server" : "evm version 1.10.4-stable-aa637fd3",
            "filling-tool-version" : "retesteth-0.1.1-eip1559+commit.0e1fbab0.Linux.g++",
            "lllcversion" : "Version: 0.5.14-develop.2022.1.13+commit.401d5358.Linux.g++",
            "source" : "src/GeneralStateTestsFiller/stInitCodeTest/CallRecursiveContractFiller.json",
            "sourceHash" : "102a2e43a3b3878ee82ab8411519d7ea359909e0faf7472e682cfc3187df3672"
        },
        "env" : {
            "currentCoinbase" : "0x2adc25665018aa1fe0e6bc666dac8fc2697ff9ba",
            "currentDifficulty" : "0x020000",
            "currentNumber" : "0x01",
            "currentTimestamp" : "0x03e8",
            "previousHash" : "0x5e20a0453cecd065ea59c37ac63e079ee08998b6045136a8ce6635c7912ec0b6",
            "currentGasLimit" : "0x05f5e100"
        },
        "post" : {
            "Berlin" : [
                {
                    "indexes" : {
                        "data" : 0,
                        "gas" : 0,
                        "value" : 0
                    },
                    "hash" : "0x70b4a0d962850575d875395c714e54b73f31eddd72286c61c90a0b1aec26014b",
                    "txbytes" : "0xf860800a83061a8094095e7baea6a6c7c4c2dfeb977efac326af552d8701001ca0330a37bd0d233b9945f18b10d7ec2035befd8c2cef7f2f3dd21dfd7d0d7da247a07c82e786a416f4f46742e593a1cd6a6c9e7eb86417d211f160f165b55a859bf0",
                    "postState" : {
                        "0x095e7baea6a6c7c4c2dfeb977efac326af552d87" : {
                            "code" : "0x3060025560206000600039602060006000f000",
                            "nonce" : "0x29",
                            "balance" : "0x01",
                            "storage" : {
                                "0x02" : "0x095e7baea6a6c7c4c2dfeb977efac326af552d87"
                            }
                        },
                        "0x2adc25665018aa1fe0e6bc666dac8fc2697ff9ba" : {
                            "code" : "0x",
                            "nonce" : "0x00",
                            "balance" : "0x3a7654",
                            "storage" : {
                            }
                        },
                        "0x4b0b4b3c7fd3dd5cea1d04dcf027dea29f84acb1" : {
                            "code" : "0x",
                            "nonce" : "0x02",
                            "balance" : "0x00",
                            "storage" : {
                                "0x02" : "0x4b0b4b3c7fd3dd5cea1d04dcf027dea29f84acb1"
                            }
                        },
                        "0x60f971aa65f7e520dcb750823e2c239e61c3736b" : {
                            "code" : "0x",
                            "nonce" : "0x02",
                            "balance" : "0x00",
                            "storage" : {
                                "0x02" : "0x60f971aa65f7e520dcb750823e2c239e61c3736b"
                            }
                        },
                        "0x6fc9df08d2206eff4f4c378aeb2a1f8c570952b9" : {
                            "code" : "0x",
                            "nonce" : "0x02",
                            "balance" : "0x00",
                            "storage" : {
                                "0x02" : "0x6fc9df08d2206eff4f4c378aeb2a1f8c570952b9"
                            }
                        },
                        "0x74a77e95f3228f0b4d116d5a12e09aaf99ce54ae" : {
                            "code" : "0x",
                            "nonce" : "0x02",
                            "balance" : "0x00",
                            "storage" : {
                                "0x02" : "0x74a77e95f3228f0b4d116d5a12e09aaf99ce54ae"
                            }
                        },
                        "0xa94f5374fce5edbc8e2a8697c15331677e6ebf0b" : {
                            "code" : "0x",
                            "nonce" : "0x01",
                            "balance" : "0x5e202b",
                            "storage" : {
                            }
                        },
                        "0xf0064be0919341a45680ec0d592eaee47df671ac" : {
                            "code" : "0x",
                            "nonce" : "0x02",
                            "balance" : "0x00",
                            "storage" : {
                                "0x02" : "0xf0064be0919341a45680ec0d592eaee47df671ac"
                            }
                        }
                    },
                    "logs" : "0x1dcc4de8dec75d7aab85b567b6ccd41ad312451b948a7413f0a142fd40d49347"
                }
            ],
            "Istanbul" : [
                {
                    "indexes" : {
                        "data" : 0,
                        "gas" : 0,
                        "value" : 0
                    },
                    "hash" : "0x88915294d3df8b946f4e822912bf244d7866fc8080ac46da5ef11af471956071",
                    "txbytes" : "0xf860800a83061a8094095e7baea6a6c7c4c2dfeb977efac326af552d8701001ca0330a37bd0d233b9945f18b10d7ec2035befd8c2cef7f2f3dd21dfd7d0d7da247a07c82e786a416f4f46742e593a1cd6a6c9e7eb86417d211f160f165b55a859bf0",
                    "postState" : {
                        "0x095e7baea6a6c7c4c2dfeb977efac326af552d87" : {
                            "code" : "0x3060025560206000600039602060006000f000",
                            "nonce" : "0x29",
                            "balance" : "0x01",
                            "storage" : {
                                "0x02" : "0x095e7baea6a6c7c4c2dfeb977efac326af552d87"
                            }
                        },
                        "0x2adc25665018aa1fe0e6bc666dac8fc2697ff9ba" : {
                            "code" : "0x",
                            "nonce" : "0x00",
                            "balance" : "0x3a5c14",
                            "storage" : {
                            }
                        },
                        "0x4b0b4b3c7fd3dd5cea1d04dcf027dea29f84acb1" : {
                            "code" : "0x",
                            "nonce" : "0x02",
                            "balance" : "0x00",
                            "storage" : {
                                "0x02" : "0x4b0b4b3c7fd3dd5cea1d04dcf027dea29f84acb1"
                            }
                        },
                        "0x60f971aa65f7e520dcb750823e2c239e61c3736b" : {
                            "code" : "0x",
                            "nonce" : "0x02",
                            "balance" : "0x00",
                            "storage" : {
                                "0x02" : "0x60f971aa65f7e520dcb750823e2c239e61c3736b"
                            }
                        },
                        "0x6fc9df08d2206eff4f4c378aeb2a1f8c570952b9" : {
                            "code" : "0x",
                            "nonce" : "0x02",
                            "balance" : "0x00",
                            "storage" : {
                                "0x02" : "0x6fc9df08d2206eff4f4c378aeb2a1f8c570952b9"
                            }
                        },
                        "0x74a77e95f3228f0b4d116d5a12e09aaf99ce54ae" : {
                            "code" : "0x",
                            "nonce" : "0x02",
                            "balance" : "0x00",
                            "storage" : {
                                "0x02" : "0x74a77e95f3228f0b4d116d5a12e09aaf99ce54ae"
                            }
                        },
                        "0xa94f5374fce5edbc8e2a8697c15331677e6ebf0b" : {
                            "code" : "0x",
                            "nonce" : "0x01",
                            "balance" : "0x5e3a6b",
                            "storage" : {
                            }
                        },
                        "0xf0064be0919341a45680ec0d592eaee47df671ac" : {
                            "code" : "0x",
                            "nonce" : "0x02",
                            "balance" : "0x00",
                            "storage" : {
                                "0x02" : "0xf0064be0919341a45680ec0d592eaee47df671ac"
                            }
                        }
                    },
                    "logs" : "0x1dcc4de8dec75d7aab85b567b6ccd41ad312451b948a7413f0a142fd40d49347"
                }
            ],
            "London" : [
                {
                    "indexes" : {
                        "data" : 0,
                        "gas" : 0,
                        "value" : 0
                    },
                    "hash" : "0x370f71299fe9ccb38df52d6817ec727833e744ab8a00292ca079907d5e148505",
                    "txbytes" : "0xf860800a83061a8094095e7baea6a6c7c4c2dfeb977efac326af552d8701001ca0330a37bd0d233b9945f18b10d7ec2035befd8c2cef7f2f3dd21dfd7d0d7da247a07c82e786a416f4f46742e593a1cd6a6c9e7eb86417d211f160f165b55a859bf0",
                    "postState" : {
                        "0x095e7baea6a6c7c4c2dfeb977efac326af552d87" : {
                            "code" : "0x3060025560206000600039602060006000f000",
                            "nonce" : "0x29",
                            "balance" : "0x01",
                            "storage" : {
                                "0x02" : "0x095e7baea6a6c7c4c2dfeb977efac326af552d87"
                            }
                        },
                        "0x4b0b4b3c7fd3dd5cea1d04dcf027dea29f84acb1" : {
                            "code" : "0x",
                            "nonce" : "0x02",
                            "balance" : "0x00",
                            "storage" : {
                                "0x02" : "0x4b0b4b3c7fd3dd5cea1d04dcf027dea29f84acb1"
                            }
                        },
                        "0x60f971aa65f7e520dcb750823e2c239e61c3736b" : {
                            "code" : "0x",
                            "nonce" : "0x02",
                            "balance" : "0x00",
                            "storage" : {
                                "0x02" : "0x60f971aa65f7e520dcb750823e2c239e61c3736b"
                            }
                        },
                        "0x6fc9df08d2206eff4f4c378aeb2a1f8c570952b9" : {
                            "code" : "0x",
                            "nonce" : "0x02",
                            "balance" : "0x00",
                            "storage" : {
                                "0x02" : "0x6fc9df08d2206eff4f4c378aeb2a1f8c570952b9"
                            }
                        },
                        "0x74a77e95f3228f0b4d116d5a12e09aaf99ce54ae" : {
                            "code" : "0x",
                            "nonce" : "0x02",
                            "balance" : "0x00",
                            "storage" : {
                                "0x02" : "0x74a77e95f3228f0b4d116d5a12e09aaf99ce54ae"
                            }
                        },
                        "0xa94f5374fce5edbc8e2a8697c15331677e6ebf0b" : {
                            "code" : "0x",
                            "nonce" : "0x01",
                            "balance" : "0x5e202b",
                            "storage" : {
                            }
                        },
                        "0xf0064be0919341a45680ec0d592eaee47df671ac" : {
                            "code" : "0x",
                            "nonce" : "0x02",
                            "balance" : "0x00",
                            "storage" : {
                                "0x02" : "0xf0064be0919341a45680ec0d592eaee47df671ac"
                            }
                        }
                    },
                    "logs" : "0x1dcc4de8dec75d7aab85b567b6ccd41ad312451b948a7413f0a142fd40d49347"
                }
            ]
        },
        "pre" : {
            "0x095e7baea6a6c7c4c2dfeb977efac326af552d87" : {
                "balance" : "0x00",
                "code" : "0x3060025560206000600039602060006000f000",
                "nonce" : "0x28",
                "storage" : {
                }
            },
            "0xa94f5374fce5edbc8e2a8697c15331677e6ebf0b" : {
                "balance" : "0x989680",
                "code" : "0x",
                "nonce" : "0x00",
                "storage" : {
                }
            }
        },
        "transaction" : {
            "data" : [
                "0x00"
            ],
            "gasPrice" : "0x0a",
            "gasLimit" : [
                "0x061a80"
            ],
            "nonce" : "0x00",
            "secretKey" : "0x45a915e4d060149eb4365960e6a7a45f334393093061116b197e3240065ff2d8",
            "to" : "0x095e7baea6a6c7c4c2dfeb977efac326af552d87",
            "value" : [
                "0x01"
            ]
        }
    }
}