{
    "CallContractToCreateContractWhichWouldCreateContractIfCalled" : {
        "_info" : {
            "comment" : "",
            "filling-rpc-server" : "evm version 1.10.4-stable-aa637fd3",
            "filling-tool-version" : "retesteth-0.1.1-eip1559+commit.0e1fbab0.Linux.g++",
            "lllcversion" : "Version: 0.5.14-develop.2022.1.13+commit.401d5358.Linux.g++",
            "source" : "src/GeneralStateTestsFiller/stInitCodeTest/CallContractToCreateContractWhichWouldCreateContractIfCalledFiller.json",
            "sourceHash" : "e4133c5f6843124558aa6c289592821f14e8513c69faceeba576940f791c0330"
        },
        "env" : {
            "currentCoinbase" : "0x2adc25665018aa1fe0e6bc666dac8fc2697ff9ba",
            "currentDifficulty" : "0x020000",
            "currentNumber" : "0x01",
            "currentTimestamp" : "0x03e8",
            "previousHash" : "0x5e20a0453cecd065ea59c37ac63e079ee08998b6045136a8ce6635c7912ec0b6",
            "currentGasLimit" : "0x3b9aca00"
        },
        "post" : {
            "Berlin" : [
                {
                    "indexes" : {
                        "data" : 0,
                        "gas" : 0,
                        "value" : 0
                    },
                    "hash" : "0x4ec8ae7dabc99b6de522b4ec622494fbc4891e1330a618a1f7b93ce9852691ad",
                    "txbytes" : "0xf861800a8401312d0094095e7baea6a6c7c4c2dfeb977efac326af552d8780001ca0e5e42a33d04233da376d8e03714b03fe0fbd826ad51a84a156419fc94b9e42b9a07439f4e77cd0674dbd2765d68f4bd09fa474938cd0d33c5c3365a49b989f5747",
                    "postState" : {
                        "0x095e7baea6a6c7c4c2dfeb977efac326af552d87" : {
                            "code" : "0x74600c60005566602060406000f060205260076039f36000526015600b6001f06000556000600060006000600160005461c350f100",
                            "nonce" : "0x01",
                            "balance" : "0x03e6",
                            "storage" : {
                                "0x00" : "0xd2571607e241ecf590ed94b12d87c94babe36db6"
                            }
                        },
                        "0x2adc25665018aa1fe0e6bc666dac8fc2697ff9ba" : {
                            "code" : "0x",
                            "nonce" : "0x00",
                            "balance" : "0x14fec4",
                            "storage" : {
                            }
                        },
                        "0x91ed00a0a906270d466af043c4e111dadca970a3" : {
                            "code" : "0x",
                            "nonce" : "0x01",
                            "balance" : "0x00",
                            "storage" : {
                            }
                        },
                        "0xa94f5374fce5edbc8e2a8697c15331677e6ebf0b" : {
                            "code" : "0x",
                            "nonce" : "0x01",
                            "balance" : "0x3b85cb3c",
                            "storage" : {
                            }
                        },
                        "0xd2571607e241ecf590ed94b12d87c94babe36db6" : {
                            "code" : "0x602060406000f0",
                            "nonce" : "0x02",
                            "balance" : "0x02",
                            "storage" : {
                                "0x00" : "0x0c"
                            }
                        }
                    },
                    "logs" : "0x1dcc4de8dec75d7aab85b567b6ccd41ad312451b948a7413f0a142fd40d49347"
                }
            ],
            "Istanbul" : [
                {
                    "indexes" : {
                        "data" : 0,
                        "gas" : 0,
                        "value" : 0
                    },
                    "hash" : "0x3229d704444f16a081073b327d7251cceabcdfd40979b854791298e15fa60d06",
                    "txbytes" : "0xf861800a8401312d0094095e7baea6a6c7c4c2dfeb977efac326af552d8780001ca0e5e42a33d04233da376d8e03714b03fe0fbd826ad51a84a156419fc94b9e42b9a07439f4e77cd0674dbd2765d68f4bd09fa474938cd0d33c5c3365a49b989f5747",
                    "postState" : {
                        "0x095e7baea6a6c7c4c2dfeb977efac326af552d87" : {
                            "code" : "0x74600c60005566602060406000f060205260076039f36000526015600b6001f06000556000600060006000600160005461c350f100",
                            "nonce" : "0x01",
                            "balance" : "0x03e6",
                            "storage" : {
                                "0x00" : "0xd2571607e241ecf590ed94b12d87c94babe36db6"
                            }
                        },
                        "0x2adc25665018aa1fe0e6bc666dac8fc2697ff9ba" : {
                            "code" : "0x",
                            "nonce" : "0x00",
                            "balance" : "0x148d7c",
                            "storage" : {
                            }
                        },
                        "0x91ed00a0a906270d466af043c4e111dadca970a3" : {
                            "code" : "0x",
                            "nonce" : "0x01",
                            "balance" : "0x00",
                            "storage" : {
                            }
                        },
                        "0xa94f5374fce5edbc8e2a8697c15331677e6ebf0b" : {
                            "code" : "0x",
                            "nonce" : "0x01",
                            "balance" : "0x3b863c84",
                            "storage" : {
                            }
                        },
                        "0xd2571607e241ecf590ed94b12d87c94babe36db6" : {
                            "code" : "0x602060406000f0",
                            "nonce" : "0x02",
                            "balance" : "0x02",
                            "storage" : {
                                "0x00" : "0x0c"
                            }
                        }
                    },
                    "logs" : "0x1dcc4de8dec75d7aab85b567b6ccd41ad312451b948a7413f0a142fd40d49347"
                }
            ],
            "London" : [
                {
                    "indexes" : {
                        "data" : 0,
                        "gas" : 0,
                        "value" : 0
                    },
                    "hash" : "0xa8a5b5664bbff50c62376169646904545b1630a6103d4a5ddae90d72b28905d7",
                    "txbytes" : "0xf861800a8401312d0094095e7baea6a6c7c4c2dfeb977efac326af552d8780001ca0e5e42a33d04233da376d8e03714b03fe0fbd826ad51a84a156419fc94b9e42b9a07439f4e77cd0674dbd2765d68f4bd09fa474938cd0d33c5c3365a49b989f5747",
                    "postState" : {
                        "0x095e7baea6a6c7c4c2dfeb977efac326af552d87" : {
                            "code" : "0x74600c60005566602060406000f060205260076039f36000526015600b6001f06000556000600060006000600160005461c350f100",
                            "nonce" : "0x01",
                            "balance" : "0x03e6",
                            "storage" : {
                                "0x00" : "0xd2571607e241ecf590ed94b12d87c94babe36db6"
                            }
                        },
                        "0x91ed00a0a906270d466af043c4e111dadca970a3" : {
                            "code" : "0x",
                            "nonce" : "0x01",
                            "balance" : "0x00",
                            "storage" : {
                            }
                        },
                        "0xa94f5374fce5edbc8e2a8697c15331677e6ebf0b" : {
                            "code" : "0x",
                            "nonce" : "0x01",
                            "balance" : "0x3b85cb3c",
                            "storage" : {
                            }
                        },
                        "0xd2571607e241ecf590ed94b12d87c94babe36db6" : {
                            "code" : "0x602060406000f0",
                            "nonce" : "0x02",
                            "balance" : "0x02",
                            "storage" : {
                                "0x00" : "0x0c"
                            }
                        }
                    },
                    "logs" : "0x1dcc4de8dec75d7aab85b567b6ccd41ad312451b948a7413f0a142fd40d49347"
                }
            ]
        },
        "pre" : {
            "0x095e7baea6a6c7c4c2dfeb977efac326af552d87" : {
                "balance" : "0x03e8",
                "code" : "0x74600c60005566602060406000f060205260076039f36000526015600b6001f06000556000600060006000600160005461c350f100",
                "nonce" : "0x00",
                "storage" : {
                }
            },
            "0xa94f5374fce5edbc8e2a8697c15331677e6ebf0b" : {
                "balance" : "0x3b9aca00",
                "code" : "0x",
                "nonce" : "0x00",
                "storage" : {
                }
            }
        },
        "transaction" : {
            "data" : [
                "0x00"
            ],
            "gasPrice" : "0x0a",
            "gasLimit" : [
                "0x01312d00"
            ],
            "nonce" : "0x00",
            "secretKey" : "0x45a915e4d060149eb4365960e6a7a45f334393093061116b197e3240065ff2d8",
            "to" : "0x095e7baea6a6c7c4c2dfeb977efac326af552d87",
            "value" : [
                "0x00"
            ]
        }
    }
}