{
    "randomStatetest578" : {
        "_info" : {
            "comment" : "",
            "filling-rpc-server" : "evm version 1.11.5-stable-a38f4108",
            "filling-tool-version" : "retesteth-0.3.0-shanghai+commit.e98b5e62.Linux.g++",
            "generatedTestHash" : "420728cbcaefc461c19cf0c3bbb497fe9ebf9461addf83f3d888dd1830697a6c",
            "lllcversion" : "Version: 0.5.14-develop.2023.8.28+commit.b2b86751.Linux.g++",
            "solidity" : "Version: 0.8.17+commit.8df45f5f.Linux.g++",
            "source" : "src/GeneralStateTestsFiller/stRandom2/randomStatetest578Filler.json",
            "sourceHash" : "4880d145e75d62400a0aa830471368a82e2629861efefa038c294bd18ab255e6"
        },
        "env" : {
            "currentBaseFee" : "0x0a",
            "currentCoinbase" : "0x945304eb96065b2a98b57a48a06ae28d285a71b5",
            "currentDifficulty" : "0x020000",
            "currentGasLimit" : "0x7fffffffffffffff",
            "currentNumber" : "0x01",
            "currentRandom" : "0x0000000000000000000000000000000000000000000000000000000000020000",
            "currentTimestamp" : "0x03e8",
            "previousHash" : "0x5e20a0453cecd065ea59c37ac63e079ee08998b6045136a8ce6635c7912ec0b6"
        },
        "post" : {
            "Berlin" : [
                {
                    "hash" : "0x6783377594e2f63970010e1738d8e7a6b80dfd682f99df9ce87f4c90aec22b67",
                    "indexes" : {
                        "data" : 0,
                        "gas" : 0,
                        "value" : 0
                    },
                    "logs" : "0x1dcc4de8dec75d7aab85b567b6ccd41ad312451b948a7413f0a142fd40d49347",
                    "postState" : {
                        "0x095e7baea6a6c7c4c2dfeb977efac326af552d87" : {
                            "balance" : "0x17c973d5",
                            "code" : "0x7f000000000000000000000000000000000000000000000000000000000000c350457f00000000000000000000000000000000000000000000000000000000000000007ffffffffffffffffffffffffffffffffffffffffffffffffffffffffffffffffe7f000000000000000000000000000000000000000000000000000000000000c3507f00000000000000000000000100000000000000000000000000000000000000007f000000000000000000000000ffffffffffffffffffffffffffffffffffffffff4255",
                            "nonce" : "0x00",
                            "storage" : {
                                "0x03e8" : "0xffffffffffffffffffffffffffffffffffffffff"
                            }
                        },
                        "0x945304eb96065b2a98b57a48a06ae28d285a71b5" : {
                            "balance" : "0x06d25a",
                            "code" : "0x6000355415600957005b60203560003555",
                            "nonce" : "0x00",
                            "storage" : {
                            }
                        },
                        "0xa94f5374fce5edbc8e2a8697c15331677e6ebf0b" : {
                            "balance" : "0x0de0b6b38f93b9ff",
                            "code" : "0x",
                            "nonce" : "0x01",
                            "storage" : {
                            }
                        }
                    },
                    "txbytes" : "0xf9012e800a8473673a3c94095e7baea6a6c7c4c2dfeb977efac326af552d878417c973d5b8c87f000000000000000000000000000000000000000000000000000000000000c350457f00000000000000000000000000000000000000000000000000000000000000007ffffffffffffffffffffffffffffffffffffffffffffffffffffffffffffffffe7f000000000000000000000000000000000000000000000000000000000000c3507f00000000000000000000000100000000000000000000000000000000000000007f000000000000000000000000ffffffffffffffffffffffffffffffffffffffff421ba07a441e4b13ed2709a2054d62dafd9016191b1b54bd091ef06ca6d550e5bf047fa05e395ebcc0aac5555499f555892a1c1e4090f83d92ece2dd25fe636024a5426c"
                }
            ],
            "Istanbul" : [
                {
                    "hash" : "0x6d9c141bb91d15b861b61331d9fec27470d30826da3666eb34b358743c85515e",
                    "indexes" : {
                        "data" : 0,
                        "gas" : 0,
                        "value" : 0
                    },
                    "logs" : "0x1dcc4de8dec75d7aab85b567b6ccd41ad312451b948a7413f0a142fd40d49347",
                    "postState" : {
                        "0x095e7baea6a6c7c4c2dfeb977efac326af552d87" : {
                            "balance" : "0x17c973d5",
                            "code" : "0x7f000000000000000000000000000000000000000000000000000000000000c350457f00000000000000000000000000000000000000000000000000000000000000007ffffffffffffffffffffffffffffffffffffffffffffffffffffffffffffffffe7f000000000000000000000000000000000000000000000000000000000000c3507f00000000000000000000000100000000000000000000000000000000000000007f000000000000000000000000ffffffffffffffffffffffffffffffffffffffff4255",
                            "nonce" : "0x00",
                            "storage" : {
                                "0x03e8" : "0xffffffffffffffffffffffffffffffffffffffff"
                            }
                        },
                        "0x945304eb96065b2a98b57a48a06ae28d285a71b5" : {
                            "balance" : "0x068052",
                            "code" : "0x6000355415600957005b60203560003555",
                            "nonce" : "0x00",
                            "storage" : {
                            }
                        },
                        "0xa94f5374fce5edbc8e2a8697c15331677e6ebf0b" : {
                            "balance" : "0x0de0b6b38f940c07",
                            "code" : "0x",
                            "nonce" : "0x01",
                            "storage" : {
                            }
                        }
                    },
                    "txbytes" : "0xf9012e800a8473673a3c94095e7baea6a6c7c4c2dfeb977efac326af552d878417c973d5b8c87f000000000000000000000000000000000000000000000000000000000000c350457f00000000000000000000000000000000000000000000000000000000000000007ffffffffffffffffffffffffffffffffffffffffffffffffffffffffffffffffe7f000000000000000000000000000000000000000000000000000000000000c3507f00000000000000000000000100000000000000000000000000000000000000007f000000000000000000000000ffffffffffffffffffffffffffffffffffffffff421ba07a441e4b13ed2709a2054d62dafd9016191b1b54bd091ef06ca6d550e5bf047fa05e395ebcc0aac5555499f555892a1c1e4090f83d92ece2dd25fe636024a5426c"
                }
            ],
            "London" : [
                {
                    "hash" : "0xaa5d1214c500dae04fcfa76895b1d542a03760bbd9c137eb9e0113fbfc8dabca",
                    "indexes" : {
                        "data" : 0,
                        "gas" : 0,
                        "value" : 0
                    },
                    "logs" : "0x1dcc4de8dec75d7aab85b567b6ccd41ad312451b948a7413f0a142fd40d49347",
                    "postState" : {
                        "0x095e7baea6a6c7c4c2dfeb977efac326af552d87" : {
                            "balance" : "0x17c973d5",
                            "code" : "0x7f000000000000000000000000000000000000000000000000000000000000c350457f00000000000000000000000000000000000000000000000000000000000000007ffffffffffffffffffffffffffffffffffffffffffffffffffffffffffffffffe7f000000000000000000000000000000000000000000000000000000000000c3507f00000000000000000000000100000000000000000000000000000000000000007f000000000000000000000000ffffffffffffffffffffffffffffffffffffffff4255",
                            "nonce" : "0x00",
                            "storage" : {
                                "0x03e8" : "0xffffffffffffffffffffffffffffffffffffffff"
                            }
                        },
                        "0x945304eb96065b2a98b57a48a06ae28d285a71b5" : {
                            "balance" : "0x2e",
                            "code" : "0x6000355415600957005b60203560003555",
                            "nonce" : "0x00",
                            "storage" : {
                            }
                        },
                        "0xa94f5374fce5edbc8e2a8697c15331677e6ebf0b" : {
                            "balance" : "0x0de0b6b38f93b9ff",
                            "code" : "0x",
                            "nonce" : "0x01",
                            "storage" : {
                            }
                        }
                    },
                    "txbytes" : "0xf9012e800a8473673a3c94095e7baea6a6c7c4c2dfeb977efac326af552d878417c973d5b8c87f000000000000000000000000000000000000000000000000000000000000c350457f00000000000000000000000000000000000000000000000000000000000000007ffffffffffffffffffffffffffffffffffffffffffffffffffffffffffffffffe7f000000000000000000000000000000000000000000000000000000000000c3507f00000000000000000000000100000000000000000000000000000000000000007f000000000000000000000000ffffffffffffffffffffffffffffffffffffffff421ba07a441e4b13ed2709a2054d62dafd9016191b1b54bd091ef06ca6d550e5bf047fa05e395ebcc0aac5555499f555892a1c1e4090f83d92ece2dd25fe636024a5426c"
                }
            ],
            "Merge" : [
                {
                    "hash" : "0xaa5d1214c500dae04fcfa76895b1d542a03760bbd9c137eb9e0113fbfc8dabca",
                    "indexes" : {
                        "data" : 0,
                        "gas" : 0,
                        "value" : 0
                    },
                    "logs" : "0x1dcc4de8dec75d7aab85b567b6ccd41ad312451b948a7413f0a142fd40d49347",
                    "postState" : {
                        "0x095e7baea6a6c7c4c2dfeb977efac326af552d87" : {
                            "balance" : "0x17c973d5",
                            "code" : "0x7f000000000000000000000000000000000000000000000000000000000000c350457f00000000000000000000000000000000000000000000000000000000000000007ffffffffffffffffffffffffffffffffffffffffffffffffffffffffffffffffe7f000000000000000000000000000000000000000000000000000000000000c3507f00000000000000000000000100000000000000000000000000000000000000007f000000000000000000000000ffffffffffffffffffffffffffffffffffffffff4255",
                            "nonce" : "0x00",
                            "storage" : {
                                "0x03e8" : "0xffffffffffffffffffffffffffffffffffffffff"
                            }
                        },
                        "0x945304eb96065b2a98b57a48a06ae28d285a71b5" : {
                            "balance" : "0x2e",
                            "code" : "0x6000355415600957005b60203560003555",
                            "nonce" : "0x00",
                            "storage" : {
                            }
                        },
                        "0xa94f5374fce5edbc8e2a8697c15331677e6ebf0b" : {
                            "balance" : "0x0de0b6b38f93b9ff",
                            "code" : "0x",
                            "nonce" : "0x01",
                            "storage" : {
                            }
                        }
                    },
                    "txbytes" : "0xf9012e800a8473673a3c94095e7baea6a6c7c4c2dfeb977efac326af552d878417c973d5b8c87f000000000000000000000000000000000000000000000000000000000000c350457f00000000000000000000000000000000000000000000000000000000000000007ffffffffffffffffffffffffffffffffffffffffffffffffffffffffffffffffe7f000000000000000000000000000000000000000000000000000000000000c3507f00000000000000000000000100000000000000000000000000000000000000007f000000000000000000000000ffffffffffffffffffffffffffffffffffffffff421ba07a441e4b13ed2709a2054d62dafd9016191b1b54bd091ef06ca6d550e5bf047fa05e395ebcc0aac5555499f555892a1c1e4090f83d92ece2dd25fe636024a5426c"
                }
            ],
            "Shanghai" : [
                {
                    "hash" : "0xaa5d1214c500dae04fcfa76895b1d542a03760bbd9c137eb9e0113fbfc8dabca",
                    "indexes" : {
                        "data" : 0,
                        "gas" : 0,
                        "value" : 0
                    },
                    "logs" : "0x1dcc4de8dec75d7aab85b567b6ccd41ad312451b948a7413f0a142fd40d49347",
                    "postState" : {
                        "0x095e7baea6a6c7c4c2dfeb977efac326af552d87" : {
                            "balance" : "0x17c973d5",
                            "code" : "0x7f000000000000000000000000000000000000000000000000000000000000c350457f00000000000000000000000000000000000000000000000000000000000000007ffffffffffffffffffffffffffffffffffffffffffffffffffffffffffffffffe7f000000000000000000000000000000000000000000000000000000000000c3507f00000000000000000000000100000000000000000000000000000000000000007f000000000000000000000000ffffffffffffffffffffffffffffffffffffffff4255",
                            "nonce" : "0x00",
                            "storage" : {
                                "0x03e8" : "0xffffffffffffffffffffffffffffffffffffffff"
                            }
                        },
                        "0x945304eb96065b2a98b57a48a06ae28d285a71b5" : {
                            "balance" : "0x2e",
                            "code" : "0x6000355415600957005b60203560003555",
                            "nonce" : "0x00",
                            "storage" : {
                            }
                        },
                        "0xa94f5374fce5edbc8e2a8697c15331677e6ebf0b" : {
                            "balance" : "0x0de0b6b38f93b9ff",
                            "code" : "0x",
                            "nonce" : "0x01",
                            "storage" : {
                            }
                        }
                    },
                    "txbytes" : "0xf9012e800a8473673a3c94095e7baea6a6c7c4c2dfeb977efac326af552d878417c973d5b8c87f000000000000000000000000000000000000000000000000000000000000c350457f00000000000000000000000000000000000000000000000000000000000000007ffffffffffffffffffffffffffffffffffffffffffffffffffffffffffffffffe7f000000000000000000000000000000000000000000000000000000000000c3507f00000000000000000000000100000000000000000000000000000000000000007f000000000000000000000000ffffffffffffffffffffffffffffffffffffffff421ba07a441e4b13ed2709a2054d62dafd9016191b1b54bd091ef06ca6d550e5bf047fa05e395ebcc0aac5555499f555892a1c1e4090f83d92ece2dd25fe636024a5426c"
                }
            ]
        },
        "pre" : {
            "0x095e7baea6a6c7c4c2dfeb977efac326af552d87" : {
                "balance" : "0x00",
                "code" : "0x7f000000000000000000000000000000000000000000000000000000000000c350457f00000000000000000000000000000000000000000000000000000000000000007ffffffffffffffffffffffffffffffffffffffffffffffffffffffffffffffffe7f000000000000000000000000000000000000000000000000000000000000c3507f00000000000000000000000100000000000000000000000000000000000000007f000000000000000000000000ffffffffffffffffffffffffffffffffffffffff4255",
                "nonce" : "0x00",
                "storage" : {
                }
            },
            "0x945304eb96065b2a98b57a48a06ae28d285a71b5" : {
                "balance" : "0x2e",
                "code" : "0x6000355415600957005b60203560003555",
                "nonce" : "0x00",
                "storage" : {
                }
            },
            "0xa94f5374fce5edbc8e2a8697c15331677e6ebf0b" : {
                "balance" : "0x0de0b6b3a7640000",
                "code" : "0x",
                "nonce" : "0x00",
                "storage" : {
                }
            }
        },
        "transaction" : {
            "data" : [
                "0x7f000000000000000000000000000000000000000000000000000000000000c350457f00000000000000000000000000000000000000000000000000000000000000007ffffffffffffffffffffffffffffffffffffffffffffffffffffffffffffffffe7f000000000000000000000000000000000000000000000000000000000000c3507f00000000000000000000000100000000000000000000000000000000000000007f000000000000000000000000ffffffffffffffffffffffffffffffffffffffff42"
            ],
            "gasLimit" : [
                "0x73673a3c"
            ],
            "gasPrice" : "0x0a",
            "nonce" : "0x00",
            "secretKey" : "0x45a915e4d060149eb4365960e6a7a45f334393093061116b197e3240065ff2d8",
            "sender" : "0xa94f5374fce5edbc8e2a8697c15331677e6ebf0b",
            "to" : "0x095e7baea6a6c7c4c2dfeb977efac326af552d87",
            "value" : [
                "0x17c973d5"
            ]
        }
    }
}