{
    "memCopySelf" : {
        "_info" : {
            "comment" : "Ori Pomerantz qbzzt1@gmail.com",
            "filling-rpc-server" : "evm version 1.11.5-stable-a38f4108",
            "filling-tool-version" : "retesteth-0.3.0-shanghai+commit.e98b5e62.Linux.g++",
            "generatedTestHash" : "6c6b65552d979070b4e2fe88c6f684ef0f9684059d6371cb925238711407ea66",
            "lllcversion" : "Version: 0.5.14-develop.2023.8.28+commit.b2b86751.Linux.g++",
            "solidity" : "Version: 0.8.17+commit.8df45f5f.Linux.g++",
            "source" : "src/GeneralStateTestsFiller/stMemoryTest/memCopySelfFiller.yml",
            "sourceHash" : "65f98497ce07299b0ba4358063c4cd1a8ad1a7321abdd709438ce65c4b4eac13"
        },
        "env" : {
            "currentBaseFee" : "0x0a",
            "currentCoinbase" : "0x2adc25665018aa1fe0e6bc666dac8fc2697ff9ba",
            "currentDifficulty" : "0x020000",
            "currentGasLimit" : "0x05f5e100",
            "currentNumber" : "0x01",
            "currentRandom" : "0x0000000000000000000000000000000000000000000000000000000000020000",
            "currentTimestamp" : "0x03e8",
            "previousHash" : "0x5e20a0453cecd065ea59c37ac63e079ee08998b6045136a8ce6635c7912ec0b6"
        },
        "post" : {
            "Berlin" : [
                {
                    "hash" : "0x81f5e07b41d57f37906cb0e1d5c695598e1bf1015b0aef3c5e6f5ae4148eb902",
                    "indexes" : {
                        "data" : 0,
                        "gas" : 0,
                        "value" : 0
                    },
                    "logs" : "0x1dcc4de8dec75d7aab85b567b6ccd41ad312451b948a7413f0a142fd40d49347",
                    "postState" : {
                        "0x2adc25665018aa1fe0e6bc666dac8fc2697ff9ba" : {
                            "balance" : "0x0aea56",
                            "code" : "0x",
                            "nonce" : "0x00",
                            "storage" : {
                            }
                        },
                        "0xa94f5374fce5edbc8e2a8697c15331677e6ebf0b" : {
                            "balance" : "0x0ba1a9ce0b96bf78",
                            "code" : "0x",
                            "nonce" : "0x02",
                            "storage" : {
                            }
                        },
                        "0xcccccccccccccccccccccccccccccccccccccccc" : {
                            "balance" : "0x0ba1a9ce0ba1a9ce",
                            "code" : "0x600460005b600f811015601f576011600182010281536001810190506004565b50600051600055600a6002600a600080855af150600051600155600a600060203e60205160025550",
                            "nonce" : "0x01",
                            "storage" : {
                                "0x00" : "0x112233445566778899aabbccddeeff0000000000000000000000000000000000",
                                "0x01" : "0x1122112233445566778899aaddeeff0000000000000000000000000000000000",
                                "0x02" : "0x112233445566778899aa00000000000000000000000000000000000000000000"
                            }
                        }
                    },
                    "txbytes" : "0xf861010a8404c4b40094cccccccccccccccccccccccccccccccccccccccc80801ca0c350b3ab798c002a04635a82701307f1b6e07b2c432882028e8b7f03c3f18ff0a00a3bfc55ed560aacaee7792898bcb24517d26cbe685eec81ab9cef15ef1621ab"
                }
            ],
            "London" : [
                {
                    "hash" : "0x8cdda987474ae1c656a6e34951b6c673ec0c7be37109813eebbce301b8aa0a16",
                    "indexes" : {
                        "data" : 0,
                        "gas" : 0,
                        "value" : 0
                    },
                    "logs" : "0x1dcc4de8dec75d7aab85b567b6ccd41ad312451b948a7413f0a142fd40d49347",
                    "postState" : {
                        "0xa94f5374fce5edbc8e2a8697c15331677e6ebf0b" : {
                            "balance" : "0x0ba1a9ce0b96bf78",
                            "code" : "0x",
                            "nonce" : "0x02",
                            "storage" : {
                            }
                        },
                        "0xcccccccccccccccccccccccccccccccccccccccc" : {
                            "balance" : "0x0ba1a9ce0ba1a9ce",
                            "code" : "0x600460005b600f811015601f576011600182010281536001810190506004565b50600051600055600a6002600a600080855af150600051600155600a600060203e60205160025550",
                            "nonce" : "0x01",
                            "storage" : {
                                "0x00" : "0x112233445566778899aabbccddeeff0000000000000000000000000000000000",
                                "0x01" : "0x1122112233445566778899aaddeeff0000000000000000000000000000000000",
                                "0x02" : "0x112233445566778899aa00000000000000000000000000000000000000000000"
                            }
                        }
                    },
                    "txbytes" : "0xf861010a8404c4b40094cccccccccccccccccccccccccccccccccccccccc80801ca0c350b3ab798c002a04635a82701307f1b6e07b2c432882028e8b7f03c3f18ff0a00a3bfc55ed560aacaee7792898bcb24517d26cbe685eec81ab9cef15ef1621ab"
                }
            ],
            "Merge" : [
                {
                    "hash" : "0x8cdda987474ae1c656a6e34951b6c673ec0c7be37109813eebbce301b8aa0a16",
                    "indexes" : {
                        "data" : 0,
                        "gas" : 0,
                        "value" : 0
                    },
                    "logs" : "0x1dcc4de8dec75d7aab85b567b6ccd41ad312451b948a7413f0a142fd40d49347",
                    "postState" : {
                        "0xa94f5374fce5edbc8e2a8697c15331677e6ebf0b" : {
                            "balance" : "0x0ba1a9ce0b96bf78",
                            "code" : "0x",
                            "nonce" : "0x02",
                            "storage" : {
                            }
                        },
                        "0xcccccccccccccccccccccccccccccccccccccccc" : {
                            "balance" : "0x0ba1a9ce0ba1a9ce",
                            "code" : "0x600460005b600f811015601f576011600182010281536001810190506004565b50600051600055600a6002600a600080855af150600051600155600a600060203e60205160025550",
                            "nonce" : "0x01",
                            "storage" : {
                                "0x00" : "0x112233445566778899aabbccddeeff0000000000000000000000000000000000",
                                "0x01" : "0x1122112233445566778899aaddeeff0000000000000000000000000000000000",
                                "0x02" : "0x112233445566778899aa00000000000000000000000000000000000000000000"
                            }
                        }
                    },
                    "txbytes" : "0xf861010a8404c4b40094cccccccccccccccccccccccccccccccccccccccc80801ca0c350b3ab798c002a04635a82701307f1b6e07b2c432882028e8b7f03c3f18ff0a00a3bfc55ed560aacaee7792898bcb24517d26cbe685eec81ab9cef15ef1621ab"
                }
            ],
            "Shanghai" : [
                {
                    "hash" : "0x8cdda987474ae1c656a6e34951b6c673ec0c7be37109813eebbce301b8aa0a16",
                    "indexes" : {
                        "data" : 0,
                        "gas" : 0,
                        "value" : 0
                    },
                    "logs" : "0x1dcc4de8dec75d7aab85b567b6ccd41ad312451b948a7413f0a142fd40d49347",
                    "postState" : {
                        "0xa94f5374fce5edbc8e2a8697c15331677e6ebf0b" : {
                            "balance" : "0x0ba1a9ce0b96bf78",
                            "code" : "0x",
                            "nonce" : "0x02",
                            "storage" : {
                            }
                        },
                        "0xcccccccccccccccccccccccccccccccccccccccc" : {
                            "balance" : "0x0ba1a9ce0ba1a9ce",
                            "code" : "0x600460005b600f811015601f576011600182010281536001810190506004565b50600051600055600a6002600a600080855af150600051600155600a600060203e60205160025550",
                            "nonce" : "0x01",
                            "storage" : {
                                "0x00" : "0x112233445566778899aabbccddeeff0000000000000000000000000000000000",
                                "0x01" : "0x1122112233445566778899aaddeeff0000000000000000000000000000000000",
                                "0x02" : "0x112233445566778899aa00000000000000000000000000000000000000000000"
                            }
                        }
                    },
                    "txbytes" : "0xf861010a8404c4b40094cccccccccccccccccccccccccccccccccccccccc80801ca0c350b3ab798c002a04635a82701307f1b6e07b2c432882028e8b7f03c3f18ff0a00a3bfc55ed560aacaee7792898bcb24517d26cbe685eec81ab9cef15ef1621ab"
                }
            ]
        },
        "pre" : {
            "0xa94f5374fce5edbc8e2a8697c15331677e6ebf0b" : {
                "balance" : "0x0ba1a9ce0ba1a9ce",
                "code" : "0x",
                "nonce" : "0x01",
                "storage" : {
                }
            },
            "0xcccccccccccccccccccccccccccccccccccccccc" : {
                "balance" : "0x0ba1a9ce0ba1a9ce",
                "code" : "0x600460005b600f811015601f576011600182010281536001810190506004565b50600051600055600a6002600a600080855af150600051600155600a600060203e60205160025550",
                "nonce" : "0x01",
                "storage" : {
                    "0x00" : "0x60a7"
                }
            }
        },
        "transaction" : {
            "data" : [
                "0x"
            ],
            "gasLimit" : [
                "0x04c4b400"
            ],
            "gasPrice" : "0x0a",
            "nonce" : "0x01",
            "secretKey" : "0x45a915e4d060149eb4365960e6a7a45f334393093061116b197e3240065ff2d8",
            "sender" : "0xa94f5374fce5edbc8e2a8697c15331677e6ebf0b",
            "to" : "0xcccccccccccccccccccccccccccccccccccccccc",
            "value" : [
                "0x00"
            ]
        }
    }
}