{
    "mload16bitBound" : {
        "_info" : {
            "comment" : "",
            "filling-rpc-server" : "evm version 1.10.4-stable-aa637fd3",
            "filling-tool-version" : "retesteth-0.1.1-eip1559+commit.0e1fbab0.Linux.g++",
            "lllcversion" : "Version: 0.5.14-develop.2022.1.13+commit.401d5358.Linux.g++",
            "source" : "src/GeneralStateTestsFiller/stMemoryTest/mload16bitBoundFiller.json",
            "sourceHash" : "1eb3ee90e421ba507b98141fcde02d5070e5a584b08adab7f7931bb56d8630e6"
        },
        "env" : {
            "currentCoinbase" : "0x2adc25665018aa1fe0e6bc666dac8fc2697ff9ba",
            "currentDifficulty" : "0x020000",
            "currentNumber" : "0x01",
            "currentTimestamp" : "0x03e8",
            "previousHash" : "0x5e20a0453cecd065ea59c37ac63e079ee08998b6045136a8ce6635c7912ec0b6",
            "currentGasLimit" : "0x10000804025c"
        },
        "post" : {
            "Berlin" : [
                {
                    "indexes" : {
                        "data" : 0,
                        "gas" : 0,
                        "value" : 0
                    },
                    "hash" : "0x54ef6c5652baffc65e31c5100072c1d50892a7f1ca834f59590d9f1de4fb5984",
                    "txbytes" : "0xf863800a860ffc0802015d940f572e5295c57f15886f9b263e2f6d2d6c7b5ec60a801ba0d6e063f55b8805082d776fada150f18f621b5ed50aba9b116956e6d7cc9f8933a065669d8d749a2bdd161220c0318ffae9aca534912e305df71775e45a1391df52",
                    "postState" : {
                        "0x0f572e5295c57f15886f9b263e2f6d2d6c7b5ec6" : {
                            "code" : "0x620100005160015500",
                            "nonce" : "0x00",
                            "balance" : "0x0de0b6b3a764000a",
                            "storage" : {
                            }
                        },
                        "0x2adc25665018aa1fe0e6bc666dac8fc2697ff9ba" : {
                            "code" : "0x",
                            "nonce" : "0x00",
                            "balance" : "0x05bb08",
                            "storage" : {
                            }
                        },
                        "0xa94f5374fce5edbc8e2a8697c15331677e6ebf0b" : {
                            "code" : "0x",
                            "nonce" : "0x01",
                            "balance" : "0xa00050225c86",
                            "storage" : {
                            }
                        }
                    },
                    "logs" : "0x1dcc4de8dec75d7aab85b567b6ccd41ad312451b948a7413f0a142fd40d49347"
                }
            ],
            "Istanbul" : [
                {
                    "indexes" : {
                        "data" : 0,
                        "gas" : 0,
                        "value" : 0
                    },
                    "hash" : "0x5e49cdb484529e9dbb086f0a84b09f883f12b878e88c12f5f5ad30825dcbb44e",
                    "txbytes" : "0xf863800a860ffc0802015d940f572e5295c57f15886f9b263e2f6d2d6c7b5ec60a801ba0d6e063f55b8805082d776fada150f18f621b5ed50aba9b116956e6d7cc9f8933a065669d8d749a2bdd161220c0318ffae9aca534912e305df71775e45a1391df52",
                    "postState" : {
                        "0x0f572e5295c57f15886f9b263e2f6d2d6c7b5ec6" : {
                            "code" : "0x620100005160015500",
                            "nonce" : "0x00",
                            "balance" : "0x0de0b6b3a764000a",
                            "storage" : {
                            }
                        },
                        "0x2adc25665018aa1fe0e6bc666dac8fc2697ff9ba" : {
                            "code" : "0x",
                            "nonce" : "0x00",
                            "balance" : "0x058458",
                            "storage" : {
                            }
                        },
                        "0xa94f5374fce5edbc8e2a8697c15331677e6ebf0b" : {
                            "code" : "0x",
                            "nonce" : "0x01",
                            "balance" : "0xa00050229336",
                            "storage" : {
                            }
                        }
                    },
                    "logs" : "0x1dcc4de8dec75d7aab85b567b6ccd41ad312451b948a7413f0a142fd40d49347"
                }
            ],
            "London" : [
                {
                    "indexes" : {
                        "data" : 0,
                        "gas" : 0,
                        "value" : 0
                    },
                    "hash" : "0xa6be3d077215c98e6f253dd456db12f6350e367c774bd523f39d5dc555c0931b",
                    "txbytes" : "0xf863800a860ffc0802015d940f572e5295c57f15886f9b263e2f6d2d6c7b5ec60a801ba0d6e063f55b8805082d776fada150f18f621b5ed50aba9b116956e6d7cc9f8933a065669d8d749a2bdd161220c0318ffae9aca534912e305df71775e45a1391df52",
                    "postState" : {
                        "0x0f572e5295c57f15886f9b263e2f6d2d6c7b5ec6" : {
                            "code" : "0x620100005160015500",
                            "nonce" : "0x00",
                            "balance" : "0x0de0b6b3a764000a",
                            "storage" : {
                            }
                        },
                        "0xa94f5374fce5edbc8e2a8697c15331677e6ebf0b" : {
                            "code" : "0x",
                            "nonce" : "0x01",
                            "balance" : "0xa00050225c86",
                            "storage" : {
                            }
                        }
                    },
                    "logs" : "0x1dcc4de8dec75d7aab85b567b6ccd41ad312451b948a7413f0a142fd40d49347"
                }
            ]
        },
        "pre" : {
            "0x0f572e5295c57f15886f9b263e2f6d2d6c7b5ec6" : {
                "balance" : "0x0de0b6b3a7640000",
                "code" : "0x620100005160015500",
                "nonce" : "0x00",
                "storage" : {
                }
            },
            "0xa94f5374fce5edbc8e2a8697c15331677e6ebf0b" : {
                "balance" : "0xa00050281798",
                "code" : "0x",
                "nonce" : "0x00",
                "storage" : {
                }
            }
        },
        "transaction" : {
            "data" : [
                "0x"
            ],
            "gasPrice" : "0x0a",
            "gasLimit" : [
                "0x0ffc0802015d"
            ],
            "nonce" : "0x00",
            "secretKey" : "0x45a915e4d060149eb4365960e6a7a45f334393093061116b197e3240065ff2d8",
            "to" : "0x0f572e5295c57f15886f9b263e2f6d2d6c7b5ec6",
            "value" : [
                "0x0a"
            ]
        }
    }
}