{
    "stackLimitPush32_1024" : {
        "_info" : {
            "comment" : "",
            "filling-rpc-server" : "evm version 1.11.5-stable-a38f4108",
            "filling-tool-version" : "retesteth-0.3.0-shanghai+commit.e98b5e62.Linux.g++",
            "generatedTestHash" : "8265a33944d297b1c95e0254924d4a4f9644d80154ffc1190aeb7d256387b5da",
            "lllcversion" : "Version: 0.5.14-develop.2023.8.28+commit.b2b86751.Linux.g++",
            "solidity" : "Version: 0.8.17+commit.8df45f5f.Linux.g++",
            "source" : "src/GeneralStateTestsFiller/stMemoryTest/stackLimitPush32_1024Filler.json",
            "sourceHash" : "e65166a06925c1b3ea6a01fbce8438614467ef5f8a2fdb5a48aa947629d8eb6e"
        },
        "env" : {
            "currentBaseFee" : "0x0a",
            "currentCoinbase" : "0x2adc25665018aa1fe0e6bc666dac8fc2697ff9ba",
            "currentDifficulty" : "0x020000",
            "currentGasLimit" : "0x0a00000000",
            "currentNumber" : "0x01",
            "currentRandom" : "0x0000000000000000000000000000000000000000000000000000000000020000",
            "currentTimestamp" : "0x03e8",
            "previousHash" : "0x5e20a0453cecd065ea59c37ac63e079ee08998b6045136a8ce6635c7912ec0b6"
        },
        "post" : {
            "Berlin" : [
                {
                    "hash" : "0xc0861a3b8721bfabb5a28b8a4b3caa390833d745b2baeae2e4e386dfa763c79a",
                    "indexes" : {
                        "data" : 0,
                        "gas" : 0,
                        "value" : 0
                    },
                    "logs" : "0x1dcc4de8dec75d7aab85b567b6ccd41ad312451b948a7413f0a142fd40d49347",
                    "postState" : {
                        "0x0f572e5295c57f15886f9b263e2f6d2d6c7b5ec6" : {
                            "balance" : "0x0de0b6b3a764000a",
                            "code" : "0x6103fe6000525b7f0102030405060708090a0102030405060708090a0102030405060708090a01026001600051036000526000516006570000",
                            "nonce" : "0x00",
                            "storage" : {
                            }
                        },
                        "0x2adc25665018aa1fe0e6bc666dac8fc2697ff9ba" : {
                            "balance" : "0x099994",
                            "code" : "0x",
                            "nonce" : "0x00",
                            "storage" : {
                            }
                        },
                        "0xa94f5374fce5edbc8e2a8697c15331677e6ebf0b" : {
                            "balance" : "0x63fff66662",
                            "code" : "0x",
                            "nonce" : "0x01",
                            "storage" : {
                            }
                        }
                    },
                    "txbytes" : "0xf860800a830186a0940f572e5295c57f15886f9b263e2f6d2d6c7b5ec60a801ca062e8f359bbf68c6fc419a2b59b8ebce8255c8688c839a87f4f311ef24d028f83a067b2257faa5e338f546d1be921fbbb1b3d36b5e6914e6786e960876e3f3f73cf"
                }
            ],
            "Istanbul" : [
                {
                    "hash" : "0xc0861a3b8721bfabb5a28b8a4b3caa390833d745b2baeae2e4e386dfa763c79a",
                    "indexes" : {
                        "data" : 0,
                        "gas" : 0,
                        "value" : 0
                    },
                    "logs" : "0x1dcc4de8dec75d7aab85b567b6ccd41ad312451b948a7413f0a142fd40d49347",
                    "postState" : {
                        "0x0f572e5295c57f15886f9b263e2f6d2d6c7b5ec6" : {
                            "balance" : "0x0de0b6b3a764000a",
                            "code" : "0x6103fe6000525b7f0102030405060708090a0102030405060708090a0102030405060708090a01026001600051036000526000516006570000",
                            "nonce" : "0x00",
                            "storage" : {
                            }
                        },
                        "0x2adc25665018aa1fe0e6bc666dac8fc2697ff9ba" : {
                            "balance" : "0x099994",
                            "code" : "0x",
                            "nonce" : "0x00",
                            "storage" : {
                            }
                        },
                        "0xa94f5374fce5edbc8e2a8697c15331677e6ebf0b" : {
                            "balance" : "0x63fff66662",
                            "code" : "0x",
                            "nonce" : "0x01",
                            "storage" : {
                            }
                        }
                    },
                    "txbytes" : "0xf860800a830186a0940f572e5295c57f15886f9b263e2f6d2d6c7b5ec60a801ca062e8f359bbf68c6fc419a2b59b8ebce8255c8688c839a87f4f311ef24d028f83a067b2257faa5e338f546d1be921fbbb1b3d36b5e6914e6786e960876e3f3f73cf"
                }
            ],
            "London" : [
                {
                    "hash" : "0xfe56ebfedab5a5ab25a7568d830b747ac487b1baf77eecb057bfeb54955fb82e",
                    "indexes" : {
                        "data" : 0,
                        "gas" : 0,
                        "value" : 0
                    },
                    "logs" : "0x1dcc4de8dec75d7aab85b567b6ccd41ad312451b948a7413f0a142fd40d49347",
                    "postState" : {
                        "0x0f572e5295c57f15886f9b263e2f6d2d6c7b5ec6" : {
                            "balance" : "0x0de0b6b3a764000a",
                            "code" : "0x6103fe6000525b7f0102030405060708090a0102030405060708090a0102030405060708090a01026001600051036000526000516006570000",
                            "nonce" : "0x00",
                            "storage" : {
                            }
                        },
                        "0xa94f5374fce5edbc8e2a8697c15331677e6ebf0b" : {
                            "balance" : "0x63fff66662",
                            "code" : "0x",
                            "nonce" : "0x01",
                            "storage" : {
                            }
                        }
                    },
                    "txbytes" : "0xf860800a830186a0940f572e5295c57f15886f9b263e2f6d2d6c7b5ec60a801ca062e8f359bbf68c6fc419a2b59b8ebce8255c8688c839a87f4f311ef24d028f83a067b2257faa5e338f546d1be921fbbb1b3d36b5e6914e6786e960876e3f3f73cf"
                }
            ],
            "Merge" : [
                {
                    "hash" : "0xfe56ebfedab5a5ab25a7568d830b747ac487b1baf77eecb057bfeb54955fb82e",
                    "indexes" : {
                        "data" : 0,
                        "gas" : 0,
                        "value" : 0
                    },
                    "logs" : "0x1dcc4de8dec75d7aab85b567b6ccd41ad312451b948a7413f0a142fd40d49347",
                    "postState" : {
                        "0x0f572e5295c57f15886f9b263e2f6d2d6c7b5ec6" : {
                            "balance" : "0x0de0b6b3a764000a",
                            "code" : "0x6103fe6000525b7f0102030405060708090a0102030405060708090a0102030405060708090a01026001600051036000526000516006570000",
                            "nonce" : "0x00",
                            "storage" : {
                            }
                        },
                        "0xa94f5374fce5edbc8e2a8697c15331677e6ebf0b" : {
                            "balance" : "0x63fff66662",
                            "code" : "0x",
                            "nonce" : "0x01",
                            "storage" : {
                            }
                        }
                    },
                    "txbytes" : "0xf860800a830186a0940f572e5295c57f15886f9b263e2f6d2d6c7b5ec60a801ca062e8f359bbf68c6fc419a2b59b8ebce8255c8688c839a87f4f311ef24d028f83a067b2257faa5e338f546d1be921fbbb1b3d36b5e6914e6786e960876e3f3f73cf"
                }
            ],
            "Shanghai" : [
                {
                    "hash" : "0xfe56ebfedab5a5ab25a7568d830b747ac487b1baf77eecb057bfeb54955fb82e",
                    "indexes" : {
                        "data" : 0,
                        "gas" : 0,
                        "value" : 0
                    },
                    "logs" : "0x1dcc4de8dec75d7aab85b567b6ccd41ad312451b948a7413f0a142fd40d49347",
                    "postState" : {
                        "0x0f572e5295c57f15886f9b263e2f6d2d6c7b5ec6" : {
                            "balance" : "0x0de0b6b3a764000a",
                            "code" : "0x6103fe6000525b7f0102030405060708090a0102030405060708090a0102030405060708090a01026001600051036000526000516006570000",
                            "nonce" : "0x00",
                            "storage" : {
                            }
                        },
                        "0xa94f5374fce5edbc8e2a8697c15331677e6ebf0b" : {
                            "balance" : "0x63fff66662",
                            "code" : "0x",
                            "nonce" : "0x01",
                            "storage" : {
                            }
                        }
                    },
                    "txbytes" : "0xf860800a830186a0940f572e5295c57f15886f9b263e2f6d2d6c7b5ec60a801ca062e8f359bbf68c6fc419a2b59b8ebce8255c8688c839a87f4f311ef24d028f83a067b2257faa5e338f546d1be921fbbb1b3d36b5e6914e6786e960876e3f3f73cf"
                }
            ]
        },
        "pre" : {
            "0x0f572e5295c57f15886f9b263e2f6d2d6c7b5ec6" : {
                "balance" : "0x0de0b6b3a7640000",
                "code" : "0x6103fe6000525b7f0102030405060708090a0102030405060708090a0102030405060708090a01026001600051036000526000516006570000",
                "nonce" : "0x00",
                "storage" : {
                }
            },
            "0xa94f5374fce5edbc8e2a8697c15331677e6ebf0b" : {
                "balance" : "0x6400000000",
                "code" : "0x",
                "nonce" : "0x00",
                "storage" : {
                }
            }
        },
        "transaction" : {
            "data" : [
                "0x"
            ],
            "gasLimit" : [
                "0x0186a0"
            ],
            "gasPrice" : "0x0a",
            "nonce" : "0x00",
            "secretKey" : "0x45a915e4d060149eb4365960e6a7a45f334393093061116b197e3240065ff2d8",
            "sender" : "0xa94f5374fce5edbc8e2a8697c15331677e6ebf0b",
            "to" : "0x0f572e5295c57f15886f9b263e2f6d2d6c7b5ec6",
            "value" : [
                "0x0a"
            ]
        }
    }
}