{
    "coinbaseT2" : {
        "_info" : {
            "comment" : "Ori Pomerantz qbzzt1@gmail.com",
            "filling-rpc-server" : "evm version 1.10.16-unstable-1884f37f-20220107",
            "filling-tool-version" : "retesteth-0.2.1-difficulty+commit.37dfbbcd.Linux.g++",
            "generatedTestHash" : "45173bb3c1168d672184b27f9e0e5e5964d2e40651405a91bea3708a749b3083",
            "labels" : {
                "0" : ":label T2baseInList",
                "1" : ":label T2baseNotInList"
            },
            "lllcversion" : "Version: 0.5.14-develop.2022.1.7+commit.401d5358.Linux.g++",
            "source" : "src/GeneralStateTestsFiller/stEIP2930/coinbaseT2Filler.yml",
            "sourceHash" : "b023602bf37ae7fcd4c350ddc8ef960d3214ed24e5ae5b8c8cc3583a5b682625"
        },
        "env" : {
            "currentBaseFee" : "0x64",
            "currentCoinbase" : "0x000000000000000000000000000000000000ba5e",
            "currentDifficulty" : "0x020000",
            "currentGasLimit" : "0xff112233445566",
            "currentNumber" : "0x01",
            "currentTimestamp" : "0x03e8",
            "previousHash" : "0x5e20a0453cecd065ea59c37ac63e079ee08998b6045136a8ce6635c7912ec0b6"
        },
        "post" : {
            "London" : [
                {
                    "hash" : "0x1c8f398c6a243ffec2e8f63ef816e48c3af0fbbafc875837c75bb78b555f40aa",
                    "indexes" : {
                        "data" : 0,
                        "gas" : 0,
                        "value" : 0
                    },
                    "logs" : "0x1dcc4de8dec75d7aab85b567b6ccd41ad312451b948a7413f0a142fd40d49347",
                    "postState" : {
                        "0x000000000000000000000000000000000000ba5e" : {
                            "balance" : "0x5f7580",
                            "code" : "0x",
                            "nonce" : "0x01",
                            "storage" : {
                            }
                        },
                        "0x000000000000000000000000000000000000c0de" : {
                            "balance" : "0x0de0b6b3a754bdc0",
                            "code" : "0x5a6000526000600060006000620f424061ba5e5af1505a60205260216020516000510303600055",
                            "nonce" : "0x01",
                            "storage" : {
                                "0x00" : "0x1a90"
                            }
                        },
                        "0xa94f5374fce5edbc8e2a8697c15331677e6ebf0b" : {
                            "balance" : "0x0de0b6b3a6c39980",
                            "code" : "0x",
                            "nonce" : "0x02",
                            "storage" : {
                            }
                        }
                    },
                    "txbytes" : "0x02f8a10101648227108402625a0094000000000000000000000000000000000000c0de80a4693c61390000000000000000000000000000000000000000000000000000000000000000d7d694000000000000000000000000000000000000ba5ec080a0d5a3052a8cc387f35ffdebe832afdfdd45980cdcbb9b926dee7fb9b1d9a4ee08a06210d404eb6aecd05bc214b120959a71ede9fadcae4b769c96c58bffa216f205"
                },
                {
                    "hash" : "0xa0ca8c3dc6c4b54828ffd3e89c977b345c9c152246c9c38cc2c9ee78fb0621b1",
                    "indexes" : {
                        "data" : 1,
                        "gas" : 0,
                        "value" : 0
                    },
                    "logs" : "0x1dcc4de8dec75d7aab85b567b6ccd41ad312451b948a7413f0a142fd40d49347",
                    "postState" : {
                        "0x000000000000000000000000000000000000ba5e" : {
                            "balance" : "0x634610",
                            "code" : "0x",
                            "nonce" : "0x01",
                            "storage" : {
                            }
                        },
                        "0x000000000000000000000000000000000000c0de" : {
                            "balance" : "0x0de0b6b3a754bdc0",
                            "code" : "0x5a6000526000600060006000620f424061ba5e5af1505a60205260216020516000510303600055",
                            "nonce" : "0x01",
                            "storage" : {
                                "0x00" : "0x2454"
                            }
                        },
                        "0xa94f5374fce5edbc8e2a8697c15331677e6ebf0b" : {
                            "balance" : "0x0de0b6b3a6bbf860",
                            "code" : "0x",
                            "nonce" : "0x02",
                            "storage" : {
                            }
                        }
                    },
                    "txbytes" : "0x02f8a10101648227108402625a0094000000000000000000000000000000000000c0de80a4693c61390000000000000000000000000000000000000000000000000000000000000000d7d694000000000000000000000000000000000000ba5ac080a041870d7c20b48b485d76c28565c7da72ff32b28901157b4e815b2481795edb64a02923e080922a492542d9aaba935f81441a85df4465cacd3c204de6d38cd7ce03"
                }
            ]
        },
        "pre" : {
            "0x000000000000000000000000000000000000ba5e" : {
                "balance" : "0x00",
                "code" : "0x",
                "nonce" : "0x01",
                "storage" : {
                }
            },
            "0x000000000000000000000000000000000000c0de" : {
                "balance" : "0x0de0b6b3a7640000",
                "code" : "0x5a6000526000600060006000620f424061ba5e5af1505a60205260216020516000510303600055",
                "nonce" : "0x01",
                "storage" : {
                }
            },
            "0xa94f5374fce5edbc8e2a8697c15331677e6ebf0b" : {
                "balance" : "0x0de0b6b3a7640000",
                "code" : "0x",
                "nonce" : "0x01",
                "storage" : {
                }
            }
        },
        "transaction" : {
            "accessLists" : [
                [
                    {
                        "address" : "0x000000000000000000000000000000000000ba5e",
                        "storageKeys" : [
                        ]
                    }
                ],
                [
                    {
                        "address" : "0x000000000000000000000000000000000000ba5a",
                        "storageKeys" : [
                        ]
                    }
                ]
            ],
            "data" : [
                "0x693c61390000000000000000000000000000000000000000000000000000000000000000",
                "0x693c61390000000000000000000000000000000000000000000000000000000000000000"
            ],
            "gasLimit" : [
                "0x02625a00"
            ],
            "maxFeePerGas" : "0x2710",
            "maxPriorityFeePerGas" : "0x64",
            "nonce" : "0x01",
            "secretKey" : "0x45a915e4d060149eb4365960e6a7a45f334393093061116b197e3240065ff2d8",
            "to" : "0x000000000000000000000000000000000000c0de",
            "value" : [
                "0x00"
            ]
        }
    }
}