{
    "Create2OOGafterInitCodeReturndata2" : {
        "_info" : {
            "comment" : "Call RETURNDATASIZE and RETURNDATACOPY after CREATE2 deploy a contract. correct returndata copy.",
            "filling-rpc-server" : "evm version 1.10.4-stable-aa637fd3",
            "filling-tool-version" : "retesteth-0.1.1-eip1559+commit.0e1fbab0.Linux.g++",
            "lllcversion" : "Version: 0.5.14-develop.2022.1.13+commit.401d5358.Linux.g++",
            "source" : "src/GeneralStateTestsFiller/stCreate2/Create2OOGafterInitCodeReturndata2Filler.json",
            "sourceHash" : "d27181026b746015220e32a59641aceb2c314decbead573f05097237a85759f2"
        },
        "env" : {
            "currentCoinbase" : "0x2adc25665018aa1fe0e6bc666dac8fc2697ff9ba",
            "currentDifficulty" : "0x020000",
            "currentNumber" : "0x01",
            "currentTimestamp" : "0x03e8",
            "previousHash" : "0x5e20a0453cecd065ea59c37ac63e079ee08998b6045136a8ce6635c7912ec0b6",
            "currentGasLimit" : "0x989680"
        },
        "post" : {
            "Berlin" : [
                {
                    "indexes" : {
                        "data" : 0,
                        "gas" : 0,
                        "value" : 0
                    },
                    "hash" : "0x173f1d927225e6ab28fad300b69decc9c8890076264b3de5543da485c3c1b27d",
                    "txbytes" : "0xf85f800a82d2f094b94f5374fce5edbc8e2a8697c15331677e6ebf0b80801ca04110d91c8d222752e43bb98f811ccf151dfd7ef10cf8dd5888369fece4112983a00752c4ac643358117ead0ac6abdeed2c936ebe3d64524ab6dc41e19aba7e2d21",
                    "postState" : {
                        "0x2adc25665018aa1fe0e6bc666dac8fc2697ff9ba" : {
                            "code" : "0x",
                            "nonce" : "0x00",
                            "balance" : "0x083d60",
                            "storage" : {
                            }
                        },
                        "0xa94f5374fce5edbc8e2a8697c15331677e6ebf0b" : {
                            "code" : "0x",
                            "nonce" : "0x01",
                            "balance" : "0xe8d49cd2a0",
                            "storage" : {
                            }
                        },
                        "0xb94f5374fce5edbc8e2a8697c15331677e6ebf0b" : {
                            "code" : "0x6d6460016001556000526005601bf36000526000600e60126000f5503d6001556000600060003e60005160025500",
                            "nonce" : "0x00",
                            "balance" : "0x00",
                            "storage" : {
                                "0x01" : "0x02"
                            }
                        }
                    },
                    "logs" : "0x1dcc4de8dec75d7aab85b567b6ccd41ad312451b948a7413f0a142fd40d49347"
                },
                {
                    "indexes" : {
                        "data" : 0,
                        "gas" : 1,
                        "value" : 0
                    },
                    "hash" : "0xa2eabb66edee39fa6eb0716393ccaf2d6fc6dab0a1482f4e5dd1bb03f3e123a2",
                    "txbytes" : "0xf860800a8301731894b94f5374fce5edbc8e2a8697c15331677e6ebf0b80801ca0378412b32fcd3ef4b3bd343dcd3e8c9f9538abc129f1b90803372440bbbb6057a06186c4dd19e0b3969dd87dddc244e87a27621cafcfeb2ca66c73dd64e3264aa6",
                    "postState" : {
                        "0x2adc25665018aa1fe0e6bc666dac8fc2697ff9ba" : {
                            "code" : "0x",
                            "nonce" : "0x00",
                            "balance" : "0x0a1900",
                            "storage" : {
                            }
                        },
                        "0x6878b140f875209c82ab4d5f083b55947299ef6b" : {
                            "code" : "0x6001600155",
                            "nonce" : "0x01",
                            "balance" : "0x00",
                            "storage" : {
                            }
                        },
                        "0xa94f5374fce5edbc8e2a8697c15331677e6ebf0b" : {
                            "code" : "0x",
                            "nonce" : "0x01",
                            "balance" : "0xe8d49af700",
                            "storage" : {
                            }
                        },
                        "0xb94f5374fce5edbc8e2a8697c15331677e6ebf0b" : {
                            "code" : "0x6d6460016001556000526005601bf36000526000600e60126000f5503d6001556000600060003e60005160025500",
                            "nonce" : "0x01",
                            "balance" : "0x00",
                            "storage" : {
                                "0x02" : "0x6460016001556000526005601bf3"
                            }
                        }
                    },
                    "logs" : "0x1dcc4de8dec75d7aab85b567b6ccd41ad312451b948a7413f0a142fd40d49347"
                }
            ],
            "Istanbul" : [
                {
                    "indexes" : {
                        "data" : 0,
                        "gas" : 0,
                        "value" : 0
                    },
                    "hash" : "0x173f1d927225e6ab28fad300b69decc9c8890076264b3de5543da485c3c1b27d",
                    "txbytes" : "0xf85f800a82d2f094b94f5374fce5edbc8e2a8697c15331677e6ebf0b80801ca04110d91c8d222752e43bb98f811ccf151dfd7ef10cf8dd5888369fece4112983a00752c4ac643358117ead0ac6abdeed2c936ebe3d64524ab6dc41e19aba7e2d21",
                    "postState" : {
                        "0x2adc25665018aa1fe0e6bc666dac8fc2697ff9ba" : {
                            "code" : "0x",
                            "nonce" : "0x00",
                            "balance" : "0x083d60",
                            "storage" : {
                            }
                        },
                        "0xa94f5374fce5edbc8e2a8697c15331677e6ebf0b" : {
                            "code" : "0x",
                            "nonce" : "0x01",
                            "balance" : "0xe8d49cd2a0",
                            "storage" : {
                            }
                        },
                        "0xb94f5374fce5edbc8e2a8697c15331677e6ebf0b" : {
                            "code" : "0x6d6460016001556000526005601bf36000526000600e60126000f5503d6001556000600060003e60005160025500",
                            "nonce" : "0x00",
                            "balance" : "0x00",
                            "storage" : {
                                "0x01" : "0x02"
                            }
                        }
                    },
                    "logs" : "0x1dcc4de8dec75d7aab85b567b6ccd41ad312451b948a7413f0a142fd40d49347"
                },
                {
                    "indexes" : {
                        "data" : 0,
                        "gas" : 1,
                        "value" : 0
                    },
                    "hash" : "0x0ac8cd3e310c4b7560a1c2ca51666dacd00d4ebdb7fe1b0f1688071e9308c93e",
                    "txbytes" : "0xf860800a8301731894b94f5374fce5edbc8e2a8697c15331677e6ebf0b80801ca0378412b32fcd3ef4b3bd343dcd3e8c9f9538abc129f1b90803372440bbbb6057a06186c4dd19e0b3969dd87dddc244e87a27621cafcfeb2ca66c73dd64e3264aa6",
                    "postState" : {
                        "0x2adc25665018aa1fe0e6bc666dac8fc2697ff9ba" : {
                            "code" : "0x",
                            "nonce" : "0x00",
                            "balance" : "0x09c6f8",
                            "storage" : {
                            }
                        },
                        "0x6878b140f875209c82ab4d5f083b55947299ef6b" : {
                            "code" : "0x6001600155",
                            "nonce" : "0x01",
                            "balance" : "0x00",
                            "storage" : {
                            }
                        },
                        "0xa94f5374fce5edbc8e2a8697c15331677e6ebf0b" : {
                            "code" : "0x",
                            "nonce" : "0x01",
                            "balance" : "0xe8d49b4908",
                            "storage" : {
                            }
                        },
                        "0xb94f5374fce5edbc8e2a8697c15331677e6ebf0b" : {
                            "code" : "0x6d6460016001556000526005601bf36000526000600e60126000f5503d6001556000600060003e60005160025500",
                            "nonce" : "0x01",
                            "balance" : "0x00",
                            "storage" : {
                                "0x02" : "0x6460016001556000526005601bf3"
                            }
                        }
                    },
                    "logs" : "0x1dcc4de8dec75d7aab85b567b6ccd41ad312451b948a7413f0a142fd40d49347"
                }
            ],
            "London" : [
                {
                    "indexes" : {
                        "data" : 0,
                        "gas" : 0,
                        "value" : 0
                    },
                    "hash" : "0xe9fe6009c46ca47b66f3c3ce86daaa60c193b64f9022201b7f67e53c595aa7a4",
                    "txbytes" : "0xf85f800a82d2f094b94f5374fce5edbc8e2a8697c15331677e6ebf0b80801ca04110d91c8d222752e43bb98f811ccf151dfd7ef10cf8dd5888369fece4112983a00752c4ac643358117ead0ac6abdeed2c936ebe3d64524ab6dc41e19aba7e2d21",
                    "postState" : {
                        "0xa94f5374fce5edbc8e2a8697c15331677e6ebf0b" : {
                            "code" : "0x",
                            "nonce" : "0x01",
                            "balance" : "0xe8d49cd2a0",
                            "storage" : {
                            }
                        },
                        "0xb94f5374fce5edbc8e2a8697c15331677e6ebf0b" : {
                            "code" : "0x6d6460016001556000526005601bf36000526000600e60126000f5503d6001556000600060003e60005160025500",
                            "nonce" : "0x00",
                            "balance" : "0x00",
                            "storage" : {
                                "0x01" : "0x02"
                            }
                        }
                    },
                    "logs" : "0x1dcc4de8dec75d7aab85b567b6ccd41ad312451b948a7413f0a142fd40d49347"
                },
                {
                    "indexes" : {
                        "data" : 0,
                        "gas" : 1,
                        "value" : 0
                    },
                    "hash" : "0x5dd6f0aa751fa0b2bb15eb3e8f9a4ebe768307d148df01a7fb0126d45cd698b8",
                    "txbytes" : "0xf860800a8301731894b94f5374fce5edbc8e2a8697c15331677e6ebf0b80801ca0378412b32fcd3ef4b3bd343dcd3e8c9f9538abc129f1b90803372440bbbb6057a06186c4dd19e0b3969dd87dddc244e87a27621cafcfeb2ca66c73dd64e3264aa6",
                    "postState" : {
                        "0x6878b140f875209c82ab4d5f083b55947299ef6b" : {
                            "code" : "0x6001600155",
                            "nonce" : "0x01",
                            "balance" : "0x00",
                            "storage" : {
                            }
                        },
                        "0xa94f5374fce5edbc8e2a8697c15331677e6ebf0b" : {
                            "code" : "0x",
                            "nonce" : "0x01",
                            "balance" : "0xe8d4996890",
                            "storage" : {
                            }
                        },
                        "0xb94f5374fce5edbc8e2a8697c15331677e6ebf0b" : {
                            "code" : "0x6d6460016001556000526005601bf36000526000600e60126000f5503d6001556000600060003e60005160025500",
                            "nonce" : "0x01",
                            "balance" : "0x00",
                            "storage" : {
                                "0x02" : "0x6460016001556000526005601bf3"
                            }
                        }
                    },
                    "logs" : "0x1dcc4de8dec75d7aab85b567b6ccd41ad312451b948a7413f0a142fd40d49347"
                }
            ]
        },
        "pre" : {
            "0xa94f5374fce5edbc8e2a8697c15331677e6ebf0b" : {
                "balance" : "0xe8d4a51000",
                "code" : "0x",
                "nonce" : "0x00",
                "storage" : {
                }
            },
            "0xb94f5374fce5edbc8e2a8697c15331677e6ebf0b" : {
                "balance" : "0x00",
                "code" : "0x6d6460016001556000526005601bf36000526000600e60126000f5503d6001556000600060003e60005160025500",
                "nonce" : "0x00",
                "storage" : {
                    "0x01" : "0x02"
                }
            }
        },
        "transaction" : {
            "data" : [
                "0x"
            ],
            "gasPrice" : "0x0a",
            "gasLimit" : [
                "0xd2f0",
                "0x017318"
            ],
            "nonce" : "0x00",
            "secretKey" : "0x45a915e4d060149eb4365960e6a7a45f334393093061116b197e3240065ff2d8",
            "to" : "0xb94f5374fce5edbc8e2a8697c15331677e6ebf0b",
            "value" : [
                "0x00"
            ]
        }
    }
}