{
    "CREATE2_HighNonceMinus1" : {
        "_info" : {
            "comment" : "",
            "filling-rpc-server" : "evm version 1.11.5-stable-a38f4108",
            "filling-tool-version" : "retesteth-0.3.0-shanghai+commit.e98b5e62.Linux.g++",
            "generatedTestHash" : "b6b3d4fcc7917ad15401451845338db733f3a8748e24ed1a1bece057f7b6d8b5",
            "lllcversion" : "Version: 0.5.14-develop.2023.8.28+commit.b2b86751.Linux.g++",
            "solidity" : "Version: 0.8.17+commit.8df45f5f.Linux.g++",
            "source" : "src/GeneralStateTestsFiller/stCreate2/CREATE2_HighNonceMinus1Filler.yml",
            "sourceHash" : "f52fe36a6bc3f4eac8d189c9785e6ca7bb3bd20faa7506d68ba388d75c956423"
        },
        "env" : {
            "currentBaseFee" : "0x0a",
            "currentCoinbase" : "0x2adc25665018aa1fe0e6bc666dac8fc2697ff9ba",
            "currentDifficulty" : "0x020000",
            "currentGasLimit" : "0x05500000",
            "currentNumber" : "0x01",
            "currentRandom" : "0x0000000000000000000000000000000000000000000000000000000000020000",
            "currentTimestamp" : "0x03e8",
            "previousHash" : "0x5e20a0453cecd065ea59c37ac63e079ee08998b6045136a8ce6635c7912ec0b6"
        },
        "post" : {
            "Berlin" : [
                {
                    "hash" : "0xc11c30578b8a732ffe5938ec7b35034270dbf3e475e494d375162eadd552e29c",
                    "indexes" : {
                        "data" : 0,
                        "gas" : 0,
                        "value" : 0
                    },
                    "logs" : "0x1dcc4de8dec75d7aab85b567b6ccd41ad312451b948a7413f0a142fd40d49347",
                    "postState" : {
                        "0x2adc25665018aa1fe0e6bc666dac8fc2697ff9ba" : {
                            "balance" : "0x0ede90",
                            "code" : "0x",
                            "nonce" : "0x00",
                            "storage" : {
                            }
                        },
                        "0x77dd5d2a2b742ca01ee2cfff306445e3741ef744" : {
                            "balance" : "0x00",
                            "code" : "0x00",
                            "nonce" : "0x01",
                            "storage" : {
                            }
                        },
                        "0xa94f5374fce5edbc8e2a8697c15331677e6ebf0b" : {
                            "balance" : "0x3b8beb70",
                            "code" : "0x",
                            "nonce" : "0x01",
                            "storage" : {
                            }
                        },
                        "0xb94f5374fce5edbc8e2a8697c15331677e6ebf0b" : {
                            "balance" : "0x00",
                            "code" : "0x7f60016000f300000000000000000000000000000000000000000000000000000060005260006005600080f560005560018055",
                            "nonce" : "0xffffffffffffffff",
                            "storage" : {
                                "0x00" : "0x77dd5d2a2b742ca01ee2cfff306445e3741ef744",
                                "0x01" : "0x01"
                            }
                        }
                    },
                    "txbytes" : "0xf861800a84042c1d8094b94f5374fce5edbc8e2a8697c15331677e6ebf0b80801ca0f141d67812db948c9a4ea43c27d695248205c121ae8d924d23517ab09e38f369a03fe3cfedb4c9a7e61340b6fec87917690e92082f752ad820ad5006c7d49185ed"
                }
            ],
            "Constantinople" : [
                {
                    "hash" : "0xb62f2eda770362e6ecdd4526cc76f4ba07716dd63534df74ab8468b64cadabea",
                    "indexes" : {
                        "data" : 0,
                        "gas" : 0,
                        "value" : 0
                    },
                    "logs" : "0x1dcc4de8dec75d7aab85b567b6ccd41ad312451b948a7413f0a142fd40d49347",
                    "postState" : {
                        "0x2adc25665018aa1fe0e6bc666dac8fc2697ff9ba" : {
                            "balance" : "0x0e3a80",
                            "code" : "0x",
                            "nonce" : "0x00",
                            "storage" : {
                            }
                        },
                        "0x77dd5d2a2b742ca01ee2cfff306445e3741ef744" : {
                            "balance" : "0x00",
                            "code" : "0x00",
                            "nonce" : "0x01",
                            "storage" : {
                            }
                        },
                        "0xa94f5374fce5edbc8e2a8697c15331677e6ebf0b" : {
                            "balance" : "0x3b8c8f80",
                            "code" : "0x",
                            "nonce" : "0x01",
                            "storage" : {
                            }
                        },
                        "0xb94f5374fce5edbc8e2a8697c15331677e6ebf0b" : {
                            "balance" : "0x00",
                            "code" : "0x7f60016000f300000000000000000000000000000000000000000000000000000060005260006005600080f560005560018055",
                            "nonce" : "0xffffffffffffffff",
                            "storage" : {
                                "0x00" : "0x77dd5d2a2b742ca01ee2cfff306445e3741ef744",
                                "0x01" : "0x01"
                            }
                        }
                    },
                    "txbytes" : "0xf861800a84042c1d8094b94f5374fce5edbc8e2a8697c15331677e6ebf0b80801ca0f141d67812db948c9a4ea43c27d695248205c121ae8d924d23517ab09e38f369a03fe3cfedb4c9a7e61340b6fec87917690e92082f752ad820ad5006c7d49185ed"
                }
            ],
            "ConstantinopleFix" : [
                {
                    "hash" : "0xb62f2eda770362e6ecdd4526cc76f4ba07716dd63534df74ab8468b64cadabea",
                    "indexes" : {
                        "data" : 0,
                        "gas" : 0,
                        "value" : 0
                    },
                    "logs" : "0x1dcc4de8dec75d7aab85b567b6ccd41ad312451b948a7413f0a142fd40d49347",
                    "postState" : {
                        "0x2adc25665018aa1fe0e6bc666dac8fc2697ff9ba" : {
                            "balance" : "0x0e3a80",
                            "code" : "0x",
                            "nonce" : "0x00",
                            "storage" : {
                            }
                        },
                        "0x77dd5d2a2b742ca01ee2cfff306445e3741ef744" : {
                            "balance" : "0x00",
                            "code" : "0x00",
                            "nonce" : "0x01",
                            "storage" : {
                            }
                        },
                        "0xa94f5374fce5edbc8e2a8697c15331677e6ebf0b" : {
                            "balance" : "0x3b8c8f80",
                            "code" : "0x",
                            "nonce" : "0x01",
                            "storage" : {
                            }
                        },
                        "0xb94f5374fce5edbc8e2a8697c15331677e6ebf0b" : {
                            "balance" : "0x00",
                            "code" : "0x7f60016000f300000000000000000000000000000000000000000000000000000060005260006005600080f560005560018055",
                            "nonce" : "0xffffffffffffffff",
                            "storage" : {
                                "0x00" : "0x77dd5d2a2b742ca01ee2cfff306445e3741ef744",
                                "0x01" : "0x01"
                            }
                        }
                    },
                    "txbytes" : "0xf861800a84042c1d8094b94f5374fce5edbc8e2a8697c15331677e6ebf0b80801ca0f141d67812db948c9a4ea43c27d695248205c121ae8d924d23517ab09e38f369a03fe3cfedb4c9a7e61340b6fec87917690e92082f752ad820ad5006c7d49185ed"
                }
            ],
            "Istanbul" : [
                {
                    "hash" : "0xb62f2eda770362e6ecdd4526cc76f4ba07716dd63534df74ab8468b64cadabea",
                    "indexes" : {
                        "data" : 0,
                        "gas" : 0,
                        "value" : 0
                    },
                    "logs" : "0x1dcc4de8dec75d7aab85b567b6ccd41ad312451b948a7413f0a142fd40d49347",
                    "postState" : {
                        "0x2adc25665018aa1fe0e6bc666dac8fc2697ff9ba" : {
                            "balance" : "0x0e3a80",
                            "code" : "0x",
                            "nonce" : "0x00",
                            "storage" : {
                            }
                        },
                        "0x77dd5d2a2b742ca01ee2cfff306445e3741ef744" : {
                            "balance" : "0x00",
                            "code" : "0x00",
                            "nonce" : "0x01",
                            "storage" : {
                            }
                        },
                        "0xa94f5374fce5edbc8e2a8697c15331677e6ebf0b" : {
                            "balance" : "0x3b8c8f80",
                            "code" : "0x",
                            "nonce" : "0x01",
                            "storage" : {
                            }
                        },
                        "0xb94f5374fce5edbc8e2a8697c15331677e6ebf0b" : {
                            "balance" : "0x00",
                            "code" : "0x7f60016000f300000000000000000000000000000000000000000000000000000060005260006005600080f560005560018055",
                            "nonce" : "0xffffffffffffffff",
                            "storage" : {
                                "0x00" : "0x77dd5d2a2b742ca01ee2cfff306445e3741ef744",
                                "0x01" : "0x01"
                            }
                        }
                    },
                    "txbytes" : "0xf861800a84042c1d8094b94f5374fce5edbc8e2a8697c15331677e6ebf0b80801ca0f141d67812db948c9a4ea43c27d695248205c121ae8d924d23517ab09e38f369a03fe3cfedb4c9a7e61340b6fec87917690e92082f752ad820ad5006c7d49185ed"
                }
            ],
            "London" : [
                {
                    "hash" : "0x2475ca747726a8f064d4abd6642ab6f6df1057fdb293670215e35bc014b1436e",
                    "indexes" : {
                        "data" : 0,
                        "gas" : 0,
                        "value" : 0
                    },
                    "logs" : "0x1dcc4de8dec75d7aab85b567b6ccd41ad312451b948a7413f0a142fd40d49347",
                    "postState" : {
                        "0x77dd5d2a2b742ca01ee2cfff306445e3741ef744" : {
                            "balance" : "0x00",
                            "code" : "0x00",
                            "nonce" : "0x01",
                            "storage" : {
                            }
                        },
                        "0xa94f5374fce5edbc8e2a8697c15331677e6ebf0b" : {
                            "balance" : "0x3b8beb70",
                            "code" : "0x",
                            "nonce" : "0x01",
                            "storage" : {
                            }
                        },
                        "0xb94f5374fce5edbc8e2a8697c15331677e6ebf0b" : {
                            "balance" : "0x00",
                            "code" : "0x7f60016000f300000000000000000000000000000000000000000000000000000060005260006005600080f560005560018055",
                            "nonce" : "0xffffffffffffffff",
                            "storage" : {
                                "0x00" : "0x77dd5d2a2b742ca01ee2cfff306445e3741ef744",
                                "0x01" : "0x01"
                            }
                        }
                    },
                    "txbytes" : "0xf861800a84042c1d8094b94f5374fce5edbc8e2a8697c15331677e6ebf0b80801ca0f141d67812db948c9a4ea43c27d695248205c121ae8d924d23517ab09e38f369a03fe3cfedb4c9a7e61340b6fec87917690e92082f752ad820ad5006c7d49185ed"
                }
            ],
            "Merge" : [
                {
                    "hash" : "0x2475ca747726a8f064d4abd6642ab6f6df1057fdb293670215e35bc014b1436e",
                    "indexes" : {
                        "data" : 0,
                        "gas" : 0,
                        "value" : 0
                    },
                    "logs" : "0x1dcc4de8dec75d7aab85b567b6ccd41ad312451b948a7413f0a142fd40d49347",
                    "postState" : {
                        "0x77dd5d2a2b742ca01ee2cfff306445e3741ef744" : {
                            "balance" : "0x00",
                            "code" : "0x00",
                            "nonce" : "0x01",
                            "storage" : {
                            }
                        },
                        "0xa94f5374fce5edbc8e2a8697c15331677e6ebf0b" : {
                            "balance" : "0x3b8beb70",
                            "code" : "0x",
                            "nonce" : "0x01",
                            "storage" : {
                            }
                        },
                        "0xb94f5374fce5edbc8e2a8697c15331677e6ebf0b" : {
                            "balance" : "0x00",
                            "code" : "0x7f60016000f300000000000000000000000000000000000000000000000000000060005260006005600080f560005560018055",
                            "nonce" : "0xffffffffffffffff",
                            "storage" : {
                                "0x00" : "0x77dd5d2a2b742ca01ee2cfff306445e3741ef744",
                                "0x01" : "0x01"
                            }
                        }
                    },
                    "txbytes" : "0xf861800a84042c1d8094b94f5374fce5edbc8e2a8697c15331677e6ebf0b80801ca0f141d67812db948c9a4ea43c27d695248205c121ae8d924d23517ab09e38f369a03fe3cfedb4c9a7e61340b6fec87917690e92082f752ad820ad5006c7d49185ed"
                }
            ],
            "Shanghai" : [
                {
                    "hash" : "0xa1729a53b1bf35680a67deac4ad8a3e59109e85f93f7cc8151c4ef1d10b078b5",
                    "indexes" : {
                        "data" : 0,
                        "gas" : 0,
                        "value" : 0
                    },
                    "logs" : "0x1dcc4de8dec75d7aab85b567b6ccd41ad312451b948a7413f0a142fd40d49347",
                    "postState" : {
                        "0x77dd5d2a2b742ca01ee2cfff306445e3741ef744" : {
                            "balance" : "0x00",
                            "code" : "0x00",
                            "nonce" : "0x01",
                            "storage" : {
                            }
                        },
                        "0xa94f5374fce5edbc8e2a8697c15331677e6ebf0b" : {
                            "balance" : "0x3b8beb5c",
                            "code" : "0x",
                            "nonce" : "0x01",
                            "storage" : {
                            }
                        },
                        "0xb94f5374fce5edbc8e2a8697c15331677e6ebf0b" : {
                            "balance" : "0x00",
                            "code" : "0x7f60016000f300000000000000000000000000000000000000000000000000000060005260006005600080f560005560018055",
                            "nonce" : "0xffffffffffffffff",
                            "storage" : {
                                "0x00" : "0x77dd5d2a2b742ca01ee2cfff306445e3741ef744",
                                "0x01" : "0x01"
                            }
                        }
                    },
                    "txbytes" : "0xf861800a84042c1d8094b94f5374fce5edbc8e2a8697c15331677e6ebf0b80801ca0f141d67812db948c9a4ea43c27d695248205c121ae8d924d23517ab09e38f369a03fe3cfedb4c9a7e61340b6fec87917690e92082f752ad820ad5006c7d49185ed"
                }
            ]
        },
        "pre" : {
            "0xa94f5374fce5edbc8e2a8697c15331677e6ebf0b" : {
                "balance" : "0x3b9aca00",
                "code" : "0x",
                "nonce" : "0x00",
                "storage" : {
                }
            },
            "0xb94f5374fce5edbc8e2a8697c15331677e6ebf0b" : {
                "balance" : "0x00",
                "code" : "0x7f60016000f300000000000000000000000000000000000000000000000000000060005260006005600080f560005560018055",
                "nonce" : "0xfffffffffffffffe",
                "storage" : {
                }
            }
        },
        "transaction" : {
            "data" : [
                "0x"
            ],
            "gasLimit" : [
                "0x042c1d80"
            ],
            "gasPrice" : "0x0a",
            "nonce" : "0x00",
            "secretKey" : "0x45a915e4d060149eb4365960e6a7a45f334393093061116b197e3240065ff2d8",
            "sender" : "0xa94f5374fce5edbc8e2a8697c15331677e6ebf0b",
            "to" : "0xb94f5374fce5edbc8e2a8697c15331677e6ebf0b",
            "value" : [
                "0x00"
            ]
        }
    }
}