{
    "CreateMessageReverted" : {
        "_info" : {
            "comment" : "CreateMessageReverted for CREATE2",
            "filling-rpc-server" : "evm version 1.11.5-stable-a38f4108",
            "filling-tool-version" : "retesteth-0.3.0-shanghai+commit.e98b5e62.Linux.g++",
            "generatedTestHash" : "83d42ac7e5a6bf819197d150773bc4c0446b865786083b5749aef53b6cf7bba5",
            "lllcversion" : "Version: 0.5.14-develop.2023.8.28+commit.b2b86751.Linux.g++",
            "solidity" : "Version: 0.8.17+commit.8df45f5f.Linux.g++",
            "source" : "src/GeneralStateTestsFiller/stCreate2/CreateMessageRevertedFiller.json",
            "sourceHash" : "c7e01d2f8ee32a7e19a1acc57048f8f9d7183916d66841fcc9fa36b55354657e"
        },
        "env" : {
            "currentBaseFee" : "0x0a",
            "currentCoinbase" : "0x2adc25665018aa1fe0e6bc666dac8fc2697ff9ba",
            "currentDifficulty" : "0x020000",
            "currentGasLimit" : "0xe8d4a51000",
            "currentNumber" : "0x01",
            "currentRandom" : "0x0000000000000000000000000000000000000000000000000000000000020000",
            "currentTimestamp" : "0x03e8",
            "previousHash" : "0x5e20a0453cecd065ea59c37ac63e079ee08998b6045136a8ce6635c7912ec0b6"
        },
        "post" : {
            "Berlin" : [
                {
                    "hash" : "0xa465e28f095d9d1e0b1b78ba1bdcd97bd9ca9ef00444dff824c0e09152ec3e02",
                    "indexes" : {
                        "data" : 0,
                        "gas" : 0,
                        "value" : 0
                    },
                    "logs" : "0x1dcc4de8dec75d7aab85b567b6ccd41ad312451b948a7413f0a142fd40d49347",
                    "postState" : {
                        "0x2adc25665018aa1fe0e6bc666dac8fc2697ff9ba" : {
                            "balance" : "0x0c248e",
                            "code" : "0x",
                            "nonce" : "0x00",
                            "storage" : {
                            }
                        },
                        "0xa94f5374fce5edbc8e2a8697c15331677e6ebf0b" : {
                            "balance" : "0x21a1ce",
                            "code" : "0x",
                            "nonce" : "0x01",
                            "storage" : {
                            }
                        },
                        "0xb94f5374fce5edbc8e2a8697c15331677e6ebf0b" : {
                            "balance" : "0x64",
                            "code" : "0x69600c600055600d6001556000526000600a60166000f500",
                            "nonce" : "0x01",
                            "storage" : {
                            }
                        }
                    },
                    "txbytes" : "0xf860800a8301388094b94f5374fce5edbc8e2a8697c15331677e6ebf0b64801ca049bc3fa4a33d3bdab610022abe3b4d279d1788bdf81baaa7393e03d5dc2648c1a03cc2694fa4b554e91c000a73e58e94cd34ce2215aa3838a91fff331aab92be0f"
                },
                {
                    "hash" : "0x06a61c982669886d1f2016e3ba0db2a3ca9a4f3e7e5de5eacb6bcdddd6dc7e8b",
                    "indexes" : {
                        "data" : 0,
                        "gas" : 1,
                        "value" : 0
                    },
                    "logs" : "0x1dcc4de8dec75d7aab85b567b6ccd41ad312451b948a7413f0a142fd40d49347",
                    "postState" : {
                        "0x244fe9a7867edcc140245e775071fbfe6ebedbae" : {
                            "balance" : "0x00",
                            "code" : "0x",
                            "nonce" : "0x01",
                            "storage" : {
                                "0x00" : "0x0c",
                                "0x01" : "0x0d"
                            }
                        },
                        "0x2adc25665018aa1fe0e6bc666dac8fc2697ff9ba" : {
                            "balance" : "0x0ed684",
                            "code" : "0x",
                            "nonce" : "0x00",
                            "storage" : {
                            }
                        },
                        "0xa94f5374fce5edbc8e2a8697c15331677e6ebf0b" : {
                            "balance" : "0x1eefd8",
                            "code" : "0x",
                            "nonce" : "0x01",
                            "storage" : {
                            }
                        },
                        "0xb94f5374fce5edbc8e2a8697c15331677e6ebf0b" : {
                            "balance" : "0x64",
                            "code" : "0x69600c600055600d6001556000526000600a60166000f500",
                            "nonce" : "0x01",
                            "storage" : {
                            }
                        }
                    },
                    "txbytes" : "0xf860800a830249f094b94f5374fce5edbc8e2a8697c15331677e6ebf0b64801ca0025dae085108ed93fa4511575f369daf22379410f21fae7bbfe948e483ea4864a00d5c56de6986f748f8285710c292eaac6cc0896ef48d0396e53ac0bea133fff3"
                }
            ],
            "Istanbul" : [
                {
                    "hash" : "0xa465e28f095d9d1e0b1b78ba1bdcd97bd9ca9ef00444dff824c0e09152ec3e02",
                    "indexes" : {
                        "data" : 0,
                        "gas" : 0,
                        "value" : 0
                    },
                    "logs" : "0x1dcc4de8dec75d7aab85b567b6ccd41ad312451b948a7413f0a142fd40d49347",
                    "postState" : {
                        "0x2adc25665018aa1fe0e6bc666dac8fc2697ff9ba" : {
                            "balance" : "0x0c248e",
                            "code" : "0x",
                            "nonce" : "0x00",
                            "storage" : {
                            }
                        },
                        "0xa94f5374fce5edbc8e2a8697c15331677e6ebf0b" : {
                            "balance" : "0x21a1ce",
                            "code" : "0x",
                            "nonce" : "0x01",
                            "storage" : {
                            }
                        },
                        "0xb94f5374fce5edbc8e2a8697c15331677e6ebf0b" : {
                            "balance" : "0x64",
                            "code" : "0x69600c600055600d6001556000526000600a60166000f500",
                            "nonce" : "0x01",
                            "storage" : {
                            }
                        }
                    },
                    "txbytes" : "0xf860800a8301388094b94f5374fce5edbc8e2a8697c15331677e6ebf0b64801ca049bc3fa4a33d3bdab610022abe3b4d279d1788bdf81baaa7393e03d5dc2648c1a03cc2694fa4b554e91c000a73e58e94cd34ce2215aa3838a91fff331aab92be0f"
                },
                {
                    "hash" : "0xf298516cb1dd1cdc3db919b4a9425ae4998e959cdccb1a0d41d97998f3ce7103",
                    "indexes" : {
                        "data" : 0,
                        "gas" : 1,
                        "value" : 0
                    },
                    "logs" : "0x1dcc4de8dec75d7aab85b567b6ccd41ad312451b948a7413f0a142fd40d49347",
                    "postState" : {
                        "0x244fe9a7867edcc140245e775071fbfe6ebedbae" : {
                            "balance" : "0x00",
                            "code" : "0x",
                            "nonce" : "0x01",
                            "storage" : {
                                "0x00" : "0x0c",
                                "0x01" : "0x0d"
                            }
                        },
                        "0x2adc25665018aa1fe0e6bc666dac8fc2697ff9ba" : {
                            "balance" : "0x0e3274",
                            "code" : "0x",
                            "nonce" : "0x00",
                            "storage" : {
                            }
                        },
                        "0xa94f5374fce5edbc8e2a8697c15331677e6ebf0b" : {
                            "balance" : "0x1f93e8",
                            "code" : "0x",
                            "nonce" : "0x01",
                            "storage" : {
                            }
                        },
                        "0xb94f5374fce5edbc8e2a8697c15331677e6ebf0b" : {
                            "balance" : "0x64",
                            "code" : "0x69600c600055600d6001556000526000600a60166000f500",
                            "nonce" : "0x01",
                            "storage" : {
                            }
                        }
                    },
                    "txbytes" : "0xf860800a830249f094b94f5374fce5edbc8e2a8697c15331677e6ebf0b64801ca0025dae085108ed93fa4511575f369daf22379410f21fae7bbfe948e483ea4864a00d5c56de6986f748f8285710c292eaac6cc0896ef48d0396e53ac0bea133fff3"
                }
            ],
            "London" : [
                {
                    "hash" : "0xda8f3230c5eafeb405c103a285e5af638bd8bbc46f1276304b161863e9e4b705",
                    "indexes" : {
                        "data" : 0,
                        "gas" : 0,
                        "value" : 0
                    },
                    "logs" : "0x1dcc4de8dec75d7aab85b567b6ccd41ad312451b948a7413f0a142fd40d49347",
                    "postState" : {
                        "0xa94f5374fce5edbc8e2a8697c15331677e6ebf0b" : {
                            "balance" : "0x21a1ce",
                            "code" : "0x",
                            "nonce" : "0x01",
                            "storage" : {
                            }
                        },
                        "0xb94f5374fce5edbc8e2a8697c15331677e6ebf0b" : {
                            "balance" : "0x64",
                            "code" : "0x69600c600055600d6001556000526000600a60166000f500",
                            "nonce" : "0x01",
                            "storage" : {
                            }
                        }
                    },
                    "txbytes" : "0xf860800a8301388094b94f5374fce5edbc8e2a8697c15331677e6ebf0b64801ca049bc3fa4a33d3bdab610022abe3b4d279d1788bdf81baaa7393e03d5dc2648c1a03cc2694fa4b554e91c000a73e58e94cd34ce2215aa3838a91fff331aab92be0f"
                },
                {
                    "hash" : "0xbcd596b5ad4aa8289ff9a04a0666ee6a38309b3febf6f7aea08f586015399251",
                    "indexes" : {
                        "data" : 0,
                        "gas" : 1,
                        "value" : 0
                    },
                    "logs" : "0x1dcc4de8dec75d7aab85b567b6ccd41ad312451b948a7413f0a142fd40d49347",
                    "postState" : {
                        "0x244fe9a7867edcc140245e775071fbfe6ebedbae" : {
                            "balance" : "0x00",
                            "code" : "0x",
                            "nonce" : "0x01",
                            "storage" : {
                                "0x00" : "0x0c",
                                "0x01" : "0x0d"
                            }
                        },
                        "0xa94f5374fce5edbc8e2a8697c15331677e6ebf0b" : {
                            "balance" : "0x1eefd8",
                            "code" : "0x",
                            "nonce" : "0x01",
                            "storage" : {
                            }
                        },
                        "0xb94f5374fce5edbc8e2a8697c15331677e6ebf0b" : {
                            "balance" : "0x64",
                            "code" : "0x69600c600055600d6001556000526000600a60166000f500",
                            "nonce" : "0x01",
                            "storage" : {
                            }
                        }
                    },
                    "txbytes" : "0xf860800a830249f094b94f5374fce5edbc8e2a8697c15331677e6ebf0b64801ca0025dae085108ed93fa4511575f369daf22379410f21fae7bbfe948e483ea4864a00d5c56de6986f748f8285710c292eaac6cc0896ef48d0396e53ac0bea133fff3"
                }
            ],
            "Merge" : [
                {
                    "hash" : "0xda8f3230c5eafeb405c103a285e5af638bd8bbc46f1276304b161863e9e4b705",
                    "indexes" : {
                        "data" : 0,
                        "gas" : 0,
                        "value" : 0
                    },
                    "logs" : "0x1dcc4de8dec75d7aab85b567b6ccd41ad312451b948a7413f0a142fd40d49347",
                    "postState" : {
                        "0xa94f5374fce5edbc8e2a8697c15331677e6ebf0b" : {
                            "balance" : "0x21a1ce",
                            "code" : "0x",
                            "nonce" : "0x01",
                            "storage" : {
                            }
                        },
                        "0xb94f5374fce5edbc8e2a8697c15331677e6ebf0b" : {
                            "balance" : "0x64",
                            "code" : "0x69600c600055600d6001556000526000600a60166000f500",
                            "nonce" : "0x01",
                            "storage" : {
                            }
                        }
                    },
                    "txbytes" : "0xf860800a8301388094b94f5374fce5edbc8e2a8697c15331677e6ebf0b64801ca049bc3fa4a33d3bdab610022abe3b4d279d1788bdf81baaa7393e03d5dc2648c1a03cc2694fa4b554e91c000a73e58e94cd34ce2215aa3838a91fff331aab92be0f"
                },
                {
                    "hash" : "0xbcd596b5ad4aa8289ff9a04a0666ee6a38309b3febf6f7aea08f586015399251",
                    "indexes" : {
                        "data" : 0,
                        "gas" : 1,
                        "value" : 0
                    },
                    "logs" : "0x1dcc4de8dec75d7aab85b567b6ccd41ad312451b948a7413f0a142fd40d49347",
                    "postState" : {
                        "0x244fe9a7867edcc140245e775071fbfe6ebedbae" : {
                            "balance" : "0x00",
                            "code" : "0x",
                            "nonce" : "0x01",
                            "storage" : {
                                "0x00" : "0x0c",
                                "0x01" : "0x0d"
                            }
                        },
                        "0xa94f5374fce5edbc8e2a8697c15331677e6ebf0b" : {
                            "balance" : "0x1eefd8",
                            "code" : "0x",
                            "nonce" : "0x01",
                            "storage" : {
                            }
                        },
                        "0xb94f5374fce5edbc8e2a8697c15331677e6ebf0b" : {
                            "balance" : "0x64",
                            "code" : "0x69600c600055600d6001556000526000600a60166000f500",
                            "nonce" : "0x01",
                            "storage" : {
                            }
                        }
                    },
                    "txbytes" : "0xf860800a830249f094b94f5374fce5edbc8e2a8697c15331677e6ebf0b64801ca0025dae085108ed93fa4511575f369daf22379410f21fae7bbfe948e483ea4864a00d5c56de6986f748f8285710c292eaac6cc0896ef48d0396e53ac0bea133fff3"
                }
            ],
            "Shanghai" : [
                {
                    "hash" : "0xda8f3230c5eafeb405c103a285e5af638bd8bbc46f1276304b161863e9e4b705",
                    "indexes" : {
                        "data" : 0,
                        "gas" : 0,
                        "value" : 0
                    },
                    "logs" : "0x1dcc4de8dec75d7aab85b567b6ccd41ad312451b948a7413f0a142fd40d49347",
                    "postState" : {
                        "0xa94f5374fce5edbc8e2a8697c15331677e6ebf0b" : {
                            "balance" : "0x21a1ce",
                            "code" : "0x",
                            "nonce" : "0x01",
                            "storage" : {
                            }
                        },
                        "0xb94f5374fce5edbc8e2a8697c15331677e6ebf0b" : {
                            "balance" : "0x64",
                            "code" : "0x69600c600055600d6001556000526000600a60166000f500",
                            "nonce" : "0x01",
                            "storage" : {
                            }
                        }
                    },
                    "txbytes" : "0xf860800a8301388094b94f5374fce5edbc8e2a8697c15331677e6ebf0b64801ca049bc3fa4a33d3bdab610022abe3b4d279d1788bdf81baaa7393e03d5dc2648c1a03cc2694fa4b554e91c000a73e58e94cd34ce2215aa3838a91fff331aab92be0f"
                },
                {
                    "hash" : "0x1973b2628483c2f7e560278a99e1051c9d939adb36041b0d5a472d25bb331f6a",
                    "indexes" : {
                        "data" : 0,
                        "gas" : 1,
                        "value" : 0
                    },
                    "logs" : "0x1dcc4de8dec75d7aab85b567b6ccd41ad312451b948a7413f0a142fd40d49347",
                    "postState" : {
                        "0x244fe9a7867edcc140245e775071fbfe6ebedbae" : {
                            "balance" : "0x00",
                            "code" : "0x",
                            "nonce" : "0x01",
                            "storage" : {
                                "0x00" : "0x0c",
                                "0x01" : "0x0d"
                            }
                        },
                        "0xa94f5374fce5edbc8e2a8697c15331677e6ebf0b" : {
                            "balance" : "0x1eefc4",
                            "code" : "0x",
                            "nonce" : "0x01",
                            "storage" : {
                            }
                        },
                        "0xb94f5374fce5edbc8e2a8697c15331677e6ebf0b" : {
                            "balance" : "0x64",
                            "code" : "0x69600c600055600d6001556000526000600a60166000f500",
                            "nonce" : "0x01",
                            "storage" : {
                            }
                        }
                    },
                    "txbytes" : "0xf860800a830249f094b94f5374fce5edbc8e2a8697c15331677e6ebf0b64801ca0025dae085108ed93fa4511575f369daf22379410f21fae7bbfe948e483ea4864a00d5c56de6986f748f8285710c292eaac6cc0896ef48d0396e53ac0bea133fff3"
                }
            ]
        },
        "pre" : {
            "0xa94f5374fce5edbc8e2a8697c15331677e6ebf0b" : {
                "balance" : "0x2dc6c0",
                "code" : "0x",
                "nonce" : "0x00",
                "storage" : {
                }
            },
            "0xb94f5374fce5edbc8e2a8697c15331677e6ebf0b" : {
                "balance" : "0x00",
                "code" : "0x69600c600055600d6001556000526000600a60166000f500",
                "nonce" : "0x00",
                "storage" : {
                }
            }
        },
        "transaction" : {
            "data" : [
                "0x"
            ],
            "gasLimit" : [
                "0x013880",
                "0x0249f0"
            ],
            "gasPrice" : "0x0a",
            "nonce" : "0x00",
            "secretKey" : "0x45a915e4d060149eb4365960e6a7a45f334393093061116b197e3240065ff2d8",
            "sender" : "0xa94f5374fce5edbc8e2a8697c15331677e6ebf0b",
            "to" : "0xb94f5374fce5edbc8e2a8697c15331677e6ebf0b",
            "value" : [
                "0x64"
            ]
        }
    }
}