{
    "recursiveCreate" : {
        "_info" : {
            "comment" : "",
            "filling-rpc-server" : "evm version 1.10.16-unstable-1884f37f-20220107",
            "filling-tool-version" : "retesteth-0.2.1-difficulty+commit.37dfbbcd.Linux.g++",
            "generatedTestHash" : "2b37183cd86a8431bfcee753e3959a668d1367028e78782b345c4022cc3331ae",
            "lllcversion" : "Version: 0.5.14-develop.2022.1.7+commit.401d5358.Linux.g++",
            "source" : "src/GeneralStateTestsFiller/stRecursiveCreate/recursiveCreateFiller.json",
            "sourceHash" : "ad311df5585d51344d6d8c56296ba25e16254e1dc83a6b3dc82439c10e4cf943"
        },
        "env" : {
            "currentBaseFee" : "0x0a",
            "currentCoinbase" : "0x2adc25665018aa1fe0e6bc666dac8fc2697ff9ba",
            "currentDifficulty" : "0x020000",
            "currentGasLimit" : "0x989680",
            "currentNumber" : "0x01",
            "currentTimestamp" : "0x03e8",
            "previousHash" : "0x5e20a0453cecd065ea59c37ac63e079ee08998b6045136a8ce6635c7912ec0b6"
        },
        "post" : {
            "Berlin" : [
                {
                    "hash" : "0x4dd18f90b54e05e0ee20af058f9f3dfc5da962b26303986c018cf7c6eb759420",
                    "indexes" : {
                        "data" : 0,
                        "gas" : 0,
                        "value" : 0
                    },
                    "logs" : "0x1dcc4de8dec75d7aab85b567b6ccd41ad312451b948a7413f0a142fd40d49347",
                    "postState" : {
                        "0x095e7baea6a6c7c4c2dfeb977efac326af552d87" : {
                            "balance" : "0x0132b3a0",
                            "code" : "0x60206000600039602060006000f000",
                            "nonce" : "0x01",
                            "storage" : {
                            }
                        },
                        "0x26963175b50e69c2400aa12887cad973aa275ff0" : {
                            "balance" : "0x00",
                            "code" : "0x",
                            "nonce" : "0x02",
                            "storage" : {
                            }
                        },
                        "0x283b585ba5bc85d64a99cb5ecb9a8495ac944948" : {
                            "balance" : "0x00",
                            "code" : "0x",
                            "nonce" : "0x02",
                            "storage" : {
                            }
                        },
                        "0x2adc25665018aa1fe0e6bc666dac8fc2697ff9ba" : {
                            "balance" : "0x40f1a0",
                            "code" : "0x",
                            "nonce" : "0x00",
                            "storage" : {
                            }
                        },
                        "0x4326e4b5aa29095a293f86c51e4776beeeb13c9b" : {
                            "balance" : "0x00",
                            "code" : "0x",
                            "nonce" : "0x02",
                            "storage" : {
                            }
                        },
                        "0x6965235e025001fb620d441803fedb005f7ac710" : {
                            "balance" : "0x00",
                            "code" : "0x",
                            "nonce" : "0x02",
                            "storage" : {
                            }
                        },
                        "0x7e495061f514448f3dd51bb0cf909eef3c3f4712" : {
                            "balance" : "0x00",
                            "code" : "0x",
                            "nonce" : "0x02",
                            "storage" : {
                            }
                        },
                        "0x91ed00a0a906270d466af043c4e111dadca970a3" : {
                            "balance" : "0x00",
                            "code" : "0x",
                            "nonce" : "0x02",
                            "storage" : {
                            }
                        },
                        "0x923945f4390ee06a73a80c1f56f979f7959755df" : {
                            "balance" : "0x00",
                            "code" : "0x",
                            "nonce" : "0x02",
                            "storage" : {
                            }
                        },
                        "0xa94f5374fce5edbc8e2a8697c15331677e6ebf0b" : {
                            "balance" : "0x0de0b6b3a72187c0",
                            "code" : "0x",
                            "nonce" : "0x01",
                            "storage" : {
                            }
                        },
                        "0xb1fe911acf07cc8107d984408a443c5af42389e0" : {
                            "balance" : "0x00",
                            "code" : "0x",
                            "nonce" : "0x02",
                            "storage" : {
                            }
                        },
                        "0xb679828fa6040990410b3282e916bfbd6c74f890" : {
                            "balance" : "0x00",
                            "code" : "0x",
                            "nonce" : "0x02",
                            "storage" : {
                            }
                        },
                        "0xd2571607e241ecf590ed94b12d87c94babe36db6" : {
                            "balance" : "0x00",
                            "code" : "0x",
                            "nonce" : "0x02",
                            "storage" : {
                            }
                        },
                        "0xec51d36be1c8fd3ff3c74210e408a8710163ceb8" : {
                            "balance" : "0x00",
                            "code" : "0x",
                            "nonce" : "0x02",
                            "storage" : {
                            }
                        }
                    },
                    "txbytes" : "0xf863800a8307194894095e7baea6a6c7c4c2dfeb977efac326af552d87830186a0801ba0e09f431eb694e4b46e0eb325c6da0bc8cb60445e99a81f866cb7f4e49e59a03da00ed1cab2222bf904d208f6d0a7b6f6ee0964fabba0664d33b4c9af6bb5437ea9"
                }
            ],
            "Istanbul" : [
                {
                    "hash" : "0x4dd18f90b54e05e0ee20af058f9f3dfc5da962b26303986c018cf7c6eb759420",
                    "indexes" : {
                        "data" : 0,
                        "gas" : 0,
                        "value" : 0
                    },
                    "logs" : "0x1dcc4de8dec75d7aab85b567b6ccd41ad312451b948a7413f0a142fd40d49347",
                    "postState" : {
                        "0x095e7baea6a6c7c4c2dfeb977efac326af552d87" : {
                            "balance" : "0x0132b3a0",
                            "code" : "0x60206000600039602060006000f000",
                            "nonce" : "0x01",
                            "storage" : {
                            }
                        },
                        "0x26963175b50e69c2400aa12887cad973aa275ff0" : {
                            "balance" : "0x00",
                            "code" : "0x",
                            "nonce" : "0x02",
                            "storage" : {
                            }
                        },
                        "0x283b585ba5bc85d64a99cb5ecb9a8495ac944948" : {
                            "balance" : "0x00",
                            "code" : "0x",
                            "nonce" : "0x02",
                            "storage" : {
                            }
                        },
                        "0x2adc25665018aa1fe0e6bc666dac8fc2697ff9ba" : {
                            "balance" : "0x40f1a0",
                            "code" : "0x",
                            "nonce" : "0x00",
                            "storage" : {
                            }
                        },
                        "0x4326e4b5aa29095a293f86c51e4776beeeb13c9b" : {
                            "balance" : "0x00",
                            "code" : "0x",
                            "nonce" : "0x02",
                            "storage" : {
                            }
                        },
                        "0x6965235e025001fb620d441803fedb005f7ac710" : {
                            "balance" : "0x00",
                            "code" : "0x",
                            "nonce" : "0x02",
                            "storage" : {
                            }
                        },
                        "0x7e495061f514448f3dd51bb0cf909eef3c3f4712" : {
                            "balance" : "0x00",
                            "code" : "0x",
                            "nonce" : "0x02",
                            "storage" : {
                            }
                        },
                        "0x91ed00a0a906270d466af043c4e111dadca970a3" : {
                            "balance" : "0x00",
                            "code" : "0x",
                            "nonce" : "0x02",
                            "storage" : {
                            }
                        },
                        "0x923945f4390ee06a73a80c1f56f979f7959755df" : {
                            "balance" : "0x00",
                            "code" : "0x",
                            "nonce" : "0x02",
                            "storage" : {
                            }
                        },
                        "0xa94f5374fce5edbc8e2a8697c15331677e6ebf0b" : {
                            "balance" : "0x0de0b6b3a72187c0",
                            "code" : "0x",
                            "nonce" : "0x01",
                            "storage" : {
                            }
                        },
                        "0xb1fe911acf07cc8107d984408a443c5af42389e0" : {
                            "balance" : "0x00",
                            "code" : "0x",
                            "nonce" : "0x02",
                            "storage" : {
                            }
                        },
                        "0xb679828fa6040990410b3282e916bfbd6c74f890" : {
                            "balance" : "0x00",
                            "code" : "0x",
                            "nonce" : "0x02",
                            "storage" : {
                            }
                        },
                        "0xd2571607e241ecf590ed94b12d87c94babe36db6" : {
                            "balance" : "0x00",
                            "code" : "0x",
                            "nonce" : "0x02",
                            "storage" : {
                            }
                        },
                        "0xec51d36be1c8fd3ff3c74210e408a8710163ceb8" : {
                            "balance" : "0x00",
                            "code" : "0x",
                            "nonce" : "0x02",
                            "storage" : {
                            }
                        }
                    },
                    "txbytes" : "0xf863800a8307194894095e7baea6a6c7c4c2dfeb977efac326af552d87830186a0801ba0e09f431eb694e4b46e0eb325c6da0bc8cb60445e99a81f866cb7f4e49e59a03da00ed1cab2222bf904d208f6d0a7b6f6ee0964fabba0664d33b4c9af6bb5437ea9"
                }
            ],
            "London" : [
                {
                    "hash" : "0x994f71d9ed303253fc523f87de7628d1b97d03eec0627743ad5e4d861805e1d3",
                    "indexes" : {
                        "data" : 0,
                        "gas" : 0,
                        "value" : 0
                    },
                    "logs" : "0x1dcc4de8dec75d7aab85b567b6ccd41ad312451b948a7413f0a142fd40d49347",
                    "postState" : {
                        "0x095e7baea6a6c7c4c2dfeb977efac326af552d87" : {
                            "balance" : "0x0132b3a0",
                            "code" : "0x60206000600039602060006000f000",
                            "nonce" : "0x01",
                            "storage" : {
                            }
                        },
                        "0x26963175b50e69c2400aa12887cad973aa275ff0" : {
                            "balance" : "0x00",
                            "code" : "0x",
                            "nonce" : "0x02",
                            "storage" : {
                            }
                        },
                        "0x283b585ba5bc85d64a99cb5ecb9a8495ac944948" : {
                            "balance" : "0x00",
                            "code" : "0x",
                            "nonce" : "0x02",
                            "storage" : {
                            }
                        },
                        "0x4326e4b5aa29095a293f86c51e4776beeeb13c9b" : {
                            "balance" : "0x00",
                            "code" : "0x",
                            "nonce" : "0x02",
                            "storage" : {
                            }
                        },
                        "0x6965235e025001fb620d441803fedb005f7ac710" : {
                            "balance" : "0x00",
                            "code" : "0x",
                            "nonce" : "0x02",
                            "storage" : {
                            }
                        },
                        "0x7e495061f514448f3dd51bb0cf909eef3c3f4712" : {
                            "balance" : "0x00",
                            "code" : "0x",
                            "nonce" : "0x02",
                            "storage" : {
                            }
                        },
                        "0x91ed00a0a906270d466af043c4e111dadca970a3" : {
                            "balance" : "0x00",
                            "code" : "0x",
                            "nonce" : "0x02",
                            "storage" : {
                            }
                        },
                        "0x923945f4390ee06a73a80c1f56f979f7959755df" : {
                            "balance" : "0x00",
                            "code" : "0x",
                            "nonce" : "0x02",
                            "storage" : {
                            }
                        },
                        "0xa94f5374fce5edbc8e2a8697c15331677e6ebf0b" : {
                            "balance" : "0x0de0b6b3a72187c0",
                            "code" : "0x",
                            "nonce" : "0x01",
                            "storage" : {
                            }
                        },
                        "0xb1fe911acf07cc8107d984408a443c5af42389e0" : {
                            "balance" : "0x00",
                            "code" : "0x",
                            "nonce" : "0x02",
                            "storage" : {
                            }
                        },
                        "0xb679828fa6040990410b3282e916bfbd6c74f890" : {
                            "balance" : "0x00",
                            "code" : "0x",
                            "nonce" : "0x02",
                            "storage" : {
                            }
                        },
                        "0xd2571607e241ecf590ed94b12d87c94babe36db6" : {
                            "balance" : "0x00",
                            "code" : "0x",
                            "nonce" : "0x02",
                            "storage" : {
                            }
                        },
                        "0xec51d36be1c8fd3ff3c74210e408a8710163ceb8" : {
                            "balance" : "0x00",
                            "code" : "0x",
                            "nonce" : "0x02",
                            "storage" : {
                            }
                        }
                    },
                    "txbytes" : "0xf863800a8307194894095e7baea6a6c7c4c2dfeb977efac326af552d87830186a0801ba0e09f431eb694e4b46e0eb325c6da0bc8cb60445e99a81f866cb7f4e49e59a03da00ed1cab2222bf904d208f6d0a7b6f6ee0964fabba0664d33b4c9af6bb5437ea9"
                }
            ]
        },
        "pre" : {
            "0x095e7baea6a6c7c4c2dfeb977efac326af552d87" : {
                "balance" : "0x01312d00",
                "code" : "0x60206000600039602060006000f000",
                "nonce" : "0x00",
                "storage" : {
                }
            },
            "0xa94f5374fce5edbc8e2a8697c15331677e6ebf0b" : {
                "balance" : "0x0de0b6b3a7640000",
                "code" : "0x",
                "nonce" : "0x00",
                "storage" : {
                }
            }
        },
        "transaction" : {
            "data" : [
                "0x"
            ],
            "gasLimit" : [
                "0x071948"
            ],
            "gasPrice" : "0x0a",
            "nonce" : "0x00",
            "secretKey" : "0x45a915e4d060149eb4365960e6a7a45f334393093061116b197e3240065ff2d8",
            "to" : "0x095e7baea6a6c7c4c2dfeb977efac326af552d87",
            "value" : [
                "0x0186a0"
            ]
        }
    }
}