{
    "randomStatetest346" : {
        "_info" : {
            "comment" : "",
            "filling-rpc-server" : "evm version 1.11.5-stable-a38f4108",
            "filling-tool-version" : "retesteth-0.3.0-shanghai+commit.e98b5e62.Linux.g++",
            "generatedTestHash" : "b9a7900ad11a69b0365713bf9287db80aede4f2819409611f5f579967cafa1b0",
            "lllcversion" : "Version: 0.5.14-develop.2023.8.28+commit.b2b86751.Linux.g++",
            "solidity" : "Version: 0.8.17+commit.8df45f5f.Linux.g++",
            "source" : "src/GeneralStateTestsFiller/stRandom/randomStatetest346Filler.json",
            "sourceHash" : "0ec84eaab229c4cf3779fb9cf63a3eda9eb8febbc5a83431d11c07c9ffa3dd87"
        },
        "env" : {
            "currentBaseFee" : "0x0a",
            "currentCoinbase" : "0x945304eb96065b2a98b57a48a06ae28d285a71b5",
            "currentDifficulty" : "0x020000",
            "currentGasLimit" : "0x7fffffffffffffff",
            "currentNumber" : "0x01",
            "currentRandom" : "0x0000000000000000000000000000000000000000000000000000000000020000",
            "currentTimestamp" : "0x03e8",
            "previousHash" : "0x5e20a0453cecd065ea59c37ac63e079ee08998b6045136a8ce6635c7912ec0b6"
        },
        "post" : {
            "Berlin" : [
                {
                    "hash" : "0xcf6654a5896a6d19685dce847d60a1b49b7497342bcfe1cf10a1c262d9027e08",
                    "indexes" : {
                        "data" : 0,
                        "gas" : 0,
                        "value" : 0
                    },
                    "logs" : "0x1dcc4de8dec75d7aab85b567b6ccd41ad312451b948a7413f0a142fd40d49347",
                    "postState" : {
                        "0x095e7baea6a6c7c4c2dfeb977efac326af552d87" : {
                            "balance" : "0x053e6ff2",
                            "code" : "0x7fffffffffffffffffffffffffffffffffffffffffffffffffffffffffffffffff7f00000000000000000000000000000000000000000000000000000000000000007fffffffffffffffffffffffffffffffffffffffffffffffffffffffffffffffff7f00000000000000000000000000000000000000000000000000000000000000007f00000000000000000000000000000000000000000000000000000000000000017ffffffffffffffffffffffffffffffffffffffffffffffffffffffffffffffffe7f000000000000000000000000ffffffffffffffffffffffffffffffffffffffff7ffffffffffffffffffffffffffffffffffffffffffffffffffffffffffffffffe095560005155",
                            "nonce" : "0x00",
                            "storage" : {
                            }
                        },
                        "0x945304eb96065b2a98b57a48a06ae28d285a71b5" : {
                            "balance" : "0x040368",
                            "code" : "0x6000355415600957005b60203560003555",
                            "nonce" : "0x00",
                            "storage" : {
                            }
                        },
                        "0xa94f5374fce5edbc8e2a8697c15331677e6ebf0b" : {
                            "balance" : "0x0de0b6b3a2218cd4",
                            "code" : "0x",
                            "nonce" : "0x01",
                            "storage" : {
                            }
                        }
                    },
                    "txbytes" : "0xf90170800a847d53c78b94095e7baea6a6c7c4c2dfeb977efac326af552d8784053e6ff2b901097fffffffffffffffffffffffffffffffffffffffffffffffffffffffffffffffff7f00000000000000000000000000000000000000000000000000000000000000007fffffffffffffffffffffffffffffffffffffffffffffffffffffffffffffffff7f00000000000000000000000000000000000000000000000000000000000000007f00000000000000000000000000000000000000000000000000000000000000017ffffffffffffffffffffffffffffffffffffffffffffffffffffffffffffffffe7f000000000000000000000000ffffffffffffffffffffffffffffffffffffffff7ffffffffffffffffffffffffffffffffffffffffffffffffffffffffffffffffe091ca0975fe1c21a26a0a09957ee6b9d1dafeb8b54451a2995f1c633a6ff2735f75dbfa0781a5c5f786d0258b97d742f1f3dbb695dcd92a0574fd3508bcde80dc74c5270"
                }
            ],
            "Istanbul" : [
                {
                    "hash" : "0x7f8116a2fffd08340f0fc77d7c6acfee8f3c865b7e1d996938a7f1c1a9efa5a2",
                    "indexes" : {
                        "data" : 0,
                        "gas" : 0,
                        "value" : 0
                    },
                    "logs" : "0x1dcc4de8dec75d7aab85b567b6ccd41ad312451b948a7413f0a142fd40d49347",
                    "postState" : {
                        "0x095e7baea6a6c7c4c2dfeb977efac326af552d87" : {
                            "balance" : "0x053e6ff2",
                            "code" : "0x7fffffffffffffffffffffffffffffffffffffffffffffffffffffffffffffffff7f00000000000000000000000000000000000000000000000000000000000000007fffffffffffffffffffffffffffffffffffffffffffffffffffffffffffffffff7f00000000000000000000000000000000000000000000000000000000000000007f00000000000000000000000000000000000000000000000000000000000000017ffffffffffffffffffffffffffffffffffffffffffffffffffffffffffffffffe7f000000000000000000000000ffffffffffffffffffffffffffffffffffffffff7ffffffffffffffffffffffffffffffffffffffffffffffffffffffffffffffffe095560005155",
                            "nonce" : "0x00",
                            "storage" : {
                            }
                        },
                        "0x945304eb96065b2a98b57a48a06ae28d285a71b5" : {
                            "balance" : "0x03e810",
                            "code" : "0x6000355415600957005b60203560003555",
                            "nonce" : "0x00",
                            "storage" : {
                            }
                        },
                        "0xa94f5374fce5edbc8e2a8697c15331677e6ebf0b" : {
                            "balance" : "0x0de0b6b3a221a82c",
                            "code" : "0x",
                            "nonce" : "0x01",
                            "storage" : {
                            }
                        }
                    },
                    "txbytes" : "0xf90170800a847d53c78b94095e7baea6a6c7c4c2dfeb977efac326af552d8784053e6ff2b901097fffffffffffffffffffffffffffffffffffffffffffffffffffffffffffffffff7f00000000000000000000000000000000000000000000000000000000000000007fffffffffffffffffffffffffffffffffffffffffffffffffffffffffffffffff7f00000000000000000000000000000000000000000000000000000000000000007f00000000000000000000000000000000000000000000000000000000000000017ffffffffffffffffffffffffffffffffffffffffffffffffffffffffffffffffe7f000000000000000000000000ffffffffffffffffffffffffffffffffffffffff7ffffffffffffffffffffffffffffffffffffffffffffffffffffffffffffffffe091ca0975fe1c21a26a0a09957ee6b9d1dafeb8b54451a2995f1c633a6ff2735f75dbfa0781a5c5f786d0258b97d742f1f3dbb695dcd92a0574fd3508bcde80dc74c5270"
                }
            ],
            "London" : [
                {
                    "hash" : "0xf48aad9f6962a497691fe46703ef6aabb8b4d21bda561a4746a4a9681905d6ae",
                    "indexes" : {
                        "data" : 0,
                        "gas" : 0,
                        "value" : 0
                    },
                    "logs" : "0x1dcc4de8dec75d7aab85b567b6ccd41ad312451b948a7413f0a142fd40d49347",
                    "postState" : {
                        "0x095e7baea6a6c7c4c2dfeb977efac326af552d87" : {
                            "balance" : "0x053e6ff2",
                            "code" : "0x7fffffffffffffffffffffffffffffffffffffffffffffffffffffffffffffffff7f00000000000000000000000000000000000000000000000000000000000000007fffffffffffffffffffffffffffffffffffffffffffffffffffffffffffffffff7f00000000000000000000000000000000000000000000000000000000000000007f00000000000000000000000000000000000000000000000000000000000000017ffffffffffffffffffffffffffffffffffffffffffffffffffffffffffffffffe7f000000000000000000000000ffffffffffffffffffffffffffffffffffffffff7ffffffffffffffffffffffffffffffffffffffffffffffffffffffffffffffffe095560005155",
                            "nonce" : "0x00",
                            "storage" : {
                            }
                        },
                        "0x945304eb96065b2a98b57a48a06ae28d285a71b5" : {
                            "balance" : "0x2e",
                            "code" : "0x6000355415600957005b60203560003555",
                            "nonce" : "0x00",
                            "storage" : {
                            }
                        },
                        "0xa94f5374fce5edbc8e2a8697c15331677e6ebf0b" : {
                            "balance" : "0x0de0b6b3a21fec62",
                            "code" : "0x",
                            "nonce" : "0x01",
                            "storage" : {
                            }
                        }
                    },
                    "txbytes" : "0xf90170800a847d53c78b94095e7baea6a6c7c4c2dfeb977efac326af552d8784053e6ff2b901097fffffffffffffffffffffffffffffffffffffffffffffffffffffffffffffffff7f00000000000000000000000000000000000000000000000000000000000000007fffffffffffffffffffffffffffffffffffffffffffffffffffffffffffffffff7f00000000000000000000000000000000000000000000000000000000000000007f00000000000000000000000000000000000000000000000000000000000000017ffffffffffffffffffffffffffffffffffffffffffffffffffffffffffffffffe7f000000000000000000000000ffffffffffffffffffffffffffffffffffffffff7ffffffffffffffffffffffffffffffffffffffffffffffffffffffffffffffffe091ca0975fe1c21a26a0a09957ee6b9d1dafeb8b54451a2995f1c633a6ff2735f75dbfa0781a5c5f786d0258b97d742f1f3dbb695dcd92a0574fd3508bcde80dc74c5270"
                }
            ],
            "Merge" : [
                {
                    "hash" : "0xf48aad9f6962a497691fe46703ef6aabb8b4d21bda561a4746a4a9681905d6ae",
                    "indexes" : {
                        "data" : 0,
                        "gas" : 0,
                        "value" : 0
                    },
                    "logs" : "0x1dcc4de8dec75d7aab85b567b6ccd41ad312451b948a7413f0a142fd40d49347",
                    "postState" : {
                        "0x095e7baea6a6c7c4c2dfeb977efac326af552d87" : {
                            "balance" : "0x053e6ff2",
                            "code" : "0x7fffffffffffffffffffffffffffffffffffffffffffffffffffffffffffffffff7f00000000000000000000000000000000000000000000000000000000000000007fffffffffffffffffffffffffffffffffffffffffffffffffffffffffffffffff7f00000000000000000000000000000000000000000000000000000000000000007f00000000000000000000000000000000000000000000000000000000000000017ffffffffffffffffffffffffffffffffffffffffffffffffffffffffffffffffe7f000000000000000000000000ffffffffffffffffffffffffffffffffffffffff7ffffffffffffffffffffffffffffffffffffffffffffffffffffffffffffffffe095560005155",
                            "nonce" : "0x00",
                            "storage" : {
                            }
                        },
                        "0x945304eb96065b2a98b57a48a06ae28d285a71b5" : {
                            "balance" : "0x2e",
                            "code" : "0x6000355415600957005b60203560003555",
                            "nonce" : "0x00",
                            "storage" : {
                            }
                        },
                        "0xa94f5374fce5edbc8e2a8697c15331677e6ebf0b" : {
                            "balance" : "0x0de0b6b3a21fec62",
                            "code" : "0x",
                            "nonce" : "0x01",
                            "storage" : {
                            }
                        }
                    },
                    "txbytes" : "0xf90170800a847d53c78b94095e7baea6a6c7c4c2dfeb977efac326af552d8784053e6ff2b901097fffffffffffffffffffffffffffffffffffffffffffffffffffffffffffffffff7f00000000000000000000000000000000000000000000000000000000000000007fffffffffffffffffffffffffffffffffffffffffffffffffffffffffffffffff7f00000000000000000000000000000000000000000000000000000000000000007f00000000000000000000000000000000000000000000000000000000000000017ffffffffffffffffffffffffffffffffffffffffffffffffffffffffffffffffe7f000000000000000000000000ffffffffffffffffffffffffffffffffffffffff7ffffffffffffffffffffffffffffffffffffffffffffffffffffffffffffffffe091ca0975fe1c21a26a0a09957ee6b9d1dafeb8b54451a2995f1c633a6ff2735f75dbfa0781a5c5f786d0258b97d742f1f3dbb695dcd92a0574fd3508bcde80dc74c5270"
                }
            ],
            "Shanghai" : [
                {
                    "hash" : "0xf48aad9f6962a497691fe46703ef6aabb8b4d21bda561a4746a4a9681905d6ae",
                    "indexes" : {
                        "data" : 0,
                        "gas" : 0,
                        "value" : 0
                    },
                    "logs" : "0x1dcc4de8dec75d7aab85b567b6ccd41ad312451b948a7413f0a142fd40d49347",
                    "postState" : {
                        "0x095e7baea6a6c7c4c2dfeb977efac326af552d87" : {
                            "balance" : "0x053e6ff2",
                            "code" : "0x7fffffffffffffffffffffffffffffffffffffffffffffffffffffffffffffffff7f00000000000000000000000000000000000000000000000000000000000000007fffffffffffffffffffffffffffffffffffffffffffffffffffffffffffffffff7f00000000000000000000000000000000000000000000000000000000000000007f00000000000000000000000000000000000000000000000000000000000000017ffffffffffffffffffffffffffffffffffffffffffffffffffffffffffffffffe7f000000000000000000000000ffffffffffffffffffffffffffffffffffffffff7ffffffffffffffffffffffffffffffffffffffffffffffffffffffffffffffffe095560005155",
                            "nonce" : "0x00",
                            "storage" : {
                            }
                        },
                        "0x945304eb96065b2a98b57a48a06ae28d285a71b5" : {
                            "balance" : "0x2e",
                            "code" : "0x6000355415600957005b60203560003555",
                            "nonce" : "0x00",
                            "storage" : {
                            }
                        },
                        "0xa94f5374fce5edbc8e2a8697c15331677e6ebf0b" : {
                            "balance" : "0x0de0b6b3a21fec62",
                            "code" : "0x",
                            "nonce" : "0x01",
                            "storage" : {
                            }
                        }
                    },
                    "txbytes" : "0xf90170800a847d53c78b94095e7baea6a6c7c4c2dfeb977efac326af552d8784053e6ff2b901097fffffffffffffffffffffffffffffffffffffffffffffffffffffffffffffffff7f00000000000000000000000000000000000000000000000000000000000000007fffffffffffffffffffffffffffffffffffffffffffffffffffffffffffffffff7f00000000000000000000000000000000000000000000000000000000000000007f00000000000000000000000000000000000000000000000000000000000000017ffffffffffffffffffffffffffffffffffffffffffffffffffffffffffffffffe7f000000000000000000000000ffffffffffffffffffffffffffffffffffffffff7ffffffffffffffffffffffffffffffffffffffffffffffffffffffffffffffffe091ca0975fe1c21a26a0a09957ee6b9d1dafeb8b54451a2995f1c633a6ff2735f75dbfa0781a5c5f786d0258b97d742f1f3dbb695dcd92a0574fd3508bcde80dc74c5270"
                }
            ]
        },
        "pre" : {
            "0x095e7baea6a6c7c4c2dfeb977efac326af552d87" : {
                "balance" : "0x00",
                "code" : "0x7fffffffffffffffffffffffffffffffffffffffffffffffffffffffffffffffff7f00000000000000000000000000000000000000000000000000000000000000007fffffffffffffffffffffffffffffffffffffffffffffffffffffffffffffffff7f00000000000000000000000000000000000000000000000000000000000000007f00000000000000000000000000000000000000000000000000000000000000017ffffffffffffffffffffffffffffffffffffffffffffffffffffffffffffffffe7f000000000000000000000000ffffffffffffffffffffffffffffffffffffffff7ffffffffffffffffffffffffffffffffffffffffffffffffffffffffffffffffe095560005155",
                "nonce" : "0x00",
                "storage" : {
                }
            },
            "0x945304eb96065b2a98b57a48a06ae28d285a71b5" : {
                "balance" : "0x2e",
                "code" : "0x6000355415600957005b60203560003555",
                "nonce" : "0x00",
                "storage" : {
                }
            },
            "0xa94f5374fce5edbc8e2a8697c15331677e6ebf0b" : {
                "balance" : "0x0de0b6b3a7640000",
                "code" : "0x",
                "nonce" : "0x00",
                "storage" : {
                }
            }
        },
        "transaction" : {
            "data" : [
                "0x7fffffffffffffffffffffffffffffffffffffffffffffffffffffffffffffffff7f00000000000000000000000000000000000000000000000000000000000000007fffffffffffffffffffffffffffffffffffffffffffffffffffffffffffffffff7f00000000000000000000000000000000000000000000000000000000000000007f00000000000000000000000000000000000000000000000000000000000000017ffffffffffffffffffffffffffffffffffffffffffffffffffffffffffffffffe7f000000000000000000000000ffffffffffffffffffffffffffffffffffffffff7ffffffffffffffffffffffffffffffffffffffffffffffffffffffffffffffffe09"
            ],
            "gasLimit" : [
                "0x7d53c78b"
            ],
            "gasPrice" : "0x0a",
            "nonce" : "0x00",
            "secretKey" : "0x45a915e4d060149eb4365960e6a7a45f334393093061116b197e3240065ff2d8",
            "sender" : "0xa94f5374fce5edbc8e2a8697c15331677e6ebf0b",
            "to" : "0x095e7baea6a6c7c4c2dfeb977efac326af552d87",
            "value" : [
                "0x053e6ff2"
            ]
        }
    }
}