{
    "extCodeHashCALLCODE" : {
        "_info" : {
            "comment" : "EXTCODEHASH of an account during a CALLCODE",
            "filling-rpc-server" : "evm version 1.11.5-stable-a38f4108",
            "filling-tool-version" : "retesteth-0.3.0-shanghai+commit.e98b5e62.Linux.g++",
            "generatedTestHash" : "9f67cb26667e46343efc366b9581c044138badde0bf166eee5456ac23284e652",
            "lllcversion" : "Version: 0.5.14-develop.2023.8.28+commit.b2b86751.Linux.g++",
            "solidity" : "Version: 0.8.17+commit.8df45f5f.Linux.g++",
            "source" : "src/GeneralStateTestsFiller/stExtCodeHash/extCodeHashCALLCODEFiller.json",
            "sourceHash" : "700e32955cf5e7c3daf2d58996177b0477076bc33f7c2132efc995138eabda07"
        },
        "env" : {
            "currentBaseFee" : "0x0a",
            "currentCoinbase" : "0x2adc25665018aa1fe0e6bc666dac8fc2697ff9ba",
            "currentDifficulty" : "0x020000",
            "currentGasLimit" : "0x0f4240",
            "currentNumber" : "0x01",
            "currentRandom" : "0x0000000000000000000000000000000000000000000000000000000000020000",
            "currentTimestamp" : "0x03e8",
            "previousHash" : "0x5e20a0453cecd065ea59c37ac63e079ee08998b6045136a8ce6635c7912ec0b6"
        },
        "post" : {
            "Berlin" : [
                {
                    "hash" : "0xcb92025c5f5ad7e9ed8082dd8afe0eb363efa19c340937623bc3f4205aebb391",
                    "indexes" : {
                        "data" : 0,
                        "gas" : 0,
                        "value" : 0
                    },
                    "logs" : "0x1dcc4de8dec75d7aab85b567b6ccd41ad312451b948a7413f0a142fd40d49347",
                    "postState" : {
                        "0x095e7baea6a6c7c4c2dfeb977efac326af552d87" : {
                            "balance" : "0x0de0b6b3a7640001",
                            "code" : "0x6020600060006000600073deadbeef00000000000000000000000000000000620249f0f2506020600060003e6000516000556020600060006000600073aeadbeef00000000000000000000000000000000620249f0f2506020600060003e60005160015500",
                            "nonce" : "0x00",
                            "storage" : {
                                "0x00" : "0x56570de287d73cd1cb6092bb8fdee6173974955fdef345ae579ee9f475ea7432",
                                "0x01" : "0x02"
                            }
                        },
                        "0x2adc25665018aa1fe0e6bc666dac8fc2697ff9ba" : {
                            "balance" : "0x0890b2",
                            "code" : "0x",
                            "nonce" : "0x00",
                            "storage" : {
                            }
                        },
                        "0xa94f5374fce5edbc8e2a8697c15331677e6ebf0b" : {
                            "balance" : "0x0de0b6b3a75b6f4d",
                            "code" : "0x",
                            "nonce" : "0x01",
                            "storage" : {
                            }
                        },
                        "0xaeadbeef00000000000000000000000000000000" : {
                            "balance" : "0x0de0b6b3a7640000",
                            "code" : "0x73deadbeef000000000000000000000000000000013b60005260206000f300",
                            "nonce" : "0x00",
                            "storage" : {
                                "0x00" : "0xdeadbeef"
                            }
                        },
                        "0xdeadbeef00000000000000000000000000000000" : {
                            "balance" : "0x0de0b6b3a7640000",
                            "code" : "0x73deadbeef000000000000000000000000000000013f60005260206000f300",
                            "nonce" : "0x00",
                            "storage" : {
                                "0x00" : "0xdeadbeef"
                            }
                        },
                        "0xdeadbeef00000000000000000000000000000001" : {
                            "balance" : "0x0de0b6b3a7640000",
                            "code" : "0x1234",
                            "nonce" : "0x00",
                            "storage" : {
                            }
                        }
                    },
                    "txbytes" : "0xf860800a83061a8094095e7baea6a6c7c4c2dfeb977efac326af552d8701801ca09d46b87169053cc40670aef750b032c895cde3e35c2c7f5a37c059272e0914c7a04d4a94b67b2776cc3e0fca2ed9503c10fd92ec79f1b2dcbb85df9634c7de3119"
                }
            ],
            "Istanbul" : [
                {
                    "hash" : "0x4a48f496426f11d7c3e560562a08dbcdc2e13d00f1bcf1959b4d59e8044c9958",
                    "indexes" : {
                        "data" : 0,
                        "gas" : 0,
                        "value" : 0
                    },
                    "logs" : "0x1dcc4de8dec75d7aab85b567b6ccd41ad312451b948a7413f0a142fd40d49347",
                    "postState" : {
                        "0x095e7baea6a6c7c4c2dfeb977efac326af552d87" : {
                            "balance" : "0x0de0b6b3a7640001",
                            "code" : "0x6020600060006000600073deadbeef00000000000000000000000000000000620249f0f2506020600060003e6000516000556020600060006000600073aeadbeef00000000000000000000000000000000620249f0f2506020600060003e60005160015500",
                            "nonce" : "0x00",
                            "storage" : {
                                "0x00" : "0x56570de287d73cd1cb6092bb8fdee6173974955fdef345ae579ee9f475ea7432",
                                "0x01" : "0x02"
                            }
                        },
                        "0x2adc25665018aa1fe0e6bc666dac8fc2697ff9ba" : {
                            "balance" : "0x077772",
                            "code" : "0x",
                            "nonce" : "0x00",
                            "storage" : {
                            }
                        },
                        "0xa94f5374fce5edbc8e2a8697c15331677e6ebf0b" : {
                            "balance" : "0x0de0b6b3a75c888d",
                            "code" : "0x",
                            "nonce" : "0x01",
                            "storage" : {
                            }
                        },
                        "0xaeadbeef00000000000000000000000000000000" : {
                            "balance" : "0x0de0b6b3a7640000",
                            "code" : "0x73deadbeef000000000000000000000000000000013b60005260206000f300",
                            "nonce" : "0x00",
                            "storage" : {
                                "0x00" : "0xdeadbeef"
                            }
                        },
                        "0xdeadbeef00000000000000000000000000000000" : {
                            "balance" : "0x0de0b6b3a7640000",
                            "code" : "0x73deadbeef000000000000000000000000000000013f60005260206000f300",
                            "nonce" : "0x00",
                            "storage" : {
                                "0x00" : "0xdeadbeef"
                            }
                        },
                        "0xdeadbeef00000000000000000000000000000001" : {
                            "balance" : "0x0de0b6b3a7640000",
                            "code" : "0x1234",
                            "nonce" : "0x00",
                            "storage" : {
                            }
                        }
                    },
                    "txbytes" : "0xf860800a83061a8094095e7baea6a6c7c4c2dfeb977efac326af552d8701801ca09d46b87169053cc40670aef750b032c895cde3e35c2c7f5a37c059272e0914c7a04d4a94b67b2776cc3e0fca2ed9503c10fd92ec79f1b2dcbb85df9634c7de3119"
                }
            ],
            "London" : [
                {
                    "hash" : "0xfe96987ac2f98e64a3f7db3d4c77fdda316d07fe721f881bb6d26caf25624ac9",
                    "indexes" : {
                        "data" : 0,
                        "gas" : 0,
                        "value" : 0
                    },
                    "logs" : "0x1dcc4de8dec75d7aab85b567b6ccd41ad312451b948a7413f0a142fd40d49347",
                    "postState" : {
                        "0x095e7baea6a6c7c4c2dfeb977efac326af552d87" : {
                            "balance" : "0x0de0b6b3a7640001",
                            "code" : "0x6020600060006000600073deadbeef00000000000000000000000000000000620249f0f2506020600060003e6000516000556020600060006000600073aeadbeef00000000000000000000000000000000620249f0f2506020600060003e60005160015500",
                            "nonce" : "0x00",
                            "storage" : {
                                "0x00" : "0x56570de287d73cd1cb6092bb8fdee6173974955fdef345ae579ee9f475ea7432",
                                "0x01" : "0x02"
                            }
                        },
                        "0xa94f5374fce5edbc8e2a8697c15331677e6ebf0b" : {
                            "balance" : "0x0de0b6b3a75b6f4d",
                            "code" : "0x",
                            "nonce" : "0x01",
                            "storage" : {
                            }
                        },
                        "0xaeadbeef00000000000000000000000000000000" : {
                            "balance" : "0x0de0b6b3a7640000",
                            "code" : "0x73deadbeef000000000000000000000000000000013b60005260206000f300",
                            "nonce" : "0x00",
                            "storage" : {
                                "0x00" : "0xdeadbeef"
                            }
                        },
                        "0xdeadbeef00000000000000000000000000000000" : {
                            "balance" : "0x0de0b6b3a7640000",
                            "code" : "0x73deadbeef000000000000000000000000000000013f60005260206000f300",
                            "nonce" : "0x00",
                            "storage" : {
                                "0x00" : "0xdeadbeef"
                            }
                        },
                        "0xdeadbeef00000000000000000000000000000001" : {
                            "balance" : "0x0de0b6b3a7640000",
                            "code" : "0x1234",
                            "nonce" : "0x00",
                            "storage" : {
                            }
                        }
                    },
                    "txbytes" : "0xf860800a83061a8094095e7baea6a6c7c4c2dfeb977efac326af552d8701801ca09d46b87169053cc40670aef750b032c895cde3e35c2c7f5a37c059272e0914c7a04d4a94b67b2776cc3e0fca2ed9503c10fd92ec79f1b2dcbb85df9634c7de3119"
                }
            ],
            "Merge" : [
                {
                    "hash" : "0xfe96987ac2f98e64a3f7db3d4c77fdda316d07fe721f881bb6d26caf25624ac9",
                    "indexes" : {
                        "data" : 0,
                        "gas" : 0,
                        "value" : 0
                    },
                    "logs" : "0x1dcc4de8dec75d7aab85b567b6ccd41ad312451b948a7413f0a142fd40d49347",
                    "postState" : {
                        "0x095e7baea6a6c7c4c2dfeb977efac326af552d87" : {
                            "balance" : "0x0de0b6b3a7640001",
                            "code" : "0x6020600060006000600073deadbeef00000000000000000000000000000000620249f0f2506020600060003e6000516000556020600060006000600073aeadbeef00000000000000000000000000000000620249f0f2506020600060003e60005160015500",
                            "nonce" : "0x00",
                            "storage" : {
                                "0x00" : "0x56570de287d73cd1cb6092bb8fdee6173974955fdef345ae579ee9f475ea7432",
                                "0x01" : "0x02"
                            }
                        },
                        "0xa94f5374fce5edbc8e2a8697c15331677e6ebf0b" : {
                            "balance" : "0x0de0b6b3a75b6f4d",
                            "code" : "0x",
                            "nonce" : "0x01",
                            "storage" : {
                            }
                        },
                        "0xaeadbeef00000000000000000000000000000000" : {
                            "balance" : "0x0de0b6b3a7640000",
                            "code" : "0x73deadbeef000000000000000000000000000000013b60005260206000f300",
                            "nonce" : "0x00",
                            "storage" : {
                                "0x00" : "0xdeadbeef"
                            }
                        },
                        "0xdeadbeef00000000000000000000000000000000" : {
                            "balance" : "0x0de0b6b3a7640000",
                            "code" : "0x73deadbeef000000000000000000000000000000013f60005260206000f300",
                            "nonce" : "0x00",
                            "storage" : {
                                "0x00" : "0xdeadbeef"
                            }
                        },
                        "0xdeadbeef00000000000000000000000000000001" : {
                            "balance" : "0x0de0b6b3a7640000",
                            "code" : "0x1234",
                            "nonce" : "0x00",
                            "storage" : {
                            }
                        }
                    },
                    "txbytes" : "0xf860800a83061a8094095e7baea6a6c7c4c2dfeb977efac326af552d8701801ca09d46b87169053cc40670aef750b032c895cde3e35c2c7f5a37c059272e0914c7a04d4a94b67b2776cc3e0fca2ed9503c10fd92ec79f1b2dcbb85df9634c7de3119"
                }
            ],
            "Shanghai" : [
                {
                    "hash" : "0xfe96987ac2f98e64a3f7db3d4c77fdda316d07fe721f881bb6d26caf25624ac9",
                    "indexes" : {
                        "data" : 0,
                        "gas" : 0,
                        "value" : 0
                    },
                    "logs" : "0x1dcc4de8dec75d7aab85b567b6ccd41ad312451b948a7413f0a142fd40d49347",
                    "postState" : {
                        "0x095e7baea6a6c7c4c2dfeb977efac326af552d87" : {
                            "balance" : "0x0de0b6b3a7640001",
                            "code" : "0x6020600060006000600073deadbeef00000000000000000000000000000000620249f0f2506020600060003e6000516000556020600060006000600073aeadbeef00000000000000000000000000000000620249f0f2506020600060003e60005160015500",
                            "nonce" : "0x00",
                            "storage" : {
                                "0x00" : "0x56570de287d73cd1cb6092bb8fdee6173974955fdef345ae579ee9f475ea7432",
                                "0x01" : "0x02"
                            }
                        },
                        "0xa94f5374fce5edbc8e2a8697c15331677e6ebf0b" : {
                            "balance" : "0x0de0b6b3a75b6f4d",
                            "code" : "0x",
                            "nonce" : "0x01",
                            "storage" : {
                            }
                        },
                        "0xaeadbeef00000000000000000000000000000000" : {
                            "balance" : "0x0de0b6b3a7640000",
                            "code" : "0x73deadbeef000000000000000000000000000000013b60005260206000f300",
                            "nonce" : "0x00",
                            "storage" : {
                                "0x00" : "0xdeadbeef"
                            }
                        },
                        "0xdeadbeef00000000000000000000000000000000" : {
                            "balance" : "0x0de0b6b3a7640000",
                            "code" : "0x73deadbeef000000000000000000000000000000013f60005260206000f300",
                            "nonce" : "0x00",
                            "storage" : {
                                "0x00" : "0xdeadbeef"
                            }
                        },
                        "0xdeadbeef00000000000000000000000000000001" : {
                            "balance" : "0x0de0b6b3a7640000",
                            "code" : "0x1234",
                            "nonce" : "0x00",
                            "storage" : {
                            }
                        }
                    },
                    "txbytes" : "0xf860800a83061a8094095e7baea6a6c7c4c2dfeb977efac326af552d8701801ca09d46b87169053cc40670aef750b032c895cde3e35c2c7f5a37c059272e0914c7a04d4a94b67b2776cc3e0fca2ed9503c10fd92ec79f1b2dcbb85df9634c7de3119"
                }
            ]
        },
        "pre" : {
            "0x095e7baea6a6c7c4c2dfeb977efac326af552d87" : {
                "balance" : "0x0de0b6b3a7640000",
                "code" : "0x6020600060006000600073deadbeef00000000000000000000000000000000620249f0f2506020600060003e6000516000556020600060006000600073aeadbeef00000000000000000000000000000000620249f0f2506020600060003e60005160015500",
                "nonce" : "0x00",
                "storage" : {
                    "0x00" : "0xdeadbeef"
                }
            },
            "0xa94f5374fce5edbc8e2a8697c15331677e6ebf0b" : {
                "balance" : "0x0de0b6b3a7640000",
                "code" : "0x",
                "nonce" : "0x00",
                "storage" : {
                }
            },
            "0xaeadbeef00000000000000000000000000000000" : {
                "balance" : "0x0de0b6b3a7640000",
                "code" : "0x73deadbeef000000000000000000000000000000013b60005260206000f300",
                "nonce" : "0x00",
                "storage" : {
                    "0x00" : "0xdeadbeef"
                }
            },
            "0xdeadbeef00000000000000000000000000000000" : {
                "balance" : "0x0de0b6b3a7640000",
                "code" : "0x73deadbeef000000000000000000000000000000013f60005260206000f300",
                "nonce" : "0x00",
                "storage" : {
                    "0x00" : "0xdeadbeef"
                }
            },
            "0xdeadbeef00000000000000000000000000000001" : {
                "balance" : "0x0de0b6b3a7640000",
                "code" : "0x1234",
                "nonce" : "0x00",
                "storage" : {
                }
            }
        },
        "transaction" : {
            "data" : [
                "0x"
            ],
            "gasLimit" : [
                "0x061a80"
            ],
            "gasPrice" : "0x0a",
            "nonce" : "0x00",
            "secretKey" : "0x45a915e4d060149eb4365960e6a7a45f334393093061116b197e3240065ff2d8",
            "sender" : "0xa94f5374fce5edbc8e2a8697c15331677e6ebf0b",
            "to" : "0x095e7baea6a6c7c4c2dfeb977efac326af552d87",
            "value" : [
                "0x01"
            ]
        }
    }
}