{
    "evmBytecode" : {
        "_info" : {
            "comment" : "",
            "filling-rpc-server" : "evm version 1.11.5-stable-a38f4108",
            "filling-tool-version" : "retesteth-0.3.0-shanghai+commit.e98b5e62.Linux.g++",
            "generatedTestHash" : "5357a4ad24bc614a48ba9cd66e5d7a22f9bba39b1ed2ac1055ef382dc48f7521",
            "lllcversion" : "Version: 0.5.14-develop.2023.8.28+commit.b2b86751.Linux.g++",
            "solidity" : "Version: 0.8.17+commit.8df45f5f.Linux.g++",
            "source" : "src/GeneralStateTestsFiller/stBugs/evmBytecodeFiller.json",
            "sourceHash" : "6ced7b43100305d1cc5aee48344c0eab6002940358e2c126279ef8444c2dea5a"
        },
        "env" : {
            "currentBaseFee" : "0x0a",
            "currentCoinbase" : "0x1000000000000000000000000000000000000000",
            "currentDifficulty" : "0x020000",
            "currentGasLimit" : "0x54a60a4202e088",
            "currentNumber" : "0x01",
            "currentRandom" : "0x0000000000000000000000000000000000000000000000000000000000020000",
            "currentTimestamp" : "0x03e8",
            "previousHash" : "0x0da7f1041f7b60aec6b67cafa0c08c10c9954d0b43737891d204ff372d166593"
        },
        "post" : {
            "Berlin" : [
                {
                    "hash" : "0x8576989c3e9058fdeeacf29d093c189ff75516c1c3c61ade6d51149f287f7328",
                    "indexes" : {
                        "data" : 0,
                        "gas" : 0,
                        "value" : 0
                    },
                    "logs" : "0x1dcc4de8dec75d7aab85b567b6ccd41ad312451b948a7413f0a142fd40d49347",
                    "postState" : {
                        "0x1000000000000000000000000000000000000000" : {
                            "balance" : "0x124f80",
                            "code" : "0x",
                            "nonce" : "0x00",
                            "storage" : {
                            }
                        },
                        "0xa94f5374fce5edbc8e2a8697c15331677e6ebf0b" : {
                            "balance" : "0x38beec8feeb7d618",
                            "code" : "0x",
                            "nonce" : "0x01",
                            "storage" : {
                            }
                        },
                        "0xb94f5374fce5edbc8e2a8697c15331677e6ebf0b" : {
                            "balance" : "0x00",
                            "code" : "0x67ffffffffffffffff600160006000fb",
                            "nonce" : "0x3f",
                            "storage" : {
                            }
                        }
                    },
                    "txbytes" : "0xf860800a8301d4c094b94f5374fce5edbc8e2a8697c15331677e6ebf0b80801ca0f3b41c283c02ed98318dc9cac3f0ddc3de2f2f7853a03299a46f22a7c6726c3aa0396ccb5968a532ea070924408625d3e36d4db21bfbd0cb070ba9e1fe9dba58ab"
                }
            ],
            "Istanbul" : [
                {
                    "hash" : "0x8576989c3e9058fdeeacf29d093c189ff75516c1c3c61ade6d51149f287f7328",
                    "indexes" : {
                        "data" : 0,
                        "gas" : 0,
                        "value" : 0
                    },
                    "logs" : "0x1dcc4de8dec75d7aab85b567b6ccd41ad312451b948a7413f0a142fd40d49347",
                    "postState" : {
                        "0x1000000000000000000000000000000000000000" : {
                            "balance" : "0x124f80",
                            "code" : "0x",
                            "nonce" : "0x00",
                            "storage" : {
                            }
                        },
                        "0xa94f5374fce5edbc8e2a8697c15331677e6ebf0b" : {
                            "balance" : "0x38beec8feeb7d618",
                            "code" : "0x",
                            "nonce" : "0x01",
                            "storage" : {
                            }
                        },
                        "0xb94f5374fce5edbc8e2a8697c15331677e6ebf0b" : {
                            "balance" : "0x00",
                            "code" : "0x67ffffffffffffffff600160006000fb",
                            "nonce" : "0x3f",
                            "storage" : {
                            }
                        }
                    },
                    "txbytes" : "0xf860800a8301d4c094b94f5374fce5edbc8e2a8697c15331677e6ebf0b80801ca0f3b41c283c02ed98318dc9cac3f0ddc3de2f2f7853a03299a46f22a7c6726c3aa0396ccb5968a532ea070924408625d3e36d4db21bfbd0cb070ba9e1fe9dba58ab"
                }
            ],
            "London" : [
                {
                    "hash" : "0x8396e44aa43852f401e856a077dc3c03bdb52094b8332c9d5e5ef13c88fa78a9",
                    "indexes" : {
                        "data" : 0,
                        "gas" : 0,
                        "value" : 0
                    },
                    "logs" : "0x1dcc4de8dec75d7aab85b567b6ccd41ad312451b948a7413f0a142fd40d49347",
                    "postState" : {
                        "0xa94f5374fce5edbc8e2a8697c15331677e6ebf0b" : {
                            "balance" : "0x38beec8feeb7d618",
                            "code" : "0x",
                            "nonce" : "0x01",
                            "storage" : {
                            }
                        },
                        "0xb94f5374fce5edbc8e2a8697c15331677e6ebf0b" : {
                            "balance" : "0x00",
                            "code" : "0x67ffffffffffffffff600160006000fb",
                            "nonce" : "0x3f",
                            "storage" : {
                            }
                        }
                    },
                    "txbytes" : "0xf860800a8301d4c094b94f5374fce5edbc8e2a8697c15331677e6ebf0b80801ca0f3b41c283c02ed98318dc9cac3f0ddc3de2f2f7853a03299a46f22a7c6726c3aa0396ccb5968a532ea070924408625d3e36d4db21bfbd0cb070ba9e1fe9dba58ab"
                }
            ],
            "Merge" : [
                {
                    "hash" : "0x8396e44aa43852f401e856a077dc3c03bdb52094b8332c9d5e5ef13c88fa78a9",
                    "indexes" : {
                        "data" : 0,
                        "gas" : 0,
                        "value" : 0
                    },
                    "logs" : "0x1dcc4de8dec75d7aab85b567b6ccd41ad312451b948a7413f0a142fd40d49347",
                    "postState" : {
                        "0xa94f5374fce5edbc8e2a8697c15331677e6ebf0b" : {
                            "balance" : "0x38beec8feeb7d618",
                            "code" : "0x",
                            "nonce" : "0x01",
                            "storage" : {
                            }
                        },
                        "0xb94f5374fce5edbc8e2a8697c15331677e6ebf0b" : {
                            "balance" : "0x00",
                            "code" : "0x67ffffffffffffffff600160006000fb",
                            "nonce" : "0x3f",
                            "storage" : {
                            }
                        }
                    },
                    "txbytes" : "0xf860800a8301d4c094b94f5374fce5edbc8e2a8697c15331677e6ebf0b80801ca0f3b41c283c02ed98318dc9cac3f0ddc3de2f2f7853a03299a46f22a7c6726c3aa0396ccb5968a532ea070924408625d3e36d4db21bfbd0cb070ba9e1fe9dba58ab"
                }
            ],
            "Shanghai" : [
                {
                    "hash" : "0x8396e44aa43852f401e856a077dc3c03bdb52094b8332c9d5e5ef13c88fa78a9",
                    "indexes" : {
                        "data" : 0,
                        "gas" : 0,
                        "value" : 0
                    },
                    "logs" : "0x1dcc4de8dec75d7aab85b567b6ccd41ad312451b948a7413f0a142fd40d49347",
                    "postState" : {
                        "0xa94f5374fce5edbc8e2a8697c15331677e6ebf0b" : {
                            "balance" : "0x38beec8feeb7d618",
                            "code" : "0x",
                            "nonce" : "0x01",
                            "storage" : {
                            }
                        },
                        "0xb94f5374fce5edbc8e2a8697c15331677e6ebf0b" : {
                            "balance" : "0x00",
                            "code" : "0x67ffffffffffffffff600160006000fb",
                            "nonce" : "0x3f",
                            "storage" : {
                            }
                        }
                    },
                    "txbytes" : "0xf860800a8301d4c094b94f5374fce5edbc8e2a8697c15331677e6ebf0b80801ca0f3b41c283c02ed98318dc9cac3f0ddc3de2f2f7853a03299a46f22a7c6726c3aa0396ccb5968a532ea070924408625d3e36d4db21bfbd0cb070ba9e1fe9dba58ab"
                }
            ]
        },
        "pre" : {
            "0xa94f5374fce5edbc8e2a8697c15331677e6ebf0b" : {
                "balance" : "0x38beec8feeca2598",
                "code" : "0x",
                "nonce" : "0x00",
                "storage" : {
                }
            },
            "0xb94f5374fce5edbc8e2a8697c15331677e6ebf0b" : {
                "balance" : "0x00",
                "code" : "0x67ffffffffffffffff600160006000fb",
                "nonce" : "0x3f",
                "storage" : {
                }
            }
        },
        "transaction" : {
            "data" : [
                "0x"
            ],
            "gasLimit" : [
                "0x01d4c0"
            ],
            "gasPrice" : "0x0a",
            "nonce" : "0x00",
            "secretKey" : "0x45a915e4d060149eb4365960e6a7a45f334393093061116b197e3240065ff2d8",
            "sender" : "0xa94f5374fce5edbc8e2a8697c15331677e6ebf0b",
            "to" : "0xb94f5374fce5edbc8e2a8697c15331677e6ebf0b",
            "value" : [
                "0x00"
            ]
        }
    }
}