{
    "OverflowGasRequire2" : {
        "_info" : {
            "comment" : "",
            "filling-rpc-server" : "evm version 1.11.5-stable-a38f4108",
            "filling-tool-version" : "retesteth-0.3.0-shanghai+commit.e98b5e62.Linux.g++",
            "generatedTestHash" : "4854a3f9e6a36d746cc28d03cf30e70f5e9468dd7b5d99972692492fb53c99b0",
            "lllcversion" : "Version: 0.5.14-develop.2023.8.28+commit.b2b86751.Linux.g++",
            "solidity" : "Version: 0.8.17+commit.8df45f5f.Linux.g++",
            "source" : "src/GeneralStateTestsFiller/stTransactionTest/OverflowGasRequire2Filler.json",
            "sourceHash" : "66c6f156efa6c14c60d60a4c03e84b589f63e980651e63756da063c8133dd970"
        },
        "env" : {
            "currentBaseFee" : "0x0a",
            "currentCoinbase" : "0x2adc25665018aa1fe0e6bc666dac8fc2697ff9ba",
            "currentDifficulty" : "0x020000",
            "currentGasLimit" : "0x7fffffffffffffff",
            "currentNumber" : "0x01",
            "currentRandom" : "0x0000000000000000000000000000000000000000000000000000000000020000",
            "currentTimestamp" : "0x03e8",
            "previousHash" : "0x5e20a0453cecd065ea59c37ac63e079ee08998b6045136a8ce6635c7912ec0b6"
        },
        "post" : {
            "Berlin" : [
                {
                    "hash" : "0x9c37780c5572aad3e7d57ee5a35bfa56d6b327ea7e42ea3eaee3f8a9f0b778d0",
                    "indexes" : {
                        "data" : 0,
                        "gas" : 0,
                        "value" : 0
                    },
                    "logs" : "0x1dcc4de8dec75d7aab85b567b6ccd41ad312451b948a7413f0a142fd40d49347",
                    "postState" : {
                        "0x2adc25665018aa1fe0e6bc666dac8fc2697ff9ba" : {
                            "balance" : "0x19ca80",
                            "code" : "0x",
                            "nonce" : "0x00",
                            "storage" : {
                            }
                        },
                        "0xa94f5374fce5edbc8e2a8697c15331677e6ebf0b" : {
                            "balance" : "0xffffffffffffffffffffffffffffffffffffffffffffffffffffffffffe6357f",
                            "code" : "0x",
                            "nonce" : "0x01",
                            "storage" : {
                            }
                        }
                    },
                    "txbytes" : "0xf86d805088100000000000000094b94f5374fce5edbc8e2a8697c15331677e6ebf0b808832403495489834541ba0ad09f36b8b3e242c628ba02751a13cebdbccc36ce52be40b18332e91eb6a8cb1a07381f8aa7848dc2650f37c3c559b4bcbceddf329939ce6e3bdd1e36781b0b746"
                }
            ],
            "Istanbul" : [
                {
                    "hash" : "0x9c37780c5572aad3e7d57ee5a35bfa56d6b327ea7e42ea3eaee3f8a9f0b778d0",
                    "indexes" : {
                        "data" : 0,
                        "gas" : 0,
                        "value" : 0
                    },
                    "logs" : "0x1dcc4de8dec75d7aab85b567b6ccd41ad312451b948a7413f0a142fd40d49347",
                    "postState" : {
                        "0x2adc25665018aa1fe0e6bc666dac8fc2697ff9ba" : {
                            "balance" : "0x19ca80",
                            "code" : "0x",
                            "nonce" : "0x00",
                            "storage" : {
                            }
                        },
                        "0xa94f5374fce5edbc8e2a8697c15331677e6ebf0b" : {
                            "balance" : "0xffffffffffffffffffffffffffffffffffffffffffffffffffffffffffe6357f",
                            "code" : "0x",
                            "nonce" : "0x01",
                            "storage" : {
                            }
                        }
                    },
                    "txbytes" : "0xf86d805088100000000000000094b94f5374fce5edbc8e2a8697c15331677e6ebf0b808832403495489834541ba0ad09f36b8b3e242c628ba02751a13cebdbccc36ce52be40b18332e91eb6a8cb1a07381f8aa7848dc2650f37c3c559b4bcbceddf329939ce6e3bdd1e36781b0b746"
                }
            ],
            "London" : [
                {
                    "hash" : "0x81b20b949c76192938368daaf1bb0a855ba2d79a0988d6372eb5c681471abd44",
                    "indexes" : {
                        "data" : 0,
                        "gas" : 0,
                        "value" : 0
                    },
                    "logs" : "0x1dcc4de8dec75d7aab85b567b6ccd41ad312451b948a7413f0a142fd40d49347",
                    "postState" : {
                        "0x2adc25665018aa1fe0e6bc666dac8fc2697ff9ba" : {
                            "balance" : "0x169130",
                            "code" : "0x",
                            "nonce" : "0x00",
                            "storage" : {
                            }
                        },
                        "0xa94f5374fce5edbc8e2a8697c15331677e6ebf0b" : {
                            "balance" : "0xffffffffffffffffffffffffffffffffffffffffffffffffffffffffffe6357f",
                            "code" : "0x",
                            "nonce" : "0x01",
                            "storage" : {
                            }
                        }
                    },
                    "txbytes" : "0xf86d805088100000000000000094b94f5374fce5edbc8e2a8697c15331677e6ebf0b808832403495489834541ba0ad09f36b8b3e242c628ba02751a13cebdbccc36ce52be40b18332e91eb6a8cb1a07381f8aa7848dc2650f37c3c559b4bcbceddf329939ce6e3bdd1e36781b0b746"
                }
            ],
            "Merge" : [
                {
                    "hash" : "0x81b20b949c76192938368daaf1bb0a855ba2d79a0988d6372eb5c681471abd44",
                    "indexes" : {
                        "data" : 0,
                        "gas" : 0,
                        "value" : 0
                    },
                    "logs" : "0x1dcc4de8dec75d7aab85b567b6ccd41ad312451b948a7413f0a142fd40d49347",
                    "postState" : {
                        "0x2adc25665018aa1fe0e6bc666dac8fc2697ff9ba" : {
                            "balance" : "0x169130",
                            "code" : "0x",
                            "nonce" : "0x00",
                            "storage" : {
                            }
                        },
                        "0xa94f5374fce5edbc8e2a8697c15331677e6ebf0b" : {
                            "balance" : "0xffffffffffffffffffffffffffffffffffffffffffffffffffffffffffe6357f",
                            "code" : "0x",
                            "nonce" : "0x01",
                            "storage" : {
                            }
                        }
                    },
                    "txbytes" : "0xf86d805088100000000000000094b94f5374fce5edbc8e2a8697c15331677e6ebf0b808832403495489834541ba0ad09f36b8b3e242c628ba02751a13cebdbccc36ce52be40b18332e91eb6a8cb1a07381f8aa7848dc2650f37c3c559b4bcbceddf329939ce6e3bdd1e36781b0b746"
                }
            ],
            "Shanghai" : [
                {
                    "hash" : "0x81b20b949c76192938368daaf1bb0a855ba2d79a0988d6372eb5c681471abd44",
                    "indexes" : {
                        "data" : 0,
                        "gas" : 0,
                        "value" : 0
                    },
                    "logs" : "0x1dcc4de8dec75d7aab85b567b6ccd41ad312451b948a7413f0a142fd40d49347",
                    "postState" : {
                        "0x2adc25665018aa1fe0e6bc666dac8fc2697ff9ba" : {
                            "balance" : "0x169130",
                            "code" : "0x",
                            "nonce" : "0x00",
                            "storage" : {
                            }
                        },
                        "0xa94f5374fce5edbc8e2a8697c15331677e6ebf0b" : {
                            "balance" : "0xffffffffffffffffffffffffffffffffffffffffffffffffffffffffffe6357f",
                            "code" : "0x",
                            "nonce" : "0x01",
                            "storage" : {
                            }
                        }
                    },
                    "txbytes" : "0xf86d805088100000000000000094b94f5374fce5edbc8e2a8697c15331677e6ebf0b808832403495489834541ba0ad09f36b8b3e242c628ba02751a13cebdbccc36ce52be40b18332e91eb6a8cb1a07381f8aa7848dc2650f37c3c559b4bcbceddf329939ce6e3bdd1e36781b0b746"
                }
            ]
        },
        "pre" : {
            "0xa94f5374fce5edbc8e2a8697c15331677e6ebf0b" : {
                "balance" : "0xffffffffffffffffffffffffffffffffffffffffffffffffffffffffffffffff",
                "code" : "0x",
                "nonce" : "0x00",
                "storage" : {
                }
            }
        },
        "transaction" : {
            "data" : [
                "0x3240349548983454"
            ],
            "gasLimit" : [
                "0x1000000000000000"
            ],
            "gasPrice" : "0x50",
            "nonce" : "0x00",
            "secretKey" : "0x45a915e4d060149eb4365960e6a7a45f334393093061116b197e3240065ff2d8",
            "sender" : "0xa94f5374fce5edbc8e2a8697c15331677e6ebf0b",
            "to" : "0xb94f5374fce5edbc8e2a8697c15331677e6ebf0b",
            "value" : [
                "0x00"
            ]
        }
    }
}