{
    "PointAtInfinityECRecover" : {
        "_info" : {
            "comment" : "",
            "filling-rpc-server" : "evm version 1.11.5-stable-a38f4108",
            "filling-tool-version" : "retesteth-0.3.0-shanghai+commit.e98b5e62.Linux.g++",
            "generatedTestHash" : "1ff0e35cf5259a3a100cd4bb871f51196c63c927b83aa33e6f977e2203bbe852",
            "lllcversion" : "Version: 0.5.14-develop.2023.8.28+commit.b2b86751.Linux.g++",
            "solidity" : "Version: 0.8.17+commit.8df45f5f.Linux.g++",
            "source" : "src/GeneralStateTestsFiller/stTransactionTest/PointAtInfinityECRecoverFiller.yml",
            "sourceHash" : "a0586ca00d3fa39cdc710a6d69ff6d8c91c50df69934afafb2fef3e204338aa6"
        },
        "env" : {
            "currentBaseFee" : "0x0a",
            "currentCoinbase" : "0x2adc25665018aa1fe0e6bc666dac8fc2697ff9ba",
            "currentDifficulty" : "0x020000",
            "currentGasLimit" : "0x05500000",
            "currentNumber" : "0x01",
            "currentRandom" : "0x0000000000000000000000000000000000000000000000000000000000020000",
            "currentTimestamp" : "0x03e8",
            "previousHash" : "0x5e20a0453cecd065ea59c37ac63e079ee08998b6045136a8ce6635c7912ec0b6"
        },
        "post" : {
            "Berlin" : [
                {
                    "hash" : "0x2a29476babd0b5725ae180cbb351e07f808662654b028d86ca6cccea52821cdd",
                    "indexes" : {
                        "data" : 0,
                        "gas" : 0,
                        "value" : 0
                    },
                    "logs" : "0x1dcc4de8dec75d7aab85b567b6ccd41ad312451b948a7413f0a142fd40d49347",
                    "postState" : {
                        "0x000000000000000000000000000000000000ff0a" : {
                            "balance" : "0xffffffff",
                            "code" : "0x7f6b8d2c81b11b2d699528dde488dbdf2f94293d0d33c32e347f255fa4a6c1f0a9600052601b6020527f79be667ef9dcbbac55a06295ce870b07029bfcdb2dce28d959f2815b16f817986040527f6b8d2c81b11b2d699528dde488dbdf2f94293d0d33c32e347f255fa4a6c1f0a96060526020600060806000806001620f4240f1600055600051600155",
                            "nonce" : "0x00",
                            "storage" : {
                                "0x00" : "0x01",
                                "0x01" : "0x6b8d2c81b11b2d699528dde488dbdf2f94293d0d33c32e347f255fa4a6c1f0a9"
                            }
                        },
                        "0x2adc25665018aa1fe0e6bc666dac8fc2697ff9ba" : {
                            "balance" : "0x0a6f22",
                            "code" : "0x",
                            "nonce" : "0x00",
                            "storage" : {
                            }
                        },
                        "0xa94f5374fce5edbc8e2a8697c15331677e6ebf0b" : {
                            "balance" : "0x0de0b6b3a75990de",
                            "code" : "0x",
                            "nonce" : "0x01",
                            "storage" : {
                            }
                        }
                    },
                    "txbytes" : "0xf860800a8398968094000000000000000000000000000000000000ff0a80801ca087a3a3a16259f6d19712a4066e1685ee514322be23a682d586e5091c6ebeb4a2a02ad425cbf21f2487fab7147553f9db6803b7c6da28b409d57fd8acec8f0350d3"
                }
            ],
            "London" : [
                {
                    "hash" : "0xa058f7c42c32228b936cbbdd3baf4e10ecfae5af766a803053ffb46f6b7f25f9",
                    "indexes" : {
                        "data" : 0,
                        "gas" : 0,
                        "value" : 0
                    },
                    "logs" : "0x1dcc4de8dec75d7aab85b567b6ccd41ad312451b948a7413f0a142fd40d49347",
                    "postState" : {
                        "0x000000000000000000000000000000000000ff0a" : {
                            "balance" : "0xffffffff",
                            "code" : "0x7f6b8d2c81b11b2d699528dde488dbdf2f94293d0d33c32e347f255fa4a6c1f0a9600052601b6020527f79be667ef9dcbbac55a06295ce870b07029bfcdb2dce28d959f2815b16f817986040527f6b8d2c81b11b2d699528dde488dbdf2f94293d0d33c32e347f255fa4a6c1f0a96060526020600060806000806001620f4240f1600055600051600155",
                            "nonce" : "0x00",
                            "storage" : {
                                "0x00" : "0x01",
                                "0x01" : "0x6b8d2c81b11b2d699528dde488dbdf2f94293d0d33c32e347f255fa4a6c1f0a9"
                            }
                        },
                        "0xa94f5374fce5edbc8e2a8697c15331677e6ebf0b" : {
                            "balance" : "0x0de0b6b3a75990de",
                            "code" : "0x",
                            "nonce" : "0x01",
                            "storage" : {
                            }
                        }
                    },
                    "txbytes" : "0xf860800a8398968094000000000000000000000000000000000000ff0a80801ca087a3a3a16259f6d19712a4066e1685ee514322be23a682d586e5091c6ebeb4a2a02ad425cbf21f2487fab7147553f9db6803b7c6da28b409d57fd8acec8f0350d3"
                }
            ],
            "Merge" : [
                {
                    "hash" : "0xa058f7c42c32228b936cbbdd3baf4e10ecfae5af766a803053ffb46f6b7f25f9",
                    "indexes" : {
                        "data" : 0,
                        "gas" : 0,
                        "value" : 0
                    },
                    "logs" : "0x1dcc4de8dec75d7aab85b567b6ccd41ad312451b948a7413f0a142fd40d49347",
                    "postState" : {
                        "0x000000000000000000000000000000000000ff0a" : {
                            "balance" : "0xffffffff",
                            "code" : "0x7f6b8d2c81b11b2d699528dde488dbdf2f94293d0d33c32e347f255fa4a6c1f0a9600052601b6020527f79be667ef9dcbbac55a06295ce870b07029bfcdb2dce28d959f2815b16f817986040527f6b8d2c81b11b2d699528dde488dbdf2f94293d0d33c32e347f255fa4a6c1f0a96060526020600060806000806001620f4240f1600055600051600155",
                            "nonce" : "0x00",
                            "storage" : {
                                "0x00" : "0x01",
                                "0x01" : "0x6b8d2c81b11b2d699528dde488dbdf2f94293d0d33c32e347f255fa4a6c1f0a9"
                            }
                        },
                        "0xa94f5374fce5edbc8e2a8697c15331677e6ebf0b" : {
                            "balance" : "0x0de0b6b3a75990de",
                            "code" : "0x",
                            "nonce" : "0x01",
                            "storage" : {
                            }
                        }
                    },
                    "txbytes" : "0xf860800a8398968094000000000000000000000000000000000000ff0a80801ca087a3a3a16259f6d19712a4066e1685ee514322be23a682d586e5091c6ebeb4a2a02ad425cbf21f2487fab7147553f9db6803b7c6da28b409d57fd8acec8f0350d3"
                }
            ],
            "Shanghai" : [
                {
                    "hash" : "0xa058f7c42c32228b936cbbdd3baf4e10ecfae5af766a803053ffb46f6b7f25f9",
                    "indexes" : {
                        "data" : 0,
                        "gas" : 0,
                        "value" : 0
                    },
                    "logs" : "0x1dcc4de8dec75d7aab85b567b6ccd41ad312451b948a7413f0a142fd40d49347",
                    "postState" : {
                        "0x000000000000000000000000000000000000ff0a" : {
                            "balance" : "0xffffffff",
                            "code" : "0x7f6b8d2c81b11b2d699528dde488dbdf2f94293d0d33c32e347f255fa4a6c1f0a9600052601b6020527f79be667ef9dcbbac55a06295ce870b07029bfcdb2dce28d959f2815b16f817986040527f6b8d2c81b11b2d699528dde488dbdf2f94293d0d33c32e347f255fa4a6c1f0a96060526020600060806000806001620f4240f1600055600051600155",
                            "nonce" : "0x00",
                            "storage" : {
                                "0x00" : "0x01",
                                "0x01" : "0x6b8d2c81b11b2d699528dde488dbdf2f94293d0d33c32e347f255fa4a6c1f0a9"
                            }
                        },
                        "0xa94f5374fce5edbc8e2a8697c15331677e6ebf0b" : {
                            "balance" : "0x0de0b6b3a75990de",
                            "code" : "0x",
                            "nonce" : "0x01",
                            "storage" : {
                            }
                        }
                    },
                    "txbytes" : "0xf860800a8398968094000000000000000000000000000000000000ff0a80801ca087a3a3a16259f6d19712a4066e1685ee514322be23a682d586e5091c6ebeb4a2a02ad425cbf21f2487fab7147553f9db6803b7c6da28b409d57fd8acec8f0350d3"
                }
            ]
        },
        "pre" : {
            "0x000000000000000000000000000000000000ff0a" : {
                "balance" : "0xffffffff",
                "code" : "0x7f6b8d2c81b11b2d699528dde488dbdf2f94293d0d33c32e347f255fa4a6c1f0a9600052601b6020527f79be667ef9dcbbac55a06295ce870b07029bfcdb2dce28d959f2815b16f817986040527f6b8d2c81b11b2d699528dde488dbdf2f94293d0d33c32e347f255fa4a6c1f0a96060526020600060806000806001620f4240f1600055600051600155",
                "nonce" : "0x00",
                "storage" : {
                }
            },
            "0xa94f5374fce5edbc8e2a8697c15331677e6ebf0b" : {
                "balance" : "0x0de0b6b3a7640000",
                "code" : "0x",
                "nonce" : "0x00",
                "storage" : {
                }
            }
        },
        "transaction" : {
            "data" : [
                "0x"
            ],
            "gasLimit" : [
                "0x989680"
            ],
            "gasPrice" : "0x0a",
            "nonce" : "0x00",
            "secretKey" : "0x45a915e4d060149eb4365960e6a7a45f334393093061116b197e3240065ff2d8",
            "sender" : "0xa94f5374fce5edbc8e2a8697c15331677e6ebf0b",
            "to" : "0x000000000000000000000000000000000000ff0a",
            "value" : [
                "0x00"
            ]
        }
    }
}