{
    "TransactionToAddressh160minusOne" : {
        "_info" : {
            "comment" : "",
            "filling-rpc-server" : "evm version 1.11.5-stable-a38f4108",
            "filling-tool-version" : "retesteth-0.3.0-shanghai+commit.e98b5e62.Linux.g++",
            "generatedTestHash" : "f9b85a5c5b2ee5a38ad9d9b5057b8a281b6b85166896893c8578089d93a96e7b",
            "lllcversion" : "Version: 0.5.14-develop.2023.8.28+commit.b2b86751.Linux.g++",
            "solidity" : "Version: 0.8.17+commit.8df45f5f.Linux.g++",
            "source" : "src/GeneralStateTestsFiller/stTransactionTest/TransactionToAddressh160minusOneFiller.json",
            "sourceHash" : "0f13d3ab953649f426b316a0f02e2105399d96f38c3b524758655706f585bb05"
        },
        "env" : {
            "currentBaseFee" : "0x0a",
            "currentCoinbase" : "0x2adc25665018aa1fe0e6bc666dac8fc2697ff9ba",
            "currentDifficulty" : "0x020000",
            "currentGasLimit" : "0x0186a0",
            "currentNumber" : "0x01",
            "currentRandom" : "0x0000000000000000000000000000000000000000000000000000000000020000",
            "currentTimestamp" : "0x03e8",
            "previousHash" : "0x5e20a0453cecd065ea59c37ac63e079ee08998b6045136a8ce6635c7912ec0b6"
        },
        "post" : {
            "Berlin" : [
                {
                    "hash" : "0x305bca8c15e75d5c01b1654c27f3c9e590ad8b6dab7e07dfbb2891f56e3f23a8",
                    "indexes" : {
                        "data" : 0,
                        "gas" : 0,
                        "value" : 0
                    },
                    "logs" : "0x1dcc4de8dec75d7aab85b567b6ccd41ad312451b948a7413f0a142fd40d49347",
                    "postState" : {
                        "0x2adc25665018aa1fe0e6bc666dac8fc2697ff9ba" : {
                            "balance" : "0x033450",
                            "code" : "0x",
                            "nonce" : "0x00",
                            "storage" : {
                            }
                        },
                        "0xa94f5374fce5edbc8e2a8697c15331677e6ebf0b" : {
                            "balance" : "0x3b97954c",
                            "code" : "0x",
                            "nonce" : "0x01",
                            "storage" : {
                            }
                        },
                        "0xffffffffffffffffffffffffffffffffffffffff" : {
                            "balance" : "0x64",
                            "code" : "0x",
                            "nonce" : "0x00",
                            "storage" : {
                            }
                        }
                    },
                    "txbytes" : "0xf85f800a8255f094ffffffffffffffffffffffffffffffffffffffff64801ba07e2f96effb8bc48ed3708db0a43166e56577e24b7e181ecc76e629ddbd01f50fa028957e58d13f85e52b1e13e7818c96c8f44ad05f38596ba3a5e055af04f9c55c"
                }
            ],
            "Istanbul" : [
                {
                    "hash" : "0x305bca8c15e75d5c01b1654c27f3c9e590ad8b6dab7e07dfbb2891f56e3f23a8",
                    "indexes" : {
                        "data" : 0,
                        "gas" : 0,
                        "value" : 0
                    },
                    "logs" : "0x1dcc4de8dec75d7aab85b567b6ccd41ad312451b948a7413f0a142fd40d49347",
                    "postState" : {
                        "0x2adc25665018aa1fe0e6bc666dac8fc2697ff9ba" : {
                            "balance" : "0x033450",
                            "code" : "0x",
                            "nonce" : "0x00",
                            "storage" : {
                            }
                        },
                        "0xa94f5374fce5edbc8e2a8697c15331677e6ebf0b" : {
                            "balance" : "0x3b97954c",
                            "code" : "0x",
                            "nonce" : "0x01",
                            "storage" : {
                            }
                        },
                        "0xffffffffffffffffffffffffffffffffffffffff" : {
                            "balance" : "0x64",
                            "code" : "0x",
                            "nonce" : "0x00",
                            "storage" : {
                            }
                        }
                    },
                    "txbytes" : "0xf85f800a8255f094ffffffffffffffffffffffffffffffffffffffff64801ba07e2f96effb8bc48ed3708db0a43166e56577e24b7e181ecc76e629ddbd01f50fa028957e58d13f85e52b1e13e7818c96c8f44ad05f38596ba3a5e055af04f9c55c"
                }
            ],
            "London" : [
                {
                    "hash" : "0x00d2b6d55a3ed914d6ac881d4488c7d0253ff598842d8a37ab4c02b772947f9c",
                    "indexes" : {
                        "data" : 0,
                        "gas" : 0,
                        "value" : 0
                    },
                    "logs" : "0x1dcc4de8dec75d7aab85b567b6ccd41ad312451b948a7413f0a142fd40d49347",
                    "postState" : {
                        "0xa94f5374fce5edbc8e2a8697c15331677e6ebf0b" : {
                            "balance" : "0x3b97954c",
                            "code" : "0x",
                            "nonce" : "0x01",
                            "storage" : {
                            }
                        },
                        "0xffffffffffffffffffffffffffffffffffffffff" : {
                            "balance" : "0x64",
                            "code" : "0x",
                            "nonce" : "0x00",
                            "storage" : {
                            }
                        }
                    },
                    "txbytes" : "0xf85f800a8255f094ffffffffffffffffffffffffffffffffffffffff64801ba07e2f96effb8bc48ed3708db0a43166e56577e24b7e181ecc76e629ddbd01f50fa028957e58d13f85e52b1e13e7818c96c8f44ad05f38596ba3a5e055af04f9c55c"
                }
            ],
            "Merge" : [
                {
                    "hash" : "0x00d2b6d55a3ed914d6ac881d4488c7d0253ff598842d8a37ab4c02b772947f9c",
                    "indexes" : {
                        "data" : 0,
                        "gas" : 0,
                        "value" : 0
                    },
                    "logs" : "0x1dcc4de8dec75d7aab85b567b6ccd41ad312451b948a7413f0a142fd40d49347",
                    "postState" : {
                        "0xa94f5374fce5edbc8e2a8697c15331677e6ebf0b" : {
                            "balance" : "0x3b97954c",
                            "code" : "0x",
                            "nonce" : "0x01",
                            "storage" : {
                            }
                        },
                        "0xffffffffffffffffffffffffffffffffffffffff" : {
                            "balance" : "0x64",
                            "code" : "0x",
                            "nonce" : "0x00",
                            "storage" : {
                            }
                        }
                    },
                    "txbytes" : "0xf85f800a8255f094ffffffffffffffffffffffffffffffffffffffff64801ba07e2f96effb8bc48ed3708db0a43166e56577e24b7e181ecc76e629ddbd01f50fa028957e58d13f85e52b1e13e7818c96c8f44ad05f38596ba3a5e055af04f9c55c"
                }
            ],
            "Shanghai" : [
                {
                    "hash" : "0x00d2b6d55a3ed914d6ac881d4488c7d0253ff598842d8a37ab4c02b772947f9c",
                    "indexes" : {
                        "data" : 0,
                        "gas" : 0,
                        "value" : 0
                    },
                    "logs" : "0x1dcc4de8dec75d7aab85b567b6ccd41ad312451b948a7413f0a142fd40d49347",
                    "postState" : {
                        "0xa94f5374fce5edbc8e2a8697c15331677e6ebf0b" : {
                            "balance" : "0x3b97954c",
                            "code" : "0x",
                            "nonce" : "0x01",
                            "storage" : {
                            }
                        },
                        "0xffffffffffffffffffffffffffffffffffffffff" : {
                            "balance" : "0x64",
                            "code" : "0x",
                            "nonce" : "0x00",
                            "storage" : {
                            }
                        }
                    },
                    "txbytes" : "0xf85f800a8255f094ffffffffffffffffffffffffffffffffffffffff64801ba07e2f96effb8bc48ed3708db0a43166e56577e24b7e181ecc76e629ddbd01f50fa028957e58d13f85e52b1e13e7818c96c8f44ad05f38596ba3a5e055af04f9c55c"
                }
            ]
        },
        "pre" : {
            "0xa94f5374fce5edbc8e2a8697c15331677e6ebf0b" : {
                "balance" : "0x3b9aca00",
                "code" : "0x",
                "nonce" : "0x00",
                "storage" : {
                }
            }
        },
        "transaction" : {
            "data" : [
                "0x"
            ],
            "gasLimit" : [
                "0x55f0"
            ],
            "gasPrice" : "0x0a",
            "nonce" : "0x00",
            "secretKey" : "0x45a915e4d060149eb4365960e6a7a45f334393093061116b197e3240065ff2d8",
            "sender" : "0xa94f5374fce5edbc8e2a8697c15331677e6ebf0b",
            "to" : "0xffffffffffffffffffffffffffffffffffffffff",
            "value" : [
                "0x64"
            ]
        }
    }
}