{
    "transactionIntinsicBug" : {
        "_info" : {
            "comment" : "Bug discovered on ropsten https://github.com/ethereum/go-ethereum/pull/23244/files",
            "filling-rpc-server" : "evm version 1.11.5-stable-a38f4108",
            "filling-tool-version" : "retesteth-0.3.0-shanghai+commit.e98b5e62.Linux.g++",
            "generatedTestHash" : "3737134bbee5f850f7dc85d1a9bc10ec99a7cf5a33c9c4370bdffe2e6a0b82cc",
            "labels" : {
                "0" : "declaredKeyWrite"
            },
            "lllcversion" : "Version: 0.5.14-develop.2023.8.28+commit.b2b86751.Linux.g++",
            "solidity" : "Version: 0.8.17+commit.8df45f5f.Linux.g++",
            "source" : "src/GeneralStateTestsFiller/stEIP1559/transactionIntinsicBugFiller.yml",
            "sourceHash" : "980e34ffb005fddb88825c8224d94a93fe65077bc811335f21729da8f1cd5be1"
        },
        "env" : {
            "currentBaseFee" : "0x14",
            "currentCoinbase" : "0x2adc25665018aa1fe0e6bc666dac8fc2697ff9ba",
            "currentDifficulty" : "0x020000",
            "currentGasLimit" : "0xff112233445566",
            "currentNumber" : "0x01",
            "currentRandom" : "0x0000000000000000000000000000000000000000000000000000000000020000",
            "currentTimestamp" : "0x03e8",
            "previousHash" : "0x5e20a0453cecd065ea59c37ac63e079ee08998b6045136a8ce6635c7912ec0b6"
        },
        "post" : {
            "London" : [
                {
                    "expectException" : "TR_NoFunds",
                    "hash" : "0xe437f23dde868903471ed39c52d5ddf14e0415c9db185d4f20f5c9de0f5209e8",
                    "indexes" : {
                        "data" : 0,
                        "gas" : 0,
                        "value" : 0
                    },
                    "logs" : "0x1dcc4de8dec75d7aab85b567b6ccd41ad312451b948a7413f0a142fd40d49347",
                    "postState" : {
                        "0xa94f5374fce5edbc8e2a8697c15331677e6ebf0b" : {
                            "balance" : "0x02faf094",
                            "code" : "0x",
                            "nonce" : "0x01",
                            "storage" : {
                            }
                        },
                        "0xcccccccccccccccccccccccccccccccccccccccc" : {
                            "balance" : "0x00",
                            "code" : "0x",
                            "nonce" : "0x00",
                            "storage" : {
                            }
                        }
                    },
                    "txbytes" : "0x02f8680101148203e882c35094cccccccccccccccccccccccccccccccccccccccc8402dc6c1400c001a07da1c307f31860a499caecb8ceea3c733f450b85ae26abb83fa0077a26d1384aa06276eee443d11a244396549532f6179aa11c9a1b917a632324f69b1d079eba09"
                }
            ],
            "Merge" : [
                {
                    "expectException" : "TR_NoFunds",
                    "hash" : "0xe437f23dde868903471ed39c52d5ddf14e0415c9db185d4f20f5c9de0f5209e8",
                    "indexes" : {
                        "data" : 0,
                        "gas" : 0,
                        "value" : 0
                    },
                    "logs" : "0x1dcc4de8dec75d7aab85b567b6ccd41ad312451b948a7413f0a142fd40d49347",
                    "postState" : {
                        "0xa94f5374fce5edbc8e2a8697c15331677e6ebf0b" : {
                            "balance" : "0x02faf094",
                            "code" : "0x",
                            "nonce" : "0x01",
                            "storage" : {
                            }
                        },
                        "0xcccccccccccccccccccccccccccccccccccccccc" : {
                            "balance" : "0x00",
                            "code" : "0x",
                            "nonce" : "0x00",
                            "storage" : {
                            }
                        }
                    },
                    "txbytes" : "0x02f8680101148203e882c35094cccccccccccccccccccccccccccccccccccccccc8402dc6c1400c001a07da1c307f31860a499caecb8ceea3c733f450b85ae26abb83fa0077a26d1384aa06276eee443d11a244396549532f6179aa11c9a1b917a632324f69b1d079eba09"
                }
            ],
            "Shanghai" : [
                {
                    "expectException" : "TR_NoFunds",
                    "hash" : "0xe437f23dde868903471ed39c52d5ddf14e0415c9db185d4f20f5c9de0f5209e8",
                    "indexes" : {
                        "data" : 0,
                        "gas" : 0,
                        "value" : 0
                    },
                    "logs" : "0x1dcc4de8dec75d7aab85b567b6ccd41ad312451b948a7413f0a142fd40d49347",
                    "postState" : {
                        "0xa94f5374fce5edbc8e2a8697c15331677e6ebf0b" : {
                            "balance" : "0x02faf094",
                            "code" : "0x",
                            "nonce" : "0x01",
                            "storage" : {
                            }
                        },
                        "0xcccccccccccccccccccccccccccccccccccccccc" : {
                            "balance" : "0x00",
                            "code" : "0x",
                            "nonce" : "0x00",
                            "storage" : {
                            }
                        }
                    },
                    "txbytes" : "0x02f8680101148203e882c35094cccccccccccccccccccccccccccccccccccccccc8402dc6c1400c001a07da1c307f31860a499caecb8ceea3c733f450b85ae26abb83fa0077a26d1384aa06276eee443d11a244396549532f6179aa11c9a1b917a632324f69b1d079eba09"
                }
            ]
        },
        "pre" : {
            "0xa94f5374fce5edbc8e2a8697c15331677e6ebf0b" : {
                "balance" : "0x02faf094",
                "code" : "0x",
                "nonce" : "0x01",
                "storage" : {
                }
            },
            "0xcccccccccccccccccccccccccccccccccccccccc" : {
                "balance" : "0x00",
                "code" : "0x",
                "nonce" : "0x00",
                "storage" : {
                }
            }
        },
        "transaction" : {
            "accessLists" : [
                [
                ]
            ],
            "data" : [
                "0x00"
            ],
            "gasLimit" : [
                "0xc350"
            ],
            "maxFeePerGas" : "0x03e8",
            "maxPriorityFeePerGas" : "0x14",
            "nonce" : "0x01",
            "secretKey" : "0x45a915e4d060149eb4365960e6a7a45f334393093061116b197e3240065ff2d8",
            "sender" : "0xa94f5374fce5edbc8e2a8697c15331677e6ebf0b",
            "to" : "0xcccccccccccccccccccccccccccccccccccccccc",
            "value" : [
                "0x02dc6c14"
            ]
        }
    }
}