{
    "expPower2" : {
        "_info" : {
            "comment" : "Ori Pomerantz qbzzt1@gmail.com",
            "filling-rpc-server" : "evm version 1.11.5-stable-a38f4108",
            "filling-tool-version" : "retesteth-0.3.0-shanghai+commit.e98b5e62.Linux.g++",
            "generatedTestHash" : "6cc03502e24aa243cd9bf066384fdc6fe7bd0c8bc19fcdd52c3dafae7bbc673c",
            "lllcversion" : "Version: 0.5.14-develop.2023.8.28+commit.b2b86751.Linux.g++",
            "solidity" : "Version: 0.8.17+commit.8df45f5f.Linux.g++",
            "source" : "src/GeneralStateTestsFiller/VMTests/vmArithmeticTest/expPower2Filler.yml",
            "sourceHash" : "5f77c7301c14b571ef04da03ac13cf5adb79e8a55cbffcd323834d9e904e1604"
        },
        "env" : {
            "currentBaseFee" : "0x0a",
            "currentCoinbase" : "0x2adc25665018aa1fe0e6bc666dac8fc2697ff9ba",
            "currentDifficulty" : "0x020000",
            "currentGasLimit" : "0x05f5e100",
            "currentNumber" : "0x01",
            "currentRandom" : "0x0000000000000000000000000000000000000000000000000000000000020000",
            "currentTimestamp" : "0x03e8",
            "previousHash" : "0x5e20a0453cecd065ea59c37ac63e079ee08998b6045136a8ce6635c7912ec0b6"
        },
        "post" : {
            "Berlin" : [
                {
                    "hash" : "0x418d12567a74d5c0f0b922781465afc8a7cdd673b16e4390cf7bee53bd3f99f9",
                    "indexes" : {
                        "data" : 0,
                        "gas" : 0,
                        "value" : 0
                    },
                    "logs" : "0x1dcc4de8dec75d7aab85b567b6ccd41ad312451b948a7413f0a142fd40d49347",
                    "postState" : {
                        "0x2adc25665018aa1fe0e6bc666dac8fc2697ff9ba" : {
                            "balance" : "0x4ea688",
                            "code" : "0x",
                            "nonce" : "0x00",
                            "storage" : {
                            }
                        },
                        "0xa94f5374fce5edbc8e2a8697c15331677e6ebf0b" : {
                            "balance" : "0x0ba1a9ce0b530345",
                            "code" : "0x",
                            "nonce" : "0x01",
                            "storage" : {
                            }
                        },
                        "0xcccccccccccccccccccccccccccccccccccccccc" : {
                            "balance" : "0x0ba1a9ce0ba1a9cf",
                            "code" : "0x600160020a60020a6001601002556001600160020a0360020a6001600160100201556001600160020a0160020a600260016010020155600260020a60020a6002601002556001600260020a0360020a6001600260100201556001600260020a0160020a600260026010020155600360020a60020a6003601002556001600360020a0360020a6001600360100201556001600360020a0160020a600260036010020155600460020a60020a6004601002556001600460020a0360020a6001600460100201556001600460020a0160020a600260046010020155600560020a60020a6005601002556001600560020a0360020a6001600560100201556001600560020a0160020a600260056010020155600660020a60020a6006601002556001600660020a0360020a6001600660100201556001600660020a0160020a600260066010020155600760020a60020a6007601002556001600760020a0360020a6001600760100201556001600760020a0160020a600260076010020155600860020a60020a6008601002556001600860020a0360020a6001600860100201556001600860020a0160020a60026008601002015500",
                            "nonce" : "0x00",
                            "storage" : {
                                "0x10" : "0x04",
                                "0x11" : "0x02",
                                "0x12" : "0x08",
                                "0x20" : "0x10",
                                "0x21" : "0x08",
                                "0x22" : "0x20",
                                "0x30" : "0x0100",
                                "0x31" : "0x80",
                                "0x32" : "0x0200",
                                "0x40" : "0x010000",
                                "0x41" : "0x8000",
                                "0x42" : "0x020000",
                                "0x50" : "0x0100000000",
                                "0x51" : "0x80000000",
                                "0x52" : "0x0200000000",
                                "0x60" : "0x010000000000000000",
                                "0x61" : "0x8000000000000000",
                                "0x62" : "0x020000000000000000",
                                "0x70" : "0x0100000000000000000000000000000000",
                                "0x71" : "0x80000000000000000000000000000000",
                                "0x72" : "0x0200000000000000000000000000000000",
                                "0x81" : "0x8000000000000000000000000000000000000000000000000000000000000000"
                            }
                        }
                    },
                    "txbytes" : "0xf885800a8404c4b40094cccccccccccccccccccccccccccccccccccccccc01a4693c613900000000000000000000000000000000000000000000000000000000000000001ba0e8ff56322287185f6afd3422a825b47bf5c1a4ccf0dc0389cdc03f7c1c32b7eaa0776b02f9f5773238d3ff36b74a123f409cd6420908d7855bbe4c8ff63e00d698"
                }
            ],
            "Istanbul" : [
                {
                    "hash" : "0x91c59f70e320fcb9c4bbb1eb38d9152034e9ee83bc8b61f53e7922fc608dae1a",
                    "indexes" : {
                        "data" : 0,
                        "gas" : 0,
                        "value" : 0
                    },
                    "logs" : "0x1dcc4de8dec75d7aab85b567b6ccd41ad312451b948a7413f0a142fd40d49347",
                    "postState" : {
                        "0x2adc25665018aa1fe0e6bc666dac8fc2697ff9ba" : {
                            "balance" : "0x472c78",
                            "code" : "0x",
                            "nonce" : "0x00",
                            "storage" : {
                            }
                        },
                        "0xa94f5374fce5edbc8e2a8697c15331677e6ebf0b" : {
                            "balance" : "0x0ba1a9ce0b5a7d55",
                            "code" : "0x",
                            "nonce" : "0x01",
                            "storage" : {
                            }
                        },
                        "0xcccccccccccccccccccccccccccccccccccccccc" : {
                            "balance" : "0x0ba1a9ce0ba1a9cf",
                            "code" : "0x600160020a60020a6001601002556001600160020a0360020a6001600160100201556001600160020a0160020a600260016010020155600260020a60020a6002601002556001600260020a0360020a6001600260100201556001600260020a0160020a600260026010020155600360020a60020a6003601002556001600360020a0360020a6001600360100201556001600360020a0160020a600260036010020155600460020a60020a6004601002556001600460020a0360020a6001600460100201556001600460020a0160020a600260046010020155600560020a60020a6005601002556001600560020a0360020a6001600560100201556001600560020a0160020a600260056010020155600660020a60020a6006601002556001600660020a0360020a6001600660100201556001600660020a0160020a600260066010020155600760020a60020a6007601002556001600760020a0360020a6001600760100201556001600760020a0160020a600260076010020155600860020a60020a6008601002556001600860020a0360020a6001600860100201556001600860020a0160020a60026008601002015500",
                            "nonce" : "0x00",
                            "storage" : {
                                "0x10" : "0x04",
                                "0x11" : "0x02",
                                "0x12" : "0x08",
                                "0x20" : "0x10",
                                "0x21" : "0x08",
                                "0x22" : "0x20",
                                "0x30" : "0x0100",
                                "0x31" : "0x80",
                                "0x32" : "0x0200",
                                "0x40" : "0x010000",
                                "0x41" : "0x8000",
                                "0x42" : "0x020000",
                                "0x50" : "0x0100000000",
                                "0x51" : "0x80000000",
                                "0x52" : "0x0200000000",
                                "0x60" : "0x010000000000000000",
                                "0x61" : "0x8000000000000000",
                                "0x62" : "0x020000000000000000",
                                "0x70" : "0x0100000000000000000000000000000000",
                                "0x71" : "0x80000000000000000000000000000000",
                                "0x72" : "0x0200000000000000000000000000000000",
                                "0x81" : "0x8000000000000000000000000000000000000000000000000000000000000000"
                            }
                        }
                    },
                    "txbytes" : "0xf885800a8404c4b40094cccccccccccccccccccccccccccccccccccccccc01a4693c613900000000000000000000000000000000000000000000000000000000000000001ba0e8ff56322287185f6afd3422a825b47bf5c1a4ccf0dc0389cdc03f7c1c32b7eaa0776b02f9f5773238d3ff36b74a123f409cd6420908d7855bbe4c8ff63e00d698"
                }
            ],
            "London" : [
                {
                    "hash" : "0xf05338920ed32079c1b83632b527a796385ceba9ac0b5cb92826a8419585dec0",
                    "indexes" : {
                        "data" : 0,
                        "gas" : 0,
                        "value" : 0
                    },
                    "logs" : "0x1dcc4de8dec75d7aab85b567b6ccd41ad312451b948a7413f0a142fd40d49347",
                    "postState" : {
                        "0xa94f5374fce5edbc8e2a8697c15331677e6ebf0b" : {
                            "balance" : "0x0ba1a9ce0b530345",
                            "code" : "0x",
                            "nonce" : "0x01",
                            "storage" : {
                            }
                        },
                        "0xcccccccccccccccccccccccccccccccccccccccc" : {
                            "balance" : "0x0ba1a9ce0ba1a9cf",
                            "code" : "0x600160020a60020a6001601002556001600160020a0360020a6001600160100201556001600160020a0160020a600260016010020155600260020a60020a6002601002556001600260020a0360020a6001600260100201556001600260020a0160020a600260026010020155600360020a60020a6003601002556001600360020a0360020a6001600360100201556001600360020a0160020a600260036010020155600460020a60020a6004601002556001600460020a0360020a6001600460100201556001600460020a0160020a600260046010020155600560020a60020a6005601002556001600560020a0360020a6001600560100201556001600560020a0160020a600260056010020155600660020a60020a6006601002556001600660020a0360020a6001600660100201556001600660020a0160020a600260066010020155600760020a60020a6007601002556001600760020a0360020a6001600760100201556001600760020a0160020a600260076010020155600860020a60020a6008601002556001600860020a0360020a6001600860100201556001600860020a0160020a60026008601002015500",
                            "nonce" : "0x00",
                            "storage" : {
                                "0x10" : "0x04",
                                "0x11" : "0x02",
                                "0x12" : "0x08",
                                "0x20" : "0x10",
                                "0x21" : "0x08",
                                "0x22" : "0x20",
                                "0x30" : "0x0100",
                                "0x31" : "0x80",
                                "0x32" : "0x0200",
                                "0x40" : "0x010000",
                                "0x41" : "0x8000",
                                "0x42" : "0x020000",
                                "0x50" : "0x0100000000",
                                "0x51" : "0x80000000",
                                "0x52" : "0x0200000000",
                                "0x60" : "0x010000000000000000",
                                "0x61" : "0x8000000000000000",
                                "0x62" : "0x020000000000000000",
                                "0x70" : "0x0100000000000000000000000000000000",
                                "0x71" : "0x80000000000000000000000000000000",
                                "0x72" : "0x0200000000000000000000000000000000",
                                "0x81" : "0x8000000000000000000000000000000000000000000000000000000000000000"
                            }
                        }
                    },
                    "txbytes" : "0xf885800a8404c4b40094cccccccccccccccccccccccccccccccccccccccc01a4693c613900000000000000000000000000000000000000000000000000000000000000001ba0e8ff56322287185f6afd3422a825b47bf5c1a4ccf0dc0389cdc03f7c1c32b7eaa0776b02f9f5773238d3ff36b74a123f409cd6420908d7855bbe4c8ff63e00d698"
                }
            ],
            "Merge" : [
                {
                    "hash" : "0xf05338920ed32079c1b83632b527a796385ceba9ac0b5cb92826a8419585dec0",
                    "indexes" : {
                        "data" : 0,
                        "gas" : 0,
                        "value" : 0
                    },
                    "logs" : "0x1dcc4de8dec75d7aab85b567b6ccd41ad312451b948a7413f0a142fd40d49347",
                    "postState" : {
                        "0xa94f5374fce5edbc8e2a8697c15331677e6ebf0b" : {
                            "balance" : "0x0ba1a9ce0b530345",
                            "code" : "0x",
                            "nonce" : "0x01",
                            "storage" : {
                            }
                        },
                        "0xcccccccccccccccccccccccccccccccccccccccc" : {
                            "balance" : "0x0ba1a9ce0ba1a9cf",
                            "code" : "0x600160020a60020a6001601002556001600160020a0360020a6001600160100201556001600160020a0160020a600260016010020155600260020a60020a6002601002556001600260020a0360020a6001600260100201556001600260020a0160020a600260026010020155600360020a60020a6003601002556001600360020a0360020a6001600360100201556001600360020a0160020a600260036010020155600460020a60020a6004601002556001600460020a0360020a6001600460100201556001600460020a0160020a600260046010020155600560020a60020a6005601002556001600560020a0360020a6001600560100201556001600560020a0160020a600260056010020155600660020a60020a6006601002556001600660020a0360020a6001600660100201556001600660020a0160020a600260066010020155600760020a60020a6007601002556001600760020a0360020a6001600760100201556001600760020a0160020a600260076010020155600860020a60020a6008601002556001600860020a0360020a6001600860100201556001600860020a0160020a60026008601002015500",
                            "nonce" : "0x00",
                            "storage" : {
                                "0x10" : "0x04",
                                "0x11" : "0x02",
                                "0x12" : "0x08",
                                "0x20" : "0x10",
                                "0x21" : "0x08",
                                "0x22" : "0x20",
                                "0x30" : "0x0100",
                                "0x31" : "0x80",
                                "0x32" : "0x0200",
                                "0x40" : "0x010000",
                                "0x41" : "0x8000",
                                "0x42" : "0x020000",
                                "0x50" : "0x0100000000",
                                "0x51" : "0x80000000",
                                "0x52" : "0x0200000000",
                                "0x60" : "0x010000000000000000",
                                "0x61" : "0x8000000000000000",
                                "0x62" : "0x020000000000000000",
                                "0x70" : "0x0100000000000000000000000000000000",
                                "0x71" : "0x80000000000000000000000000000000",
                                "0x72" : "0x0200000000000000000000000000000000",
                                "0x81" : "0x8000000000000000000000000000000000000000000000000000000000000000"
                            }
                        }
                    },
                    "txbytes" : "0xf885800a8404c4b40094cccccccccccccccccccccccccccccccccccccccc01a4693c613900000000000000000000000000000000000000000000000000000000000000001ba0e8ff56322287185f6afd3422a825b47bf5c1a4ccf0dc0389cdc03f7c1c32b7eaa0776b02f9f5773238d3ff36b74a123f409cd6420908d7855bbe4c8ff63e00d698"
                }
            ],
            "Shanghai" : [
                {
                    "hash" : "0xf05338920ed32079c1b83632b527a796385ceba9ac0b5cb92826a8419585dec0",
                    "indexes" : {
                        "data" : 0,
                        "gas" : 0,
                        "value" : 0
                    },
                    "logs" : "0x1dcc4de8dec75d7aab85b567b6ccd41ad312451b948a7413f0a142fd40d49347",
                    "postState" : {
                        "0xa94f5374fce5edbc8e2a8697c15331677e6ebf0b" : {
                            "balance" : "0x0ba1a9ce0b530345",
                            "code" : "0x",
                            "nonce" : "0x01",
                            "storage" : {
                            }
                        },
                        "0xcccccccccccccccccccccccccccccccccccccccc" : {
                            "balance" : "0x0ba1a9ce0ba1a9cf",
                            "code" : "0x600160020a60020a6001601002556001600160020a0360020a6001600160100201556001600160020a0160020a600260016010020155600260020a60020a6002601002556001600260020a0360020a6001600260100201556001600260020a0160020a600260026010020155600360020a60020a6003601002556001600360020a0360020a6001600360100201556001600360020a0160020a600260036010020155600460020a60020a6004601002556001600460020a0360020a6001600460100201556001600460020a0160020a600260046010020155600560020a60020a6005601002556001600560020a0360020a6001600560100201556001600560020a0160020a600260056010020155600660020a60020a6006601002556001600660020a0360020a6001600660100201556001600660020a0160020a600260066010020155600760020a60020a6007601002556001600760020a0360020a6001600760100201556001600760020a0160020a600260076010020155600860020a60020a6008601002556001600860020a0360020a6001600860100201556001600860020a0160020a60026008601002015500",
                            "nonce" : "0x00",
                            "storage" : {
                                "0x10" : "0x04",
                                "0x11" : "0x02",
                                "0x12" : "0x08",
                                "0x20" : "0x10",
                                "0x21" : "0x08",
                                "0x22" : "0x20",
                                "0x30" : "0x0100",
                                "0x31" : "0x80",
                                "0x32" : "0x0200",
                                "0x40" : "0x010000",
                                "0x41" : "0x8000",
                                "0x42" : "0x020000",
                                "0x50" : "0x0100000000",
                                "0x51" : "0x80000000",
                                "0x52" : "0x0200000000",
                                "0x60" : "0x010000000000000000",
                                "0x61" : "0x8000000000000000",
                                "0x62" : "0x020000000000000000",
                                "0x70" : "0x0100000000000000000000000000000000",
                                "0x71" : "0x80000000000000000000000000000000",
                                "0x72" : "0x0200000000000000000000000000000000",
                                "0x81" : "0x8000000000000000000000000000000000000000000000000000000000000000"
                            }
                        }
                    },
                    "txbytes" : "0xf885800a8404c4b40094cccccccccccccccccccccccccccccccccccccccc01a4693c613900000000000000000000000000000000000000000000000000000000000000001ba0e8ff56322287185f6afd3422a825b47bf5c1a4ccf0dc0389cdc03f7c1c32b7eaa0776b02f9f5773238d3ff36b74a123f409cd6420908d7855bbe4c8ff63e00d698"
                }
            ]
        },
        "pre" : {
            "0xa94f5374fce5edbc8e2a8697c15331677e6ebf0b" : {
                "balance" : "0x0ba1a9ce0ba1a9ce",
                "code" : "0x",
                "nonce" : "0x00",
                "storage" : {
                }
            },
            "0xcccccccccccccccccccccccccccccccccccccccc" : {
                "balance" : "0x0ba1a9ce0ba1a9ce",
                "code" : "0x600160020a60020a6001601002556001600160020a0360020a6001600160100201556001600160020a0160020a600260016010020155600260020a60020a6002601002556001600260020a0360020a6001600260100201556001600260020a0160020a600260026010020155600360020a60020a6003601002556001600360020a0360020a6001600360100201556001600360020a0160020a600260036010020155600460020a60020a6004601002556001600460020a0360020a6001600460100201556001600460020a0160020a600260046010020155600560020a60020a6005601002556001600560020a0360020a6001600560100201556001600560020a0160020a600260056010020155600660020a60020a6006601002556001600660020a0360020a6001600660100201556001600660020a0160020a600260066010020155600760020a60020a6007601002556001600760020a0360020a6001600760100201556001600760020a0160020a600260076010020155600860020a60020a6008601002556001600860020a0360020a6001600860100201556001600860020a0160020a60026008601002015500",
                "nonce" : "0x00",
                "storage" : {
                }
            }
        },
        "transaction" : {
            "data" : [
                "0x693c61390000000000000000000000000000000000000000000000000000000000000000"
            ],
            "gasLimit" : [
                "0x04c4b400"
            ],
            "gasPrice" : "0x0a",
            "nonce" : "0x00",
            "secretKey" : "0x45a915e4d060149eb4365960e6a7a45f334393093061116b197e3240065ff2d8",
            "sender" : "0xa94f5374fce5edbc8e2a8697c15331677e6ebf0b",
            "to" : "0xcccccccccccccccccccccccccccccccccccccccc",
            "value" : [
                "0x01"
            ]
        }
    }
}