{
    "sstoreGas" : {
        "_info" : {
            "comment" : "Ori Pomerantz qbzzt1@gmail.com",
            "filling-rpc-server" : "evm version 1.10.16-unstable-1884f37f-20220107",
            "filling-tool-version" : "retesteth-0.2.1-difficulty+commit.37dfbbcd.Linux.g++",
            "generatedTestHash" : "caa551f6e192e2c0b9484f164797bbe3566adaa53beea46557b24e35a19d8102",
            "lllcversion" : "Version: 0.5.14-develop.2022.1.7+commit.401d5358.Linux.g++",
            "source" : "src/GeneralStateTestsFiller/stSStoreTest/sstoreGasFiller.yml",
            "sourceHash" : "363f4232ca44bac96a10025fa47e6f475cad0b58c02450bfb1e046595bd87ead"
        },
        "env" : {
            "currentBaseFee" : "0x0a",
            "currentCoinbase" : "0x2adc25665018aa1fe0e6bc666dac8fc2697ff9ba",
            "currentDifficulty" : "0x020000",
            "currentGasLimit" : "0x05f5e100",
            "currentNumber" : "0x01",
            "currentTimestamp" : "0x03e8",
            "previousHash" : "0x5e20a0453cecd065ea59c37ac63e079ee08998b6045136a8ce6635c7912ec0b6"
        },
        "post" : {
            "Berlin" : [
                {
                    "hash" : "0x0e4ea2baac66bdb733838292cebf6a66019b899954f46588db970a343c67a835",
                    "indexes" : {
                        "data" : 0,
                        "gas" : 0,
                        "value" : 0
                    },
                    "logs" : "0x1dcc4de8dec75d7aab85b567b6ccd41ad312451b948a7413f0a142fd40d49347",
                    "postState" : {
                        "0x2adc25665018aa1fe0e6bc666dac8fc2697ff9ba" : {
                            "balance" : "0x1f63a0",
                            "code" : "0x",
                            "nonce" : "0x00",
                            "storage" : {
                            }
                        },
                        "0xa94f5374fce5edbc8e2a8697c15331677e6ebf0b" : {
                            "balance" : "0x0ba1a9ce0b82462e",
                            "code" : "0x",
                            "nonce" : "0x02",
                            "storage" : {
                            }
                        },
                        "0xcccccccccccccccccccccccccccccccccccccccc" : {
                            "balance" : "0x0ba1a9ce0ba1a9ce",
                            "code" : "0x611000600d600060005a915061beef6000555a9050828183030384556001840193505a915063deadbeef6000555a9050828183030384556001840193505a915060006000555a9050828183030384556001840193505a915060006000555a9050828183030384556001840193505a91506112346000555a9050828183030384556001840193505a915060006001555a9050828183030384556001840193505a91506160a76002555a9050828183030384556001840193505a915060006003555a9050828183030384556001840193505a91506160a76003555a905082818303038455600184019350600060005560006001556000600255600060035550505050",
                            "nonce" : "0x01",
                            "storage" : {
                                "0x1000" : "0x1388",
                                "0x1001" : "0x64",
                                "0x1002" : "0x64",
                                "0x1003" : "0x64",
                                "0x1004" : "0x64",
                                "0x1005" : "0x1388",
                                "0x1006" : "0x5654",
                                "0x1007" : "0x0898",
                                "0x1008" : "0x4e20"
                            }
                        }
                    },
                    "txbytes" : "0xf861010a8404c4b40094cccccccccccccccccccccccccccccccccccccccc80801ca0c350b3ab798c002a04635a82701307f1b6e07b2c432882028e8b7f03c3f18ff0a00a3bfc55ed560aacaee7792898bcb24517d26cbe685eec81ab9cef15ef1621ab"
                }
            ],
            "Constantinople" : [
                {
                    "hash" : "0xe1306b8b35f41eb6027497b15b3387417c22cfadfeb666bdf05aef410ce90354",
                    "indexes" : {
                        "data" : 0,
                        "gas" : 0,
                        "value" : 0
                    },
                    "logs" : "0x1dcc4de8dec75d7aab85b567b6ccd41ad312451b948a7413f0a142fd40d49347",
                    "postState" : {
                        "0x2adc25665018aa1fe0e6bc666dac8fc2697ff9ba" : {
                            "balance" : "0x1c0840",
                            "code" : "0x",
                            "nonce" : "0x00",
                            "storage" : {
                            }
                        },
                        "0xa94f5374fce5edbc8e2a8697c15331677e6ebf0b" : {
                            "balance" : "0x0ba1a9ce0b85a18e",
                            "code" : "0x",
                            "nonce" : "0x02",
                            "storage" : {
                            }
                        },
                        "0xcccccccccccccccccccccccccccccccccccccccc" : {
                            "balance" : "0x0ba1a9ce0ba1a9ce",
                            "code" : "0x611000600d600060005a915061beef6000555a9050828183030384556001840193505a915063deadbeef6000555a9050828183030384556001840193505a915060006000555a9050828183030384556001840193505a915060006000555a9050828183030384556001840193505a91506112346000555a9050828183030384556001840193505a915060006001555a9050828183030384556001840193505a91506160a76002555a9050828183030384556001840193505a915060006003555a9050828183030384556001840193505a91506160a76003555a905082818303038455600184019350600060005560006001556000600255600060035550505050",
                            "nonce" : "0x01",
                            "storage" : {
                                "0x1000" : "0x1388",
                                "0x1001" : "0xc8",
                                "0x1002" : "0xc8",
                                "0x1003" : "0xc8",
                                "0x1004" : "0xc8",
                                "0x1005" : "0x1388",
                                "0x1006" : "0x4e20",
                                "0x1007" : "0xc8",
                                "0x1008" : "0x4e20"
                            }
                        }
                    },
                    "txbytes" : "0xf861010a8404c4b40094cccccccccccccccccccccccccccccccccccccccc80801ca0c350b3ab798c002a04635a82701307f1b6e07b2c432882028e8b7f03c3f18ff0a00a3bfc55ed560aacaee7792898bcb24517d26cbe685eec81ab9cef15ef1621ab"
                }
            ],
            "Istanbul" : [
                {
                    "hash" : "0x8d5c4140f60d47c4b52caba512661032db0898ce615d2cf564833aae83dd2eca",
                    "indexes" : {
                        "data" : 0,
                        "gas" : 0,
                        "value" : 0
                    },
                    "logs" : "0x1dcc4de8dec75d7aab85b567b6ccd41ad312451b948a7413f0a142fd40d49347",
                    "postState" : {
                        "0x2adc25665018aa1fe0e6bc666dac8fc2697ff9ba" : {
                            "balance" : "0x1d0a10",
                            "code" : "0x",
                            "nonce" : "0x00",
                            "storage" : {
                            }
                        },
                        "0xa94f5374fce5edbc8e2a8697c15331677e6ebf0b" : {
                            "balance" : "0x0ba1a9ce0b849fbe",
                            "code" : "0x",
                            "nonce" : "0x02",
                            "storage" : {
                            }
                        },
                        "0xcccccccccccccccccccccccccccccccccccccccc" : {
                            "balance" : "0x0ba1a9ce0ba1a9ce",
                            "code" : "0x611000600d600060005a915061beef6000555a9050828183030384556001840193505a915063deadbeef6000555a9050828183030384556001840193505a915060006000555a9050828183030384556001840193505a915060006000555a9050828183030384556001840193505a91506112346000555a9050828183030384556001840193505a915060006001555a9050828183030384556001840193505a91506160a76002555a9050828183030384556001840193505a915060006003555a9050828183030384556001840193505a91506160a76003555a905082818303038455600184019350600060005560006001556000600255600060035550505050",
                            "nonce" : "0x01",
                            "storage" : {
                                "0x1000" : "0x1388",
                                "0x1001" : "0x0320",
                                "0x1002" : "0x0320",
                                "0x1003" : "0x0320",
                                "0x1004" : "0x0320",
                                "0x1005" : "0x1388",
                                "0x1006" : "0x4e20",
                                "0x1007" : "0x0320",
                                "0x1008" : "0x4e20"
                            }
                        }
                    },
                    "txbytes" : "0xf861010a8404c4b40094cccccccccccccccccccccccccccccccccccccccc80801ca0c350b3ab798c002a04635a82701307f1b6e07b2c432882028e8b7f03c3f18ff0a00a3bfc55ed560aacaee7792898bcb24517d26cbe685eec81ab9cef15ef1621ab"
                }
            ],
            "London" : [
                {
                    "hash" : "0xbe59d31f8431695d00be4930bb9676d2501cd1476b5af50bd68207a15acd8a33",
                    "indexes" : {
                        "data" : 0,
                        "gas" : 0,
                        "value" : 0
                    },
                    "logs" : "0x1dcc4de8dec75d7aab85b567b6ccd41ad312451b948a7413f0a142fd40d49347",
                    "postState" : {
                        "0xa94f5374fce5edbc8e2a8697c15331677e6ebf0b" : {
                            "balance" : "0x0ba1a9ce0b7f294e",
                            "code" : "0x",
                            "nonce" : "0x02",
                            "storage" : {
                            }
                        },
                        "0xcccccccccccccccccccccccccccccccccccccccc" : {
                            "balance" : "0x0ba1a9ce0ba1a9ce",
                            "code" : "0x611000600d600060005a915061beef6000555a9050828183030384556001840193505a915063deadbeef6000555a9050828183030384556001840193505a915060006000555a9050828183030384556001840193505a915060006000555a9050828183030384556001840193505a91506112346000555a9050828183030384556001840193505a915060006001555a9050828183030384556001840193505a91506160a76002555a9050828183030384556001840193505a915060006003555a9050828183030384556001840193505a91506160a76003555a905082818303038455600184019350600060005560006001556000600255600060035550505050",
                            "nonce" : "0x01",
                            "storage" : {
                                "0x1000" : "0x1388",
                                "0x1001" : "0x64",
                                "0x1002" : "0x64",
                                "0x1003" : "0x64",
                                "0x1004" : "0x64",
                                "0x1005" : "0x1388",
                                "0x1006" : "0x5654",
                                "0x1007" : "0x0898",
                                "0x1008" : "0x4e20"
                            }
                        }
                    },
                    "txbytes" : "0xf861010a8404c4b40094cccccccccccccccccccccccccccccccccccccccc80801ca0c350b3ab798c002a04635a82701307f1b6e07b2c432882028e8b7f03c3f18ff0a00a3bfc55ed560aacaee7792898bcb24517d26cbe685eec81ab9cef15ef1621ab"
                }
            ]
        },
        "pre" : {
            "0xa94f5374fce5edbc8e2a8697c15331677e6ebf0b" : {
                "balance" : "0x0ba1a9ce0ba1a9ce",
                "code" : "0x",
                "nonce" : "0x01",
                "storage" : {
                }
            },
            "0xcccccccccccccccccccccccccccccccccccccccc" : {
                "balance" : "0x0ba1a9ce0ba1a9ce",
                "code" : "0x611000600d600060005a915061beef6000555a9050828183030384556001840193505a915063deadbeef6000555a9050828183030384556001840193505a915060006000555a9050828183030384556001840193505a915060006000555a9050828183030384556001840193505a91506112346000555a9050828183030384556001840193505a915060006001555a9050828183030384556001840193505a91506160a76002555a9050828183030384556001840193505a915060006003555a9050828183030384556001840193505a91506160a76003555a905082818303038455600184019350600060005560006001556000600255600060035550505050",
                "nonce" : "0x01",
                "storage" : {
                    "0x00" : "0x60a7",
                    "0x01" : "0x60a7"
                }
            }
        },
        "transaction" : {
            "data" : [
                "0x"
            ],
            "gasLimit" : [
                "0x04c4b400"
            ],
            "gasPrice" : "0x0a",
            "nonce" : "0x01",
            "secretKey" : "0x45a915e4d060149eb4365960e6a7a45f334393093061116b197e3240065ff2d8",
            "to" : "0xcccccccccccccccccccccccccccccccccccccccc",
            "value" : [
                "0x00"
            ]
        }
    }
}