{
    "solidityExample" : {
        "_info" : {
            "comment" : "An example test for using solidity contracts in the test",
            "filling-rpc-server" : "evm version 1.10.4-stable-aa637fd3",
            "filling-tool-version" : "retesteth-0.1.1-eip1559+commit.0e1fbab0.Linux.g++",
            "lllcversion" : "Version: 0.5.14-develop.2022.1.13+commit.401d5358.Linux.g++",
            "source" : "src/GeneralStateTestsFiller/stExample/solidityExampleFiller.yml",
            "sourceHash" : "185121f8a306322f88a4e4e05b68767568745e4bc9d94fce31872314a75cc8cd"
        },
        "env" : {
            "currentCoinbase" : "0x2adc25665018aa1fe0e6bc666dac8fc2697ff9ba",
            "currentDifficulty" : "0x020000",
            "currentNumber" : "0x01",
            "currentTimestamp" : "0x03e8",
            "previousHash" : "0x5e20a0453cecd065ea59c37ac63e079ee08998b6045136a8ce6635c7912ec0b6",
            "currentGasLimit" : "0x05f5e100"
        },
        "post" : {
            "Berlin" : [
                {
                    "indexes" : {
                        "data" : 0,
                        "gas" : 0,
                        "value" : 0
                    },
                    "hash" : "0xa12d668b2c70c3c77f15be22b94d8d20f1bf6f6197c3ee575c0d0f132d9a6db4",
                    "txbytes" : "0xf8a6800a8404c4b40094095e7baea6a6c7c4c2dfeb977efac326af552d8780b844b66176a7000000000000000000000000000000000000000000000000000000000000000500000000000000000000000000000000000000000000000000000000000000451ca0557b882a6f4c398e1dc30731cc0490f9743d2df3a13b9e465a87198920d34877a071659dc2b9ff195215e075315734b937a7773e470d47d33cdca183b1bc4093a7",
                    "postState" : {
                        "0x095e7baea6a6c7c4c2dfeb977efac326af552d87" : {
                            "code" : "0x608060405234801561001057600080fd5b506004361061002b5760003560e01c8063b66176a714610030575b600080fd5b6100666004803603604081101561004657600080fd5b810190808035906020019092919080359060200190929190505050610068565b005b60405161007490610167565b604051809103906000f080158015610090573d6000803e3d6000fd5b506000806101000a81548173ffffffffffffffffffffffffffffffffffffffff021916908373ffffffffffffffffffffffffffffffffffffffff16021790555060008054906101000a900473ffffffffffffffffffffffffffffffffffffffff1673ffffffffffffffffffffffffffffffffffffffff1663b66176a783836040518363ffffffff1660e01b81526004018083815260200182815260200192505050600060405180830381600087803b15801561014b57600080fd5b505af115801561015f573d6000803e3d6000fd5b505050505050565b60d0806101748339019056fe608060405267ff00ff00ff00ff00600055348015601b57600080fd5b5060a68061002a6000396000f3fe6080604052348015600f57600080fd5b506004361060285760003560e01c8063b66176a714602d575b600080fd5b606060048036036040811015604157600080fd5b8101908080359060200190929190803590602001909291905050506062565b005b80600081905550808255505056fea2646970667358221220d54993f2c2e383e5c67ea905c464c2f332bb374c7760d42657014a74ec5bb21164736f6c63430007000033a26469706673582212200335a7635cf78d4400792dc80f6e190c4225b1125be2857072ad576bd4c2ef6264736f6c63430007000033",
                            "nonce" : "0x01",
                            "balance" : "0x0ba1a9ce0ba1a9ce",
                            "storage" : {
                                "0x00" : "0xd2571607e241ecf590ed94b12d87c94babe36db6"
                            }
                        },
                        "0x195e7baea6a6c7c4c2dfeb977efac326af552d87" : {
                            "code" : "0x6080604052348015600f57600080fd5b506004361060285760003560e01c8063b66176a714602d575b600080fd5b606060048036036040811015604157600080fd5b8101908080359060200190929190803590602001909291905050506062565b005b80600081905550808255505056fea2646970667358221220a5317f92ba65bcc8de25b66128aafaed976271e4a12cf0f9983849f5aaf97b4d64736f6c63430007000033",
                            "nonce" : "0x00",
                            "balance" : "0x0ba1a9ce0ba1a9ce",
                            "storage" : {
                            }
                        },
                        "0x2adc25665018aa1fe0e6bc666dac8fc2697ff9ba" : {
                            "code" : "0x",
                            "nonce" : "0x00",
                            "balance" : "0x178982",
                            "storage" : {
                            }
                        },
                        "0xa94f5374fce5edbc8e2a8697c15331677e6ebf0b" : {
                            "code" : "0x",
                            "nonce" : "0x01",
                            "balance" : "0x0ba1a9ce0b8a204c",
                            "storage" : {
                            }
                        },
                        "0xd2571607e241ecf590ed94b12d87c94babe36db6" : {
                            "code" : "0x6080604052348015600f57600080fd5b506004361060285760003560e01c8063b66176a714602d575b600080fd5b606060048036036040811015604157600080fd5b8101908080359060200190929190803590602001909291905050506062565b005b80600081905550808255505056fea2646970667358221220d54993f2c2e383e5c67ea905c464c2f332bb374c7760d42657014a74ec5bb21164736f6c63430007000033",
                            "nonce" : "0x01",
                            "balance" : "0x00",
                            "storage" : {
                                "0x00" : "0x45",
                                "0x05" : "0x45"
                            }
                        }
                    },
                    "logs" : "0x1dcc4de8dec75d7aab85b567b6ccd41ad312451b948a7413f0a142fd40d49347"
                }
            ],
            "London" : [
                {
                    "indexes" : {
                        "data" : 0,
                        "gas" : 0,
                        "value" : 0
                    },
                    "hash" : "0x90f8ad36b1799f49e49b057094cf6f0ec1b4d66003e6de5a6edbd1b0e4a5740e",
                    "txbytes" : "0xf8a6800a8404c4b40094095e7baea6a6c7c4c2dfeb977efac326af552d8780b844b66176a7000000000000000000000000000000000000000000000000000000000000000500000000000000000000000000000000000000000000000000000000000000451ca0557b882a6f4c398e1dc30731cc0490f9743d2df3a13b9e465a87198920d34877a071659dc2b9ff195215e075315734b937a7773e470d47d33cdca183b1bc4093a7",
                    "postState" : {
                        "0x095e7baea6a6c7c4c2dfeb977efac326af552d87" : {
                            "code" : "0x608060405234801561001057600080fd5b506004361061002b5760003560e01c8063b66176a714610030575b600080fd5b6100666004803603604081101561004657600080fd5b810190808035906020019092919080359060200190929190505050610068565b005b60405161007490610167565b604051809103906000f080158015610090573d6000803e3d6000fd5b506000806101000a81548173ffffffffffffffffffffffffffffffffffffffff021916908373ffffffffffffffffffffffffffffffffffffffff16021790555060008054906101000a900473ffffffffffffffffffffffffffffffffffffffff1673ffffffffffffffffffffffffffffffffffffffff1663b66176a783836040518363ffffffff1660e01b81526004018083815260200182815260200192505050600060405180830381600087803b15801561014b57600080fd5b505af115801561015f573d6000803e3d6000fd5b505050505050565b60d0806101748339019056fe608060405267ff00ff00ff00ff00600055348015601b57600080fd5b5060a68061002a6000396000f3fe6080604052348015600f57600080fd5b506004361060285760003560e01c8063b66176a714602d575b600080fd5b606060048036036040811015604157600080fd5b8101908080359060200190929190803590602001909291905050506062565b005b80600081905550808255505056fea2646970667358221220d54993f2c2e383e5c67ea905c464c2f332bb374c7760d42657014a74ec5bb21164736f6c63430007000033a26469706673582212200335a7635cf78d4400792dc80f6e190c4225b1125be2857072ad576bd4c2ef6264736f6c63430007000033",
                            "nonce" : "0x01",
                            "balance" : "0x0ba1a9ce0ba1a9ce",
                            "storage" : {
                                "0x00" : "0xd2571607e241ecf590ed94b12d87c94babe36db6"
                            }
                        },
                        "0x195e7baea6a6c7c4c2dfeb977efac326af552d87" : {
                            "code" : "0x6080604052348015600f57600080fd5b506004361060285760003560e01c8063b66176a714602d575b600080fd5b606060048036036040811015604157600080fd5b8101908080359060200190929190803590602001909291905050506062565b005b80600081905550808255505056fea2646970667358221220a5317f92ba65bcc8de25b66128aafaed976271e4a12cf0f9983849f5aaf97b4d64736f6c63430007000033",
                            "nonce" : "0x00",
                            "balance" : "0x0ba1a9ce0ba1a9ce",
                            "storage" : {
                            }
                        },
                        "0xa94f5374fce5edbc8e2a8697c15331677e6ebf0b" : {
                            "code" : "0x",
                            "nonce" : "0x01",
                            "balance" : "0x0ba1a9ce0b8a204c",
                            "storage" : {
                            }
                        },
                        "0xd2571607e241ecf590ed94b12d87c94babe36db6" : {
                            "code" : "0x6080604052348015600f57600080fd5b506004361060285760003560e01c8063b66176a714602d575b600080fd5b606060048036036040811015604157600080fd5b8101908080359060200190929190803590602001909291905050506062565b005b80600081905550808255505056fea2646970667358221220d54993f2c2e383e5c67ea905c464c2f332bb374c7760d42657014a74ec5bb21164736f6c63430007000033",
                            "nonce" : "0x01",
                            "balance" : "0x00",
                            "storage" : {
                                "0x00" : "0x45",
                                "0x05" : "0x45"
                            }
                        }
                    },
                    "logs" : "0x1dcc4de8dec75d7aab85b567b6ccd41ad312451b948a7413f0a142fd40d49347"
                }
            ]
        },
        "pre" : {
            "0x095e7baea6a6c7c4c2dfeb977efac326af552d87" : {
                "balance" : "0x0ba1a9ce0ba1a9ce",
                "code" : "0x608060405234801561001057600080fd5b506004361061002b5760003560e01c8063b66176a714610030575b600080fd5b6100666004803603604081101561004657600080fd5b810190808035906020019092919080359060200190929190505050610068565b005b60405161007490610167565b604051809103906000f080158015610090573d6000803e3d6000fd5b506000806101000a81548173ffffffffffffffffffffffffffffffffffffffff021916908373ffffffffffffffffffffffffffffffffffffffff16021790555060008054906101000a900473ffffffffffffffffffffffffffffffffffffffff1673ffffffffffffffffffffffffffffffffffffffff1663b66176a783836040518363ffffffff1660e01b81526004018083815260200182815260200192505050600060405180830381600087803b15801561014b57600080fd5b505af115801561015f573d6000803e3d6000fd5b505050505050565b60d0806101748339019056fe608060405267ff00ff00ff00ff00600055348015601b57600080fd5b5060a68061002a6000396000f3fe6080604052348015600f57600080fd5b506004361060285760003560e01c8063b66176a714602d575b600080fd5b606060048036036040811015604157600080fd5b8101908080359060200190929190803590602001909291905050506062565b005b80600081905550808255505056fea2646970667358221220d54993f2c2e383e5c67ea905c464c2f332bb374c7760d42657014a74ec5bb21164736f6c63430007000033a26469706673582212200335a7635cf78d4400792dc80f6e190c4225b1125be2857072ad576bd4c2ef6264736f6c63430007000033",
                "nonce" : "0x00",
                "storage" : {
                }
            },
            "0x195e7baea6a6c7c4c2dfeb977efac326af552d87" : {
                "balance" : "0x0ba1a9ce0ba1a9ce",
                "code" : "0x6080604052348015600f57600080fd5b506004361060285760003560e01c8063b66176a714602d575b600080fd5b606060048036036040811015604157600080fd5b8101908080359060200190929190803590602001909291905050506062565b005b80600081905550808255505056fea2646970667358221220a5317f92ba65bcc8de25b66128aafaed976271e4a12cf0f9983849f5aaf97b4d64736f6c63430007000033",
                "nonce" : "0x00",
                "storage" : {
                }
            },
            "0xa94f5374fce5edbc8e2a8697c15331677e6ebf0b" : {
                "balance" : "0x0ba1a9ce0ba1a9ce",
                "code" : "0x",
                "nonce" : "0x00",
                "storage" : {
                }
            }
        },
        "transaction" : {
            "data" : [
                "0xb66176a700000000000000000000000000000000000000000000000000000000000000050000000000000000000000000000000000000000000000000000000000000045"
            ],
            "gasPrice" : "0x0a",
            "gasLimit" : [
                "0x04c4b400"
            ],
            "nonce" : "0x00",
            "secretKey" : "0x45a915e4d060149eb4365960e6a7a45f334393093061116b197e3240065ff2d8",
            "to" : "0x095e7baea6a6c7c4c2dfeb977efac326af552d87",
            "value" : [
                "0x00"
            ]
        }
    }
}