{
    "Transaction64Rule_d64m1" : {
        "_info" : {
            "comment" : "",
            "filling-rpc-server" : "evm version 1.10.16-unstable-1884f37f-20220107",
            "filling-tool-version" : "retesteth-0.2.1-difficulty+commit.37dfbbcd.Linux.g++",
            "generatedTestHash" : "e968d232b1587ef2c0b4a3aae3aa988aeb97da60d06d7bc0ec4ae635402ee0fb",
            "lllcversion" : "Version: 0.5.14-develop.2022.1.7+commit.401d5358.Linux.g++",
            "source" : "src/GeneralStateTestsFiller/stEIP150Specific/Transaction64Rule_d64m1Filler.json",
            "sourceHash" : "629c24a1154b4a10422a51488c3b1490c956be0ae4e94587aa2abf4dd3c1e5cc"
        },
        "env" : {
            "currentBaseFee" : "0x0a",
            "currentCoinbase" : "0x2adc25665018aa1fe0e6bc666dac8fc2697ff9ba",
            "currentDifficulty" : "0x020000",
            "currentGasLimit" : "0x989680",
            "currentNumber" : "0x01",
            "currentTimestamp" : "0x03e8",
            "previousHash" : "0x5e20a0453cecd065ea59c37ac63e079ee08998b6045136a8ce6635c7912ec0b6"
        },
        "post" : {
            "Berlin" : [
                {
                    "hash" : "0xd83d118d447ed0977ab4fac0e90840e02e2ea4958aff04490fc4cdb37b4ccbcd",
                    "indexes" : {
                        "data" : 0,
                        "gas" : 0,
                        "value" : 0
                    },
                    "logs" : "0x1dcc4de8dec75d7aab85b567b6ccd41ad312451b948a7413f0a142fd40d49347",
                    "postState" : {
                        "0x1000000000000000000000000000000000000118" : {
                            "balance" : "0x00",
                            "code" : "0x600c60015500",
                            "nonce" : "0x00",
                            "storage" : {
                                "0x01" : "0x0c"
                            }
                        },
                        "0x2adc25665018aa1fe0e6bc666dac8fc2697ff9ba" : {
                            "balance" : "0x0a5a8c",
                            "code" : "0x",
                            "nonce" : "0x00",
                            "storage" : {
                            }
                        },
                        "0xa94f5374fce5edbc8e2a8697c15331677e6ebf0b" : {
                            "balance" : "0xe8d49ab574",
                            "code" : "0x",
                            "nonce" : "0x01",
                            "storage" : {
                            }
                        },
                        "0xb94f5374fce5edbc8e2a8697c15331677e6ebf0b" : {
                            "balance" : "0x00",
                            "code" : "0x5a6000526000600060006000600073100000000000000000000000000000000000011862027100f1505a6000510360025500",
                            "nonce" : "0x00",
                            "storage" : {
                                "0x02" : "0x60a4"
                            }
                        }
                    },
                    "txbytes" : "0xf860800a8302713d94b94f5374fce5edbc8e2a8697c15331677e6ebf0b80801ba089c9435cbd8205f5c95da2edf46ad56cf95856a8af3c2f4ff9a0a64b3429ffe1a05da3059b094e89716a9cdc495e2bcacae7bbb886dc7eb8a97f00c1f85ce56d5d"
                }
            ],
            "Istanbul" : [
                {
                    "hash" : "0x0ad62ed96bf44b3c3dfd059a0d2df2c9c41edde10389779e06cadf68abbbb857",
                    "indexes" : {
                        "data" : 0,
                        "gas" : 0,
                        "value" : 0
                    },
                    "logs" : "0x1dcc4de8dec75d7aab85b567b6ccd41ad312451b948a7413f0a142fd40d49347",
                    "postState" : {
                        "0x1000000000000000000000000000000000000118" : {
                            "balance" : "0x00",
                            "code" : "0x600c60015500",
                            "nonce" : "0x00",
                            "storage" : {
                                "0x01" : "0x0c"
                            }
                        },
                        "0x2adc25665018aa1fe0e6bc666dac8fc2697ff9ba" : {
                            "balance" : "0x096c44",
                            "code" : "0x",
                            "nonce" : "0x00",
                            "storage" : {
                            }
                        },
                        "0xa94f5374fce5edbc8e2a8697c15331677e6ebf0b" : {
                            "balance" : "0xe8d49ba3bc",
                            "code" : "0x",
                            "nonce" : "0x01",
                            "storage" : {
                            }
                        },
                        "0xb94f5374fce5edbc8e2a8697c15331677e6ebf0b" : {
                            "balance" : "0x00",
                            "code" : "0x5a6000526000600060006000600073100000000000000000000000000000000000011862027100f1505a6000510360025500",
                            "nonce" : "0x00",
                            "storage" : {
                                "0x02" : "0x5104"
                            }
                        }
                    },
                    "txbytes" : "0xf860800a8302713d94b94f5374fce5edbc8e2a8697c15331677e6ebf0b80801ba089c9435cbd8205f5c95da2edf46ad56cf95856a8af3c2f4ff9a0a64b3429ffe1a05da3059b094e89716a9cdc495e2bcacae7bbb886dc7eb8a97f00c1f85ce56d5d"
                }
            ],
            "London" : [
                {
                    "hash" : "0x71d5e97993b209f6ce5b6a8c3935eaa67f22d9527e3d5c796315582fb717ce21",
                    "indexes" : {
                        "data" : 0,
                        "gas" : 0,
                        "value" : 0
                    },
                    "logs" : "0x1dcc4de8dec75d7aab85b567b6ccd41ad312451b948a7413f0a142fd40d49347",
                    "postState" : {
                        "0x1000000000000000000000000000000000000118" : {
                            "balance" : "0x00",
                            "code" : "0x600c60015500",
                            "nonce" : "0x00",
                            "storage" : {
                                "0x01" : "0x0c"
                            }
                        },
                        "0xa94f5374fce5edbc8e2a8697c15331677e6ebf0b" : {
                            "balance" : "0xe8d49ab574",
                            "code" : "0x",
                            "nonce" : "0x01",
                            "storage" : {
                            }
                        },
                        "0xb94f5374fce5edbc8e2a8697c15331677e6ebf0b" : {
                            "balance" : "0x00",
                            "code" : "0x5a6000526000600060006000600073100000000000000000000000000000000000011862027100f1505a6000510360025500",
                            "nonce" : "0x00",
                            "storage" : {
                                "0x02" : "0x60a4"
                            }
                        }
                    },
                    "txbytes" : "0xf860800a8302713d94b94f5374fce5edbc8e2a8697c15331677e6ebf0b80801ba089c9435cbd8205f5c95da2edf46ad56cf95856a8af3c2f4ff9a0a64b3429ffe1a05da3059b094e89716a9cdc495e2bcacae7bbb886dc7eb8a97f00c1f85ce56d5d"
                }
            ]
        },
        "pre" : {
            "0x1000000000000000000000000000000000000118" : {
                "balance" : "0x00",
                "code" : "0x600c60015500",
                "nonce" : "0x00",
                "storage" : {
                }
            },
            "0xa94f5374fce5edbc8e2a8697c15331677e6ebf0b" : {
                "balance" : "0xe8d4a51000",
                "code" : "0x",
                "nonce" : "0x00",
                "storage" : {
                }
            },
            "0xb94f5374fce5edbc8e2a8697c15331677e6ebf0b" : {
                "balance" : "0x00",
                "code" : "0x5a6000526000600060006000600073100000000000000000000000000000000000011862027100f1505a6000510360025500",
                "nonce" : "0x00",
                "storage" : {
                }
            }
        },
        "transaction" : {
            "data" : [
                "0x"
            ],
            "gasLimit" : [
                "0x02713d"
            ],
            "gasPrice" : "0x0a",
            "nonce" : "0x00",
            "secretKey" : "0x45a915e4d060149eb4365960e6a7a45f334393093061116b197e3240065ff2d8",
            "to" : "0xb94f5374fce5edbc8e2a8697c15331677e6ebf0b",
            "value" : [
                "0x00"
            ]
        }
    }
}