{
    "CallRipemd160_3_postfixed0" : {
        "_info" : {
            "comment" : "",
            "filling-rpc-server" : "evm version 1.10.4-stable-aa637fd3",
            "filling-tool-version" : "retesteth-0.1.1-eip1559+commit.0e1fbab0.Linux.g++",
            "lllcversion" : "Version: 0.5.14-develop.2022.1.13+commit.401d5358.Linux.g++",
            "source" : "src/GeneralStateTestsFiller/stPreCompiledContracts2/CallRipemd160_3_postfixed0Filler.json",
            "sourceHash" : "923b75cb6b33539dc57d97654d828473c5e782cdda9d29deaa4819a9c49dd5d4"
        },
        "env" : {
            "currentCoinbase" : "0x2adc25665018aa1fe0e6bc666dac8fc2697ff9ba",
            "currentDifficulty" : "0x020000",
            "currentNumber" : "0x01",
            "currentTimestamp" : "0x03e8",
            "previousHash" : "0x5e20a0453cecd065ea59c37ac63e079ee08998b6045136a8ce6635c7912ec0b6",
            "currentGasLimit" : "0x989680"
        },
        "post" : {
            "Berlin" : [
                {
                    "indexes" : {
                        "data" : 0,
                        "gas" : 0,
                        "value" : 0
                    },
                    "hash" : "0x6116f8842254923fd29287b8ae3be5bc3bb516c4178498c88bd5aa98faf0910e",
                    "txbytes" : "0xf863800a830592a894095e7baea6a6c7c4c2dfeb977efac326af552d87830186a0801ca082a671a227220f2b04a9aa780da80015d702902cb314f4900b727ae835a6e613a02a8d1cd19b7388c9b4211156827537f3c9792e3dda07ed0343d0d16c1ffdc497",
                    "postState" : {
                        "0x095e7baea6a6c7c4c2dfeb977efac326af552d87" : {
                            "code" : "0x65f34578907f00600052602060006025600060006003611770f160025560005160005500",
                            "nonce" : "0x00",
                            "balance" : "0x0132b3a0",
                            "storage" : {
                                "0x00" : "0x7730b4642169b0f16752696da8da830a4b429c9d",
                                "0x02" : "0x01"
                            }
                        },
                        "0x2adc25665018aa1fe0e6bc666dac8fc2697ff9ba" : {
                            "code" : "0x",
                            "nonce" : "0x00",
                            "balance" : "0x0a1978",
                            "storage" : {
                            }
                        },
                        "0xa94f5374fce5edbc8e2a8697c15331677e6ebf0b" : {
                            "code" : "0x",
                            "nonce" : "0x01",
                            "balance" : "0x0de0b6b3a7585fe8",
                            "storage" : {
                            }
                        }
                    },
                    "logs" : "0x1dcc4de8dec75d7aab85b567b6ccd41ad312451b948a7413f0a142fd40d49347"
                }
            ],
            "Istanbul" : [
                {
                    "indexes" : {
                        "data" : 0,
                        "gas" : 0,
                        "value" : 0
                    },
                    "hash" : "0xe87811e588e4acacb05bbb333d42c6b38c1b667a4c502d68e8df0a59e604d5a4",
                    "txbytes" : "0xf863800a830592a894095e7baea6a6c7c4c2dfeb977efac326af552d87830186a0801ca082a671a227220f2b04a9aa780da80015d702902cb314f4900b727ae835a6e613a02a8d1cd19b7388c9b4211156827537f3c9792e3dda07ed0343d0d16c1ffdc497",
                    "postState" : {
                        "0x095e7baea6a6c7c4c2dfeb977efac326af552d87" : {
                            "code" : "0x65f34578907f00600052602060006025600060006003611770f160025560005160005500",
                            "nonce" : "0x00",
                            "balance" : "0x0132b3a0",
                            "storage" : {
                                "0x00" : "0x7730b4642169b0f16752696da8da830a4b429c9d",
                                "0x02" : "0x01"
                            }
                        },
                        "0x2adc25665018aa1fe0e6bc666dac8fc2697ff9ba" : {
                            "code" : "0x",
                            "nonce" : "0x00",
                            "balance" : "0x098cd8",
                            "storage" : {
                            }
                        },
                        "0xa94f5374fce5edbc8e2a8697c15331677e6ebf0b" : {
                            "code" : "0x",
                            "nonce" : "0x01",
                            "balance" : "0x0de0b6b3a758ec88",
                            "storage" : {
                            }
                        }
                    },
                    "logs" : "0x1dcc4de8dec75d7aab85b567b6ccd41ad312451b948a7413f0a142fd40d49347"
                }
            ],
            "London" : [
                {
                    "indexes" : {
                        "data" : 0,
                        "gas" : 0,
                        "value" : 0
                    },
                    "hash" : "0x98286f46a8caf26b0f5bf8555e0cb7f5767369fabbb259fb085a03ffcc87bca1",
                    "txbytes" : "0xf863800a830592a894095e7baea6a6c7c4c2dfeb977efac326af552d87830186a0801ca082a671a227220f2b04a9aa780da80015d702902cb314f4900b727ae835a6e613a02a8d1cd19b7388c9b4211156827537f3c9792e3dda07ed0343d0d16c1ffdc497",
                    "postState" : {
                        "0x095e7baea6a6c7c4c2dfeb977efac326af552d87" : {
                            "code" : "0x65f34578907f00600052602060006025600060006003611770f160025560005160005500",
                            "nonce" : "0x00",
                            "balance" : "0x0132b3a0",
                            "storage" : {
                                "0x00" : "0x7730b4642169b0f16752696da8da830a4b429c9d",
                                "0x02" : "0x01"
                            }
                        },
                        "0xa94f5374fce5edbc8e2a8697c15331677e6ebf0b" : {
                            "code" : "0x",
                            "nonce" : "0x01",
                            "balance" : "0x0de0b6b3a7585fe8",
                            "storage" : {
                            }
                        }
                    },
                    "logs" : "0x1dcc4de8dec75d7aab85b567b6ccd41ad312451b948a7413f0a142fd40d49347"
                }
            ]
        },
        "pre" : {
            "0x095e7baea6a6c7c4c2dfeb977efac326af552d87" : {
                "balance" : "0x01312d00",
                "code" : "0x65f34578907f00600052602060006025600060006003611770f160025560005160005500",
                "nonce" : "0x00",
                "storage" : {
                }
            },
            "0xa94f5374fce5edbc8e2a8697c15331677e6ebf0b" : {
                "balance" : "0x0de0b6b3a7640000",
                "code" : "0x",
                "nonce" : "0x00",
                "storage" : {
                }
            }
        },
        "transaction" : {
            "data" : [
                "0x"
            ],
            "gasPrice" : "0x0a",
            "gasLimit" : [
                "0x0592a8"
            ],
            "nonce" : "0x00",
            "secretKey" : "0x45a915e4d060149eb4365960e6a7a45f334393093061116b197e3240065ff2d8",
            "to" : "0x095e7baea6a6c7c4c2dfeb977efac326af552d87",
            "value" : [
                "0x0186a0"
            ]
        }
    }
}