{
    "CallSha256_0" : {
        "_info" : {
            "comment" : "",
            "filling-rpc-server" : "evm version 1.10.4-stable-aa637fd3",
            "filling-tool-version" : "retesteth-0.1.1-eip1559+commit.0e1fbab0.Linux.g++",
            "lllcversion" : "Version: 0.5.14-develop.2022.1.13+commit.401d5358.Linux.g++",
            "source" : "src/GeneralStateTestsFiller/stPreCompiledContracts2/CallSha256_0Filler.json",
            "sourceHash" : "40162658a3aaa28c8178f13b88769eabfa46ec6902c99e7473d993b6c382cd8a"
        },
        "env" : {
            "currentCoinbase" : "0x2adc25665018aa1fe0e6bc666dac8fc2697ff9ba",
            "currentDifficulty" : "0x020000",
            "currentNumber" : "0x01",
            "currentTimestamp" : "0x03e8",
            "previousHash" : "0x5e20a0453cecd065ea59c37ac63e079ee08998b6045136a8ce6635c7912ec0b6",
            "currentGasLimit" : "0x989680"
        },
        "post" : {
            "Berlin" : [
                {
                    "indexes" : {
                        "data" : 0,
                        "gas" : 0,
                        "value" : 0
                    },
                    "hash" : "0x0ef66605dad85b623c3a8d41448ff76c266eaec2240fdaafc491fc1f2adbd233",
                    "txbytes" : "0xf863800a830592a894095e7baea6a6c7c4c2dfeb977efac326af552d87830186a0801ca082a671a227220f2b04a9aa780da80015d702902cb314f4900b727ae835a6e613a02a8d1cd19b7388c9b4211156827537f3c9792e3dda07ed0343d0d16c1ffdc497",
                    "postState" : {
                        "0x095e7baea6a6c7c4c2dfeb977efac326af552d87" : {
                            "code" : "0x600160005260206000602060006000600260fff1600051600055",
                            "nonce" : "0x00",
                            "balance" : "0x0132b3a0",
                            "storage" : {
                                "0x00" : "0xec4916dd28fc4c10d78e287ca5d9cc51ee1ae73cbfde08c6b37324cbfaac8bc5"
                            }
                        },
                        "0x2adc25665018aa1fe0e6bc666dac8fc2697ff9ba" : {
                            "code" : "0x",
                            "nonce" : "0x00",
                            "balance" : "0x069bf4",
                            "storage" : {
                            }
                        },
                        "0xa94f5374fce5edbc8e2a8697c15331677e6ebf0b" : {
                            "code" : "0x",
                            "nonce" : "0x01",
                            "balance" : "0x0de0b6b3a75bdd6c",
                            "storage" : {
                            }
                        }
                    },
                    "logs" : "0x1dcc4de8dec75d7aab85b567b6ccd41ad312451b948a7413f0a142fd40d49347"
                }
            ],
            "Istanbul" : [
                {
                    "indexes" : {
                        "data" : 0,
                        "gas" : 0,
                        "value" : 0
                    },
                    "hash" : "0x978df8019cb597baf8a3650032da5b17a5eb5d6b77f097881ddeac58af702be4",
                    "txbytes" : "0xf863800a830592a894095e7baea6a6c7c4c2dfeb977efac326af552d87830186a0801ca082a671a227220f2b04a9aa780da80015d702902cb314f4900b727ae835a6e613a02a8d1cd19b7388c9b4211156827537f3c9792e3dda07ed0343d0d16c1ffdc497",
                    "postState" : {
                        "0x095e7baea6a6c7c4c2dfeb977efac326af552d87" : {
                            "code" : "0x600160005260206000602060006000600260fff1600051600055",
                            "nonce" : "0x00",
                            "balance" : "0x0132b3a0",
                            "storage" : {
                                "0x00" : "0xec4916dd28fc4c10d78e287ca5d9cc51ee1ae73cbfde08c6b37324cbfaac8bc5"
                            }
                        },
                        "0x2adc25665018aa1fe0e6bc666dac8fc2697ff9ba" : {
                            "code" : "0x",
                            "nonce" : "0x00",
                            "balance" : "0x06615c",
                            "storage" : {
                            }
                        },
                        "0xa94f5374fce5edbc8e2a8697c15331677e6ebf0b" : {
                            "code" : "0x",
                            "nonce" : "0x01",
                            "balance" : "0x0de0b6b3a75c1804",
                            "storage" : {
                            }
                        }
                    },
                    "logs" : "0x1dcc4de8dec75d7aab85b567b6ccd41ad312451b948a7413f0a142fd40d49347"
                }
            ],
            "London" : [
                {
                    "indexes" : {
                        "data" : 0,
                        "gas" : 0,
                        "value" : 0
                    },
                    "hash" : "0x2a9184c57cc76ed7d1b8b6eaa36e7c22e0699d772af5db307e2194031d2a731e",
                    "txbytes" : "0xf863800a830592a894095e7baea6a6c7c4c2dfeb977efac326af552d87830186a0801ca082a671a227220f2b04a9aa780da80015d702902cb314f4900b727ae835a6e613a02a8d1cd19b7388c9b4211156827537f3c9792e3dda07ed0343d0d16c1ffdc497",
                    "postState" : {
                        "0x095e7baea6a6c7c4c2dfeb977efac326af552d87" : {
                            "code" : "0x600160005260206000602060006000600260fff1600051600055",
                            "nonce" : "0x00",
                            "balance" : "0x0132b3a0",
                            "storage" : {
                                "0x00" : "0xec4916dd28fc4c10d78e287ca5d9cc51ee1ae73cbfde08c6b37324cbfaac8bc5"
                            }
                        },
                        "0xa94f5374fce5edbc8e2a8697c15331677e6ebf0b" : {
                            "code" : "0x",
                            "nonce" : "0x01",
                            "balance" : "0x0de0b6b3a75bdd6c",
                            "storage" : {
                            }
                        }
                    },
                    "logs" : "0x1dcc4de8dec75d7aab85b567b6ccd41ad312451b948a7413f0a142fd40d49347"
                }
            ]
        },
        "pre" : {
            "0x095e7baea6a6c7c4c2dfeb977efac326af552d87" : {
                "balance" : "0x01312d00",
                "code" : "0x600160005260206000602060006000600260fff1600051600055",
                "nonce" : "0x00",
                "storage" : {
                }
            },
            "0xa94f5374fce5edbc8e2a8697c15331677e6ebf0b" : {
                "balance" : "0x0de0b6b3a7640000",
                "code" : "0x",
                "nonce" : "0x00",
                "storage" : {
                }
            }
        },
        "transaction" : {
            "data" : [
                "0x"
            ],
            "gasPrice" : "0x0a",
            "gasLimit" : [
                "0x0592a8"
            ],
            "nonce" : "0x00",
            "secretKey" : "0x45a915e4d060149eb4365960e6a7a45f334393093061116b197e3240065ff2d8",
            "to" : "0x095e7baea6a6c7c4c2dfeb977efac326af552d87",
            "value" : [
                "0x0186a0"
            ]
        }
    }
}