{
    "Call1024BalanceTooLow" : {
        "_info" : {
            "comment" : "",
            "filling-rpc-server" : "evm version 1.11.5-stable-a38f4108",
            "filling-tool-version" : "retesteth-0.3.0-shanghai+commit.e98b5e62.Linux.g++",
            "generatedTestHash" : "fc5b19f531ed6d237c268e9bbb24ce944629b81a0d358aeb2ceff6635742f8b2",
            "lllcversion" : "Version: 0.5.14-develop.2023.8.28+commit.b2b86751.Linux.g++",
            "solidity" : "Version: 0.8.17+commit.8df45f5f.Linux.g++",
            "source" : "src/GeneralStateTestsFiller/stDelegatecallTestHomestead/Call1024BalanceTooLowFiller.json",
            "sourceHash" : "f91b000bdf9bbc5dbb55a5862c84c809d5670471039c211c8f5cebc864211263"
        },
        "env" : {
            "currentBaseFee" : "0x0a",
            "currentCoinbase" : "0xb94f5374fce5edbc8e2a8697c15331677e6ebf0b",
            "currentDifficulty" : "0x020000",
            "currentGasLimit" : "0x7fffffffffffffff",
            "currentNumber" : "0x01",
            "currentRandom" : "0x0000000000000000000000000000000000000000000000000000000000020000",
            "currentTimestamp" : "0x03e8",
            "previousHash" : "0x5e20a0453cecd065ea59c37ac63e079ee08998b6045136a8ce6635c7912ec0b6"
        },
        "post" : {
            "Berlin" : [
                {
                    "hash" : "0x277480afffc0f5b222bb2b4f173c6ad2bbf81406d942f91e58cb43dbb213c3f8",
                    "indexes" : {
                        "data" : 0,
                        "gas" : 0,
                        "value" : 0
                    },
                    "logs" : "0x1dcc4de8dec75d7aab85b567b6ccd41ad312451b948a7413f0a142fd40d49347",
                    "postState" : {
                        "0xa94f5374fce5edbc8e2a8697c15331677e6ebf0b" : {
                            "balance" : "0xffffffffffffffffffffffffffb25fe3",
                            "code" : "0x",
                            "nonce" : "0x01",
                            "storage" : {
                            }
                        },
                        "0xaaaf5374fce5edbc8e2a8697c15331677e6ebf0b" : {
                            "balance" : "0x1b58",
                            "code" : "0x",
                            "nonce" : "0x00",
                            "storage" : {
                            }
                        },
                        "0xb94f5374fce5edbc8e2a8697c15331677e6ebf0b" : {
                            "balance" : "0x4da012",
                            "code" : "0x",
                            "nonce" : "0x00",
                            "storage" : {
                            }
                        },
                        "0xbbbf5374fce5edbc8e2a8697c15331677e6ebf0b" : {
                            "balance" : "0x040a",
                            "code" : "0x600160005401600055600060006000600073bbbf5374fce5edbc8e2a8697c15331677e6ebf0b650ffffffffffff460015500",
                            "nonce" : "0x00",
                            "storage" : {
                                "0x00" : "0x0401",
                                "0x01" : "0x01"
                            }
                        }
                    },
                    "txbytes" : "0xf863800a8610000000d78894bbbf5374fce5edbc8e2a8697c15331677e6ebf0b0a801ba0fadbc513261a88f1e148f1955078ed31a9f37f452e45b15ad8ee2ba2f04a1868a06601bfd41c31244dbf89228d2b5d7cde692e93a8386b72b3834d1e47931ea8e4"
                }
            ],
            "Istanbul" : [
                {
                    "hash" : "0x5e34e5c4b1eec1379e8c442fcf05a38a557c319a5a0904c62e4a9071f9f5acbc",
                    "indexes" : {
                        "data" : 0,
                        "gas" : 0,
                        "value" : 0
                    },
                    "logs" : "0x1dcc4de8dec75d7aab85b567b6ccd41ad312451b948a7413f0a142fd40d49347",
                    "postState" : {
                        "0xa94f5374fce5edbc8e2a8697c15331677e6ebf0b" : {
                            "balance" : "0xfffffffffffffffffffffffffe0ced43",
                            "code" : "0x",
                            "nonce" : "0x01",
                            "storage" : {
                            }
                        },
                        "0xaaaf5374fce5edbc8e2a8697c15331677e6ebf0b" : {
                            "balance" : "0x1b58",
                            "code" : "0x",
                            "nonce" : "0x00",
                            "storage" : {
                            }
                        },
                        "0xb94f5374fce5edbc8e2a8697c15331677e6ebf0b" : {
                            "balance" : "0x01f312b2",
                            "code" : "0x",
                            "nonce" : "0x00",
                            "storage" : {
                            }
                        },
                        "0xbbbf5374fce5edbc8e2a8697c15331677e6ebf0b" : {
                            "balance" : "0x040a",
                            "code" : "0x600160005401600055600060006000600073bbbf5374fce5edbc8e2a8697c15331677e6ebf0b650ffffffffffff460015500",
                            "nonce" : "0x00",
                            "storage" : {
                                "0x00" : "0x0401",
                                "0x01" : "0x01"
                            }
                        }
                    },
                    "txbytes" : "0xf863800a8610000000d78894bbbf5374fce5edbc8e2a8697c15331677e6ebf0b0a801ba0fadbc513261a88f1e148f1955078ed31a9f37f452e45b15ad8ee2ba2f04a1868a06601bfd41c31244dbf89228d2b5d7cde692e93a8386b72b3834d1e47931ea8e4"
                }
            ],
            "London" : [
                {
                    "hash" : "0xfc071ef580274c1c82c28f60253849317c156f6159f711582ef93da01f26f884",
                    "indexes" : {
                        "data" : 0,
                        "gas" : 0,
                        "value" : 0
                    },
                    "logs" : "0x1dcc4de8dec75d7aab85b567b6ccd41ad312451b948a7413f0a142fd40d49347",
                    "postState" : {
                        "0xa94f5374fce5edbc8e2a8697c15331677e6ebf0b" : {
                            "balance" : "0xffffffffffffffffffffffffffb25fe3",
                            "code" : "0x",
                            "nonce" : "0x01",
                            "storage" : {
                            }
                        },
                        "0xaaaf5374fce5edbc8e2a8697c15331677e6ebf0b" : {
                            "balance" : "0x1b58",
                            "code" : "0x",
                            "nonce" : "0x00",
                            "storage" : {
                            }
                        },
                        "0xbbbf5374fce5edbc8e2a8697c15331677e6ebf0b" : {
                            "balance" : "0x040a",
                            "code" : "0x600160005401600055600060006000600073bbbf5374fce5edbc8e2a8697c15331677e6ebf0b650ffffffffffff460015500",
                            "nonce" : "0x00",
                            "storage" : {
                                "0x00" : "0x0401",
                                "0x01" : "0x01"
                            }
                        }
                    },
                    "txbytes" : "0xf863800a8610000000d78894bbbf5374fce5edbc8e2a8697c15331677e6ebf0b0a801ba0fadbc513261a88f1e148f1955078ed31a9f37f452e45b15ad8ee2ba2f04a1868a06601bfd41c31244dbf89228d2b5d7cde692e93a8386b72b3834d1e47931ea8e4"
                }
            ],
            "Merge" : [
                {
                    "hash" : "0xfc071ef580274c1c82c28f60253849317c156f6159f711582ef93da01f26f884",
                    "indexes" : {
                        "data" : 0,
                        "gas" : 0,
                        "value" : 0
                    },
                    "logs" : "0x1dcc4de8dec75d7aab85b567b6ccd41ad312451b948a7413f0a142fd40d49347",
                    "postState" : {
                        "0xa94f5374fce5edbc8e2a8697c15331677e6ebf0b" : {
                            "balance" : "0xffffffffffffffffffffffffffb25fe3",
                            "code" : "0x",
                            "nonce" : "0x01",
                            "storage" : {
                            }
                        },
                        "0xaaaf5374fce5edbc8e2a8697c15331677e6ebf0b" : {
                            "balance" : "0x1b58",
                            "code" : "0x",
                            "nonce" : "0x00",
                            "storage" : {
                            }
                        },
                        "0xbbbf5374fce5edbc8e2a8697c15331677e6ebf0b" : {
                            "balance" : "0x040a",
                            "code" : "0x600160005401600055600060006000600073bbbf5374fce5edbc8e2a8697c15331677e6ebf0b650ffffffffffff460015500",
                            "nonce" : "0x00",
                            "storage" : {
                                "0x00" : "0x0401",
                                "0x01" : "0x01"
                            }
                        }
                    },
                    "txbytes" : "0xf863800a8610000000d78894bbbf5374fce5edbc8e2a8697c15331677e6ebf0b0a801ba0fadbc513261a88f1e148f1955078ed31a9f37f452e45b15ad8ee2ba2f04a1868a06601bfd41c31244dbf89228d2b5d7cde692e93a8386b72b3834d1e47931ea8e4"
                }
            ],
            "Shanghai" : [
                {
                    "hash" : "0xfc071ef580274c1c82c28f60253849317c156f6159f711582ef93da01f26f884",
                    "indexes" : {
                        "data" : 0,
                        "gas" : 0,
                        "value" : 0
                    },
                    "logs" : "0x1dcc4de8dec75d7aab85b567b6ccd41ad312451b948a7413f0a142fd40d49347",
                    "postState" : {
                        "0xa94f5374fce5edbc8e2a8697c15331677e6ebf0b" : {
                            "balance" : "0xffffffffffffffffffffffffffb25fe3",
                            "code" : "0x",
                            "nonce" : "0x01",
                            "storage" : {
                            }
                        },
                        "0xaaaf5374fce5edbc8e2a8697c15331677e6ebf0b" : {
                            "balance" : "0x1b58",
                            "code" : "0x",
                            "nonce" : "0x00",
                            "storage" : {
                            }
                        },
                        "0xbbbf5374fce5edbc8e2a8697c15331677e6ebf0b" : {
                            "balance" : "0x040a",
                            "code" : "0x600160005401600055600060006000600073bbbf5374fce5edbc8e2a8697c15331677e6ebf0b650ffffffffffff460015500",
                            "nonce" : "0x00",
                            "storage" : {
                                "0x00" : "0x0401",
                                "0x01" : "0x01"
                            }
                        }
                    },
                    "txbytes" : "0xf863800a8610000000d78894bbbf5374fce5edbc8e2a8697c15331677e6ebf0b0a801ba0fadbc513261a88f1e148f1955078ed31a9f37f452e45b15ad8ee2ba2f04a1868a06601bfd41c31244dbf89228d2b5d7cde692e93a8386b72b3834d1e47931ea8e4"
                }
            ]
        },
        "pre" : {
            "0xa94f5374fce5edbc8e2a8697c15331677e6ebf0b" : {
                "balance" : "0xffffffffffffffffffffffffffffffff",
                "code" : "0x",
                "nonce" : "0x00",
                "storage" : {
                }
            },
            "0xaaaf5374fce5edbc8e2a8697c15331677e6ebf0b" : {
                "balance" : "0x1b58",
                "code" : "0x",
                "nonce" : "0x00",
                "storage" : {
                }
            },
            "0xbbbf5374fce5edbc8e2a8697c15331677e6ebf0b" : {
                "balance" : "0x0400",
                "code" : "0x600160005401600055600060006000600073bbbf5374fce5edbc8e2a8697c15331677e6ebf0b650ffffffffffff460015500",
                "nonce" : "0x00",
                "storage" : {
                }
            }
        },
        "transaction" : {
            "data" : [
                "0x"
            ],
            "gasLimit" : [
                "0x10000000d788"
            ],
            "gasPrice" : "0x0a",
            "nonce" : "0x00",
            "secretKey" : "0x45a915e4d060149eb4365960e6a7a45f334393093061116b197e3240065ff2d8",
            "sender" : "0xa94f5374fce5edbc8e2a8697c15331677e6ebf0b",
            "to" : "0xbbbf5374fce5edbc8e2a8697c15331677e6ebf0b",
            "value" : [
                "0x0a"
            ]
        }
    }
}