{
    "CreateOOGafterInitCodeReturndataSize" : {
        "_info" : {
            "comment" : "Calls a contract that runs CREATE which deploy a code. then OOG happens upon deployment of the actual code. check the RETURNDATASIZE after create. fails with OOG if RETURNDATASIZE != 0",
            "filling-rpc-server" : "evm version 1.10.16-unstable-1884f37f-20220107",
            "filling-tool-version" : "retesteth-0.2.1-difficulty+commit.37dfbbcd.Linux.g++",
            "generatedTestHash" : "e8bdaf68f7a69caf3a82df429b0f2df954f4837946b3a15f6e386f07f0767325",
            "lllcversion" : "Version: 0.5.14-develop.2022.1.7+commit.401d5358.Linux.g++",
            "source" : "src/GeneralStateTestsFiller/stCreateTest/CreateOOGafterInitCodeReturndataSizeFiller.json",
            "sourceHash" : "0070468e2d7134842199d35f96a1c97e1ad81c9635a4cce54ffa864dfe8fa173"
        },
        "env" : {
            "currentBaseFee" : "0x0a",
            "currentCoinbase" : "0x2adc25665018aa1fe0e6bc666dac8fc2697ff9ba",
            "currentDifficulty" : "0x020000",
            "currentGasLimit" : "0x989680",
            "currentNumber" : "0x01",
            "currentTimestamp" : "0x03e8",
            "previousHash" : "0x5e20a0453cecd065ea59c37ac63e079ee08998b6045136a8ce6635c7912ec0b6"
        },
        "post" : {
            "Berlin" : [
                {
                    "hash" : "0xfc05f8c71b854a587e9b574ec71240e8e559cbcc4515031be869a0dd741d227b",
                    "indexes" : {
                        "data" : 0,
                        "gas" : 0,
                        "value" : 0
                    },
                    "logs" : "0x1dcc4de8dec75d7aab85b567b6ccd41ad312451b948a7413f0a142fd40d49347",
                    "postState" : {
                        "0x2adc25665018aa1fe0e6bc666dac8fc2697ff9ba" : {
                            "balance" : "0x086600",
                            "code" : "0x",
                            "nonce" : "0x00",
                            "storage" : {
                            }
                        },
                        "0xa94f5374fce5edbc8e2a8697c15331677e6ebf0b" : {
                            "balance" : "0xe8d49ca9ff",
                            "code" : "0x",
                            "nonce" : "0x01",
                            "storage" : {
                            }
                        },
                        "0xb94f5374fce5edbc8e2a8697c15331677e6ebf0b" : {
                            "balance" : "0x01",
                            "code" : "0x726960016001556001600255600052600a6016f36000526013600d6000f0503d60020a00",
                            "nonce" : "0x01",
                            "storage" : {
                            }
                        }
                    },
                    "txbytes" : "0xf85f800a82d70e94b94f5374fce5edbc8e2a8697c15331677e6ebf0b01801ca0657b3b641025f7b251552c2af1242cbf701078623a65f34886115b9d7c8a2ab2a04abea43044e314bf30692b864ce53967721d044a65eca265ebfa2c395e7099f6"
                }
            ],
            "Istanbul" : [
                {
                    "hash" : "0xfc05f8c71b854a587e9b574ec71240e8e559cbcc4515031be869a0dd741d227b",
                    "indexes" : {
                        "data" : 0,
                        "gas" : 0,
                        "value" : 0
                    },
                    "logs" : "0x1dcc4de8dec75d7aab85b567b6ccd41ad312451b948a7413f0a142fd40d49347",
                    "postState" : {
                        "0x2adc25665018aa1fe0e6bc666dac8fc2697ff9ba" : {
                            "balance" : "0x086600",
                            "code" : "0x",
                            "nonce" : "0x00",
                            "storage" : {
                            }
                        },
                        "0xa94f5374fce5edbc8e2a8697c15331677e6ebf0b" : {
                            "balance" : "0xe8d49ca9ff",
                            "code" : "0x",
                            "nonce" : "0x01",
                            "storage" : {
                            }
                        },
                        "0xb94f5374fce5edbc8e2a8697c15331677e6ebf0b" : {
                            "balance" : "0x01",
                            "code" : "0x726960016001556001600255600052600a6016f36000526013600d6000f0503d60020a00",
                            "nonce" : "0x01",
                            "storage" : {
                            }
                        }
                    },
                    "txbytes" : "0xf85f800a82d70e94b94f5374fce5edbc8e2a8697c15331677e6ebf0b01801ca0657b3b641025f7b251552c2af1242cbf701078623a65f34886115b9d7c8a2ab2a04abea43044e314bf30692b864ce53967721d044a65eca265ebfa2c395e7099f6"
                }
            ],
            "London" : [
                {
                    "hash" : "0x72da0061d3b0b0912416146a97be85fa5db6494c93360c301f9af1e415786456",
                    "indexes" : {
                        "data" : 0,
                        "gas" : 0,
                        "value" : 0
                    },
                    "logs" : "0x1dcc4de8dec75d7aab85b567b6ccd41ad312451b948a7413f0a142fd40d49347",
                    "postState" : {
                        "0xa94f5374fce5edbc8e2a8697c15331677e6ebf0b" : {
                            "balance" : "0xe8d49ca9ff",
                            "code" : "0x",
                            "nonce" : "0x01",
                            "storage" : {
                            }
                        },
                        "0xb94f5374fce5edbc8e2a8697c15331677e6ebf0b" : {
                            "balance" : "0x01",
                            "code" : "0x726960016001556001600255600052600a6016f36000526013600d6000f0503d60020a00",
                            "nonce" : "0x01",
                            "storage" : {
                            }
                        }
                    },
                    "txbytes" : "0xf85f800a82d70e94b94f5374fce5edbc8e2a8697c15331677e6ebf0b01801ca0657b3b641025f7b251552c2af1242cbf701078623a65f34886115b9d7c8a2ab2a04abea43044e314bf30692b864ce53967721d044a65eca265ebfa2c395e7099f6"
                }
            ]
        },
        "pre" : {
            "0xa94f5374fce5edbc8e2a8697c15331677e6ebf0b" : {
                "balance" : "0xe8d4a51000",
                "code" : "0x",
                "nonce" : "0x00",
                "storage" : {
                }
            },
            "0xb94f5374fce5edbc8e2a8697c15331677e6ebf0b" : {
                "balance" : "0x00",
                "code" : "0x726960016001556001600255600052600a6016f36000526013600d6000f0503d60020a00",
                "nonce" : "0x00",
                "storage" : {
                }
            }
        },
        "transaction" : {
            "data" : [
                "0x"
            ],
            "gasLimit" : [
                "0xd70e"
            ],
            "gasPrice" : "0x0a",
            "nonce" : "0x00",
            "secretKey" : "0x45a915e4d060149eb4365960e6a7a45f334393093061116b197e3240065ff2d8",
            "to" : "0xb94f5374fce5edbc8e2a8697c15331677e6ebf0b",
            "value" : [
                "0x01"
            ]
        }
    }
}