{
    "CREATE_HighNonceMinus1" : {
        "_info" : {
            "comment" : "",
            "filling-rpc-server" : "evm version 1.11.5-stable-a38f4108",
            "filling-tool-version" : "retesteth-0.3.0-shanghai+commit.e98b5e62.Linux.g++",
            "generatedTestHash" : "13f0de046a1b44a3cbc4f8e516334af4bddf753f5abef7fe89e63f0143a83e28",
            "lllcversion" : "Version: 0.5.14-develop.2023.8.28+commit.b2b86751.Linux.g++",
            "solidity" : "Version: 0.8.17+commit.8df45f5f.Linux.g++",
            "source" : "src/GeneralStateTestsFiller/stCreateTest/CREATE_HighNonceMinus1Filler.yml",
            "sourceHash" : "7638fe7e8eba286d1b1d8944304d6943259006f61d7533cba7aa2e8402f8f406"
        },
        "env" : {
            "currentBaseFee" : "0x0a",
            "currentCoinbase" : "0x2adc25665018aa1fe0e6bc666dac8fc2697ff9ba",
            "currentDifficulty" : "0x020000",
            "currentGasLimit" : "0x05500000",
            "currentNumber" : "0x01",
            "currentRandom" : "0x0000000000000000000000000000000000000000000000000000000000020000",
            "currentTimestamp" : "0x03e8",
            "previousHash" : "0x5e20a0453cecd065ea59c37ac63e079ee08998b6045136a8ce6635c7912ec0b6"
        },
        "post" : {
            "Berlin" : [
                {
                    "hash" : "0xdc65c34d67390fe5d6aa31860874694253ec49293dad0de73da2729640df152c",
                    "indexes" : {
                        "data" : 0,
                        "gas" : 0,
                        "value" : 0
                    },
                    "logs" : "0x1dcc4de8dec75d7aab85b567b6ccd41ad312451b948a7413f0a142fd40d49347",
                    "postState" : {
                        "0x2adc25665018aa1fe0e6bc666dac8fc2697ff9ba" : {
                            "balance" : "0x0ede36",
                            "code" : "0x",
                            "nonce" : "0x00",
                            "storage" : {
                            }
                        },
                        "0xa94f5374fce5edbc8e2a8697c15331677e6ebf0b" : {
                            "balance" : "0x3b8bebca",
                            "code" : "0x",
                            "nonce" : "0x01",
                            "storage" : {
                            }
                        },
                        "0xb94f5374fce5edbc8e2a8697c15331677e6ebf0b" : {
                            "balance" : "0x00",
                            "code" : "0x7f60016000f30000000000000000000000000000000000000000000000000000006000526005600080f060005560018055",
                            "nonce" : "0xffffffffffffffff",
                            "storage" : {
                                "0x00" : "0xd061b08a84ebc70fe797f9bd62f4269ef8274a13",
                                "0x01" : "0x01"
                            }
                        },
                        "0xd061b08a84ebc70fe797f9bd62f4269ef8274a13" : {
                            "balance" : "0x00",
                            "code" : "0x00",
                            "nonce" : "0x01",
                            "storage" : {
                            }
                        }
                    },
                    "txbytes" : "0xf861800a84042c1d8094b94f5374fce5edbc8e2a8697c15331677e6ebf0b80801ca0f141d67812db948c9a4ea43c27d695248205c121ae8d924d23517ab09e38f369a03fe3cfedb4c9a7e61340b6fec87917690e92082f752ad820ad5006c7d49185ed"
                }
            ],
            "Byzantium" : [
                {
                    "hash" : "0x870c021c349115215d73d9a33de3b1a0cc539082cf794d157fde7b7b1ff498be",
                    "indexes" : {
                        "data" : 0,
                        "gas" : 0,
                        "value" : 0
                    },
                    "logs" : "0x1dcc4de8dec75d7aab85b567b6ccd41ad312451b948a7413f0a142fd40d49347",
                    "postState" : {
                        "0x2adc25665018aa1fe0e6bc666dac8fc2697ff9ba" : {
                            "balance" : "0x0e3a26",
                            "code" : "0x",
                            "nonce" : "0x00",
                            "storage" : {
                            }
                        },
                        "0xa94f5374fce5edbc8e2a8697c15331677e6ebf0b" : {
                            "balance" : "0x3b8c8fda",
                            "code" : "0x",
                            "nonce" : "0x01",
                            "storage" : {
                            }
                        },
                        "0xb94f5374fce5edbc8e2a8697c15331677e6ebf0b" : {
                            "balance" : "0x00",
                            "code" : "0x7f60016000f30000000000000000000000000000000000000000000000000000006000526005600080f060005560018055",
                            "nonce" : "0xffffffffffffffff",
                            "storage" : {
                                "0x00" : "0xd061b08a84ebc70fe797f9bd62f4269ef8274a13",
                                "0x01" : "0x01"
                            }
                        },
                        "0xd061b08a84ebc70fe797f9bd62f4269ef8274a13" : {
                            "balance" : "0x00",
                            "code" : "0x00",
                            "nonce" : "0x01",
                            "storage" : {
                            }
                        }
                    },
                    "txbytes" : "0xf861800a84042c1d8094b94f5374fce5edbc8e2a8697c15331677e6ebf0b80801ca0f141d67812db948c9a4ea43c27d695248205c121ae8d924d23517ab09e38f369a03fe3cfedb4c9a7e61340b6fec87917690e92082f752ad820ad5006c7d49185ed"
                }
            ],
            "Constantinople" : [
                {
                    "hash" : "0x870c021c349115215d73d9a33de3b1a0cc539082cf794d157fde7b7b1ff498be",
                    "indexes" : {
                        "data" : 0,
                        "gas" : 0,
                        "value" : 0
                    },
                    "logs" : "0x1dcc4de8dec75d7aab85b567b6ccd41ad312451b948a7413f0a142fd40d49347",
                    "postState" : {
                        "0x2adc25665018aa1fe0e6bc666dac8fc2697ff9ba" : {
                            "balance" : "0x0e3a26",
                            "code" : "0x",
                            "nonce" : "0x00",
                            "storage" : {
                            }
                        },
                        "0xa94f5374fce5edbc8e2a8697c15331677e6ebf0b" : {
                            "balance" : "0x3b8c8fda",
                            "code" : "0x",
                            "nonce" : "0x01",
                            "storage" : {
                            }
                        },
                        "0xb94f5374fce5edbc8e2a8697c15331677e6ebf0b" : {
                            "balance" : "0x00",
                            "code" : "0x7f60016000f30000000000000000000000000000000000000000000000000000006000526005600080f060005560018055",
                            "nonce" : "0xffffffffffffffff",
                            "storage" : {
                                "0x00" : "0xd061b08a84ebc70fe797f9bd62f4269ef8274a13",
                                "0x01" : "0x01"
                            }
                        },
                        "0xd061b08a84ebc70fe797f9bd62f4269ef8274a13" : {
                            "balance" : "0x00",
                            "code" : "0x00",
                            "nonce" : "0x01",
                            "storage" : {
                            }
                        }
                    },
                    "txbytes" : "0xf861800a84042c1d8094b94f5374fce5edbc8e2a8697c15331677e6ebf0b80801ca0f141d67812db948c9a4ea43c27d695248205c121ae8d924d23517ab09e38f369a03fe3cfedb4c9a7e61340b6fec87917690e92082f752ad820ad5006c7d49185ed"
                }
            ],
            "ConstantinopleFix" : [
                {
                    "hash" : "0x870c021c349115215d73d9a33de3b1a0cc539082cf794d157fde7b7b1ff498be",
                    "indexes" : {
                        "data" : 0,
                        "gas" : 0,
                        "value" : 0
                    },
                    "logs" : "0x1dcc4de8dec75d7aab85b567b6ccd41ad312451b948a7413f0a142fd40d49347",
                    "postState" : {
                        "0x2adc25665018aa1fe0e6bc666dac8fc2697ff9ba" : {
                            "balance" : "0x0e3a26",
                            "code" : "0x",
                            "nonce" : "0x00",
                            "storage" : {
                            }
                        },
                        "0xa94f5374fce5edbc8e2a8697c15331677e6ebf0b" : {
                            "balance" : "0x3b8c8fda",
                            "code" : "0x",
                            "nonce" : "0x01",
                            "storage" : {
                            }
                        },
                        "0xb94f5374fce5edbc8e2a8697c15331677e6ebf0b" : {
                            "balance" : "0x00",
                            "code" : "0x7f60016000f30000000000000000000000000000000000000000000000000000006000526005600080f060005560018055",
                            "nonce" : "0xffffffffffffffff",
                            "storage" : {
                                "0x00" : "0xd061b08a84ebc70fe797f9bd62f4269ef8274a13",
                                "0x01" : "0x01"
                            }
                        },
                        "0xd061b08a84ebc70fe797f9bd62f4269ef8274a13" : {
                            "balance" : "0x00",
                            "code" : "0x00",
                            "nonce" : "0x01",
                            "storage" : {
                            }
                        }
                    },
                    "txbytes" : "0xf861800a84042c1d8094b94f5374fce5edbc8e2a8697c15331677e6ebf0b80801ca0f141d67812db948c9a4ea43c27d695248205c121ae8d924d23517ab09e38f369a03fe3cfedb4c9a7e61340b6fec87917690e92082f752ad820ad5006c7d49185ed"
                }
            ],
            "EIP150" : [
                {
                    "hash" : "0x950cfeea7e06f8491ee8d2b3a677dcd60f90e8c9a4b51180470cf2b0a76d0a93",
                    "indexes" : {
                        "data" : 0,
                        "gas" : 0,
                        "value" : 0
                    },
                    "logs" : "0x1dcc4de8dec75d7aab85b567b6ccd41ad312451b948a7413f0a142fd40d49347",
                    "postState" : {
                        "0x2adc25665018aa1fe0e6bc666dac8fc2697ff9ba" : {
                            "balance" : "0x0e3a26",
                            "code" : "0x",
                            "nonce" : "0x00",
                            "storage" : {
                            }
                        },
                        "0xa94f5374fce5edbc8e2a8697c15331677e6ebf0b" : {
                            "balance" : "0x3b8c8fda",
                            "code" : "0x",
                            "nonce" : "0x01",
                            "storage" : {
                            }
                        },
                        "0xb94f5374fce5edbc8e2a8697c15331677e6ebf0b" : {
                            "balance" : "0x00",
                            "code" : "0x7f60016000f30000000000000000000000000000000000000000000000000000006000526005600080f060005560018055",
                            "nonce" : "0xffffffffffffffff",
                            "storage" : {
                                "0x00" : "0xd061b08a84ebc70fe797f9bd62f4269ef8274a13",
                                "0x01" : "0x01"
                            }
                        },
                        "0xd061b08a84ebc70fe797f9bd62f4269ef8274a13" : {
                            "balance" : "0x00",
                            "code" : "0x00",
                            "nonce" : "0x00",
                            "storage" : {
                            }
                        }
                    },
                    "txbytes" : "0xf861800a84042c1d8094b94f5374fce5edbc8e2a8697c15331677e6ebf0b80801ca0f141d67812db948c9a4ea43c27d695248205c121ae8d924d23517ab09e38f369a03fe3cfedb4c9a7e61340b6fec87917690e92082f752ad820ad5006c7d49185ed"
                }
            ],
            "EIP158" : [
                {
                    "hash" : "0x870c021c349115215d73d9a33de3b1a0cc539082cf794d157fde7b7b1ff498be",
                    "indexes" : {
                        "data" : 0,
                        "gas" : 0,
                        "value" : 0
                    },
                    "logs" : "0x1dcc4de8dec75d7aab85b567b6ccd41ad312451b948a7413f0a142fd40d49347",
                    "postState" : {
                        "0x2adc25665018aa1fe0e6bc666dac8fc2697ff9ba" : {
                            "balance" : "0x0e3a26",
                            "code" : "0x",
                            "nonce" : "0x00",
                            "storage" : {
                            }
                        },
                        "0xa94f5374fce5edbc8e2a8697c15331677e6ebf0b" : {
                            "balance" : "0x3b8c8fda",
                            "code" : "0x",
                            "nonce" : "0x01",
                            "storage" : {
                            }
                        },
                        "0xb94f5374fce5edbc8e2a8697c15331677e6ebf0b" : {
                            "balance" : "0x00",
                            "code" : "0x7f60016000f30000000000000000000000000000000000000000000000000000006000526005600080f060005560018055",
                            "nonce" : "0xffffffffffffffff",
                            "storage" : {
                                "0x00" : "0xd061b08a84ebc70fe797f9bd62f4269ef8274a13",
                                "0x01" : "0x01"
                            }
                        },
                        "0xd061b08a84ebc70fe797f9bd62f4269ef8274a13" : {
                            "balance" : "0x00",
                            "code" : "0x00",
                            "nonce" : "0x01",
                            "storage" : {
                            }
                        }
                    },
                    "txbytes" : "0xf861800a84042c1d8094b94f5374fce5edbc8e2a8697c15331677e6ebf0b80801ca0f141d67812db948c9a4ea43c27d695248205c121ae8d924d23517ab09e38f369a03fe3cfedb4c9a7e61340b6fec87917690e92082f752ad820ad5006c7d49185ed"
                }
            ],
            "Frontier" : [
                {
                    "hash" : "0x950cfeea7e06f8491ee8d2b3a677dcd60f90e8c9a4b51180470cf2b0a76d0a93",
                    "indexes" : {
                        "data" : 0,
                        "gas" : 0,
                        "value" : 0
                    },
                    "logs" : "0x1dcc4de8dec75d7aab85b567b6ccd41ad312451b948a7413f0a142fd40d49347",
                    "postState" : {
                        "0x2adc25665018aa1fe0e6bc666dac8fc2697ff9ba" : {
                            "balance" : "0x0e3a26",
                            "code" : "0x",
                            "nonce" : "0x00",
                            "storage" : {
                            }
                        },
                        "0xa94f5374fce5edbc8e2a8697c15331677e6ebf0b" : {
                            "balance" : "0x3b8c8fda",
                            "code" : "0x",
                            "nonce" : "0x01",
                            "storage" : {
                            }
                        },
                        "0xb94f5374fce5edbc8e2a8697c15331677e6ebf0b" : {
                            "balance" : "0x00",
                            "code" : "0x7f60016000f30000000000000000000000000000000000000000000000000000006000526005600080f060005560018055",
                            "nonce" : "0xffffffffffffffff",
                            "storage" : {
                                "0x00" : "0xd061b08a84ebc70fe797f9bd62f4269ef8274a13",
                                "0x01" : "0x01"
                            }
                        },
                        "0xd061b08a84ebc70fe797f9bd62f4269ef8274a13" : {
                            "balance" : "0x00",
                            "code" : "0x00",
                            "nonce" : "0x00",
                            "storage" : {
                            }
                        }
                    },
                    "txbytes" : "0xf861800a84042c1d8094b94f5374fce5edbc8e2a8697c15331677e6ebf0b80801ca0f141d67812db948c9a4ea43c27d695248205c121ae8d924d23517ab09e38f369a03fe3cfedb4c9a7e61340b6fec87917690e92082f752ad820ad5006c7d49185ed"
                }
            ],
            "Homestead" : [
                {
                    "hash" : "0x950cfeea7e06f8491ee8d2b3a677dcd60f90e8c9a4b51180470cf2b0a76d0a93",
                    "indexes" : {
                        "data" : 0,
                        "gas" : 0,
                        "value" : 0
                    },
                    "logs" : "0x1dcc4de8dec75d7aab85b567b6ccd41ad312451b948a7413f0a142fd40d49347",
                    "postState" : {
                        "0x2adc25665018aa1fe0e6bc666dac8fc2697ff9ba" : {
                            "balance" : "0x0e3a26",
                            "code" : "0x",
                            "nonce" : "0x00",
                            "storage" : {
                            }
                        },
                        "0xa94f5374fce5edbc8e2a8697c15331677e6ebf0b" : {
                            "balance" : "0x3b8c8fda",
                            "code" : "0x",
                            "nonce" : "0x01",
                            "storage" : {
                            }
                        },
                        "0xb94f5374fce5edbc8e2a8697c15331677e6ebf0b" : {
                            "balance" : "0x00",
                            "code" : "0x7f60016000f30000000000000000000000000000000000000000000000000000006000526005600080f060005560018055",
                            "nonce" : "0xffffffffffffffff",
                            "storage" : {
                                "0x00" : "0xd061b08a84ebc70fe797f9bd62f4269ef8274a13",
                                "0x01" : "0x01"
                            }
                        },
                        "0xd061b08a84ebc70fe797f9bd62f4269ef8274a13" : {
                            "balance" : "0x00",
                            "code" : "0x00",
                            "nonce" : "0x00",
                            "storage" : {
                            }
                        }
                    },
                    "txbytes" : "0xf861800a84042c1d8094b94f5374fce5edbc8e2a8697c15331677e6ebf0b80801ca0f141d67812db948c9a4ea43c27d695248205c121ae8d924d23517ab09e38f369a03fe3cfedb4c9a7e61340b6fec87917690e92082f752ad820ad5006c7d49185ed"
                }
            ],
            "Istanbul" : [
                {
                    "hash" : "0x870c021c349115215d73d9a33de3b1a0cc539082cf794d157fde7b7b1ff498be",
                    "indexes" : {
                        "data" : 0,
                        "gas" : 0,
                        "value" : 0
                    },
                    "logs" : "0x1dcc4de8dec75d7aab85b567b6ccd41ad312451b948a7413f0a142fd40d49347",
                    "postState" : {
                        "0x2adc25665018aa1fe0e6bc666dac8fc2697ff9ba" : {
                            "balance" : "0x0e3a26",
                            "code" : "0x",
                            "nonce" : "0x00",
                            "storage" : {
                            }
                        },
                        "0xa94f5374fce5edbc8e2a8697c15331677e6ebf0b" : {
                            "balance" : "0x3b8c8fda",
                            "code" : "0x",
                            "nonce" : "0x01",
                            "storage" : {
                            }
                        },
                        "0xb94f5374fce5edbc8e2a8697c15331677e6ebf0b" : {
                            "balance" : "0x00",
                            "code" : "0x7f60016000f30000000000000000000000000000000000000000000000000000006000526005600080f060005560018055",
                            "nonce" : "0xffffffffffffffff",
                            "storage" : {
                                "0x00" : "0xd061b08a84ebc70fe797f9bd62f4269ef8274a13",
                                "0x01" : "0x01"
                            }
                        },
                        "0xd061b08a84ebc70fe797f9bd62f4269ef8274a13" : {
                            "balance" : "0x00",
                            "code" : "0x00",
                            "nonce" : "0x01",
                            "storage" : {
                            }
                        }
                    },
                    "txbytes" : "0xf861800a84042c1d8094b94f5374fce5edbc8e2a8697c15331677e6ebf0b80801ca0f141d67812db948c9a4ea43c27d695248205c121ae8d924d23517ab09e38f369a03fe3cfedb4c9a7e61340b6fec87917690e92082f752ad820ad5006c7d49185ed"
                }
            ],
            "London" : [
                {
                    "hash" : "0x58cc4c60368e1de7719f53561a02812a9e58d2495f3209503b1cfc0cf6f54111",
                    "indexes" : {
                        "data" : 0,
                        "gas" : 0,
                        "value" : 0
                    },
                    "logs" : "0x1dcc4de8dec75d7aab85b567b6ccd41ad312451b948a7413f0a142fd40d49347",
                    "postState" : {
                        "0xa94f5374fce5edbc8e2a8697c15331677e6ebf0b" : {
                            "balance" : "0x3b8bebca",
                            "code" : "0x",
                            "nonce" : "0x01",
                            "storage" : {
                            }
                        },
                        "0xb94f5374fce5edbc8e2a8697c15331677e6ebf0b" : {
                            "balance" : "0x00",
                            "code" : "0x7f60016000f30000000000000000000000000000000000000000000000000000006000526005600080f060005560018055",
                            "nonce" : "0xffffffffffffffff",
                            "storage" : {
                                "0x00" : "0xd061b08a84ebc70fe797f9bd62f4269ef8274a13",
                                "0x01" : "0x01"
                            }
                        },
                        "0xd061b08a84ebc70fe797f9bd62f4269ef8274a13" : {
                            "balance" : "0x00",
                            "code" : "0x00",
                            "nonce" : "0x01",
                            "storage" : {
                            }
                        }
                    },
                    "txbytes" : "0xf861800a84042c1d8094b94f5374fce5edbc8e2a8697c15331677e6ebf0b80801ca0f141d67812db948c9a4ea43c27d695248205c121ae8d924d23517ab09e38f369a03fe3cfedb4c9a7e61340b6fec87917690e92082f752ad820ad5006c7d49185ed"
                }
            ],
            "Merge" : [
                {
                    "hash" : "0x58cc4c60368e1de7719f53561a02812a9e58d2495f3209503b1cfc0cf6f54111",
                    "indexes" : {
                        "data" : 0,
                        "gas" : 0,
                        "value" : 0
                    },
                    "logs" : "0x1dcc4de8dec75d7aab85b567b6ccd41ad312451b948a7413f0a142fd40d49347",
                    "postState" : {
                        "0xa94f5374fce5edbc8e2a8697c15331677e6ebf0b" : {
                            "balance" : "0x3b8bebca",
                            "code" : "0x",
                            "nonce" : "0x01",
                            "storage" : {
                            }
                        },
                        "0xb94f5374fce5edbc8e2a8697c15331677e6ebf0b" : {
                            "balance" : "0x00",
                            "code" : "0x7f60016000f30000000000000000000000000000000000000000000000000000006000526005600080f060005560018055",
                            "nonce" : "0xffffffffffffffff",
                            "storage" : {
                                "0x00" : "0xd061b08a84ebc70fe797f9bd62f4269ef8274a13",
                                "0x01" : "0x01"
                            }
                        },
                        "0xd061b08a84ebc70fe797f9bd62f4269ef8274a13" : {
                            "balance" : "0x00",
                            "code" : "0x00",
                            "nonce" : "0x01",
                            "storage" : {
                            }
                        }
                    },
                    "txbytes" : "0xf861800a84042c1d8094b94f5374fce5edbc8e2a8697c15331677e6ebf0b80801ca0f141d67812db948c9a4ea43c27d695248205c121ae8d924d23517ab09e38f369a03fe3cfedb4c9a7e61340b6fec87917690e92082f752ad820ad5006c7d49185ed"
                }
            ],
            "Shanghai" : [
                {
                    "hash" : "0xb908b2ccdd931f5c9844ba95020d95c0c1c75a03f57ac1173171d7d409a26c63",
                    "indexes" : {
                        "data" : 0,
                        "gas" : 0,
                        "value" : 0
                    },
                    "logs" : "0x1dcc4de8dec75d7aab85b567b6ccd41ad312451b948a7413f0a142fd40d49347",
                    "postState" : {
                        "0xa94f5374fce5edbc8e2a8697c15331677e6ebf0b" : {
                            "balance" : "0x3b8bebb6",
                            "code" : "0x",
                            "nonce" : "0x01",
                            "storage" : {
                            }
                        },
                        "0xb94f5374fce5edbc8e2a8697c15331677e6ebf0b" : {
                            "balance" : "0x00",
                            "code" : "0x7f60016000f30000000000000000000000000000000000000000000000000000006000526005600080f060005560018055",
                            "nonce" : "0xffffffffffffffff",
                            "storage" : {
                                "0x00" : "0xd061b08a84ebc70fe797f9bd62f4269ef8274a13",
                                "0x01" : "0x01"
                            }
                        },
                        "0xd061b08a84ebc70fe797f9bd62f4269ef8274a13" : {
                            "balance" : "0x00",
                            "code" : "0x00",
                            "nonce" : "0x01",
                            "storage" : {
                            }
                        }
                    },
                    "txbytes" : "0xf861800a84042c1d8094b94f5374fce5edbc8e2a8697c15331677e6ebf0b80801ca0f141d67812db948c9a4ea43c27d695248205c121ae8d924d23517ab09e38f369a03fe3cfedb4c9a7e61340b6fec87917690e92082f752ad820ad5006c7d49185ed"
                }
            ]
        },
        "pre" : {
            "0xa94f5374fce5edbc8e2a8697c15331677e6ebf0b" : {
                "balance" : "0x3b9aca00",
                "code" : "0x",
                "nonce" : "0x00",
                "storage" : {
                }
            },
            "0xb94f5374fce5edbc8e2a8697c15331677e6ebf0b" : {
                "balance" : "0x00",
                "code" : "0x7f60016000f30000000000000000000000000000000000000000000000000000006000526005600080f060005560018055",
                "nonce" : "0xfffffffffffffffe",
                "storage" : {
                }
            }
        },
        "transaction" : {
            "data" : [
                "0x"
            ],
            "gasLimit" : [
                "0x042c1d80"
            ],
            "gasPrice" : "0x0a",
            "nonce" : "0x00",
            "secretKey" : "0x45a915e4d060149eb4365960e6a7a45f334393093061116b197e3240065ff2d8",
            "sender" : "0xa94f5374fce5edbc8e2a8697c15331677e6ebf0b",
            "to" : "0xb94f5374fce5edbc8e2a8697c15331677e6ebf0b",
            "value" : [
                "0x00"
            ]
        }
    }
}