{
    "CREATE_EmptyContractWithBalance" : {
        "_info" : {
            "comment" : "",
            "filling-rpc-server" : "evm version 1.11.5-stable-a38f4108",
            "filling-tool-version" : "retesteth-0.3.0-shanghai+commit.e98b5e62.Linux.g++",
            "generatedTestHash" : "90ff0174f081e03cdb8feaf183e67efa66ffc4179917df0d50c8dcc937e92650",
            "lllcversion" : "Version: 0.5.14-develop.2023.8.28+commit.b2b86751.Linux.g++",
            "solidity" : "Version: 0.8.17+commit.8df45f5f.Linux.g++",
            "source" : "src/GeneralStateTestsFiller/stCreateTest/CREATE_EmptyContractWithBalanceFiller.json",
            "sourceHash" : "e41809d3a6a5bbe46c24ecb0787e7dec642a9772161aa980ef93c69577620c98"
        },
        "env" : {
            "currentBaseFee" : "0x0a",
            "currentCoinbase" : "0x2adc25665018aa1fe0e6bc666dac8fc2697ff9ba",
            "currentDifficulty" : "0x020000",
            "currentGasLimit" : "0x989680",
            "currentNumber" : "0x01",
            "currentRandom" : "0x0000000000000000000000000000000000000000000000000000000000020000",
            "currentTimestamp" : "0x03e8",
            "previousHash" : "0x5e20a0453cecd065ea59c37ac63e079ee08998b6045136a8ce6635c7912ec0b6"
        },
        "post" : {
            "Berlin" : [
                {
                    "hash" : "0x5188cd7bf38bab53696d93691e9e871b6eb5c07bb06e6d561ea4f64fdd2144e9",
                    "indexes" : {
                        "data" : 0,
                        "gas" : 0,
                        "value" : 0
                    },
                    "logs" : "0x1dcc4de8dec75d7aab85b567b6ccd41ad312451b948a7413f0a142fd40d49347",
                    "postState" : {
                        "0x2adc25665018aa1fe0e6bc666dac8fc2697ff9ba" : {
                            "balance" : "0x123522",
                            "code" : "0x",
                            "nonce" : "0x00",
                            "storage" : {
                            }
                        },
                        "0xa94f5374fce5edbc8e2a8697c15331677e6ebf0b" : {
                            "balance" : "0xe8d492dade",
                            "code" : "0x",
                            "nonce" : "0x01",
                            "storage" : {
                            }
                        },
                        "0xb94f5374fce5edbc8e2a8697c15331677e6ebf0b" : {
                            "balance" : "0x00",
                            "code" : "0x5a600055602060006001f06001555a60645500",
                            "nonce" : "0x01",
                            "storage" : {
                                "0x00" : "0x08d5b6",
                                "0x01" : "0xf1ecf98489fa9ed60a664fc4998db699cfa39d40",
                                "0x64" : "0x07abfa"
                            }
                        },
                        "0xf1ecf98489fa9ed60a664fc4998db699cfa39d40" : {
                            "balance" : "0x01",
                            "code" : "0x",
                            "nonce" : "0x01",
                            "storage" : {
                            }
                        }
                    },
                    "txbytes" : "0xf860800a830927c094b94f5374fce5edbc8e2a8697c15331677e6ebf0b80801ca065622aa0319be041688699ffcc35390d71659fb43600cba91177760bd5cbe3f7a05d3be8e63e5061a12f6f569ba20df19ea8a844cbe9eba3a85c230f7cd8d70426"
                }
            ],
            "Istanbul" : [
                {
                    "hash" : "0x1323c11846177d8f75bd0482adb9740f234abd964d01fdaca66152d9808f627e",
                    "indexes" : {
                        "data" : 0,
                        "gas" : 0,
                        "value" : 0
                    },
                    "logs" : "0x1dcc4de8dec75d7aab85b567b6ccd41ad312451b948a7413f0a142fd40d49347",
                    "postState" : {
                        "0x2adc25665018aa1fe0e6bc666dac8fc2697ff9ba" : {
                            "balance" : "0x113f0a",
                            "code" : "0x",
                            "nonce" : "0x00",
                            "storage" : {
                            }
                        },
                        "0xa94f5374fce5edbc8e2a8697c15331677e6ebf0b" : {
                            "balance" : "0xe8d493d0f6",
                            "code" : "0x",
                            "nonce" : "0x01",
                            "storage" : {
                            }
                        },
                        "0xb94f5374fce5edbc8e2a8697c15331677e6ebf0b" : {
                            "balance" : "0x00",
                            "code" : "0x5a600055602060006001f06001555a60645500",
                            "nonce" : "0x01",
                            "storage" : {
                                "0x00" : "0x08d5b6",
                                "0x01" : "0xf1ecf98489fa9ed60a664fc4998db699cfa39d40",
                                "0x64" : "0x07bc62"
                            }
                        },
                        "0xf1ecf98489fa9ed60a664fc4998db699cfa39d40" : {
                            "balance" : "0x01",
                            "code" : "0x",
                            "nonce" : "0x01",
                            "storage" : {
                            }
                        }
                    },
                    "txbytes" : "0xf860800a830927c094b94f5374fce5edbc8e2a8697c15331677e6ebf0b80801ca065622aa0319be041688699ffcc35390d71659fb43600cba91177760bd5cbe3f7a05d3be8e63e5061a12f6f569ba20df19ea8a844cbe9eba3a85c230f7cd8d70426"
                }
            ],
            "London" : [
                {
                    "hash" : "0x888734244a7988000394d31d81d7dd1bd426d1a811b59882395326ad084904ab",
                    "indexes" : {
                        "data" : 0,
                        "gas" : 0,
                        "value" : 0
                    },
                    "logs" : "0x1dcc4de8dec75d7aab85b567b6ccd41ad312451b948a7413f0a142fd40d49347",
                    "postState" : {
                        "0xa94f5374fce5edbc8e2a8697c15331677e6ebf0b" : {
                            "balance" : "0xe8d492dade",
                            "code" : "0x",
                            "nonce" : "0x01",
                            "storage" : {
                            }
                        },
                        "0xb94f5374fce5edbc8e2a8697c15331677e6ebf0b" : {
                            "balance" : "0x00",
                            "code" : "0x5a600055602060006001f06001555a60645500",
                            "nonce" : "0x01",
                            "storage" : {
                                "0x00" : "0x08d5b6",
                                "0x01" : "0xf1ecf98489fa9ed60a664fc4998db699cfa39d40",
                                "0x64" : "0x07abfa"
                            }
                        },
                        "0xf1ecf98489fa9ed60a664fc4998db699cfa39d40" : {
                            "balance" : "0x01",
                            "code" : "0x",
                            "nonce" : "0x01",
                            "storage" : {
                            }
                        }
                    },
                    "txbytes" : "0xf860800a830927c094b94f5374fce5edbc8e2a8697c15331677e6ebf0b80801ca065622aa0319be041688699ffcc35390d71659fb43600cba91177760bd5cbe3f7a05d3be8e63e5061a12f6f569ba20df19ea8a844cbe9eba3a85c230f7cd8d70426"
                }
            ],
            "Merge" : [
                {
                    "hash" : "0x888734244a7988000394d31d81d7dd1bd426d1a811b59882395326ad084904ab",
                    "indexes" : {
                        "data" : 0,
                        "gas" : 0,
                        "value" : 0
                    },
                    "logs" : "0x1dcc4de8dec75d7aab85b567b6ccd41ad312451b948a7413f0a142fd40d49347",
                    "postState" : {
                        "0xa94f5374fce5edbc8e2a8697c15331677e6ebf0b" : {
                            "balance" : "0xe8d492dade",
                            "code" : "0x",
                            "nonce" : "0x01",
                            "storage" : {
                            }
                        },
                        "0xb94f5374fce5edbc8e2a8697c15331677e6ebf0b" : {
                            "balance" : "0x00",
                            "code" : "0x5a600055602060006001f06001555a60645500",
                            "nonce" : "0x01",
                            "storage" : {
                                "0x00" : "0x08d5b6",
                                "0x01" : "0xf1ecf98489fa9ed60a664fc4998db699cfa39d40",
                                "0x64" : "0x07abfa"
                            }
                        },
                        "0xf1ecf98489fa9ed60a664fc4998db699cfa39d40" : {
                            "balance" : "0x01",
                            "code" : "0x",
                            "nonce" : "0x01",
                            "storage" : {
                            }
                        }
                    },
                    "txbytes" : "0xf860800a830927c094b94f5374fce5edbc8e2a8697c15331677e6ebf0b80801ca065622aa0319be041688699ffcc35390d71659fb43600cba91177760bd5cbe3f7a05d3be8e63e5061a12f6f569ba20df19ea8a844cbe9eba3a85c230f7cd8d70426"
                }
            ],
            "Shanghai" : [
                {
                    "hash" : "0x42b5a8a3461e5b0a59616905491e91dd82262a03c5768ea86a82f6f01e1a54d4",
                    "indexes" : {
                        "data" : 0,
                        "gas" : 0,
                        "value" : 0
                    },
                    "logs" : "0x1dcc4de8dec75d7aab85b567b6ccd41ad312451b948a7413f0a142fd40d49347",
                    "postState" : {
                        "0xa94f5374fce5edbc8e2a8697c15331677e6ebf0b" : {
                            "balance" : "0xe8d492daca",
                            "code" : "0x",
                            "nonce" : "0x01",
                            "storage" : {
                            }
                        },
                        "0xb94f5374fce5edbc8e2a8697c15331677e6ebf0b" : {
                            "balance" : "0x00",
                            "code" : "0x5a600055602060006001f06001555a60645500",
                            "nonce" : "0x01",
                            "storage" : {
                                "0x00" : "0x08d5b6",
                                "0x01" : "0xf1ecf98489fa9ed60a664fc4998db699cfa39d40",
                                "0x64" : "0x07abf8"
                            }
                        },
                        "0xf1ecf98489fa9ed60a664fc4998db699cfa39d40" : {
                            "balance" : "0x01",
                            "code" : "0x",
                            "nonce" : "0x01",
                            "storage" : {
                            }
                        }
                    },
                    "txbytes" : "0xf860800a830927c094b94f5374fce5edbc8e2a8697c15331677e6ebf0b80801ca065622aa0319be041688699ffcc35390d71659fb43600cba91177760bd5cbe3f7a05d3be8e63e5061a12f6f569ba20df19ea8a844cbe9eba3a85c230f7cd8d70426"
                }
            ]
        },
        "pre" : {
            "0xa94f5374fce5edbc8e2a8697c15331677e6ebf0b" : {
                "balance" : "0xe8d4a51000",
                "code" : "0x",
                "nonce" : "0x00",
                "storage" : {
                }
            },
            "0xb94f5374fce5edbc8e2a8697c15331677e6ebf0b" : {
                "balance" : "0x01",
                "code" : "0x5a600055602060006001f06001555a60645500",
                "nonce" : "0x00",
                "storage" : {
                }
            }
        },
        "transaction" : {
            "data" : [
                "0x"
            ],
            "gasLimit" : [
                "0x0927c0"
            ],
            "gasPrice" : "0x0a",
            "nonce" : "0x00",
            "secretKey" : "0x45a915e4d060149eb4365960e6a7a45f334393093061116b197e3240065ff2d8",
            "sender" : "0xa94f5374fce5edbc8e2a8697c15331677e6ebf0b",
            "to" : "0xb94f5374fce5edbc8e2a8697c15331677e6ebf0b",
            "value" : [
                "0x00"
            ]
        }
    }
}